Product: MDK-ARM Lite 5.10
Component: ARM Compiler 5.04 update 1 (build 49)
Tool: armlink [5040049]

==============================================================================

Section Cross References

    main.o(i.main) refers to sysctl.o(i.SysCtlClockSet) for SysCtlClockSet
    main.o(i.main) refers to termio.o(i.TERMIO_Init) for TERMIO_Init
    main.o(i.main) refers to noretval__2printf.o(.text) for __2printf
    main.o(i.main) refers to enablepa25_pb23_pd7_pf0.o(i.PortFunctionInit) for PortFunctionInit
    main.o(i.main) refers to sci.o(i.XBee_UART_Init) for XBee_UART_Init
    main.o(i.main) refers to pwm10tiva.o(i.PWM_TIVA_Init) for PWM_TIVA_Init
    main.o(i.main) refers to es_framework.o(i.ES_Initialize) for ES_Initialize
    main.o(i.main) refers to es_framework.o(i.ES_Run) for ES_Run
    eventcheckers.o(i.Check4Keystroke) refers to termio.o(i.kbhit) for kbhit
    eventcheckers.o(i.Check4Keystroke) refers to getc.o(.text) for getc
    eventcheckers.o(i.Check4Keystroke) refers to testservice.o(i.PostTestService) for PostTestService
    eventcheckers.o(i.Check4Keystroke) refers to retarget.o(.data) for __stdin
    es_shorttimer.o(i.ES_ShortTimerInit) refers to sysctl.o(i.SysCtlPeripheralEnable) for SysCtlPeripheralEnable
    es_shorttimer.o(i.ES_ShortTimerInit) refers to timer.o(i.TimerConfigure) for TimerConfigure
    es_shorttimer.o(i.ES_ShortTimerInit) refers to timer.o(i.TimerPrescaleSet) for TimerPrescaleSet
    es_shorttimer.o(i.ES_ShortTimerInit) refers to es_shorttimer.o(.data) for .data
    es_shorttimer.o(i.ES_ShortTimerStart) refers to es_shorttimer.o(i.ShortTimerBHandler) for ShortTimerBHandler
    es_shorttimer.o(i.ES_ShortTimerStart) refers to timer.o(i.TimerLoadSet) for TimerLoadSet
==============================================================================

Removing Unused input sections from the image.

    Removing es_shorttimer.o(i.ES_ShortTimerInit), (56 bytes).
    Removing es_shorttimer.o(i.ES_ShortTimerStart), (96 bytes).
    Removing displayservice.o(.constdata), (2 bytes).
    Removing displayservice.o(.constdata), (2 bytes).
    Removing fanservice.o(i.InitFanService), (68 bytes).
    Removing fanservice.o(i.PostFanService), (16 bytes).
    Removing fanservice.o(i.RunFanService), (284 bytes).
    Removing fanservice.o(i.getAmpTemperature), (12 bytes).
    Removing fanservice.o(i.getFanDC), (12 bytes).
    Removing fanservice.o(i.getFanTemperature), (12 bytes).
    Removing fanservice.o(i.setFanDC), (16 bytes).
    Removing fanservice.o(.bss), (16 bytes).
    Removing fanservice.o(.data), (12 bytes).
    Removing pwm10tiva.o(i.PWM_TIVA_SetPulseWidth), (68 bytes).
    Removing sci.o(i.XBee_RX_IntPending), (16 bytes).
    Removing sci.o(i.XBee_TX_DisableInt), (16 bytes).
    Removing sci.o(i.XBee_TX_EnableInt), (16 bytes).
    Removing sci.o(i.XBee_TX_IntPending), (16 bytes).
==============================================================================

Image Symbol Table

    Local Symbols

    Symbol Name                              Value     Ov Type        Size  Object(Section)

    RESET                                    0x00000000   Section      648  startup_rvmdk.o(RESET)
    ../clib/angel/boardlib.s                 0x00000000   Number         0  boardinit3.o ABSOLUTE
    ../clib/angel/boardlib.s                 0x00000000   Number         0  boardinit2.o ABSOLUTE
    ../clib/angel/boardlib.s                 0x00000000   Number         0  boardshut.o ABSOLUTE
    ../clib/angel/boardlib.s                 0x00000000   Number         0  boardinit1.o ABSOLUTE
    ../clib/angel/handlers.s                 0x00000000   Number         0  __scatter_copy.o ABSOLUTE
    ../clib/angel/handlers.s                 0x00000000   Number         0  __scatter_zi.o ABSOLUTE
    ../clib/angel/kernel.s                   0x00000000   Number         0  rtexit2.o ABSOLUTE
    ../clib/angel/kernel.s                   0x00000000   Number         0  rtentry2.o ABSOLUTE
    ../clib/angel/kernel.s                   0x00000000   Number         0  rtentry4.o ABSOLUTE
    ../clib/angel/kernel.s                   0x00000000   Number         0  rtexit.o ABSOLUTE
    ../clib/angel/kernel.s                   0x00000000   Number         0  rtentry.o ABSOLUTE
    ../clib/angel/rt.s                       0x00000000   Number         0  rt_raise.o ABSOLUTE
    ../clib/angel/rt.s                       0x00000000   Number         0  rt_locale.o ABSOLUTE
    ../clib/angel/rt.s                       0x00000000   Number         0  rt_locale_intlibspace.o ABSOLUTE
    ../clib/angel/rt.s                       0x00000000   Number         0  rt_ctype_table.o ABSOLUTE
    ../clib/angel/scatter.s                  0x00000000   Number         0  __scatter.o ABSOLUTE
    ../clib/angel/startup.s                  0x00000000   Number         0  __main.o ABSOLUTE
    ../clib/angel/sys.s                      0x00000000   Number         0  use_no_semi.o ABSOLUTE
    ../clib/angel/sys.s                      0x00000000   Number         0  libspace.o ABSOLUTE
    ../clib/angel/sys.s                      0x00000000   Number         0  sys_stackheap_outer.o ABSOLUTE
    ../clib/angel/sys.s                      0x00000000   Number         0  indicate_semi.o ABSOLUTE
    ../clib/angel/sysapp.c                   0x00000000   Number         0  sys_command.o ABSOLUTE
    ../clib/armsys.c                         0x00000000   Number         0  argv_veneer.o ABSOLUTE
    ../clib/armsys.c                         0x00000000   Number         0  argv_veneer.o ABSOLUTE
    ../clib/armsys.c                         0x00000000   Number         0  no_argv.o ABSOLUTE
    ../clib/armsys.c                         0x00000000   Number         0  _get_argv_nomalloc.o ABSOLUTE
    ../clib/ctype.c                          0x00000000   Number         0  toupper.o ABSOLUTE
    ../clib/heapalloc.c                      0x00000000   Number         0  hrguard.o ABSOLUTE
    ../clib/heapaux.c                        0x00000000   Number         0  heapauxi.o ABSOLUTE
    ../clib/libinit.s                        0x00000000   Number         0  libinit2.o ABSOLUTE
    ../clib/libinit.s                        0x00000000   Number         0  libinit.o ABSOLUTE
    ../clib/libinit.s                        0x00000000   Number         0  libshutdown2.o ABSOLUTE
    ../clib/libinit.s                        0x00000000   Number         0  libshutdown.o ABSOLUTE
    ../clib/locale.s                         0x00000000   Number         0  lc_ctype_c.o ABSOLUTE
    ../clib/memcpset.s                       0x00000000   Number         0  strcmpv7m.o ABSOLUTE
    ../clib/misc.s                           0x00000000   Number         0  printf_stubs.o ABSOLUTE
    ../clib/printf.c                         0x00000000   Number         0  _printf_pad.o ABSOLUTE
    ../clib/printf.c                         0x00000000   Number         0  __printf_nopercent.o ABSOLUTE
    ../clib/printf.c                         0x00000000   Number         0  _printf_char.o ABSOLUTE
    ../clib/printf.c                         0x00000000   Number         0  _printf_char_file.o ABSOLUTE
    ../clib/printf.c                         0x00000000   Number         0  _printf_dec.o ABSOLUTE
    ../clib/printf.c                         0x00000000   Number         0  __printf_flags_wp.o ABSOLUTE
    ../clib/printf.c                         0x00000000   Number         0  __printf_ss_wp.o ABSOLUTE
    ../clib/printf.c                         0x00000000   Number         0  __printf_flags_ss_wp.o ABSOLUTE
    ../clib/printf.c                         0x00000000   Number         0  noretval__2printf.o ABSOLUTE
    ../clib/printf.c                         0x00000000   Number         0  _printf_char_common.o ABSOLUTE
    ../clib/printf.c                         0x00000000   Number         0  __printf_flags.o ABSOLUTE
    ../clib/printf.c                         0x00000000   Number         0  __2printf.o ABSOLUTE
    ../clib/printf.c                         0x00000000   Number         0  __printf_ss.o ABSOLUTE
    ../clib/printf.c                         0x00000000   Number         0  __printf.o ABSOLUTE
    ../clib/printf.c                         0x00000000   Number         0  __printf_flags_ss.o ABSOLUTE
    ../clib/printf.c                         0x00000000   Number         0  __printf_wp.o ABSOLUTE
    ../clib/printf.c                         0x00000000   Number         0  _printf_str.o ABSOLUTE
    ../clib/printf.c                         0x00000000   Number         0  _printf_intcommon.o ABSOLUTE
    ../clib/printf_percent.s                 0x00000000   Number         0  _printf_d.o ABSOLUTE
    ../clib/printf_percent.s                 0x00000000   Number         0  _printf_percent.o ABSOLUTE
    ../clib/printf_percent.s                 0x00000000   Number         0  _printf_s.o ABSOLUTE
    ../clib/printf_percent.s                 0x00000000   Number         0  _printf_percent_end.o ABSOLUTE
    ../clib/signal.c                         0x00000000   Number         0  __raise.o ABSOLUTE
    ../clib/signal.c                         0x00000000   Number         0  defsig_segv_inner.o ABSOLUTE
    ../clib/signal.c                         0x00000000   Number         0  defsig_rtmem_outer.o ABSOLUTE
    ../clib/signal.c                         0x00000000   Number         0  defsig_other.o ABSOLUTE
    ../clib/signal.c                         0x00000000   Number         0  defsig_rtmem_formal.o ABSOLUTE
    ../clib/signal.c                         0x00000000   Number         0  defsig_rtmem_inner.o ABSOLUTE
    ../clib/signal.c                         0x00000000   Number         0  defsig_rtred_inner.o ABSOLUTE
    ../clib/signal.c                         0x00000000   Number         0  defsig_general.o ABSOLUTE
    ../clib/signal.c                         0x00000000   Number         0  defsig_exit.o ABSOLUTE
    ../clib/signal.c                         0x00000000   Number         0  defsig_abrt_inner.o ABSOLUTE
    ../clib/signal.c                         0x00000000   Number         0  defsig_fpe_inner.o ABSOLUTE
    ../clib/signal.c                         0x00000000   Number         0  defsig_stak_inner.o ABSOLUTE
    ../clib/signal.c                         0x00000000   Number         0  defsig_pvfn_inner.o ABSOLUTE
    ../clib/signal.c                         0x00000000   Number         0  defsig_cppl_inner.o ABSOLUTE
    ../clib/signal.s                         0x00000000   Number         0  defsig.o ABSOLUTE
    ../clib/stdio.c                          0x00000000   Number         0  getc.o ABSOLUTE
    ../clib/stdlib.c                         0x00000000   Number         0  rand.o ABSOLUTE
    ../clib/stdlib.c                         0x00000000   Number         0  rand.o ABSOLUTE
    ../clib/stdlib.c                         0x00000000   Number         0  exit.o ABSOLUTE
    ../clib/string.c                         0x00000000   Number         0  strcat.o ABSOLUTE
    ../fplib/d2f.s                           0x00000000   Number         0  d2f.o ABSOLUTE
    ../fplib/daddsub.s                       0x00000000   Number         0  daddsub_clz.o ABSOLUTE
    ../fplib/dflt.s                          0x00000000   Number         0  dflt_clz.o ABSOLUTE
    ../fplib/dmul.s                          0x00000000   Number         0  dmul.o ABSOLUTE
    ../fplib/dnaninf.s                       0x00000000   Number         0  dnaninf.o ABSOLUTE
    ../fplib/dretinf.s                       0x00000000   Number         0  dretinf.o ABSOLUTE
    ../fplib/fpinit.s                        0x00000000   Number         0  fpinit.o ABSOLUTE
    ../fplib/fretinf.s                       0x00000000   Number         0  fretinf.o ABSOLUTE
    ../fplib/usenofp.s                       0x00000000   Number         0  usenofp.o ABSOLUTE
    Source\ADMulti.c                         0x00000000   Number         0  admulti.o ABSOLUTE
    Source\DisplayService.c                  0x00000000   Number         0  displayservice.o ABSOLUTE
    Source\ES_CheckEvents.c                  0x00000000   Number         0  es_checkevents.o ABSOLUTE
    Source\ES_DeferRecall.c                  0x00000000   Number         0  es_deferrecall.o ABSOLUTE
    Source\ES_Framework.c                    0x00000000   Number         0  es_framework.o ABSOLUTE
    Source\ES_LookupTables.c                 0x00000000   Number         0  es_lookuptables.o ABSOLUTE
    Source\ES_Port.c                         0x00000000   Number         0  es_port.o ABSOLUTE
    Source\ES_PostList.c                     0x00000000   Number         0  es_postlist.o ABSOLUTE
    Source\ES_Queue.c                        0x00000000   Number         0  es_queue.o ABSOLUTE
    Source\ES_ShortTimer.c                   0x00000000   Number         0  es_shorttimer.o ABSOLUTE
    Source\ES_Timers.c                       0x00000000   Number         0  es_timers.o ABSOLUTE
    Source\EnablePA25_PB23_PD7_PF0.c         0x00000000   Number         0  enablepa25_pb23_pd7_pf0.o ABSOLUTE
    Source\EventCheckers.c                   0x00000000   Number         0  eventcheckers.o ABSOLUTE
    Source\FanService.c                      0x00000000   Number         0  fanservice.o ABSOLUTE
    Source\FieldGameService.c                0x00000000   Number         0  fieldgameservice.o ABSOLUTE
    Source\Field_TXSM.c                      0x00000000   Number         0  field_txsm.o ABSOLUTE
    Source\GoalBeaconsModule.c               0x00000000   Number         0  goalbeaconsmodule.o ABSOLUTE
    Source\PWM10Tiva.c                       0x00000000   Number         0  pwm10tiva.o ABSOLUTE
    Source\ReloaderEventCheckers.c           0x00000000   Number         0  reloadereventcheckers.o ABSOLUTE
    Source\TestService.c                     0x00000000   Number         0  testservice.o ABSOLUTE
    Source\main.c                            0x00000000   Number         0  main.o ABSOLUTE
    Source\retarget.c                        0x00000000   Number         0  retarget.o ABSOLUTE
    Source\sci.c                             0x00000000   Number         0  sci.o ABSOLUTE
    Source\termio.c                          0x00000000   Number         0  termio.o ABSOLUTE
    Source\uartstdio.c                       0x00000000   Number         0  uartstdio.o ABSOLUTE
    StartUp\startup_rvmdk.S                  0x00000000   Number         0  startup_rvmdk.o ABSOLUTE
    U:\kmjohnso\ME218C_FINALPROJECT\ANSIBLE_CODE\Source\MasterTestHarness.c 0x00000000   Number         0  mastertestharness.o ABSOLUTE
    cpu.c                                    0x00000000   Number         0  cpu.o ABSOLUTE
    cpu.c                                    0x00000000   Number         0  cpu.o ABSOLUTE
    dc.s                                     0x00000000   Number         0  dc.o ABSOLUTE
    gpio.c                                   0x00000000   Number         0  gpio.o ABSOLUTE
    interrupt.c                              0x00000000   Number         0  interrupt.o ABSOLUTE
    pwm.c                                    0x00000000   Number         0  pwm.o ABSOLUTE
    sysctl.c                                 0x00000000   Number         0  sysctl.o ABSOLUTE
    sysctl.c                                 0x00000000   Number         0  sysctl.o ABSOLUTE
    systick.c                                0x00000000   Number         0  systick.o ABSOLUTE
    timer.c                                  0x00000000   Number         0  timer.o ABSOLUTE
    uart.c                                   0x00000000   Number         0  uart.o ABSOLUTE
    $v0                                      0x0000026c   Number         0  startup_rvmdk.o(RESET)
    NmiSR                                    0x00000281   Thumb Code     0  startup_rvmdk.o(RESET)
    FaultISR                                 0x00000283   Thumb Code     0  startup_rvmdk.o(RESET)
    IntDefaultHandler                        0x00000285   Thumb Code     0  startup_rvmdk.o(RESET)
    !!!main                                  0x00000288   Section        8  __main.o(!!!main)
    !!!scatter                               0x00000290   Section       52  __scatter.o(!!!scatter)
    !!handler_copy                           0x000002c4   Section       26  __scatter_copy.o(!!handler_copy)
    !!handler_zi                             0x000002e0   Section       28  __scatter_zi.o(!!handler_zi)
    .ARM.Collect$$_printf_percent$$00000000  0x000002fc   Section        0  _printf_percent.o(.ARM.Collect$$_printf_percent$$00000000)
    .ARM.Collect$$_printf_percent$$00000009  0x000002fc   Section        6  _printf_d.o(.ARM.Collect$$_printf_percent$$00000009)
    .ARM.Collect$$_printf_percent$$00000014  0x00000302   Section        6  _printf_s.o(.ARM.Collect$$_printf_percent$$00000014)
    .ARM.Collect$$_printf_percent$$00000017  0x00000308   Section        4  _printf_percent_end.o(.ARM.Collect$$_printf_percent$$00000017)
    .ARM.Collect$$libinit$$00000000          0x0000030c   Section        2  libinit.o(.ARM.Collect$$libinit$$00000000)
    .ARM.Collect$$libinit$$00000001          0x0000030e   Section        4  libinit2.o(.ARM.Collect$$libinit$$00000001)
    .ARM.Collect$$libinit$$00000008          0x00000312   Section        0  libinit2.o(.ARM.Collect$$libinit$$00000008)
    .ARM.Collect$$libinit$$0000000A          0x00000312   Section        0  libinit2.o(.ARM.Collect$$libinit$$0000000A)
    .ARM.Collect$$libinit$$0000000B          0x00000312   Section        4  libinit2.o(.ARM.Collect$$libinit$$0000000B)
    .ARM.Collect$$libinit$$0000000C          0x00000316   Section        0  libinit2.o(.ARM.Collect$$libinit$$0000000C)
    .ARM.Collect$$libinit$$0000000D          0x00000316   Section        6  libinit2.o(.ARM.Collect$$libinit$$0000000D)
    .ARM.Collect$$libinit$$0000000F          0x0000031c   Section        0  libinit2.o(.ARM.Collect$$libinit$$0000000F)
    .ARM.Collect$$libinit$$00000010          0x0000031c   Section       12  libinit2.o(.ARM.Collect$$libinit$$00000010)
    .ARM.Collect$$libinit$$00000011          0x00000328   Section        0  libinit2.o(.ARM.Collect$$libinit$$00000011)
    .ARM.Collect$$libinit$$00000013          0x00000328   Section        0  libinit2.o(.ARM.Collect$$libinit$$00000013)
    .ARM.Collect$$libinit$$00000015          0x00000328   Section        0  libinit2.o(.ARM.Collect$$libinit$$00000015)
    .ARM.Collect$$libinit$$00000017          0x00000328   Section        0  libinit2.o(.ARM.Collect$$libinit$$00000017)
    .ARM.Collect$$libinit$$00000019          0x00000328   Section        0  libinit2.o(.ARM.Collect$$libinit$$00000019)
    .ARM.Collect$$libinit$$0000001B          0x00000328   Section        0  libinit2.o(.ARM.Collect$$libinit$$0000001B)
    .ARM.Collect$$libinit$$0000001D          0x00000328   Section        0  libinit2.o(.ARM.Collect$$libinit$$0000001D)
    .ARM.Collect$$libinit$$0000001F          0x00000328   Section        0  libinit2.o(.ARM.Collect$$libinit$$0000001F)
    .ARM.Collect$$libinit$$00000021          0x00000328   Section        0  libinit2.o(.ARM.Collect$$libinit$$00000021)
    .ARM.Collect$$libinit$$00000023          0x00000328   Section        0  libinit2.o(.ARM.Collect$$libinit$$00000023)
    .ARM.Collect$$libinit$$0000002A          0x00000328   Section        0  libinit2.o(.ARM.Collect$$libinit$$0000002A)
    .ARM.Collect$$libinit$$0000002C          0x00000328   Section        0  libinit2.o(.ARM.Collect$$libinit$$0000002C)
    .ARM.Collect$$libinit$$0000002E          0x00000328   Section        0  libinit2.o(.ARM.Collect$$libinit$$0000002E)
    .ARM.Collect$$libinit$$00000030          0x00000328   Section        0  libinit2.o(.ARM.Collect$$libinit$$00000030)
    .ARM.Collect$$libinit$$00000031          0x00000328   Section        2  libinit2.o(.ARM.Collect$$libinit$$00000031)
    .ARM.Collect$$libshutdown$$00000000      0x0000032a   Section        2  libshutdown.o(.ARM.Collect$$libshutdown$$00000000)
    .ARM.Collect$$libshutdown$$00000003      0x0000032c   Section        0  libshutdown2.o(.ARM.Collect$$libshutdown$$00000003)
    .ARM.Collect$$libshutdown$$00000006      0x0000032c   Section        0  libshutdown2.o(.ARM.Collect$$libshutdown$$00000006)
    .ARM.Collect$$libshutdown$$00000009      0x0000032c   Section        0  libshutdown2.o(.ARM.Collect$$libshutdown$$00000009)
    .ARM.Collect$$libshutdown$$0000000B      0x0000032c   Section        0  libshutdown2.o(.ARM.Collect$$libshutdown$$0000000B)
    .ARM.Collect$$libshutdown$$0000000E      0x0000032c   Section        0  libshutdown2.o(.ARM.Collect$$libshutdown$$0000000E)
    .ARM.Collect$$libshutdown$$0000000F      0x0000032c   Section        2  libshutdown2.o(.ARM.Collect$$libshutdown$$0000000F)
    .ARM.Collect$$rtentry$$00000000          0x0000032e   Section        0  rtentry.o(.ARM.Collect$$rtentry$$00000000)
    .ARM.Collect$$rtentry$$00000002          0x0000032e   Section        0  rtentry2.o(.ARM.Collect$$rtentry$$00000002)
    .ARM.Collect$$rtentry$$00000004          0x0000032e   Section        6  rtentry4.o(.ARM.Collect$$rtentry$$00000004)
    .ARM.Collect$$rtentry$$00000009          0x00000334   Section        0  rtentry2.o(.ARM.Collect$$rtentry$$00000009)
    .ARM.Collect$$rtentry$$0000000A          0x00000334   Section        4  rtentry2.o(.ARM.Collect$$rtentry$$0000000A)
    .ARM.Collect$$rtentry$$0000000C          0x00000338   Section        0  rtentry2.o(.ARM.Collect$$rtentry$$0000000C)
    .ARM.Collect$$rtentry$$0000000D          0x00000338   Section        8  rtentry2.o(.ARM.Collect$$rtentry$$0000000D)
    .ARM.Collect$$rtexit$$00000000           0x00000340   Section        2  rtexit.o(.ARM.Collect$$rtexit$$00000000)
    .ARM.Collect$$rtexit$$00000002           0x00000342   Section        0  rtexit2.o(.ARM.Collect$$rtexit$$00000002)
    .ARM.Collect$$rtexit$$00000003           0x00000342   Section        4  rtexit2.o(.ARM.Collect$$rtexit$$00000003)
    .ARM.Collect$$rtexit$$00000004           0x00000346   Section        6  rtexit2.o(.ARM.Collect$$rtexit$$00000004)
    .emb_text                                0x0000034c   Section        6  sysctl.o(.emb_text)
    $v0                                      0x0000034c   Number         0  sysctl.o(.emb_text)
    .emb_text                                0x00000354   Section       38  cpu.o(.emb_text)
    $v0                                      0x00000354   Number         0  cpu.o(.emb_text)
    .emb_text                                0x0000037c   Section       52  rand.o(.emb_text)
    .text                                    0x000003b0   Section       24  startup_rvmdk.o(.text)
    $v0                                      0x000003b0   Number         0  startup_rvmdk.o(.text)
    .text                                    0x000003c8   Section        2  use_no_semi.o(.text)
    .text                                    0x000003ca   Section        0  toupper.o(.text)
    .text                                    0x000003e8   Section        0  noretval__2printf.o(.text)
    .text                                    0x00000400   Section        0  _printf_pad.o(.text)
    .text                                    0x0000044e   Section        0  _printf_str.o(.text)
    .text                                    0x000004a0   Section        0  _printf_dec.o(.text)
    .text                                    0x00000514   Section        0  __printf_flags_wp.o(.text)
    .text                                    0x0000064c   Section        0  getc.o(.text)
    .text                                    0x00000650   Section        0  rand.o(.text)
    .text                                    0x0000068c   Section        0  heapauxi.o(.text)
    .text                                    0x00000694   Section       16  rt_ctype_table.o(.text)
    .text                                    0x000006a4   Section        0  _printf_intcommon.o(.text)
    .text                                    0x00000756   Section        0  _printf_char.o(.text)
    .text                                    0x00000784   Section        0  _printf_char_file.o(.text)
    .text                                    0x000007a8   Section        8  rt_locale_intlibspace.o(.text)
    .text                                    0x000007b0   Section        0  _printf_char_common.o(.text)
    _printf_input_char                       0x000007b1   Thumb Code    10  _printf_char_common.o(.text)
    .text                                    0x000007e0   Section        8  libspace.o(.text)
    .text                                    0x000007e8   Section       74  sys_stackheap_outer.o(.text)
    .text                                    0x00000832   Section        0  exit.o(.text)
    .text                                    0x00000840   Section      128  strcmpv7m.o(.text)
    i.Blue_Goal_Detector_A_ISR               0x000008c0   Section        0  goalbeaconsmodule.o(i.Blue_Goal_Detector_A_ISR)
    i.Blue_Goal_Detector_B_ISR               0x000008ec   Section        0  goalbeaconsmodule.o(i.Blue_Goal_Detector_B_ISR)
    i.CPUgetPRIMASK_cpsid                    0x00000918   Section        0  es_port.o(i.CPUgetPRIMASK_cpsid)
    i.CPUsetPRIMASK                          0x00000920   Section        0  es_port.o(i.CPUsetPRIMASK)
    i.Check4Keystroke                        0x00000928   Section        0  eventcheckers.o(i.Check4Keystroke)
    i.Check4ReloadPulse_Blue                 0x00000954   Section        0  reloadereventcheckers.o(i.Check4ReloadPulse_Blue)
    i.Check4ReloadPulse_Red                  0x00000988   Section        0  reloadereventcheckers.o(i.Check4ReloadPulse_Red)
    i.ClearScore                             0x000009bc   Section        0  fieldgameservice.o(i.ClearScore)
    ClearScore                               0x000009bd   Thumb Code    10  fieldgameservice.o(i.ClearScore)
    i.ConstructBroadcastMsg                  0x000009cc   Section        0  field_txsm.o(i.ConstructBroadcastMsg)
    ConstructBroadcastMsg                    0x000009cd   Thumb Code   226  field_txsm.o(i.ConstructBroadcastMsg)
    i.ES_CheckUserEvents                     0x00000ab4   Section        0  es_checkevents.o(i.ES_CheckUserEvents)
    i.ES_DeQueue                             0x00000adc   Section        0  es_queue.o(i.ES_DeQueue)
    i.ES_EnQueueFIFO                         0x00000b30   Section        0  es_queue.o(i.ES_EnQueueFIFO)
    i.ES_GetMSBitSet                         0x00000b78   Section        0  es_lookuptables.o(i.ES_GetMSBitSet)
    i.ES_InitQueue                           0x00000bac   Section        0  es_queue.o(i.ES_InitQueue)
    i.ES_Initialize                          0x00000bbc   Section        0  es_framework.o(i.ES_Initialize)
    i.ES_PostToService                       0x00000c08   Section        0  es_framework.o(i.ES_PostToService)
    i.ES_Run                                 0x00000c40   Section        0  es_framework.o(i.ES_Run)
    i.ES_Timer_GetTime                       0x00000ca0   Section        0  es_timers.o(i.ES_Timer_GetTime)
    i.ES_Timer_Init                          0x00000ca4   Section        0  es_timers.o(i.ES_Timer_Init)
    i.ES_Timer_InitTimer                     0x00000ca8   Section        0  es_timers.o(i.ES_Timer_InitTimer)
    i.ES_Timer_StopTimer                     0x00000ce4   Section        0  es_timers.o(i.ES_Timer_StopTimer)
    i.ES_Timer_Tick_Resp                     0x00000d08   Section        0  es_timers.o(i.ES_Timer_Tick_Resp)
    i.FieldTXIntResponse                     0x00000d74   Section        0  field_txsm.o(i.FieldTXIntResponse)
    i.GPIODirModeSet                         0x00000dac   Section        0  gpio.o(i.GPIODirModeSet)
    i.GPIOPadConfigSet                       0x00000dd4   Section        0  gpio.o(i.GPIOPadConfigSet)
    i.GPIOPinConfigure                       0x00000f10   Section        0  gpio.o(i.GPIOPinConfigure)
    i.GPIOPinTypeGPIOInput                   0x00000f58   Section        0  gpio.o(i.GPIOPinTypeGPIOInput)
    i.GPIOPinTypePWM                         0x00000f74   Section        0  gpio.o(i.GPIOPinTypePWM)
    i.GPIOPinTypeUART                        0x00000f90   Section        0  gpio.o(i.GPIOPinTypeUART)
    i.GetRandomColor                         0x00000fac   Section        0  fieldgameservice.o(i.GetRandomColor)
    GetRandomColor                           0x00000fad   Thumb Code    50  fieldgameservice.o(i.GetRandomColor)
    i.GetTeamID                              0x00000fe4   Section        0  fieldgameservice.o(i.GetTeamID)
    i.InitBlueGoalDetectorA                  0x0000101c   Section        0  goalbeaconsmodule.o(i.InitBlueGoalDetectorA)
    InitBlueGoalDetectorA                    0x0000101d   Thumb Code   144  goalbeaconsmodule.o(i.InitBlueGoalDetectorA)
    i.InitBlueGoalDetectorB                  0x000010bc   Section        0  goalbeaconsmodule.o(i.InitBlueGoalDetectorB)
    InitBlueGoalDetectorB                    0x000010bd   Thumb Code   154  goalbeaconsmodule.o(i.InitBlueGoalDetectorB)
    i.InitDisplayService                     0x0000116c   Section        0  displayservice.o(i.InitDisplayService)
    i.InitFieldGameService                   0x00001184   Section        0  fieldgameservice.o(i.InitFieldGameService)
    i.InitFieldTXService                     0x00001244   Section        0  field_txsm.o(i.InitFieldTXService)
    i.InitGoalBeaconsModule                  0x00001270   Section        0  goalbeaconsmodule.o(i.InitGoalBeaconsModule)
    i.InitRedGoalDetectorA                   0x000012a0   Section        0  goalbeaconsmodule.o(i.InitRedGoalDetectorA)
    InitRedGoalDetectorA                     0x000012a1   Thumb Code   142  goalbeaconsmodule.o(i.InitRedGoalDetectorA)
    i.InitRedGoalDetectorB                   0x00001340   Section        0  goalbeaconsmodule.o(i.InitRedGoalDetectorB)
    InitRedGoalDetectorB                     0x00001341   Thumb Code   152  goalbeaconsmodule.o(i.InitRedGoalDetectorB)
    i.InitTestService                        0x000013ec   Section        0  testservice.o(i.InitTestService)
    i.IntMasterEnable                        0x000013fc   Section        0  interrupt.o(i.IntMasterEnable)
    i.PWMGenConfigure                        0x0000140a   Section        0  pwm.o(i.PWMGenConfigure)
    i.PWMGenEnable                           0x00001430   Section        0  pwm.o(i.PWMGenEnable)
    i.PWMGenPeriodSet                        0x0000143a   Section        0  pwm.o(i.PWMGenPeriodSet)
    i.PWMOutputState                         0x0000144c   Section        0  pwm.o(i.PWMOutputState)
    i.PWMPulseWidthSet                       0x0000145c   Section        0  pwm.o(i.PWMPulseWidthSet)
    i.PWMSyncUpdate                          0x0000147c   Section        0  pwm.o(i.PWMSyncUpdate)
    i.PWM_TIVA_Init                          0x00001480   Section        0  pwm10tiva.o(i.PWM_TIVA_Init)
    i.PWM_TIVA_SetDuty                       0x00001754   Section        0  pwm10tiva.o(i.PWM_TIVA_SetDuty)
    i.PWM_TIVA_SetFreq                       0x000017a8   Section        0  pwm10tiva.o(i.PWM_TIVA_SetFreq)
    i.PWM_TIVA_SetPeriod                     0x000017e4   Section        0  pwm10tiva.o(i.PWM_TIVA_SetPeriod)
    i.PortFunctionInit                       0x00001848   Section        0  enablepa25_pb23_pd7_pf0.o(i.PortFunctionInit)
    i.PostDisplayService                     0x000018e8   Section        0  displayservice.o(i.PostDisplayService)
    i.PostFieldGameService                   0x000018f8   Section        0  fieldgameservice.o(i.PostFieldGameService)
    i.PostFieldTXService                     0x00001908   Section        0  field_txsm.o(i.PostFieldTXService)
    i.PostTestService                        0x00001918   Section        0  testservice.o(i.PostTestService)
    i.QueryFieldGameScore_North              0x00001928   Section        0  fieldgameservice.o(i.QueryFieldGameScore_North)
    i.QueryFieldGameScore_South              0x00001934   Section        0  fieldgameservice.o(i.QueryFieldGameScore_South)
    i.QueryFieldGameShotClockRemaining       0x00001940   Section        0  fieldgameservice.o(i.QueryFieldGameShotClockRemaining)
    i.QueryFieldGameState                    0x00001968   Section        0  fieldgameservice.o(i.QueryFieldGameState)
    i.QueryFieldGameStatus                   0x00001974   Section        0  fieldgameservice.o(i.QueryFieldGameStatus)
    i.QueryFieldRecyclingValue               0x000019a8   Section        0  fieldgameservice.o(i.QueryFieldRecyclingValue)
    i.QueryWinner                            0x000019b4   Section        0  fieldgameservice.o(i.QueryWinner)
    i.Red_Goal_Detector_A_ISR                0x000019c0   Section        0  goalbeaconsmodule.o(i.Red_Goal_Detector_A_ISR)
    i.Red_Goal_Detector_B_ISR                0x000019ec   Section        0  goalbeaconsmodule.o(i.Red_Goal_Detector_B_ISR)
    i.RegualtionTimerOneShotISR              0x00001a18   Section        0  fieldgameservice.o(i.RegualtionTimerOneShotISR)
    i.RunDisplayService                      0x00001a44   Section        0  displayservice.o(i.RunDisplayService)
    i.RunFieldGameService                    0x00001a84   Section        0  fieldgameservice.o(i.RunFieldGameService)
    i.RunFieldTXService                      0x00001bbc   Section        0  field_txsm.o(i.RunFieldTXService)
    i.RunTestService                         0x00001c54   Section        0  testservice.o(i.RunTestService)
    i.ShortTimerAHandler                     0x00001cd0   Section        0  es_shorttimer.o(i.ShortTimerAHandler)
    i.ShortTimerBHandler                     0x00001d04   Section        0  es_shorttimer.o(i.ShortTimerBHandler)
    i.SixteenToEightMSB                      0x00001d3c   Section        0  field_txsm.o(i.SixteenToEightMSB)
    SixteenToEightMSB                        0x00001d3d   Thumb Code     6  field_txsm.o(i.SixteenToEightMSB)
    i.StopGameTimers                         0x00001d44   Section        0  fieldgameservice.o(i.StopGameTimers)
    StopGameTimers                           0x00001d45   Thumb Code    40  fieldgameservice.o(i.StopGameTimers)
    i.StopOneShotRegulationTimer             0x00001d70   Section        0  fieldgameservice.o(i.StopOneShotRegulationTimer)
    StopOneShotRegulationTimer               0x00001d71   Thumb Code    20  fieldgameservice.o(i.StopOneShotRegulationTimer)
    i.SysCtlClockGet                         0x00001d88   Section        0  sysctl.o(i.SysCtlClockGet)
    i.SysCtlClockSet                         0x00001eec   Section        0  sysctl.o(i.SysCtlClockSet)
    i.SysCtlPWMClockSet                      0x0000200c   Section        0  sysctl.o(i.SysCtlPWMClockSet)
    i.SysCtlPeripheralEnable                 0x00002020   Section        0  sysctl.o(i.SysCtlPeripheralEnable)
    i.SysCtlPeripheralReady                  0x00002048   Section        0  sysctl.o(i.SysCtlPeripheralReady)
    i.SysTickEnable                          0x00002074   Section        0  systick.o(i.SysTickEnable)
    i.SysTickIntEnable                       0x00002082   Section        0  systick.o(i.SysTickIntEnable)
    i.SysTickIntHandler                      0x00002090   Section        0  es_port.o(i.SysTickIntHandler)
    i.SysTickPeriodSet                       0x000020a4   Section        0  systick.o(i.SysTickPeriodSet)
    i.TERMIO_GetChar                         0x000020ae   Section        0  termio.o(i.TERMIO_GetChar)
    i.TERMIO_Init                            0x000020b4   Section        0  termio.o(i.TERMIO_Init)
    i.TERMIO_PutChar                         0x00002104   Section        0  termio.o(i.TERMIO_PutChar)
    i.TX_appendXBeePacket                    0x00002110   Section        0  field_txsm.o(i.TX_appendXBeePacket)
    i.TX_getChecksum                         0x00002138   Section        0  field_txsm.o(i.TX_getChecksum)
    i.TimerIntClear                          0x00002168   Section        0  timer.o(i.TimerIntClear)
    i.UART3IntResponse                       0x0000216c   Section        0  sci.o(i.UART3IntResponse)
    i.UARTCharPut                            0x000021a0   Section        0  uart.o(i.UARTCharPut)
    i.UARTClockSourceSet                     0x000021ac   Section        0  uart.o(i.UARTClockSourceSet)
    i.UARTStdioConfig                        0x000021b4   Section        0  uartstdio.o(i.UARTStdioConfig)
    i.UARTgetc                               0x00002210   Section        0  uartstdio.o(i.UARTgetc)
    i.XBee_UART_Init                         0x00002228   Section        0  sci.o(i.XBee_UART_Init)
    i._HW_GetTickCount                       0x00002320   Section        0  es_port.o(i._HW_GetTickCount)
    i._HW_Process_Pending_Ints               0x0000232c   Section        0  es_port.o(i._HW_Process_Pending_Ints)
    i._HW_Timer_Init                         0x0000234c   Section        0  es_port.o(i._HW_Timer_Init)
    i._is_digit                              0x00002362   Section        0  __printf_wp.o(i._is_digit)
    i._sys_exit                              0x00002370   Section        0  retarget.o(i._sys_exit)
    i.ferror                                 0x00002372   Section        0  retarget.o(i.ferror)
    i.fgetc                                  0x00002378   Section        0  retarget.o(i.fgetc)
    i.fputc                                  0x0000237c   Section        0  retarget.o(i.fputc)
    i.kbhit                                  0x0000238c   Section        0  termio.o(i.kbhit)
    i.main                                   0x000023a0   Section        0  main.o(i.main)
    i.printInformationToScreen               0x00002454   Section        0  displayservice.o(i.printInformationToScreen)
    printInformationToScreen                 0x00002455   Thumb Code   326  displayservice.o(i.printInformationToScreen)
    locale$$code                             0x000027a8   Section       44  lc_ctype_c.o(locale$$code)
    x$fpl$fpinit                             0x000027d4   Section       10  fpinit.o(x$fpl$fpinit)
    $v0                                      0x000027d4   Number         0  fpinit.o(x$fpl$fpinit)
    .constdata                               0x000027e0   Section      100  pwm10tiva.o(.constdata)
    Channel2PWMconst                         0x000027e0   Data          40  pwm10tiva.o(.constdata)
    Channel2PWM_MOD                          0x00002808   Data          40  pwm10tiva.o(.constdata)
    Group2GENconst                           0x00002830   Data          20  pwm10tiva.o(.constdata)
    .constdata                               0x00002844   Section       21  fieldgameservice.o(.constdata)
    AssignedColor                            0x00002844   Data           5  fieldgameservice.o(.constdata)
    FreqCode                                 0x00002849   Data          16  fieldgameservice.o(.constdata)
    .constdata                               0x0000285c   Section       12  es_checkevents.o(.constdata)
    ES_EventList                             0x0000285c   Data          12  es_checkevents.o(.constdata)
    .constdata                               0x00002868   Section       64  es_framework.o(.constdata)
    ServDescList                             0x00002868   Data          32  es_framework.o(.constdata)
    EventQueues                              0x00002888   Data          32  es_framework.o(.constdata)
    .constdata                               0x000028a8   Section       32  es_lookuptables.o(.constdata)
    .constdata                               0x000028c8   Section       15  es_lookuptables.o(.constdata)
    .constdata                               0x000028d8   Section       64  es_timers.o(.constdata)
    Timer2PostFunc                           0x000028d8   Data          64  es_timers.o(.constdata)
    .constdata                               0x00002918   Section       28  uartstdio.o(.constdata)
    g_pcHex                                  0x00002918   Data           4  uartstdio.o(.constdata)
    g_ui32UARTBase                           0x0000291c   Data          12  uartstdio.o(.constdata)
    g_ui32UARTPeriph                         0x00002928   Data          12  uartstdio.o(.constdata)
    .constdata                               0x00002934   Section      528  gpio.o(.constdata)
    g_ppui32GPIOIntMapBlizzard               0x00002934   Data         192  gpio.o(.constdata)
    g_ppui32GPIOIntMapSnowflake              0x000029f4   Data         192  gpio.o(.constdata)
    g_pui32GPIOBaseAddrs                     0x00002ab4   Data         144  gpio.o(.constdata)
    .constdata                               0x00002b44   Section      452  sysctl.o(.constdata)
    g_pui32VCOFrequencies                    0x00002b44   Data           8  sysctl.o(.constdata)
    g_pui32Xtals                             0x00002b4c   Data         108  sysctl.o(.constdata)
    g_pppui32XTALtoVCO                       0x00002bb8   Data         288  sysctl.o(.constdata)
    g_sXTALtoMEMTIM                          0x00002cd8   Data          48  sysctl.o(.constdata)
    .constdata                               0x00002d08   Section       17  __printf_flags_wp.o(.constdata)
    maptable                                 0x00002d08   Data          17  __printf_flags_wp.o(.constdata)
    .conststring                             0x00002d1c   Section       17  uartstdio.o(.conststring)
    locale$$data                             0x00002d50   Section      272  lc_ctype_c.o(locale$$data)
    __lcctype_c_name                         0x00002d54   Data           2  lc_ctype_c.o(locale$$data)
    __lcctype_c_start                        0x00002d5c   Data           0  lc_ctype_c.o(locale$$data)
    __lcctype_c_end                          0x00002e60   Data           0  lc_ctype_c.o(locale$$data)
    .data                                    0x20000000   Section        2  es_shorttimer.o(.data)
    Timer_A_Priority                         0x20000000   Data           1  es_shorttimer.o(.data)
    Timer_B_Priority                         0x20000001   Data           1  es_shorttimer.o(.data)
    .data                                    0x20000002   Section        2  displayservice.o(.data)
    MyPriority                               0x20000002   Data           1  displayservice.o(.data)
    RegulationTimeLeft                       0x20000003   Data           1  displayservice.o(.data)
    .data                                    0x20000004   Section        2  pwm10tiva.o(.data)
    MaxConfiguredChannel                     0x20000004   Data           1  pwm10tiva.o(.data)
    i                                        0x20000005   Data           1  pwm10tiva.o(.data)
    .data                                    0x20000006   Section        2  testservice.o(.data)
    MyPriority                               0x20000006   Data           1  testservice.o(.data)
    CurrentState                             0x20000007   Data           1  testservice.o(.data)
    .data                                    0x20000008   Section        5  field_txsm.o(.data)
    MyPriority                               0x20000008   Data           1  field_txsm.o(.data)
    currentState                             0x20000009   Data           1  field_txsm.o(.data)
    nextFID                                  0x2000000a   Data           1  field_txsm.o(.data)
    bufferLen                                0x2000000b   Data           1  field_txsm.o(.data)
    bytesSent                                0x2000000c   Data           1  field_txsm.o(.data)
    .data                                    0x2000000e   Section       24  fieldgameservice.o(.data)
    TeamSet                                  0x2000000e   Data           1  fieldgameservice.o(.data)
    ShotClockSet                             0x2000000f   Data           1  fieldgameservice.o(.data)
    MyPriority                               0x20000010   Data           1  fieldgameservice.o(.data)
    CurrentState                             0x20000011   Data           1  fieldgameservice.o(.data)
    GameStatusByte                           0x20000012   Data           1  fieldgameservice.o(.data)
    GameStatus0_1                            0x20000013   Data           1  fieldgameservice.o(.data)
    GameStatus2_4                            0x20000014   Data           1  fieldgameservice.o(.data)
    GameStatus5_7                            0x20000015   Data           1  fieldgameservice.o(.data)
    TeamFreqs                                0x20000016   Data           1  fieldgameservice.o(.data)
    TeamColors                               0x20000017   Data           1  fieldgameservice.o(.data)
    TeamIdByte                               0x20000018   Data           1  fieldgameservice.o(.data)
    RecyclingCenterColor                     0x20000019   Data           1  fieldgameservice.o(.data)
    RcycValue                                0x2000001a   Data           1  fieldgameservice.o(.data)
    Winner                                   0x2000001b   Data           1  fieldgameservice.o(.data)
    ShotClockStartTime                       0x2000001c   Data           2  fieldgameservice.o(.data)
    RegulationStartTime                      0x2000001e   Data           2  fieldgameservice.o(.data)
    TieBreakStartTime                        0x20000020   Data           2  fieldgameservice.o(.data)
    GameScoreByte_South                      0x20000022   Data           2  fieldgameservice.o(.data)
    GameScoreByte_North                      0x20000024   Data           2  fieldgameservice.o(.data)
    .data                                    0x20000026   Section        2  reloadereventcheckers.o(.data)
    LastRedReloadState                       0x20000026   Data           1  reloadereventcheckers.o(.data)
    LastBlueReloadState                      0x20000027   Data           1  reloadereventcheckers.o(.data)
    .data                                    0x20000028   Section       32  goalbeaconsmodule.o(.data)
    BlueA_Period                             0x20000028   Data           4  goalbeaconsmodule.o(.data)
    BlueA_LastCapture                        0x2000002c   Data           4  goalbeaconsmodule.o(.data)
    BlueB_Period                             0x20000030   Data           4  goalbeaconsmodule.o(.data)
    BlueB_LastCapture                        0x20000034   Data           4  goalbeaconsmodule.o(.data)
    RedA_Period                              0x20000038   Data           4  goalbeaconsmodule.o(.data)
    RedA_LastCapture                         0x2000003c   Data           4  goalbeaconsmodule.o(.data)
    RedB_Period                              0x20000040   Data           4  goalbeaconsmodule.o(.data)
    RedB_LastCapture                         0x20000044   Data           4  goalbeaconsmodule.o(.data)
    .data                                    0x20000048   Section        6  es_framework.o(.data)
    ThisEvent                                0x2000004a   Data           4  es_framework.o(.data)
    .data                                    0x2000004e   Section        4  es_port.o(.data)
    TickCount                                0x2000004e   Data           1  es_port.o(.data)
    SysTickCounter                           0x20000050   Data           2  es_port.o(.data)
    .data                                    0x20000054   Section        4  es_queue.o(.data)
    .data                                    0x20000058   Section       10  es_timers.o(.data)
    NextTimer2Process                        0x20000058   Data           1  es_timers.o(.data)
    NeedsProcessing                          0x2000005a   Data           2  es_timers.o(.data)
    TMR_ActiveFlags                          0x2000005c   Data           2  es_timers.o(.data)
    NewEvent                                 0x2000005e   Data           4  es_timers.o(.data)
    .data                                    0x20000064   Section        4  retarget.o(.data)
    .data                                    0x20000068   Section        4  retarget.o(.data)
    .data                                    0x2000006c   Section        8  uartstdio.o(.data)
    bLastWasCR                               0x2000006c   Data           1  uartstdio.o(.data)
    g_ui32Base                               0x20000070   Data           4  uartstdio.o(.data)
    .bss                                     0x20000074   Section       32  pwm10tiva.o(.bss)
    LocalDuty                                0x20000074   Data          10  pwm10tiva.o(.bss)
    ulPeriod                                 0x20000080   Data          20  pwm10tiva.o(.bss)
    .bss                                     0x20000094   Section     3094  field_txsm.o(.bss)
    DeferralQueue                            0x20000094   Data         516  field_txsm.o(.bss)
    XBeePackets                              0x20000298   Data        2176  field_txsm.o(.bss)
    XBeePacketLen                            0x20000b18   Data         128  field_txsm.o(.bss)
    XBeeTXBuffer                             0x20000b98   Data          17  field_txsm.o(.bss)
    XBeePacketWaitingTime                    0x20000baa   Data         256  field_txsm.o(.bss)
    .bss                                     0x20000caa   Section       24  es_framework.o(.bss)
    Queue0                                   0x20000caa   Data          24  es_framework.o(.bss)
    .bss                                     0x20000cc2   Section       24  es_framework.o(.bss)
    Queue1                                   0x20000cc2   Data          24  es_framework.o(.bss)
    .bss                                     0x20000cda   Section       24  es_framework.o(.bss)
    Queue2                                   0x20000cda   Data          24  es_framework.o(.bss)
    .bss                                     0x20000cf2   Section       24  es_framework.o(.bss)
    Queue3                                   0x20000cf2   Data          24  es_framework.o(.bss)
    .bss                                     0x20000d0a   Section       32  es_timers.o(.bss)
    TMR_TimerArray                           0x20000d0a   Data          32  es_timers.o(.bss)
    .bss                                     0x20000d2c   Section      228  rand.o(.bss)
    .bss                                     0x20000e10   Section       96  libspace.o(.bss)
    HEAP                                     0x20000e70   Section        0  startup_rvmdk.o(HEAP)
    STACK                                    0x20000e70   Section     2048  startup_rvmdk.o(STACK)
    HeapMem                                  0x20000e70   Data           0  startup_rvmdk.o(HEAP)
    StackMem                                 0x20000e70   Data           0  startup_rvmdk.o(STACK)

    Global Symbols

    Symbol Name                              Value     Ov Type        Size  Object(Section)

    BuildAttributes$$THM_ISAv4$E$P$D$K$B$S$7EM$VFPi3$EXTD16$VFPS$VFMA$PE$A:L22UL41UL21$X:L11$S22US41US21$IEEE1$IW$USESV6$~STKCKD$USESV7$~SHL$OTIME$ROPI$EBA8$UX$STANDARDLIB$REQ8$PRES8$EABIv2 0x00000000   Number         0  anon$$obj.o ABSOLUTE
    __ARM_use_no_argv                        0x00000000   Number         0  main.o ABSOLUTE
    __Vectors                                0x00000000   Data           0  startup_rvmdk.o(RESET)
    _printf_flags                            0x00000000   Number         0  printf_stubs.o ABSOLUTE
    _printf_return_value                     0x00000000   Number         0  printf_stubs.o ABSOLUTE
    _printf_sizespec                         0x00000000   Number         0  printf_stubs.o ABSOLUTE
    _printf_widthprec                        0x00000000   Number         0  printf_stubs.o ABSOLUTE
    __ARM_exceptions_init                     - Undefined Weak Reference
    __alloca_initialize                       - Undefined Weak Reference
    __cpp_initialize__aeabi_                  - Undefined Weak Reference
    __cxa_finalize                            - Undefined Weak Reference
    __sigvec_lookup                           - Undefined Weak Reference
    _atexit_init                              - Undefined Weak Reference
    _call_atexit_fns                          - Undefined Weak Reference
    _clock_init                               - Undefined Weak Reference
    _fp_trap_init                             - Undefined Weak Reference
    _fp_trap_shutdown                         - Undefined Weak Reference
    _get_lc_collate                           - Undefined Weak Reference
    _get_lc_monetary                          - Undefined Weak Reference
    _get_lc_numeric                           - Undefined Weak Reference
    _get_lc_time                              - Undefined Weak Reference
    _getenv_init                              - Undefined Weak Reference
    _handle_redirection                       - Undefined Weak Reference
    _init_alloc                               - Undefined Weak Reference
    _init_user_alloc                          - Undefined Weak Reference
    _initio                                   - Undefined Weak Reference
    _printf_mbtowc                            - Undefined Weak Reference
    _printf_truncate_signed                   - Undefined Weak Reference
    _printf_truncate_unsigned                 - Undefined Weak Reference
    _signal_finish                            - Undefined Weak Reference
    _signal_init                              - Undefined Weak Reference
    _terminate_alloc                          - Undefined Weak Reference
    _terminate_user_alloc                     - Undefined Weak Reference
    _terminateio                              - Undefined Weak Reference
    Reset_Handler                            0x0000026d   Thumb Code     0  startup_rvmdk.o(RESET)
    __main                                   0x00000289   Thumb Code     8  __main.o(!!!main)
    __scatterload                            0x00000291   Thumb Code     0  __scatter.o(!!!scatter)
    __scatterload_rt2                        0x00000291   Thumb Code    44  __scatter.o(!!!scatter)
    __scatterload_rt2_thumb_only             0x00000291   Thumb Code     0  __scatter.o(!!!scatter)
    __scatterload_null                       0x0000029f   Thumb Code     0  __scatter.o(!!!scatter)
    __scatterload_copy                       0x000002c5   Thumb Code    26  __scatter_copy.o(!!handler_copy)
    __scatterload_zeroinit                   0x000002e1   Thumb Code    28  __scatter_zi.o(!!handler_zi)
    _printf_d                                0x000002fd   Thumb Code     0  _printf_d.o(.ARM.Collect$$_printf_percent$$00000009)
    _printf_percent                          0x000002fd   Thumb Code     0  _printf_percent.o(.ARM.Collect$$_printf_percent$$00000000)
    _printf_s                                0x00000303   Thumb Code     0  _printf_s.o(.ARM.Collect$$_printf_percent$$00000014)
    _printf_percent_end                      0x00000309   Thumb Code     0  _printf_percent_end.o(.ARM.Collect$$_printf_percent$$00000017)
    __rt_lib_init                            0x0000030d   Thumb Code     0  libinit.o(.ARM.Collect$$libinit$$00000000)
    __rt_lib_init_fp_1                       0x0000030f   Thumb Code     0  libinit2.o(.ARM.Collect$$libinit$$00000001)
    __rt_lib_init_heap_1                     0x00000313   Thumb Code     0  libinit2.o(.ARM.Collect$$libinit$$00000008)
    __rt_lib_init_rand_2                     0x00000313   Thumb Code     0  libinit2.o(.ARM.Collect$$libinit$$0000000B)
    __rt_lib_init_user_alloc_1               0x00000313   Thumb Code     0  libinit2.o(.ARM.Collect$$libinit$$0000000A)
    __rt_lib_init_lc_common                  0x00000317   Thumb Code     0  libinit2.o(.ARM.Collect$$libinit$$0000000D)
    __rt_lib_init_rand_1                     0x00000317   Thumb Code     0  libinit2.o(.ARM.Collect$$libinit$$0000000C)
    __rt_lib_init_lc_collate_1               0x0000031d   Thumb Code     0  libinit2.o(.ARM.Collect$$libinit$$0000000F)
    __rt_lib_init_lc_ctype_2                 0x0000031d   Thumb Code     0  libinit2.o(.ARM.Collect$$libinit$$00000010)
    __rt_lib_init_alloca_1                   0x00000329   Thumb Code     0  libinit2.o(.ARM.Collect$$libinit$$0000002C)
    __rt_lib_init_argv_1                     0x00000329   Thumb Code     0  libinit2.o(.ARM.Collect$$libinit$$0000002A)
    __rt_lib_init_atexit_1                   0x00000329   Thumb Code     0  libinit2.o(.ARM.Collect$$libinit$$00000019)
    __rt_lib_init_clock_1                    0x00000329   Thumb Code     0  libinit2.o(.ARM.Collect$$libinit$$0000001F)
    __rt_lib_init_cpp_1                      0x00000329   Thumb Code     0  libinit2.o(.ARM.Collect$$libinit$$00000030)
    __rt_lib_init_exceptions_1               0x00000329   Thumb Code     0  libinit2.o(.ARM.Collect$$libinit$$0000002E)
    __rt_lib_init_fp_trap_1                  0x00000329   Thumb Code     0  libinit2.o(.ARM.Collect$$libinit$$0000001D)
    __rt_lib_init_getenv_1                   0x00000329   Thumb Code     0  libinit2.o(.ARM.Collect$$libinit$$00000021)
    __rt_lib_init_lc_ctype_1                 0x00000329   Thumb Code     0  libinit2.o(.ARM.Collect$$libinit$$00000011)
    __rt_lib_init_lc_monetary_1              0x00000329   Thumb Code     0  libinit2.o(.ARM.Collect$$libinit$$00000013)
    __rt_lib_init_lc_numeric_1               0x00000329   Thumb Code     0  libinit2.o(.ARM.Collect$$libinit$$00000015)
    __rt_lib_init_lc_time_1                  0x00000329   Thumb Code     0  libinit2.o(.ARM.Collect$$libinit$$00000017)
    __rt_lib_init_return                     0x00000329   Thumb Code     0  libinit2.o(.ARM.Collect$$libinit$$00000031)
    __rt_lib_init_signal_1                   0x00000329   Thumb Code     0  libinit2.o(.ARM.Collect$$libinit$$0000001B)
    __rt_lib_init_stdio_1                    0x00000329   Thumb Code     0  libinit2.o(.ARM.Collect$$libinit$$00000023)
    __rt_lib_shutdown                        0x0000032b   Thumb Code     0  libshutdown.o(.ARM.Collect$$libshutdown$$00000000)
    __rt_lib_shutdown_fp_trap_1              0x0000032d   Thumb Code     0  libshutdown2.o(.ARM.Collect$$libshutdown$$00000006)
    __rt_lib_shutdown_heap_1                 0x0000032d   Thumb Code     0  libshutdown2.o(.ARM.Collect$$libshutdown$$0000000E)
    __rt_lib_shutdown_return                 0x0000032d   Thumb Code     0  libshutdown2.o(.ARM.Collect$$libshutdown$$0000000F)
    __rt_lib_shutdown_signal_1               0x0000032d   Thumb Code     0  libshutdown2.o(.ARM.Collect$$libshutdown$$00000009)
    __rt_lib_shutdown_stdio_1                0x0000032d   Thumb Code     0  libshutdown2.o(.ARM.Collect$$libshutdown$$00000003)
    __rt_lib_shutdown_user_alloc_1           0x0000032d   Thumb Code     0  libshutdown2.o(.ARM.Collect$$libshutdown$$0000000B)
    __rt_entry                               0x0000032f   Thumb Code     0  rtentry.o(.ARM.Collect$$rtentry$$00000000)
    __rt_entry_presh_1                       0x0000032f   Thumb Code     0  rtentry2.o(.ARM.Collect$$rtentry$$00000002)
    __rt_entry_sh                            0x0000032f   Thumb Code     0  rtentry4.o(.ARM.Collect$$rtentry$$00000004)
    __rt_entry_li                            0x00000335   Thumb Code     0  rtentry2.o(.ARM.Collect$$rtentry$$0000000A)
    __rt_entry_postsh_1                      0x00000335   Thumb Code     0  rtentry2.o(.ARM.Collect$$rtentry$$00000009)
    __rt_entry_main                          0x00000339   Thumb Code     0  rtentry2.o(.ARM.Collect$$rtentry$$0000000D)
    __rt_entry_postli_1                      0x00000339   Thumb Code     0  rtentry2.o(.ARM.Collect$$rtentry$$0000000C)
    __rt_exit                                0x00000341   Thumb Code     0  rtexit.o(.ARM.Collect$$rtexit$$00000000)
    __rt_exit_ls                             0x00000343   Thumb Code     0  rtexit2.o(.ARM.Collect$$rtexit$$00000003)
    __rt_exit_prels_1                        0x00000343   Thumb Code     0  rtexit2.o(.ARM.Collect$$rtexit$$00000002)
    __rt_exit_exit                           0x00000347   Thumb Code     0  rtexit2.o(.ARM.Collect$$rtexit$$00000004)
    SysCtlDelay                              0x0000034d   Thumb Code     6  sysctl.o(.emb_text)
    CPUcpsid                                 0x00000355   Thumb Code     8  cpu.o(.emb_text)
    CPUprimask                               0x0000035d   Thumb Code     6  cpu.o(.emb_text)
    CPUcpsie                                 0x00000363   Thumb Code     8  cpu.o(.emb_text)
    CPUwfi                                   0x0000036b   Thumb Code     4  cpu.o(.emb_text)
    CPUbasepriSet                            0x0000036f   Thumb Code     6  cpu.o(.emb_text)
    CPUbasepriGet                            0x00000375   Thumb Code     6  cpu.o(.emb_text)
    rand                                     0x0000037d   Thumb Code    48  rand.o(.emb_text)
    __user_initial_stackheap                 0x000003b1   Thumb Code     0  startup_rvmdk.o(.text)
    __I$use$semihosting                      0x000003c9   Thumb Code     0  use_no_semi.o(.text)
    __use_no_semihosting_swi                 0x000003c9   Thumb Code     2  use_no_semi.o(.text)
    toupper                                  0x000003cb   Thumb Code    30  toupper.o(.text)
    __2printf                                0x000003e9   Thumb Code    20  noretval__2printf.o(.text)
    _printf_pre_padding                      0x00000401   Thumb Code    44  _printf_pad.o(.text)
    _printf_post_padding                     0x0000042d   Thumb Code    34  _printf_pad.o(.text)
    _printf_str                              0x0000044f   Thumb Code    82  _printf_str.o(.text)
    _printf_int_dec                          0x000004a1   Thumb Code   100  _printf_dec.o(.text)
    __printf                                 0x00000515   Thumb Code   308  __printf_flags_wp.o(.text)
    getc                                     0x0000064d   Thumb Code     4  getc.o(.text)
    srand                                    0x00000651   Thumb Code    42  rand.o(.text)
    _rand_init                               0x0000067b   Thumb Code     4  rand.o(.text)
    __use_two_region_memory                  0x0000068d   Thumb Code     2  heapauxi.o(.text)
    __rt_heap_escrow$2region                 0x0000068f   Thumb Code     2  heapauxi.o(.text)
    __rt_heap_expand$2region                 0x00000691   Thumb Code     2  heapauxi.o(.text)
    __rt_ctype_table                         0x00000695   Thumb Code    16  rt_ctype_table.o(.text)
    _printf_int_common                       0x000006a5   Thumb Code   178  _printf_intcommon.o(.text)
    _printf_cs_common                        0x00000757   Thumb Code    20  _printf_char.o(.text)
    _printf_char                             0x0000076b   Thumb Code    16  _printf_char.o(.text)
    _printf_string                           0x0000077b   Thumb Code     8  _printf_char.o(.text)
    _printf_char_file                        0x00000785   Thumb Code    32  _printf_char_file.o(.text)
    __rt_locale                              0x000007a9   Thumb Code     8  rt_locale_intlibspace.o(.text)
    _printf_char_common                      0x000007bb   Thumb Code    32  _printf_char_common.o(.text)
    __user_libspace                          0x000007e1   Thumb Code     8  libspace.o(.text)
    __user_perproc_libspace                  0x000007e1   Thumb Code     0  libspace.o(.text)
    __user_perthread_libspace                0x000007e1   Thumb Code     0  libspace.o(.text)
    __user_setup_stackheap                   0x000007e9   Thumb Code    74  sys_stackheap_outer.o(.text)
    exit                                     0x00000833   Thumb Code    12  exit.o(.text)
    strcmp                                   0x00000841   Thumb Code   128  strcmpv7m.o(.text)
    Blue_Goal_Detector_A_ISR                 0x000008c1   Thumb Code    30  goalbeaconsmodule.o(i.Blue_Goal_Detector_A_ISR)
    Blue_Goal_Detector_B_ISR                 0x000008ed   Thumb Code    32  goalbeaconsmodule.o(i.Blue_Goal_Detector_B_ISR)
    CPUgetPRIMASK_cpsid                      0x00000919   Thumb Code     8  es_port.o(i.CPUgetPRIMASK_cpsid)
    CPUsetPRIMASK                            0x00000921   Thumb Code     6  es_port.o(i.CPUsetPRIMASK)
    Check4Keystroke                          0x00000929   Thumb Code    38  eventcheckers.o(i.Check4Keystroke)
    Check4ReloadPulse_Blue                   0x00000955   Thumb Code    46  reloadereventcheckers.o(i.Check4ReloadPulse_Blue)
    Check4ReloadPulse_Red                    0x00000989   Thumb Code    46  reloadereventcheckers.o(i.Check4ReloadPulse_Red)
    ES_CheckUserEvents                       0x00000ab5   Thumb Code    34  es_checkevents.o(i.ES_CheckUserEvents)
    ES_DeQueue                               0x00000add   Thumb Code    80  es_queue.o(i.ES_DeQueue)
    ES_EnQueueFIFO                           0x00000b31   Thumb Code    66  es_queue.o(i.ES_EnQueueFIFO)
    ES_GetMSBitSet                           0x00000b79   Thumb Code    48  es_lookuptables.o(i.ES_GetMSBitSet)
    ES_InitQueue                             0x00000bad   Thumb Code    16  es_queue.o(i.ES_InitQueue)
    ES_Initialize                            0x00000bbd   Thumb Code    72  es_framework.o(i.ES_Initialize)
    ES_PostToService                         0x00000c09   Thumb Code    42  es_framework.o(i.ES_PostToService)
    ES_Run                                   0x00000c41   Thumb Code    84  es_framework.o(i.ES_Run)
    ES_Timer_GetTime                         0x00000ca1   Thumb Code     4  es_timers.o(i.ES_Timer_GetTime)
    ES_Timer_Init                            0x00000ca5   Thumb Code     4  es_timers.o(i.ES_Timer_Init)
    ES_Timer_InitTimer                       0x00000ca9   Thumb Code    44  es_timers.o(i.ES_Timer_InitTimer)
    ES_Timer_StopTimer                       0x00000ce5   Thumb Code    28  es_timers.o(i.ES_Timer_StopTimer)
    ES_Timer_Tick_Resp                       0x00000d09   Thumb Code    90  es_timers.o(i.ES_Timer_Tick_Resp)
    FieldTXIntResponse                       0x00000d75   Thumb Code    44  field_txsm.o(i.FieldTXIntResponse)
    GPIODirModeSet                           0x00000dad   Thumb Code    40  gpio.o(i.GPIODirModeSet)
    GPIOPadConfigSet                         0x00000dd5   Thumb Code   314  gpio.o(i.GPIOPadConfigSet)
    GPIOPinConfigure                         0x00000f11   Thumb Code    64  gpio.o(i.GPIOPinConfigure)
    GPIOPinTypeGPIOInput                     0x00000f59   Thumb Code    28  gpio.o(i.GPIOPinTypeGPIOInput)
    GPIOPinTypePWM                           0x00000f75   Thumb Code    28  gpio.o(i.GPIOPinTypePWM)
    GPIOPinTypeUART                          0x00000f91   Thumb Code    28  gpio.o(i.GPIOPinTypeUART)
    GetTeamID                                0x00000fe5   Thumb Code    52  fieldgameservice.o(i.GetTeamID)
    InitDisplayService                       0x0000116d   Thumb Code    20  displayservice.o(i.InitDisplayService)
    InitFieldGameService                     0x00001185   Thumb Code   162  fieldgameservice.o(i.InitFieldGameService)
    InitFieldTXService                       0x00001245   Thumb Code    36  field_txsm.o(i.InitFieldTXService)
    InitGoalBeaconsModule                    0x00001271   Thumb Code    48  goalbeaconsmodule.o(i.InitGoalBeaconsModule)
    InitTestService                          0x000013ed   Thumb Code    12  testservice.o(i.InitTestService)
    IntMasterEnable                          0x000013fd   Thumb Code    14  interrupt.o(i.IntMasterEnable)
    PWMGenConfigure                          0x0000140b   Thumb Code    38  pwm.o(i.PWMGenConfigure)
    PWMGenEnable                             0x00001431   Thumb Code    10  pwm.o(i.PWMGenEnable)
    PWMGenPeriodSet                          0x0000143b   Thumb Code    18  pwm.o(i.PWMGenPeriodSet)
    PWMOutputState                           0x0000144d   Thumb Code    16  pwm.o(i.PWMOutputState)
    PWMPulseWidthSet                         0x0000145d   Thumb Code    32  pwm.o(i.PWMPulseWidthSet)
    PWMSyncUpdate                            0x0000147d   Thumb Code     4  pwm.o(i.PWMSyncUpdate)
    PWM_TIVA_Init                            0x00001481   Thumb Code   638  pwm10tiva.o(i.PWM_TIVA_Init)
    PWM_TIVA_SetDuty                         0x00001755   Thumb Code    70  pwm10tiva.o(i.PWM_TIVA_SetDuty)
    PWM_TIVA_SetFreq                         0x000017a9   Thumb Code    50  pwm10tiva.o(i.PWM_TIVA_SetFreq)
    PWM_TIVA_SetPeriod                       0x000017e5   Thumb Code    86  pwm10tiva.o(i.PWM_TIVA_SetPeriod)
    PortFunctionInit                         0x00001849   Thumb Code   132  enablepa25_pb23_pd7_pf0.o(i.PortFunctionInit)
    PostDisplayService                       0x000018e9   Thumb Code    10  displayservice.o(i.PostDisplayService)
    PostFieldGameService                     0x000018f9   Thumb Code    10  fieldgameservice.o(i.PostFieldGameService)
    PostFieldTXService                       0x00001909   Thumb Code    10  field_txsm.o(i.PostFieldTXService)
    PostTestService                          0x00001919   Thumb Code    10  testservice.o(i.PostTestService)
    QueryFieldGameScore_North                0x00001929   Thumb Code     8  fieldgameservice.o(i.QueryFieldGameScore_North)
    QueryFieldGameScore_South                0x00001935   Thumb Code     8  fieldgameservice.o(i.QueryFieldGameScore_South)
    QueryFieldGameShotClockRemaining         0x00001941   Thumb Code    36  fieldgameservice.o(i.QueryFieldGameShotClockRemaining)
    QueryFieldGameState                      0x00001969   Thumb Code     6  fieldgameservice.o(i.QueryFieldGameState)
    QueryFieldGameStatus                     0x00001975   Thumb Code    48  fieldgameservice.o(i.QueryFieldGameStatus)
    QueryFieldRecyclingValue                 0x000019a9   Thumb Code     8  fieldgameservice.o(i.QueryFieldRecyclingValue)
    QueryWinner                              0x000019b5   Thumb Code     6  fieldgameservice.o(i.QueryWinner)
    Red_Goal_Detector_A_ISR                  0x000019c1   Thumb Code    30  goalbeaconsmodule.o(i.Red_Goal_Detector_A_ISR)
    Red_Goal_Detector_B_ISR                  0x000019ed   Thumb Code    32  goalbeaconsmodule.o(i.Red_Goal_Detector_B_ISR)
    RegualtionTimerOneShotISR                0x00001a19   Thumb Code    40  fieldgameservice.o(i.RegualtionTimerOneShotISR)
    RunDisplayService                        0x00001a45   Thumb Code    60  displayservice.o(i.RunDisplayService)
    RunFieldGameService                      0x00001a85   Thumb Code   296  fieldgameservice.o(i.RunFieldGameService)
    RunFieldTXService                        0x00001bbd   Thumb Code   138  field_txsm.o(i.RunFieldTXService)
    RunTestService                           0x00001c55   Thumb Code   120  testservice.o(i.RunTestService)
    ShortTimerAHandler                       0x00001cd1   Thumb Code    42  es_shorttimer.o(i.ShortTimerAHandler)
    ShortTimerBHandler                       0x00001d05   Thumb Code    46  es_shorttimer.o(i.ShortTimerBHandler)
    SysCtlClockGet                           0x00001d89   Thumb Code   314  sysctl.o(i.SysCtlClockGet)
    SysCtlClockSet                           0x00001eed   Thumb Code   270  sysctl.o(i.SysCtlClockSet)
    SysCtlPWMClockSet                        0x0000200d   Thumb Code    14  sysctl.o(i.SysCtlPWMClockSet)
    SysCtlPeripheralEnable                   0x00002021   Thumb Code    36  sysctl.o(i.SysCtlPeripheralEnable)
    SysCtlPeripheralReady                    0x00002049   Thumb Code    40  sysctl.o(i.SysCtlPeripheralReady)
    SysTickEnable                            0x00002075   Thumb Code    14  systick.o(i.SysTickEnable)
    SysTickIntEnable                         0x00002083   Thumb Code    14  systick.o(i.SysTickIntEnable)
    SysTickIntHandler                        0x00002091   Thumb Code    16  es_port.o(i.SysTickIntHandler)
    SysTickPeriodSet                         0x000020a5   Thumb Code    10  systick.o(i.SysTickPeriodSet)
    TERMIO_GetChar                           0x000020af   Thumb Code     4  termio.o(i.TERMIO_GetChar)
    TERMIO_Init                              0x000020b5   Thumb Code    62  termio.o(i.TERMIO_Init)
    TERMIO_PutChar                           0x00002105   Thumb Code     8  termio.o(i.TERMIO_PutChar)
    TX_appendXBeePacket                      0x00002111   Thumb Code    34  field_txsm.o(i.TX_appendXBeePacket)
    TX_getChecksum                           0x00002139   Thumb Code    42  field_txsm.o(i.TX_getChecksum)
    TimerIntClear                            0x00002169   Thumb Code     4  timer.o(i.TimerIntClear)
    UART3IntResponse                         0x0000216d   Thumb Code    48  sci.o(i.UART3IntResponse)
    UARTCharPut                              0x000021a1   Thumb Code    12  uart.o(i.UARTCharPut)
    UARTClockSourceSet                       0x000021ad   Thumb Code     6  uart.o(i.UARTClockSourceSet)
    UARTStdioConfig                          0x000021b5   Thumb Code    82  uartstdio.o(i.UARTStdioConfig)
    UARTgetc                                 0x00002211   Thumb Code    20  uartstdio.o(i.UARTgetc)
    XBee_UART_Init                           0x00002229   Thumb Code   218  sci.o(i.XBee_UART_Init)
    _HW_GetTickCount                         0x00002321   Thumb Code     6  es_port.o(i._HW_GetTickCount)
    _HW_Process_Pending_Ints                 0x0000232d   Thumb Code    26  es_port.o(i._HW_Process_Pending_Ints)
    _HW_Timer_Init                           0x0000234d   Thumb Code    22  es_port.o(i._HW_Timer_Init)
    _is_digit                                0x00002363   Thumb Code    14  __printf_wp.o(i._is_digit)
    _sys_exit                                0x00002371   Thumb Code     2  retarget.o(i._sys_exit)
    ferror                                   0x00002373   Thumb Code     6  retarget.o(i.ferror)
    fgetc                                    0x00002379   Thumb Code     4  retarget.o(i.fgetc)
    fputc                                    0x0000237d   Thumb Code    14  retarget.o(i.fputc)
    kbhit                                    0x0000238d   Thumb Code    16  termio.o(i.kbhit)
    main                                     0x000023a1   Thumb Code    76  main.o(i.main)
    _get_lc_ctype                            0x000027a9   Thumb Code    44  lc_ctype_c.o(locale$$code)
    _fp_init                                 0x000027d5   Thumb Code    10  fpinit.o(x$fpl$fpinit)
    __fplib_config_fpu_vfp                   0x000027dd   Thumb Code     0  fpinit.o(x$fpl$fpinit)
    __fplib_config_pureend_doubles           0x000027dd   Thumb Code     0  fpinit.o(x$fpl$fpinit)
    BitNum2SetMask                           0x000028a8   Data          32  es_lookuptables.o(.constdata)
    Nybble2MSBitNum                          0x000028c8   Data          15  es_lookuptables.o(.constdata)
    Region$$Table$$Base                      0x00002d30   Number         0  anon$$obj.o(Region$$Table)
    Region$$Table$$Limit                     0x00002d50   Number         0  anon$$obj.o(Region$$Table)
    __ctype                                  0x00002d5d   Data           0  lc_ctype_c.o(locale$$data)
    Ready                                    0x20000048   Data           2  es_framework.o(.data)
    _PRIMASK_temp                            0x20000054   Data           4  es_queue.o(.data)
    __stdout                                 0x20000064   Data           4  retarget.o(.data)
    __stdin                                  0x20000068   Data           4  retarget.o(.data)
    _random_number_data                      0x20000d2c   Data         228  rand.o(.bss)
    __libspace_start                         0x20000e10   Data          96  libspace.o(.bss)
    __temporary_stack_top$libspace           0x20000e70   Data           0  libspace.o(.bss)



==============================================================================

Memory Map of the image

  Image Entry point : 0x0000026d

  Load Region LR_IROM1 (Base: 0x00000000, Size: 0x00002ed4, Max: 0x00040000, ABSOLUTE)

    Execution Region ER_IROM1 (Base: 0x00000000, Size: 0x00002e60, Max: 0x00040000, ABSOLUTE)

    Base Addr    Size         Type   Attr      Idx    E Section Name        Object

    0x00000000   0x00000288   Code   RO          789  * RESET               startup_rvmdk.o
    0x00000288   0x00000008   Code   RO         2855  * !!!main             c_w.l(__main.o)
    0x00000290   0x00000034   Code   RO         3049    !!!scatter          c_w.l(__scatter.o)
    0x000002c4   0x0000001a   Code   RO         3051    !!handler_copy      c_w.l(__scatter_copy.o)
    0x000002de   0x00000002   PAD
    0x000002e0   0x0000001c   Code   RO         3053    !!handler_zi        c_w.l(__scatter_zi.o)
    0x000002fc   0x00000000   Code   RO         2843    .ARM.Collect$$_printf_percent$$00000000  c_w.l(_printf_percent.o)
    0x000002fc   0x00000006   Code   RO         2842    .ARM.Collect$$_printf_percent$$00000009  c_w.l(_printf_d.o)
    0x00000302   0x00000006   Code   RO         2841    .ARM.Collect$$_printf_percent$$00000014  c_w.l(_printf_s.o)
    0x00000308   0x00000004   Code   RO         2882    .ARM.Collect$$_printf_percent$$00000017  c_w.l(_printf_percent_end.o)
    0x0000030c   0x00000002   Code   RO         2982    .ARM.Collect$$libinit$$00000000  c_w.l(libinit.o)
    0x0000030e   0x00000004   Code   RO         2883    .ARM.Collect$$libinit$$00000001  c_w.l(libinit2.o)
    0x00000312   0x00000000   Code   RO         2887    .ARM.Collect$$libinit$$00000008  c_w.l(libinit2.o)
    0x00000312   0x00000000   Code   RO         2889    .ARM.Collect$$libinit$$0000000A  c_w.l(libinit2.o)
    0x00000312   0x00000004   Code   RO         2890    .ARM.Collect$$libinit$$0000000B  c_w.l(libinit2.o)
    0x00000316   0x00000000   Code   RO         2891    .ARM.Collect$$libinit$$0000000C  c_w.l(libinit2.o)
    0x00000316   0x00000006   Code   RO         2892    .ARM.Collect$$libinit$$0000000D  c_w.l(libinit2.o)
    0x0000031c   0x00000000   Code   RO         2894    .ARM.Collect$$libinit$$0000000F  c_w.l(libinit2.o)
    0x0000031c   0x0000000c   Code   RO         2895    .ARM.Collect$$libinit$$00000010  c_w.l(libinit2.o)
    0x00000328   0x00000000   Code   RO         2896    .ARM.Collect$$libinit$$00000011  c_w.l(libinit2.o)
    0x00000328   0x00000000   Code   RO         2898    .ARM.Collect$$libinit$$00000013  c_w.l(libinit2.o)
    0x00000328   0x00000000   Code   RO         2900    .ARM.Collect$$libinit$$00000015  c_w.l(libinit2.o)
    0x00000328   0x00000000   Code   RO         2902    .ARM.Collect$$libinit$$00000017  c_w.l(libinit2.o)
    0x00000328   0x00000000   Code   RO         2904    .ARM.Collect$$libinit$$00000019  c_w.l(libinit2.o)
    0x00000328   0x00000000   Code   RO         2906    .ARM.Collect$$libinit$$0000001B  c_w.l(libinit2.o)
    0x00000328   0x00000000   Code   RO         2908    .ARM.Collect$$libinit$$0000001D  c_w.l(libinit2.o)
    0x00000328   0x00000000   Code   RO         2910    .ARM.Collect$$libinit$$0000001F  c_w.l(libinit2.o)
    0x00000328   0x00000000   Code   RO         2912    .ARM.Collect$$libinit$$00000021  c_w.l(libinit2.o)
    0x00000328   0x00000000   Code   RO         2914    .ARM.Collect$$libinit$$00000023  c_w.l(libinit2.o)
    0x00000328   0x00000000   Code   RO         2918    .ARM.Collect$$libinit$$0000002A  c_w.l(libinit2.o)
    0x00000328   0x00000000   Code   RO         2920    .ARM.Collect$$libinit$$0000002C  c_w.l(libinit2.o)
    0x00000328   0x00000000   Code   RO         2922    .ARM.Collect$$libinit$$0000002E  c_w.l(libinit2.o)
    0x00000328   0x00000000   Code   RO         2924    .ARM.Collect$$libinit$$00000030  c_w.l(libinit2.o)
    0x00000328   0x00000002   Code   RO         2925    .ARM.Collect$$libinit$$00000031  c_w.l(libinit2.o)
    0x0000032a   0x00000002   Code   RO         3013    .ARM.Collect$$libshutdown$$00000000  c_w.l(libshutdown.o)
    0x0000032c   0x00000000   Code   RO         3018    .ARM.Collect$$libshutdown$$00000003  c_w.l(libshutdown2.o)
    0x0000032c   0x00000000   Code   RO         3021    .ARM.Collect$$libshutdown$$00000006  c_w.l(libshutdown2.o)
    0x0000032c   0x00000000   Code   RO         3024    .ARM.Collect$$libshutdown$$00000009  c_w.l(libshutdown2.o)
    0x0000032c   0x00000000   Code   RO         3026    .ARM.Collect$$libshutdown$$0000000B  c_w.l(libshutdown2.o)
    0x0000032c   0x00000000   Code   RO         3029    .ARM.Collect$$libshutdown$$0000000E  c_w.l(libshutdown2.o)
    0x0000032c   0x00000002   Code   RO         3030    .ARM.Collect$$libshutdown$$0000000F  c_w.l(libshutdown2.o)
    0x0000032e   0x00000000   Code   RO         2873    .ARM.Collect$$rtentry$$00000000  c_w.l(rtentry.o)
    0x0000032e   0x00000000   Code   RO         2934    .ARM.Collect$$rtentry$$00000002  c_w.l(rtentry2.o)
    0x0000032e   0x00000006   Code   RO         2946    .ARM.Collect$$rtentry$$00000004  c_w.l(rtentry4.o)
    0x00000334   0x00000000   Code   RO         2936    .ARM.Collect$$rtentry$$00000009  c_w.l(rtentry2.o)
    0x00000334   0x00000004   Code   RO         2937    .ARM.Collect$$rtentry$$0000000A  c_w.l(rtentry2.o)
    0x00000338   0x00000000   Code   RO         2939    .ARM.Collect$$rtentry$$0000000C  c_w.l(rtentry2.o)
    0x00000338   0x00000008   Code   RO         2940    .ARM.Collect$$rtentry$$0000000D  c_w.l(rtentry2.o)
    0x00000340   0x00000002   Code   RO         2985    .ARM.Collect$$rtexit$$00000000  c_w.l(rtexit.o)
    0x00000342   0x00000000   Code   RO         2995    .ARM.Collect$$rtexit$$00000002  c_w.l(rtexit2.o)
    0x00000342   0x00000004   Code   RO         2996    .ARM.Collect$$rtexit$$00000003  c_w.l(rtexit2.o)
    0x00000346   0x00000006   Code   RO         2997    .ARM.Collect$$rtexit$$00000004  c_w.l(rtexit2.o)
    0x0000034c   0x00000006   Code   RO         1857    .emb_text           driverlib.lib(sysctl.o)
    0x00000352   0x00000002   PAD
    0x00000354   0x00000026   Code   RO         2793    .emb_text           driverlib.lib(cpu.o)
    0x0000037a   0x00000002   PAD
    0x0000037c   0x00000034   Code   RO         2846    .emb_text           c_w.l(rand.o)
    0x000003b0   0x00000018   Code   RO          790    .text               startup_rvmdk.o
    0x000003c8   0x00000002   Code   RO         2805    .text               c_w.l(use_no_semi.o)
    0x000003ca   0x0000001e   Code   RO         2807    .text               c_w.l(toupper.o)
    0x000003e8   0x00000018   Code   RO         2811    .text               c_w.l(noretval__2printf.o)
    0x00000400   0x0000004e   Code   RO         2815    .text               c_w.l(_printf_pad.o)
    0x0000044e   0x00000052   Code   RO         2817    .text               c_w.l(_printf_str.o)
    0x000004a0   0x00000074   Code   RO         2819    .text               c_w.l(_printf_dec.o)
    0x00000514   0x00000138   Code   RO         2833    .text               c_w.l(__printf_flags_wp.o)
    0x0000064c   0x00000004   Code   RO         2844    .text               c_w.l(getc.o)
    0x00000650   0x0000003c   Code   RO         2847    .text               c_w.l(rand.o)
    0x0000068c   0x00000006   Code   RO         2853    .text               c_w.l(heapauxi.o)
    0x00000692   0x00000002   PAD
    0x00000694   0x00000010   Code   RO         2874    .text               c_w.l(rt_ctype_table.o)
    0x000006a4   0x000000b2   Code   RO         2876    .text               c_w.l(_printf_intcommon.o)
    0x00000756   0x0000002c   Code   RO         2878    .text               c_w.l(_printf_char.o)
    0x00000782   0x00000002   PAD
    0x00000784   0x00000024   Code   RO         2880    .text               c_w.l(_printf_char_file.o)
    0x000007a8   0x00000008   Code   RO         2951    .text               c_w.l(rt_locale_intlibspace.o)
    0x000007b0   0x00000030   Code   RO         2953    .text               c_w.l(_printf_char_common.o)
    0x000007e0   0x00000008   Code   RO         2962    .text               c_w.l(libspace.o)
    0x000007e8   0x0000004a   Code   RO         2965    .text               c_w.l(sys_stackheap_outer.o)
    0x00000832   0x0000000c   Code   RO         2969    .text               c_w.l(exit.o)
    0x0000083e   0x00000002   PAD
    0x00000840   0x00000080   Code   RO         2971    .text               c_w.l(strcmpv7m.o)
    0x000008c0   0x0000002c   Code   RO          665    i.Blue_Goal_Detector_A_ISR  goalbeaconsmodule.o
    0x000008ec   0x0000002c   Code   RO          666    i.Blue_Goal_Detector_B_ISR  goalbeaconsmodule.o
    0x00000918   0x00000008   Code   RO          921    i.CPUgetPRIMASK_cpsid  es_port.o
    0x00000920   0x00000006   Code   RO          927    i.CPUsetPRIMASK     es_port.o
    0x00000926   0x00000002   PAD
    0x00000928   0x0000002c   Code   RO          110    i.Check4Keystroke   eventcheckers.o
    0x00000954   0x00000034   Code   RO          645    i.Check4ReloadPulse_Blue  reloadereventcheckers.o
    0x00000988   0x00000034   Code   RO          646    i.Check4ReloadPulse_Red  reloadereventcheckers.o
    0x000009bc   0x00000010   Code   RO          523    i.ClearScore        fieldgameservice.o
    0x000009cc   0x000000e8   Code   RO          445    i.ConstructBroadcastMsg  field_txsm.o
    0x00000ab4   0x00000028   Code   RO          796    i.ES_CheckUserEvents  es_checkevents.o
    0x00000adc   0x00000054   Code   RO          946    i.ES_DeQueue        es_queue.o
    0x00000b30   0x00000048   Code   RO          947    i.ES_EnQueueFIFO    es_queue.o
    0x00000b78   0x00000034   Code   RO          870    i.ES_GetMSBitSet    es_lookuptables.o
    0x00000bac   0x00000010   Code   RO          949    i.ES_InitQueue      es_queue.o
    0x00000bbc   0x0000004c   Code   RO          822    i.ES_Initialize     es_framework.o
    0x00000c08   0x00000038   Code   RO          824    i.ES_PostToService  es_framework.o
    0x00000c40   0x00000060   Code   RO          826    i.ES_Run            es_framework.o
    0x00000ca0   0x00000004   Code   RO          988    i.ES_Timer_GetTime  es_timers.o
    0x00000ca4   0x00000004   Code   RO          989    i.ES_Timer_Init     es_timers.o
    0x00000ca8   0x0000003c   Code   RO          990    i.ES_Timer_InitTimer  es_timers.o
    0x00000ce4   0x00000024   Code   RO          993    i.ES_Timer_StopTimer  es_timers.o
    0x00000d08   0x0000006c   Code   RO          994    i.ES_Timer_Tick_Resp  es_timers.o
    0x00000d74   0x00000038   Code   RO          446    i.FieldTXIntResponse  field_txsm.o
    0x00000dac   0x00000028   Code   RO         1187    i.GPIODirModeSet    driverlib.lib(gpio.o)
    0x00000dd4   0x0000013a   Code   RO         1197    i.GPIOPadConfigSet  driverlib.lib(gpio.o)
    0x00000f0e   0x00000002   PAD
    0x00000f10   0x00000048   Code   RO         1198    i.GPIOPinConfigure  driverlib.lib(gpio.o)
    0x00000f58   0x0000001c   Code   RO         1207    i.GPIOPinTypeGPIOInput  driverlib.lib(gpio.o)
    0x00000f74   0x0000001c   Code   RO         1219    i.GPIOPinTypePWM    driverlib.lib(gpio.o)
    0x00000f90   0x0000001c   Code   RO         1223    i.GPIOPinTypeUART   driverlib.lib(gpio.o)
    0x00000fac   0x00000038   Code   RO          524    i.GetRandomColor    fieldgameservice.o
    0x00000fe4   0x00000038   Code   RO          525    i.GetTeamID         fieldgameservice.o
    0x0000101c   0x000000a0   Code   RO          667    i.InitBlueGoalDetectorA  goalbeaconsmodule.o
    0x000010bc   0x000000b0   Code   RO          668    i.InitBlueGoalDetectorB  goalbeaconsmodule.o
    0x0000116c   0x00000018   Code   RO          189    i.InitDisplayService  displayservice.o
    0x00001184   0x000000c0   Code   RO          526    i.InitFieldGameService  fieldgameservice.o
    0x00001244   0x0000002c   Code   RO          447    i.InitFieldTXService  field_txsm.o
    0x00001270   0x00000030   Code   RO          669    i.InitGoalBeaconsModule  goalbeaconsmodule.o
    0x000012a0   0x000000a0   Code   RO          670    i.InitRedGoalDetectorA  goalbeaconsmodule.o
    0x00001340   0x000000ac   Code   RO          671    i.InitRedGoalDetectorB  goalbeaconsmodule.o
    0x000013ec   0x00000010   Code   RO          380    i.InitTestService   testservice.o
    0x000013fc   0x0000000e   Code   RO         1512    i.IntMasterEnable   driverlib.lib(interrupt.o)
    0x0000140a   0x00000026   Code   RO         1632    i.PWMGenConfigure   driverlib.lib(pwm.o)
    0x00001430   0x0000000a   Code   RO         1634    i.PWMGenEnable      driverlib.lib(pwm.o)
    0x0000143a   0x00000012   Code   RO         1647    i.PWMGenPeriodSet   driverlib.lib(pwm.o)
    0x0000144c   0x00000010   Code   RO         1654    i.PWMOutputState    driverlib.lib(pwm.o)
    0x0000145c   0x00000020   Code   RO         1657    i.PWMPulseWidthSet  driverlib.lib(pwm.o)
    0x0000147c   0x00000004   Code   RO         1659    i.PWMSyncUpdate     driverlib.lib(pwm.o)
    0x00001480   0x000002d4   Code   RO          289    i.PWM_TIVA_Init     pwm10tiva.o
    0x00001754   0x00000054   Code   RO          290    i.PWM_TIVA_SetDuty  pwm10tiva.o
    0x000017a8   0x0000003c   Code   RO          291    i.PWM_TIVA_SetFreq  pwm10tiva.o
    0x000017e4   0x00000064   Code   RO          292    i.PWM_TIVA_SetPeriod  pwm10tiva.o
    0x00001848   0x000000a0   Code   RO          409    i.PortFunctionInit  enablepa25_pb23_pd7_pf0.o
    0x000018e8   0x00000010   Code   RO          190    i.PostDisplayService  displayservice.o
    0x000018f8   0x00000010   Code   RO          527    i.PostFieldGameService  fieldgameservice.o
    0x00001908   0x00000010   Code   RO          448    i.PostFieldTXService  field_txsm.o
    0x00001918   0x00000010   Code   RO          381    i.PostTestService   testservice.o
    0x00001928   0x0000000c   Code   RO          528    i.QueryFieldGameScore_North  fieldgameservice.o
    0x00001934   0x0000000c   Code   RO          529    i.QueryFieldGameScore_South  fieldgameservice.o
    0x00001940   0x00000028   Code   RO          530    i.QueryFieldGameShotClockRemaining  fieldgameservice.o
    0x00001968   0x0000000c   Code   RO          531    i.QueryFieldGameState  fieldgameservice.o
    0x00001974   0x00000034   Code   RO          532    i.QueryFieldGameStatus  fieldgameservice.o
    0x000019a8   0x0000000c   Code   RO          533    i.QueryFieldRecyclingValue  fieldgameservice.o
    0x000019b4   0x0000000c   Code   RO          536    i.QueryWinner       fieldgameservice.o
    0x000019c0   0x0000002c   Code   RO          672    i.Red_Goal_Detector_A_ISR  goalbeaconsmodule.o
    0x000019ec   0x0000002c   Code   RO          673    i.Red_Goal_Detector_B_ISR  goalbeaconsmodule.o
    0x00001a18   0x0000002c   Code   RO          537    i.RegualtionTimerOneShotISR  fieldgameservice.o
    0x00001a44   0x00000040   Code   RO          191    i.RunDisplayService  displayservice.o
    0x00001a84   0x00000138   Code   RO          538    i.RunFieldGameService  fieldgameservice.o
    0x00001bbc   0x00000098   Code   RO          450    i.RunFieldTXService  field_txsm.o
    0x00001c54   0x0000007c   Code   RO          382    i.RunTestService    testservice.o
    0x00001cd0   0x00000034   Code   RO          151    i.ShortTimerAHandler  es_shorttimer.o
    0x00001d04   0x00000038   Code   RO          152    i.ShortTimerBHandler  es_shorttimer.o
    0x00001d3c   0x00000006   Code   RO          451    i.SixteenToEightMSB  field_txsm.o
    0x00001d42   0x00000002   PAD
    0x00001d44   0x0000002c   Code   RO          539    i.StopGameTimers    fieldgameservice.o
    0x00001d70   0x00000018   Code   RO          540    i.StopOneShotRegulationTimer  fieldgameservice.o
    0x00001d88   0x00000164   Code   RO         1860    i.SysCtlClockGet    driverlib.lib(sysctl.o)
    0x00001eec   0x00000120   Code   RO         1862    i.SysCtlClockSet    driverlib.lib(sysctl.o)
    0x0000200c   0x00000014   Code   RO         1886    i.SysCtlPWMClockSet  driverlib.lib(sysctl.o)
    0x00002020   0x00000028   Code   RO         1891    i.SysCtlPeripheralEnable  driverlib.lib(sysctl.o)
    0x00002048   0x0000002c   Code   RO         1895    i.SysCtlPeripheralReady  driverlib.lib(sysctl.o)
    0x00002074   0x0000000e   Code   RO         2200    i.SysTickEnable     driverlib.lib(systick.o)
    0x00002082   0x0000000e   Code   RO         2202    i.SysTickIntEnable  driverlib.lib(systick.o)
    0x00002090   0x00000014   Code   RO          887    i.SysTickIntHandler  es_port.o
    0x000020a4   0x0000000a   Code   RO         2206    i.SysTickPeriodSet  driverlib.lib(systick.o)
    0x000020ae   0x00000004   Code   RO         1090    i.TERMIO_GetChar    termio.o
    0x000020b2   0x00000002   PAD
    0x000020b4   0x00000050   Code   RO         1091    i.TERMIO_Init       termio.o
    0x00002104   0x0000000c   Code   RO         1092    i.TERMIO_PutChar    termio.o
    0x00002110   0x00000028   Code   RO          452    i.TX_appendXBeePacket  field_txsm.o
    0x00002138   0x00000030   Code   RO          454    i.TX_getChecksum    field_txsm.o
    0x00002168   0x00000004   Code   RO         2276    i.TimerIntClear     driverlib.lib(timer.o)
    0x0000216c   0x00000034   Code   RO          332    i.UART3IntResponse  sci.o
    0x000021a0   0x0000000c   Code   RO         2512    i.UARTCharPut       driverlib.lib(uart.o)
    0x000021ac   0x00000006   Code   RO         2516    i.UARTClockSourceSet  driverlib.lib(uart.o)
    0x000021b2   0x00000002   PAD
    0x000021b4   0x0000005c   Code   RO         1130    i.UARTStdioConfig   uartstdio.o
    0x00002210   0x00000018   Code   RO         1131    i.UARTgetc          uartstdio.o
    0x00002228   0x000000f8   Code   RO          337    i.XBee_UART_Init    sci.o
    0x00002320   0x0000000c   Code   RO          888    i._HW_GetTickCount  es_port.o
    0x0000232c   0x00000020   Code   RO          889    i._HW_Process_Pending_Ints  es_port.o
    0x0000234c   0x00000016   Code   RO          890    i._HW_Timer_Init    es_port.o
    0x00002362   0x0000000e   Code   RO         2831    i._is_digit         c_w.l(__printf_wp.o)
    0x00002370   0x00000002   Code   RO         1040    i._sys_exit         retarget.o
    0x00002372   0x00000006   Code   RO         1042    i.ferror            retarget.o
    0x00002378   0x00000004   Code   RO         1043    i.fgetc             retarget.o
    0x0000237c   0x0000000e   Code   RO         1044    i.fputc             retarget.o
    0x0000238a   0x00000002   PAD
    0x0000238c   0x00000014   Code   RO         1093    i.kbhit             termio.o
    0x000023a0   0x000000b4   Code   RO            1    i.main              main.o
    0x00002454   0x00000354   Code   RO          192    i.printInformationToScreen  displayservice.o
    0x000027a8   0x0000002c   Code   RO         2956    locale$$code        c_w.l(lc_ctype_c.o)
    0x000027d4   0x0000000a   Code   RO         2960    x$fpl$fpinit        fz_wm.l(fpinit.o)
    0x000027de   0x00000002   PAD
    0x000027e0   0x00000064   Data   RO          295    .constdata          pwm10tiva.o
    0x00002844   0x00000015   Data   RO          541    .constdata          fieldgameservice.o
    0x00002859   0x00000003   PAD
    0x0000285c   0x0000000c   Data   RO          797    .constdata          es_checkevents.o
    0x00002868   0x00000040   Data   RO          831    .constdata          es_framework.o
    0x000028a8   0x00000020   Data   RO          871    .constdata          es_lookuptables.o
    0x000028c8   0x0000000f   Data   RO          872    .constdata          es_lookuptables.o
    0x000028d7   0x00000001   PAD
    0x000028d8   0x00000040   Data   RO          996    .constdata          es_timers.o
    0x00002918   0x0000001c   Data   RO         1136    .constdata          uartstdio.o
    0x00002934   0x00000210   Data   RO         1230    .constdata          driverlib.lib(gpio.o)
    0x00002b44   0x000001c4   Data   RO         1912    .constdata          driverlib.lib(sysctl.o)
    0x00002d08   0x00000011   Data   RO         2834    .constdata          c_w.l(__printf_flags_wp.o)
    0x00002d19   0x00000003   PAD
    0x00002d1c   0x00000011   Data   RO         1137    .conststring        uartstdio.o
    0x00002d2d   0x00000003   PAD
    0x00002d30   0x00000020   Data   RO         3047    Region$$Table       anon$$obj.o
    0x00002d50   0x00000110   Data   RO         2955    locale$$data        c_w.l(lc_ctype_c.o)


    Execution Region RW_IRAM1 (Base: 0x20000000, Size: 0x00001670, Max: 0x00008000, ABSOLUTE)

    Base Addr    Size         Type   Attr      Idx    E Section Name        Object

    0x20000000   0x00000002   Data   RW          153    .data               es_shorttimer.o
    0x20000002   0x00000002   Data   RW          195    .data               displayservice.o
    0x20000004   0x00000002   Data   RW          296    .data               pwm10tiva.o
    0x20000006   0x00000002   Data   RW          383    .data               testservice.o
    0x20000008   0x00000005   Data   RW          458    .data               field_txsm.o
    0x2000000d   0x00000001   PAD
    0x2000000e   0x00000018   Data   RW          542    .data               fieldgameservice.o
    0x20000026   0x00000002   Data   RW          647    .data               reloadereventcheckers.o
    0x20000028   0x00000020   Data   RW          674    .data               goalbeaconsmodule.o
    0x20000048   0x00000006   Data   RW          832    .data               es_framework.o
    0x2000004e   0x00000004   Data   RW          891    .data               es_port.o
    0x20000052   0x00000002   PAD
    0x20000054   0x00000004   Data   RW          951    .data               es_queue.o
    0x20000058   0x0000000a   Data   RW          997    .data               es_timers.o
    0x20000062   0x00000002   PAD
    0x20000064   0x00000004   Data   RW         1045    .data               retarget.o
    0x20000068   0x00000004   Data   RW         1046    .data               retarget.o
    0x2000006c   0x00000008   Data   RW         1138    .data               uartstdio.o
    0x20000074   0x00000020   Zero   RW          294    .bss                pwm10tiva.o
    0x20000094   0x00000c16   Zero   RW          457    .bss                field_txsm.o
    0x20000caa   0x00000018   Zero   RW          827    .bss                es_framework.o
    0x20000cc2   0x00000018   Zero   RW          828    .bss                es_framework.o
    0x20000cda   0x00000018   Zero   RW          829    .bss                es_framework.o
    0x20000cf2   0x00000018   Zero   RW          830    .bss                es_framework.o
    0x20000d0a   0x00000020   Zero   RW          995    .bss                es_timers.o
    0x20000d2a   0x00000002   PAD
    0x20000d2c   0x000000e4   Zero   RW         2848    .bss                c_w.l(rand.o)
    0x20000e10   0x00000060   Zero   RW         2963    .bss                c_w.l(libspace.o)
    0x20000e70   0x00000000   Zero   RW          788    HEAP                startup_rvmdk.o
    0x20000e70   0x00000800   Zero   RW          787    STACK               startup_rvmdk.o


==============================================================================

Image component sizes


      Code (inc. data)   RO Data    RW Data    ZI Data      Debug   Object Name

       956        540          0          2          0       4006   displayservice.o
       160         28          0          0          0        603   enablepa25_pb23_pd7_pf0.o
        40          6         12          0          0       1221   es_checkevents.o
       228         30         64          6         96       3032   es_framework.o
        52          4         47          0          0       1330   es_lookuptables.o
       100         16          0          4          0       4161   es_port.o
       172         10          0          4          0       2505   es_queue.o
       108         20          0          2          0       2160   es_shorttimer.o
       212         42         64         10         32       3534   es_timers.o
        44          6          0          0          0       1802   eventcheckers.o
       594         58          0          5       3094       6641   field_txsm.o
       912        122         21         24          0      11797   fieldgameservice.o
       892        128          0         32          0       6306   goalbeaconsmodule.o
       180        104          0          0          0      10039   main.o
       968        136        100          2         32       3971   pwm10tiva.o
       104         12          0          2          0       1645   reloadereventcheckers.o
        26          0          0          8          0       3739   retarget.o
       300         34          0          0          0       1144   sci.o
       672        636          0          0       2048        580   startup_rvmdk.o
       116         26          0          0          0       2012   termio.o
       156         14          0          2          0       1949   testservice.o
       116         14         45          8          0       2796   uartstdio.o

    ----------------------------------------------------------------------
      7116       1986        392        116       5304      76973   Object Totals
         0          0         32          0          0          0   (incl. Generated)
         8          0          7          5          2          0   (incl. Padding)

    ----------------------------------------------------------------------

      Code (inc. data)   RO Data    RW Data    ZI Data      Debug   Library Member Name

         8          0          0          0          0         68   __main.o
       312          4         17          0          0         92   __printf_flags_wp.o
        14          0          0          0          0         68   __printf_wp.o
        52          8          0          0          0          0   __scatter.o
        26          0          0          0          0          0   __scatter_copy.o
        28          0          0          0          0          0   __scatter_zi.o
        44          0          0          0          0        108   _printf_char.o
        48          6          0          0          0         96   _printf_char_common.o
        36          4          0          0          0         80   _printf_char_file.o
         6          0          0          0          0          0   _printf_d.o
       116         16          0          0          0         92   _printf_dec.o
       178          0          0          0          0         88   _printf_intcommon.o
        78          0          0          0          0        108   _printf_pad.o
         0          0          0          0          0          0   _printf_percent.o
         4          0          0          0          0          0   _printf_percent_end.o
         6          0          0          0          0          0   _printf_s.o
        82          0          0          0          0         80   _printf_str.o
        12          0          0          0          0         72   exit.o
         4          0          0          0          0         68   getc.o
         6          0          0          0          0        152   heapauxi.o
        44         10        272          0          0         76   lc_ctype_c.o
         2          0          0          0          0          0   libinit.o
        28          0          0          0          0          0   libinit2.o
         2          0          0          0          0          0   libshutdown.o
         2          0          0          0          0          0   libshutdown2.o
         8          4          0          0         96         68   libspace.o
        24          4          0          0          0         84   noretval__2printf.o
       112         18          0          0        228        160   rand.o
        16          4          0          0          0         76   rt_ctype_table.o
         8          4          0          0          0         68   rt_locale_intlibspace.o
         0          0          0          0          0          0   rtentry.o
        12          0          0          0          0          0   rtentry2.o
         6          0          0          0          0          0   rtentry4.o
         2          0          0          0          0          0   rtexit.o
        10          0          0          0          0          0   rtexit2.o
       128          0          0          0          0         68   strcmpv7m.o
        74          0          0          0          0         80   sys_stackheap_outer.o
        30          0          0          0          0         76   toupper.o
         2          0          0          0          0         68   use_no_semi.o
        38          0          0          0          0        504   cpu.o
       510          8        528          0          0       6885   gpio.o
        14          0          0          0          0        450   interrupt.o
       118          0          0          0          0       2735   pwm.o
       754         74        452          0          0       4831   sysctl.o
        38          0          0          0          0       1218   systick.o
         4          0          0          0          0        424   timer.o
        18          0          0          0          0        867   uart.o
        10          0          0          0          0        116   fpinit.o

    ----------------------------------------------------------------------
      3092        164       1272          0        324      20026   Library Totals
        18          0          3          0          0          0   (incl. Padding)

    ----------------------------------------------------------------------

      Code (inc. data)   RO Data    RW Data    ZI Data      Debug   Library Name

      1570         82        289          0        324       1996   c_w.l
      1494         82        980          0          0      17914   driverlib.lib
        10          0          0          0          0        116   fz_wm.l

    ----------------------------------------------------------------------
      3092        164       1272          0        324      20026   Library Totals

    ----------------------------------------------------------------------

==============================================================================


      Code (inc. data)   RO Data    RW Data    ZI Data      Debug   

     10208       2150       1664        116       5628      85859   Grand Totals
     10208       2150       1664        116       5628      85859   ELF Image Totals
     10208       2150       1664        116          0          0   ROM Totals

==============================================================================

    Total RO  Size (Code + RO Data)                11872 (  11.59kB)
    Total RW  Size (RW Data + ZI Data)              5744 (   5.61kB)
    Total ROM Size (Code + RO Data + RW Data)      11988 (  11.71kB)

==============================================================================

