

Microchip MPLAB XC8 Assembler V2.05 build -831301201 
                                                                                               Tue Feb 19 13:50:05 2019

Microchip MPLAB XC8 C Compiler v2.05 (Free license) build 20181220022703 Og1 
     1                           	processor	16F690
     2                           	opt	pw 120
     3                           	opt	flic
     4                           	psect	idataBANK0,global,class=CODE,delta=2
     5                           	psect	strings,global,class=STRING,delta=2
     6                           	psect	cinit,global,class=CODE,merge=1,delta=2
     7                           	psect	bssCOMMON,global,class=COMMON,space=1,delta=1
     8                           	psect	bssBANK0,global,class=BANK0,space=1,delta=1
     9                           	psect	dataBANK0,global,class=BANK0,space=1,delta=1
    10                           	psect	bssBANK1,global,class=BANK1,space=1,delta=1
    11                           	psect	clrtext,global,class=CODE,delta=2
    12                           	psect	cstackCOMMON,global,class=COMMON,space=1,delta=1
    13                           	psect	cstackBANK0,global,class=BANK0,space=1,delta=1
    14                           	psect	maintext,global,class=CODE,split=1,delta=2
    15                           	psect	jmp_tab__ES_Run,global,class=ENTRY,delta=2
    16                           	psect	text1,local,class=CODE,merge=1,delta=2
    17                           	psect	text2,local,class=CODE,merge=1,delta=2
    18                           	psect	text3,local,class=CODE,merge=1,delta=2
    19                           	psect	text4,local,class=CODE,merge=1,delta=2
    20                           	psect	text5,local,class=CODE,merge=1,delta=2
    21                           	psect	text6,local,class=CODE,merge=1,delta=2
    22                           	psect	text7,local,class=CODE,merge=1,delta=2
    23                           	psect	text8,local,class=CODE,merge=1,delta=2
    24                           	psect	text9,local,class=CODE,merge=1,delta=2
    25                           	psect	text10,local,class=CODE,merge=1,delta=2
    26                           	psect	text11,local,class=CODE,merge=1,delta=2
    27                           	psect	text12,local,class=CODE,merge=1,delta=2
    28                           	psect	text13,local,class=CODE,merge=1,delta=2
    29                           	psect	text14,local,class=CODE,merge=1,delta=2
    30                           	psect	text15,local,class=CODE,merge=1,delta=2
    31                           	psect	text16,local,class=CODE,merge=1,delta=2
    32                           	psect	text17,local,class=CODE,merge=1,delta=2
    33                           	psect	text18,local,class=CODE,merge=1,delta=2,group=1
    34                           	psect	text19,local,class=CODE,merge=1,delta=2
    35                           	psect	text20,local,class=CODE,merge=1,delta=2
    36                           	psect	text21,local,class=CODE,merge=1,delta=2
    37                           	psect	intentry,global,class=CODE,delta=2
    38                           	psect	text22,local,class=CODE,merge=1,inline,delta=2
    39                           	psect	text23,local,class=CODE,merge=1,delta=2
    40                           	psect	text24,local,class=CODE,merge=1,inline,delta=2
    41                           	psect	text25,local,class=CODE,merge=1,inline,delta=2
    42                           	psect	text26,local,class=CODE,merge=1,delta=2
    43                           	psect	functab,global,class=ENTRY,delta=2
    44                           	dabs	1,0x7E,2
    45  0000                     
    46                           ; Version 2.05
    47                           ; Generated 20/12/2018 GMT
    48                           ; 
    49                           ; Copyright © 2018, Microchip Technology Inc. and its subsidiaries ("Microchip")
    50                           ; All rights reserved.
    51                           ; 
    52                           ; This software is developed by Microchip Technology Inc. and its subsidiaries ("Microch
      +                          ip").
    53                           ; 
    54                           ; Redistribution and use in source and binary forms, with or without modification, are
    55                           ; permitted provided that the following conditions are met:
    56                           ; 
    57                           ;     1. Redistributions of source code must retain the above copyright notice, this lis
      +                          t of
    58                           ;        conditions and the following disclaimer.
    59                           ; 
    60                           ;     2. Redistributions in binary form must reproduce the above copyright notice, this 
      +                          list
    61                           ;        of conditions and the following disclaimer in the documentation and/or other
    62                           ;        materials provided with the distribution.
    63                           ; 
    64                           ;     3. Microchip's name may not be used to endorse or promote products derived from th
      +                          is
    65                           ;        software without specific prior written permission.
    66                           ; 
    67                           ; THIS SOFTWARE IS PROVIDED BY MICROCHIP "AS IS" AND ANY EXPRESS OR IMPLIED WARRANTIES,
    68                           ; INCLUDING, BUT NOT LIMITED TO, THE IMPLIED WARRANTIES OF MERCHANTABILITY AND FITNESS F
      +                          OR
    69                           ; PURPOSE ARE DISCLAIMED.  IN NO EVENT SHALL MICROCHIP BE LIABLE FOR ANY DIRECT, INDIREC
      +                          T,
    70                           ; INCIDENTAL, SPECIAL, EXEMPLARY, OR CONSEQUENTIAL DAMAGES (INCLUDING BUT NOT LIMITED TO
    71                           ; PROCUREMENT OF SUBSTITUTE GOODS OR SERVICES; LOSS OF USE, DATA OR PROFITS; OR BUSINESS
    72                           ; INTERRUPTION) HOWSOEVER CAUSED AND ON ANY THEORY OF LIABILITY, WHETHER IN CONTRACT, ST
      +                          RICT
    73                           ; LIABILITY, OR TORT (INCLUDING NEGLIGENCE OR OTHERWISE) ARISING IN ANY WAY OUT OF THE U
      +                          SE OF
    74                           ; THIS SOFTWARE, EVEN IF ADVISED OF THE POSSIBILITY OF SUCH DAMAGE.
    75                           ; 
    76                           ; 
    77                           ; Code-generator required, PIC16F690 Definitions
    78                           ; 
    79                           ; SFR Addresses
    80  0000                     	;# 
    81  0001                     	;# 
    82  0002                     	;# 
    83  0003                     	;# 
    84  0004                     	;# 
    85  0005                     	;# 
    86  0006                     	;# 
    87  0007                     	;# 
    88  000A                     	;# 
    89  000B                     	;# 
    90  000C                     	;# 
    91  000D                     	;# 
    92  000E                     	;# 
    93  000E                     	;# 
    94  000F                     	;# 
    95  0010                     	;# 
    96  0011                     	;# 
    97  0012                     	;# 
    98  0013                     	;# 
    99  0014                     	;# 
   100  0015                     	;# 
   101  0015                     	;# 
   102  0016                     	;# 
   103  0017                     	;# 
   104  0018                     	;# 
   105  0019                     	;# 
   106  001A                     	;# 
   107  001C                     	;# 
   108  001D                     	;# 
   109  001E                     	;# 
   110  001F                     	;# 
   111  0081                     	;# 
   112  0085                     	;# 
   113  0086                     	;# 
   114  0087                     	;# 
   115  008C                     	;# 
   116  008D                     	;# 
   117  008E                     	;# 
   118  008F                     	;# 
   119  0090                     	;# 
   120  0092                     	;# 
   121  0093                     	;# 
   122  0093                     	;# 
   123  0093                     	;# 
   124  0094                     	;# 
   125  0095                     	;# 
   126  0095                     	;# 
   127  0096                     	;# 
   128  0096                     	;# 
   129  0097                     	;# 
   130  0098                     	;# 
   131  0099                     	;# 
   132  009A                     	;# 
   133  009B                     	;# 
   134  009E                     	;# 
   135  009F                     	;# 
   136  010C                     	;# 
   137  010C                     	;# 
   138  010D                     	;# 
   139  010E                     	;# 
   140  010F                     	;# 
   141  0115                     	;# 
   142  0116                     	;# 
   143  0118                     	;# 
   144  0119                     	;# 
   145  011A                     	;# 
   146  011B                     	;# 
   147  011E                     	;# 
   148  011F                     	;# 
   149  018C                     	;# 
   150  018D                     	;# 
   151  019D                     	;# 
   152  019E                     	;# 
   153  0000                     	;# 
   154  0001                     	;# 
   155  0002                     	;# 
   156  0003                     	;# 
   157  0004                     	;# 
   158  0005                     	;# 
   159  0006                     	;# 
   160  0007                     	;# 
   161  000A                     	;# 
   162  000B                     	;# 
   163  000C                     	;# 
   164  000D                     	;# 
   165  000E                     	;# 
   166  000E                     	;# 
   167  000F                     	;# 
   168  0010                     	;# 
   169  0011                     	;# 
   170  0012                     	;# 
   171  0013                     	;# 
   172  0014                     	;# 
   173  0015                     	;# 
   174  0015                     	;# 
   175  0016                     	;# 
   176  0017                     	;# 
   177  0018                     	;# 
   178  0019                     	;# 
   179  001A                     	;# 
   180  001C                     	;# 
   181  001D                     	;# 
   182  001E                     	;# 
   183  001F                     	;# 
   184  0081                     	;# 
   185  0085                     	;# 
   186  0086                     	;# 
   187  0087                     	;# 
   188  008C                     	;# 
   189  008D                     	;# 
   190  008E                     	;# 
   191  008F                     	;# 
   192  0090                     	;# 
   193  0092                     	;# 
   194  0093                     	;# 
   195  0093                     	;# 
   196  0093                     	;# 
   197  0094                     	;# 
   198  0095                     	;# 
   199  0095                     	;# 
   200  0096                     	;# 
   201  0096                     	;# 
   202  0097                     	;# 
   203  0098                     	;# 
   204  0099                     	;# 
   205  009A                     	;# 
   206  009B                     	;# 
   207  009E                     	;# 
   208  009F                     	;# 
   209  010C                     	;# 
   210  010C                     	;# 
   211  010D                     	;# 
   212  010E                     	;# 
   213  010F                     	;# 
   214  0115                     	;# 
   215  0116                     	;# 
   216  0118                     	;# 
   217  0119                     	;# 
   218  011A                     	;# 
   219  011B                     	;# 
   220  011E                     	;# 
   221  011F                     	;# 
   222  018C                     	;# 
   223  018D                     	;# 
   224  019D                     	;# 
   225  019E                     	;# 
   226  0000                     	;# 
   227  0001                     	;# 
   228  0002                     	;# 
   229  0003                     	;# 
   230  0004                     	;# 
   231  0005                     	;# 
   232  0006                     	;# 
   233  0007                     	;# 
   234  000A                     	;# 
   235  000B                     	;# 
   236  000C                     	;# 
   237  000D                     	;# 
   238  000E                     	;# 
   239  000E                     	;# 
   240  000F                     	;# 
   241  0010                     	;# 
   242  0011                     	;# 
   243  0012                     	;# 
   244  0013                     	;# 
   245  0014                     	;# 
   246  0015                     	;# 
   247  0015                     	;# 
   248  0016                     	;# 
   249  0017                     	;# 
   250  0018                     	;# 
   251  0019                     	;# 
   252  001A                     	;# 
   253  001C                     	;# 
   254  001D                     	;# 
   255  001E                     	;# 
   256  001F                     	;# 
   257  0081                     	;# 
   258  0085                     	;# 
   259  0086                     	;# 
   260  0087                     	;# 
   261  008C                     	;# 
   262  008D                     	;# 
   263  008E                     	;# 
   264  008F                     	;# 
   265  0090                     	;# 
   266  0092                     	;# 
   267  0093                     	;# 
   268  0093                     	;# 
   269  0093                     	;# 
   270  0094                     	;# 
   271  0095                     	;# 
   272  0095                     	;# 
   273  0096                     	;# 
   274  0096                     	;# 
   275  0097                     	;# 
   276  0098                     	;# 
   277  0099                     	;# 
   278  009A                     	;# 
   279  009B                     	;# 
   280  009E                     	;# 
   281  009F                     	;# 
   282  010C                     	;# 
   283  010C                     	;# 
   284  010D                     	;# 
   285  010E                     	;# 
   286  010F                     	;# 
   287  0115                     	;# 
   288  0116                     	;# 
   289  0118                     	;# 
   290  0119                     	;# 
   291  011A                     	;# 
   292  011B                     	;# 
   293  011E                     	;# 
   294  011F                     	;# 
   295  018C                     	;# 
   296  018D                     	;# 
   297  019D                     	;# 
   298  019E                     	;# 
   299  0000                     	;# 
   300  0001                     	;# 
   301  0002                     	;# 
   302  0003                     	;# 
   303  0004                     	;# 
   304  0005                     	;# 
   305  0006                     	;# 
   306  0007                     	;# 
   307  000A                     	;# 
   308  000B                     	;# 
   309  000C                     	;# 
   310  000D                     	;# 
   311  000E                     	;# 
   312  000E                     	;# 
   313  000F                     	;# 
   314  0010                     	;# 
   315  0011                     	;# 
   316  0012                     	;# 
   317  0013                     	;# 
   318  0014                     	;# 
   319  0015                     	;# 
   320  0015                     	;# 
   321  0016                     	;# 
   322  0017                     	;# 
   323  0018                     	;# 
   324  0019                     	;# 
   325  001A                     	;# 
   326  001C                     	;# 
   327  001D                     	;# 
   328  001E                     	;# 
   329  001F                     	;# 
   330  0081                     	;# 
   331  0085                     	;# 
   332  0086                     	;# 
   333  0087                     	;# 
   334  008C                     	;# 
   335  008D                     	;# 
   336  008E                     	;# 
   337  008F                     	;# 
   338  0090                     	;# 
   339  0092                     	;# 
   340  0093                     	;# 
   341  0093                     	;# 
   342  0093                     	;# 
   343  0094                     	;# 
   344  0095                     	;# 
   345  0095                     	;# 
   346  0096                     	;# 
   347  0096                     	;# 
   348  0097                     	;# 
   349  0098                     	;# 
   350  0099                     	;# 
   351  009A                     	;# 
   352  009B                     	;# 
   353  009E                     	;# 
   354  009F                     	;# 
   355  010C                     	;# 
   356  010C                     	;# 
   357  010D                     	;# 
   358  010E                     	;# 
   359  010F                     	;# 
   360  0115                     	;# 
   361  0116                     	;# 
   362  0118                     	;# 
   363  0119                     	;# 
   364  011A                     	;# 
   365  011B                     	;# 
   366  011E                     	;# 
   367  011F                     	;# 
   368  018C                     	;# 
   369  018D                     	;# 
   370  019D                     	;# 
   371  019E                     	;# 
   372  0000                     	;# 
   373  0001                     	;# 
   374  0002                     	;# 
   375  0003                     	;# 
   376  0004                     	;# 
   377  0005                     	;# 
   378  0006                     	;# 
   379  0007                     	;# 
   380  000A                     	;# 
   381  000B                     	;# 
   382  000C                     	;# 
   383  000D                     	;# 
   384  000E                     	;# 
   385  000E                     	;# 
   386  000F                     	;# 
   387  0010                     	;# 
   388  0011                     	;# 
   389  0012                     	;# 
   390  0013                     	;# 
   391  0014                     	;# 
   392  0015                     	;# 
   393  0015                     	;# 
   394  0016                     	;# 
   395  0017                     	;# 
   396  0018                     	;# 
   397  0019                     	;# 
   398  001A                     	;# 
   399  001C                     	;# 
   400  001D                     	;# 
   401  001E                     	;# 
   402  001F                     	;# 
   403  0081                     	;# 
   404  0085                     	;# 
   405  0086                     	;# 
   406  0087                     	;# 
   407  008C                     	;# 
   408  008D                     	;# 
   409  008E                     	;# 
   410  008F                     	;# 
   411  0090                     	;# 
   412  0092                     	;# 
   413  0093                     	;# 
   414  0093                     	;# 
   415  0093                     	;# 
   416  0094                     	;# 
   417  0095                     	;# 
   418  0095                     	;# 
   419  0096                     	;# 
   420  0096                     	;# 
   421  0097                     	;# 
   422  0098                     	;# 
   423  0099                     	;# 
   424  009A                     	;# 
   425  009B                     	;# 
   426  009E                     	;# 
   427  009F                     	;# 
   428  010C                     	;# 
   429  010C                     	;# 
   430  010D                     	;# 
   431  010E                     	;# 
   432  010F                     	;# 
   433  0115                     	;# 
   434  0116                     	;# 
   435  0118                     	;# 
   436  0119                     	;# 
   437  011A                     	;# 
   438  011B                     	;# 
   439  011E                     	;# 
   440  011F                     	;# 
   441  018C                     	;# 
   442  018D                     	;# 
   443  019D                     	;# 
   444  019E                     	;# 
   445  0000                     	;# 
   446  0001                     	;# 
   447  0002                     	;# 
   448  0003                     	;# 
   449  0004                     	;# 
   450  0005                     	;# 
   451  0006                     	;# 
   452  0007                     	;# 
   453  000A                     	;# 
   454  000B                     	;# 
   455  000C                     	;# 
   456  000D                     	;# 
   457  000E                     	;# 
   458  000E                     	;# 
   459  000F                     	;# 
   460  0010                     	;# 
   461  0011                     	;# 
   462  0012                     	;# 
   463  0013                     	;# 
   464  0014                     	;# 
   465  0015                     	;# 
   466  0015                     	;# 
   467  0016                     	;# 
   468  0017                     	;# 
   469  0018                     	;# 
   470  0019                     	;# 
   471  001A                     	;# 
   472  001C                     	;# 
   473  001D                     	;# 
   474  001E                     	;# 
   475  001F                     	;# 
   476  0081                     	;# 
   477  0085                     	;# 
   478  0086                     	;# 
   479  0087                     	;# 
   480  008C                     	;# 
   481  008D                     	;# 
   482  008E                     	;# 
   483  008F                     	;# 
   484  0090                     	;# 
   485  0092                     	;# 
   486  0093                     	;# 
   487  0093                     	;# 
   488  0093                     	;# 
   489  0094                     	;# 
   490  0095                     	;# 
   491  0095                     	;# 
   492  0096                     	;# 
   493  0096                     	;# 
   494  0097                     	;# 
   495  0098                     	;# 
   496  0099                     	;# 
   497  009A                     	;# 
   498  009B                     	;# 
   499  009E                     	;# 
   500  009F                     	;# 
   501  010C                     	;# 
   502  010C                     	;# 
   503  010D                     	;# 
   504  010E                     	;# 
   505  010F                     	;# 
   506  0115                     	;# 
   507  0116                     	;# 
   508  0118                     	;# 
   509  0119                     	;# 
   510  011A                     	;# 
   511  011B                     	;# 
   512  011E                     	;# 
   513  011F                     	;# 
   514  018C                     	;# 
   515  018D                     	;# 
   516  019D                     	;# 
   517  019E                     	;# 
   518  0000                     	;# 
   519  0001                     	;# 
   520  0002                     	;# 
   521  0003                     	;# 
   522  0004                     	;# 
   523  0005                     	;# 
   524  0006                     	;# 
   525  0007                     	;# 
   526  000A                     	;# 
   527  000B                     	;# 
   528  000C                     	;# 
   529  000D                     	;# 
   530  000E                     	;# 
   531  000E                     	;# 
   532  000F                     	;# 
   533  0010                     	;# 
   534  0011                     	;# 
   535  0012                     	;# 
   536  0013                     	;# 
   537  0014                     	;# 
   538  0015                     	;# 
   539  0015                     	;# 
   540  0016                     	;# 
   541  0017                     	;# 
   542  0018                     	;# 
   543  0019                     	;# 
   544  001A                     	;# 
   545  001C                     	;# 
   546  001D                     	;# 
   547  001E                     	;# 
   548  001F                     	;# 
   549  0081                     	;# 
   550  0085                     	;# 
   551  0086                     	;# 
   552  0087                     	;# 
   553  008C                     	;# 
   554  008D                     	;# 
   555  008E                     	;# 
   556  008F                     	;# 
   557  0090                     	;# 
   558  0092                     	;# 
   559  0093                     	;# 
   560  0093                     	;# 
   561  0093                     	;# 
   562  0094                     	;# 
   563  0095                     	;# 
   564  0095                     	;# 
   565  0096                     	;# 
   566  0096                     	;# 
   567  0097                     	;# 
   568  0098                     	;# 
   569  0099                     	;# 
   570  009A                     	;# 
   571  009B                     	;# 
   572  009E                     	;# 
   573  009F                     	;# 
   574  010C                     	;# 
   575  010C                     	;# 
   576  010D                     	;# 
   577  010E                     	;# 
   578  010F                     	;# 
   579  0115                     	;# 
   580  0116                     	;# 
   581  0118                     	;# 
   582  0119                     	;# 
   583  011A                     	;# 
   584  011B                     	;# 
   585  011E                     	;# 
   586  011F                     	;# 
   587  018C                     	;# 
   588  018D                     	;# 
   589  019D                     	;# 
   590  019E                     	;# 
   591  0000                     	;# 
   592  0001                     	;# 
   593  0002                     	;# 
   594  0003                     	;# 
   595  0004                     	;# 
   596  0005                     	;# 
   597  0006                     	;# 
   598  0007                     	;# 
   599  000A                     	;# 
   600  000B                     	;# 
   601  000C                     	;# 
   602  000D                     	;# 
   603  000E                     	;# 
   604  000E                     	;# 
   605  000F                     	;# 
   606  0010                     	;# 
   607  0011                     	;# 
   608  0012                     	;# 
   609  0013                     	;# 
   610  0014                     	;# 
   611  0015                     	;# 
   612  0015                     	;# 
   613  0016                     	;# 
   614  0017                     	;# 
   615  0018                     	;# 
   616  0019                     	;# 
   617  001A                     	;# 
   618  001C                     	;# 
   619  001D                     	;# 
   620  001E                     	;# 
   621  001F                     	;# 
   622  0081                     	;# 
   623  0085                     	;# 
   624  0086                     	;# 
   625  0087                     	;# 
   626  008C                     	;# 
   627  008D                     	;# 
   628  008E                     	;# 
   629  008F                     	;# 
   630  0090                     	;# 
   631  0092                     	;# 
   632  0093                     	;# 
   633  0093                     	;# 
   634  0093                     	;# 
   635  0094                     	;# 
   636  0095                     	;# 
   637  0095                     	;# 
   638  0096                     	;# 
   639  0096                     	;# 
   640  0097                     	;# 
   641  0098                     	;# 
   642  0099                     	;# 
   643  009A                     	;# 
   644  009B                     	;# 
   645  009E                     	;# 
   646  009F                     	;# 
   647  010C                     	;# 
   648  010C                     	;# 
   649  010D                     	;# 
   650  010E                     	;# 
   651  010F                     	;# 
   652  0115                     	;# 
   653  0116                     	;# 
   654  0118                     	;# 
   655  0119                     	;# 
   656  011A                     	;# 
   657  011B                     	;# 
   658  011E                     	;# 
   659  011F                     	;# 
   660  018C                     	;# 
   661  018D                     	;# 
   662  019D                     	;# 
   663  019E                     	;# 
   664  0000                     	;# 
   665  0001                     	;# 
   666  0002                     	;# 
   667  0003                     	;# 
   668  0004                     	;# 
   669  0005                     	;# 
   670  0006                     	;# 
   671  0007                     	;# 
   672  000A                     	;# 
   673  000B                     	;# 
   674  000C                     	;# 
   675  000D                     	;# 
   676  000E                     	;# 
   677  000E                     	;# 
   678  000F                     	;# 
   679  0010                     	;# 
   680  0011                     	;# 
   681  0012                     	;# 
   682  0013                     	;# 
   683  0014                     	;# 
   684  0015                     	;# 
   685  0015                     	;# 
   686  0016                     	;# 
   687  0017                     	;# 
   688  0018                     	;# 
   689  0019                     	;# 
   690  001A                     	;# 
   691  001C                     	;# 
   692  001D                     	;# 
   693  001E                     	;# 
   694  001F                     	;# 
   695  0081                     	;# 
   696  0085                     	;# 
   697  0086                     	;# 
   698  0087                     	;# 
   699  008C                     	;# 
   700  008D                     	;# 
   701  008E                     	;# 
   702  008F                     	;# 
   703  0090                     	;# 
   704  0092                     	;# 
   705  0093                     	;# 
   706  0093                     	;# 
   707  0093                     	;# 
   708  0094                     	;# 
   709  0095                     	;# 
   710  0095                     	;# 
   711  0096                     	;# 
   712  0096                     	;# 
   713  0097                     	;# 
   714  0098                     	;# 
   715  0099                     	;# 
   716  009A                     	;# 
   717  009B                     	;# 
   718  009E                     	;# 
   719  009F                     	;# 
   720  010C                     	;# 
   721  010C                     	;# 
   722  010D                     	;# 
   723  010E                     	;# 
   724  010F                     	;# 
   725  0115                     	;# 
   726  0116                     	;# 
   727  0118                     	;# 
   728  0119                     	;# 
   729  011A                     	;# 
   730  011B                     	;# 
   731  011E                     	;# 
   732  011F                     	;# 
   733  018C                     	;# 
   734  018D                     	;# 
   735  019D                     	;# 
   736  019E                     	;# 
   737  0000                     	;# 
   738  0001                     	;# 
   739  0002                     	;# 
   740  0003                     	;# 
   741  0004                     	;# 
   742  0005                     	;# 
   743  0006                     	;# 
   744  0007                     	;# 
   745  000A                     	;# 
   746  000B                     	;# 
   747  000C                     	;# 
   748  000D                     	;# 
   749  000E                     	;# 
   750  000E                     	;# 
   751  000F                     	;# 
   752  0010                     	;# 
   753  0011                     	;# 
   754  0012                     	;# 
   755  0013                     	;# 
   756  0014                     	;# 
   757  0015                     	;# 
   758  0015                     	;# 
   759  0016                     	;# 
   760  0017                     	;# 
   761  0018                     	;# 
   762  0019                     	;# 
   763  001A                     	;# 
   764  001C                     	;# 
   765  001D                     	;# 
   766  001E                     	;# 
   767  001F                     	;# 
   768  0081                     	;# 
   769  0085                     	;# 
   770  0086                     	;# 
   771  0087                     	;# 
   772  008C                     	;# 
   773  008D                     	;# 
   774  008E                     	;# 
   775  008F                     	;# 
   776  0090                     	;# 
   777  0092                     	;# 
   778  0093                     	;# 
   779  0093                     	;# 
   780  0093                     	;# 
   781  0094                     	;# 
   782  0095                     	;# 
   783  0095                     	;# 
   784  0096                     	;# 
   785  0096                     	;# 
   786  0097                     	;# 
   787  0098                     	;# 
   788  0099                     	;# 
   789  009A                     	;# 
   790  009B                     	;# 
   791  009E                     	;# 
   792  009F                     	;# 
   793  010C                     	;# 
   794  010C                     	;# 
   795  010D                     	;# 
   796  010E                     	;# 
   797  010F                     	;# 
   798  0115                     	;# 
   799  0116                     	;# 
   800  0118                     	;# 
   801  0119                     	;# 
   802  011A                     	;# 
   803  011B                     	;# 
   804  011E                     	;# 
   805  011F                     	;# 
   806  018C                     	;# 
   807  018D                     	;# 
   808  019D                     	;# 
   809  019E                     	;# 
   810  0000                     	;# 
   811  0001                     	;# 
   812  0002                     	;# 
   813  0003                     	;# 
   814  0004                     	;# 
   815  0005                     	;# 
   816  0006                     	;# 
   817  0007                     	;# 
   818  000A                     	;# 
   819  000B                     	;# 
   820  000C                     	;# 
   821  000D                     	;# 
   822  000E                     	;# 
   823  000E                     	;# 
   824  000F                     	;# 
   825  0010                     	;# 
   826  0011                     	;# 
   827  0012                     	;# 
   828  0013                     	;# 
   829  0014                     	;# 
   830  0015                     	;# 
   831  0015                     	;# 
   832  0016                     	;# 
   833  0017                     	;# 
   834  0018                     	;# 
   835  0019                     	;# 
   836  001A                     	;# 
   837  001C                     	;# 
   838  001D                     	;# 
   839  001E                     	;# 
   840  001F                     	;# 
   841  0081                     	;# 
   842  0085                     	;# 
   843  0086                     	;# 
   844  0087                     	;# 
   845  008C                     	;# 
   846  008D                     	;# 
   847  008E                     	;# 
   848  008F                     	;# 
   849  0090                     	;# 
   850  0092                     	;# 
   851  0093                     	;# 
   852  0093                     	;# 
   853  0093                     	;# 
   854  0094                     	;# 
   855  0095                     	;# 
   856  0095                     	;# 
   857  0096                     	;# 
   858  0096                     	;# 
   859  0097                     	;# 
   860  0098                     	;# 
   861  0099                     	;# 
   862  009A                     	;# 
   863  009B                     	;# 
   864  009E                     	;# 
   865  009F                     	;# 
   866  010C                     	;# 
   867  010C                     	;# 
   868  010D                     	;# 
   869  010E                     	;# 
   870  010F                     	;# 
   871  0115                     	;# 
   872  0116                     	;# 
   873  0118                     	;# 
   874  0119                     	;# 
   875  011A                     	;# 
   876  011B                     	;# 
   877  011E                     	;# 
   878  011F                     	;# 
   879  018C                     	;# 
   880  018D                     	;# 
   881  019D                     	;# 
   882  019E                     	;# 
   883  0000                     	;# 
   884  0001                     	;# 
   885  0002                     	;# 
   886  0003                     	;# 
   887  0004                     	;# 
   888  0005                     	;# 
   889  0006                     	;# 
   890  0007                     	;# 
   891  000A                     	;# 
   892  000B                     	;# 
   893  000C                     	;# 
   894  000D                     	;# 
   895  000E                     	;# 
   896  000E                     	;# 
   897  000F                     	;# 
   898  0010                     	;# 
   899  0011                     	;# 
   900  0012                     	;# 
   901  0013                     	;# 
   902  0014                     	;# 
   903  0015                     	;# 
   904  0015                     	;# 
   905  0016                     	;# 
   906  0017                     	;# 
   907  0018                     	;# 
   908  0019                     	;# 
   909  001A                     	;# 
   910  001C                     	;# 
   911  001D                     	;# 
   912  001E                     	;# 
   913  001F                     	;# 
   914  0081                     	;# 
   915  0085                     	;# 
   916  0086                     	;# 
   917  0087                     	;# 
   918  008C                     	;# 
   919  008D                     	;# 
   920  008E                     	;# 
   921  008F                     	;# 
   922  0090                     	;# 
   923  0092                     	;# 
   924  0093                     	;# 
   925  0093                     	;# 
   926  0093                     	;# 
   927  0094                     	;# 
   928  0095                     	;# 
   929  0095                     	;# 
   930  0096                     	;# 
   931  0096                     	;# 
   932  0097                     	;# 
   933  0098                     	;# 
   934  0099                     	;# 
   935  009A                     	;# 
   936  009B                     	;# 
   937  009E                     	;# 
   938  009F                     	;# 
   939  010C                     	;# 
   940  010C                     	;# 
   941  010D                     	;# 
   942  010E                     	;# 
   943  010F                     	;# 
   944  0115                     	;# 
   945  0116                     	;# 
   946  0118                     	;# 
   947  0119                     	;# 
   948  011A                     	;# 
   949  011B                     	;# 
   950  011E                     	;# 
   951  011F                     	;# 
   952  018C                     	;# 
   953  018D                     	;# 
   954  019D                     	;# 
   955  019E                     	;# 
   956                           
   957                           	psect	idataBANK0
   958  0613                     __pidataBANK0:	
   959                           
   960                           ;initializer for _responseBytes
   961  0613  34FF               	retlw	255
   962  0614  34FF               	retlw	255
   963  0615  34FF               	retlw	255
   964  0616  34FF               	retlw	255
   965                           
   966                           	psect	strings
   967  0444                     __pstrings:	
   968  0444                     stringtab:	
   969  0444                     __stringtab:	
   970  0444                     stringcode:	
   971                           ;	String table - string pointers are 1 byte each
   972                           
   973  0444                     stringdir:	
   974  0444  3004               	movlw	high stringdir
   975  0445  008A               	movwf	10
   976  0446  0804               	movf	4,w
   977  0447  0A84               	incf	4,f
   978  0448  0782               	addwf	2,f
   979  0449                     __stringbase:	
   980  0449  3400               	retlw	0
   981  044A                     __end_of__stringtab:	
   982  044A                     _Nybble2MSBitNum:	
   983  044A  3400               	retlw	0
   984  044B  3401               	retlw	1
   985  044C  3401               	retlw	1
   986  044D  3402               	retlw	2
   987  044E  3402               	retlw	2
   988  044F  3402               	retlw	2
   989  0450  3402               	retlw	2
   990  0451  3403               	retlw	3
   991  0452  3403               	retlw	3
   992  0453  3403               	retlw	3
   993  0454  3403               	retlw	3
   994  0455  3403               	retlw	3
   995  0456  3403               	retlw	3
   996  0457  3403               	retlw	3
   997  0458  3403               	retlw	3
   998  0459                     __end_of_Nybble2MSBitNum:	
   999  0459                     _Timer2PostFunc:	
  1000  0459  3407               	retlw	low (fp__PostUARTRXService-fpbase)
  1001  045A  3400               	retlw	0
  1002  045B  3400               	retlw	0
  1003  045C  3400               	retlw	0
  1004  045D  3400               	retlw	0
  1005  045E  3400               	retlw	0
  1006  045F  3400               	retlw	0
  1007  0460  3400               	retlw	0
  1008  0461                     __end_of_Timer2PostFunc:	
  1009  0461                     _BitNum2SetMask:	
  1010  0461  3401               	retlw	1
  1011  0462  3402               	retlw	2
  1012  0463  3404               	retlw	4
  1013  0464  3408               	retlw	8
  1014  0465  3410               	retlw	16
  1015  0466  3420               	retlw	32
  1016  0467  3440               	retlw	64
  1017  0468  3480               	retlw	128
  1018  0469                     __end_of_BitNum2SetMask:	
  1019  0469                     _EventQueues:	
  1020  0469  34C9               	retlw	low (_Queue0| 0)
  1021  046A  3404               	retlw	4
  1022  046B  34BD               	retlw	low (_Queue1| 0)
  1023  046C  3404               	retlw	4
  1024  046D                     __end_of_EventQueues:	
  1025  046D                     _ServDescList:	
  1026  046D  3401               	retlw	low (fp__InitUARTRXService-fpbase)
  1027  046E  340B               	retlw	low (fp__RunUARTRXService-fpbase)
  1028  046F  3403               	retlw	low (fp__InitSPIService-fpbase)
  1029  0470  3409               	retlw	low (fp__RunSPIService-fpbase)
  1030  0471                     __end_of_ServDescList:	
  1031  0471                     _ES_EventList:	
  1032  0471  3405               	retlw	low (fp__CheckUARTRXEvent-fpbase)
  1033  0472                     __end_of_ES_EventList:	
  1034  0472                     _TestResponseArray:	
  1035  0472  3412               	retlw	18
  1036  0473  3427               	retlw	39
  1037  0474  3400               	retlw	0
  1038  0475  3400               	retlw	0
  1039  0476  3400               	retlw	0
  1040  0477  340A               	retlw	10
  1041  0478  342D               	retlw	45
  1042  0479  340A               	retlw	10
  1043  047A                     __end_of_TestResponseArray:	
  1044  0014                     _SSPCON	set	20
  1045  0013                     _SSPBUF	set	19
  1046  001A                     _RCREG	set	26
  1047  0019                     _TXREG	set	25
  1048  000B                     _INTCON	set	11
  1049  0007                     _PORTC	set	7
  1050  0001                     _TMR0	set	1
  1051  003E                     _RC6	set	62
  1052  003C                     _RC4	set	60
  1053  003B                     _RC3	set	59
  1054  0064                     _TXIF	set	100
  1055  00C4                     _CREN	set	196
  1056  005E                     _PEIE	set	94
  1057  00C7                     _SPEN	set	199
  1058  0065                     _RCIF	set	101
  1059  0063                     _SSPIF	set	99
  1060  005D                     _T0IE	set	93
  1061  005A                     _T0IF	set	90
  1062  005F                     _GIE	set	95
  1063  003D                     _RC5	set	61
  1064  0038                     _RC0	set	56
  1065  0094                     _SSPSTAT	set	148
  1066  008F                     _OSCCON	set	143
  1067  009A                     _SPBRGH	set	154
  1068  0099                     _SPBRG	set	153
  1069  04A0                     _BF	set	1184
  1070  043E                     _TRISC6	set	1086
  1071  0436                     _TRISB6	set	1078
  1072  0434                     _TRISB4	set	1076
  1073  043F                     _TRISC7	set	1087
  1074  043C                     _TRISC4	set	1084
  1075  043B                     _TRISC3	set	1083
  1076  04C5                     _TXEN	set	1221
  1077  0464                     _TXIE	set	1124
  1078  04C4                     _SYNC	set	1220
  1079  04DB                     _BRG16	set	1243
  1080  04C2                     _BRGH	set	1218
  1081  0465                     _RCIE	set	1125
  1082  0463                     _SSPIE	set	1123
  1083  040A                     _PS2	set	1034
  1084  0409                     _PS1	set	1033
  1085  0408                     _PS0	set	1032
  1086  040B                     _PSA	set	1035
  1087  040D                     _T0CS	set	1037
  1088  043D                     _TRISC5	set	1085
  1089  0438                     _TRISC0	set	1080
  1090  011F                     _ANSELH	set	287
  1091  08F7                     _ANS7	set	2295
  1092  08FB                     _ANS11	set	2299
  1093  08F4                     _ANS4	set	2292
  1094                           
  1095                           ; #config settings
  1096  0000                     
  1097                           	psect	cinit
  1098  000F                     start_initialization:	
  1099  000F                     __initialization:	
  1100                           
  1101                           ; Initialize objects allocated to BANK0
  1102  000F  118A  2613  118A   	fcall	__pidataBANK0	;fetch initializer
  1103  0012  00E9               	movwf	__pdataBANK0& (0+127)
  1104  0013  118A  2614  118A   	fcall	__pidataBANK0+1	;fetch initializer
  1105  0016  00EA               	movwf	(__pdataBANK0+1)& (0+127)
  1106  0017  118A  2615  118A   	fcall	__pidataBANK0+2	;fetch initializer
  1107  001A  00EB               	movwf	(__pdataBANK0+2)& (0+127)
  1108  001B  118A  2616  118A   	fcall	__pidataBANK0+3	;fetch initializer
  1109  001E  00EC               	movwf	(__pdataBANK0+3)& (0+127)
  1110                           
  1111                           ; Clear objects allocated to BANK1
  1112  001F  1383               	bcf	3,7	;select IRP bank0
  1113  0020  30A0               	movlw	low __pbssBANK1
  1114  0021  0084               	movwf	4
  1115  0022  30D5               	movlw	low (__pbssBANK1+53)
  1116  0023  118A  260B  118A   	fcall	clear_ram0
  1117                           
  1118                           ; Clear objects allocated to BANK0
  1119  0026  3020               	movlw	low __pbssBANK0
  1120  0027  0084               	movwf	4
  1121  0028  304A               	movlw	low (__pbssBANK0+42)
  1122  0029  118A  260B  118A   	fcall	clear_ram0
  1123                           
  1124                           ; Clear objects allocated to COMMON
  1125  002C  3078               	movlw	low __pbssCOMMON
  1126  002D  0084               	movwf	4
  1127  002E  307E               	movlw	low (__pbssCOMMON+6)
  1128  002F  118A  260B         	fcall	clear_ram0
  1129  0031                     end_of_initialization:	
  1130                           ;End of C runtime variable initialization code
  1131                           
  1132  0031                     __end_of__initialization:	
  1133  0031  0183               	clrf	3
  1134  0032  118A  2C7A         	ljmp	_main	;jump to C main() function
  1135                           
  1136                           	psect	bssCOMMON
  1137  0078                     __pbssCOMMON:	
  1138  0078                     _scoreRequest:	
  1139  0078                     	ds	1
  1140  0079                     _PackageResponseStore:	
  1141  0079                     	ds	1
  1142  007A                     _SPIBuffer:	
  1143  007A                     	ds	1
  1144  007B                     _Team:	
  1145  007B                     	ds	1
  1146  007C                     UARTRXIntResponse@bodyByteCount:	
  1147  007C                     	ds	1
  1148  007D                     UARTRXIntResponse@currentByteIndex:	
  1149  007D                     	ds	1
  1150                           
  1151                           	psect	bssBANK0
  1152  0020                     __pbssBANK0:	
  1153  0020                     ES_Timer_RTI_Resp@NewEvent:	
  1154  0020                     	ds	3
  1155  0023                     _FieldAddr:	
  1156  0023                     	ds	2
  1157  0025                     _time:	
  1158  0025                     	ds	2
  1159  0027                     CheckSSEvent@lastSS:	
  1160  0027                     	ds	1
  1161  0028                     _newRequest:	
  1162  0028                     	ds	1
  1163  0029                     _commOpen:	
  1164  0029                     	ds	1
  1165  002A                     SPI_SM@currentState:	
  1166  002A                     	ds	1
  1167  002B                     SPI_SM@MyPriority:	
  1168  002B                     	ds	1
  1169  002C                     _hasHeartbeat:	
  1170  002C                     	ds	1
  1171  002D                     _RXFlag:	
  1172  002D                     	ds	1
  1173  002E                     _flag3:	
  1174  002E                     	ds	1
  1175  002F                     _flag2:	
  1176  002F                     	ds	1
  1177  0030                     _newResponseAvailable:	
  1178  0030                     	ds	1
  1179  0031                     _newPackageAvailable:	
  1180  0031                     	ds	1
  1181  0032                     _currentState:	
  1182  0032                     	ds	1
  1183  0033                     _MyPriority:	
  1184  0033                     	ds	1
  1185  0034                     ES_Timer_RTI_Resp@NextTimer2Process:	
  1186  0034                     	ds	1
  1187  0035                     ES_Timer_RTI_Resp@NeedsProcessing:	
  1188  0035                     	ds	1
  1189  0036                     _TMR_ActiveFlags:	
  1190  0036                     	ds	1
  1191  0037                     _TickCount:	
  1192  0037                     	ds	1
  1193  0038                     _Ready:	
  1194  0038                     	ds	1
  1195  0039                     _checksum:	
  1196  0039                     	ds	1
  1197  003A                     _ReceivedData:	
  1198  003A                     	ds	13
  1199  0047                     ES_Run@ThisEvent:	
  1200  0047                     	ds	3
  1201                           
  1202                           	psect	dataBANK0
  1203  0069                     __pdataBANK0:	
  1204  0069                     _responseBytes:	
  1205  0069                     	ds	4
  1206                           
  1207                           	psect	bssBANK1
  1208  00A0                     __pbssBANK1:	
  1209  00A0                     _TMR_TimerArray:	
  1210  00A0                     	ds	16
  1211  00B0                     _ResponseArray:	
  1212  00B0                     	ds	13
  1213  00BD                     _Queue1:	
  1214  00BD                     	ds	12
  1215  00C9                     _Queue0:	
  1216  00C9                     	ds	12
  1217                           
  1218                           	psect	clrtext
  1219  060B                     clear_ram0:	
  1220                           ;	Called with FSR containing the base address, and
  1221                           ;	W with the last address+1
  1222                           
  1223  060B  0064               	clrwdt	;clear the watchdog before getting into this loop
  1224  060C                     clrloop0:	
  1225  060C  0180               	clrf	0	;clear RAM location pointed to by FSR
  1226  060D  0A84               	incf	4,f	;increment pointer
  1227  060E  0604               	xorwf	4,w	;XOR with final address
  1228  060F  1903               	btfsc	3,2	;have we reached the end yet?
  1229  0610  3400               	retlw	0	;all done for this memory range, return
  1230  0611  0604               	xorwf	4,w	;XOR again to restore value
  1231  0612  2E0C               	goto	clrloop0	;do the next byte
  1232                           
  1233                           	psect	cstackCOMMON
  1234  0070                     __pcstackCOMMON:	
  1235  0070                     ?_CheckUARTRXEvent:	
  1236  0070                     ?_ES_Sys_Timer_Init:	
  1237                           ; 1 bytes @ 0x0
  1238                           
  1239  0070                     ?_ES_GetMSBitSet:	
  1240                           ; 1 bytes @ 0x0
  1241                           
  1242  0070                     ?_ES_Timer_RTI_Resp:	
  1243                           ; 1 bytes @ 0x0
  1244                           
  1245  0070                     ?_IsTimerPending:	
  1246                           ; 1 bytes @ 0x0
  1247                           
  1248  0070                     ?_CheckSSEvent:	
  1249                           ; 1 bytes @ 0x0
  1250                           
  1251  0070                     ?_SPIIntResponse:	
  1252                           ; 1 bytes @ 0x0
  1253                           
  1254  0070                     ??_SPIIntResponse:	
  1255                           ; 1 bytes @ 0x0
  1256                           
  1257  0070                     ?_UARTRXIntResponse:	
  1258                           ; 1 bytes @ 0x0
  1259                           
  1260  0070                     ?_ClearReceivedDataArray:	
  1261                           ; 1 bytes @ 0x0
  1262                           
  1263  0070                     ??_ClearReceivedDataArray:	
  1264                           ; 1 bytes @ 0x0
  1265                           
  1266  0070                     ?_RX_getResponseBuffer:	
  1267                           ; 1 bytes @ 0x0
  1268                           
  1269  0070                     ??_RX_getResponseBuffer:	
  1270                           ; 1 bytes @ 0x0
  1271                           
  1272  0070                     ?_ES_Initialize:	
  1273                           ; 1 bytes @ 0x0
  1274                           
  1275  0070                     ?_ISR:	
  1276                           ; 1 bytes @ 0x0
  1277                           
  1278  0070                     ?_USART_Init:	
  1279                           ; 1 bytes @ 0x0
  1280                           
  1281  0070                     ?_main:	
  1282                           ; 1 bytes @ 0x0
  1283                           
  1284  0070                     ?_RX_newPackageReady:	
  1285                           ; 1 bytes @ 0x0
  1286                           
  1287  0070                     ??_RX_newPackageReady:	
  1288                           ; 1 bytes @ 0x0
  1289                           
  1290  0070                     ES_Initialize@NewRate:	
  1291                           ; 1 bytes @ 0x0
  1292                           
  1293                           
  1294                           ; 1 bytes @ 0x0
  1295  0070                     	ds	1
  1296  0071                     ClearReceivedDataArray@i:	
  1297  0071                     SPIIntResponse@readByte:	
  1298                           ; 1 bytes @ 0x1
  1299                           
  1300                           
  1301                           ; 1 bytes @ 0x1
  1302  0071                     	ds	1
  1303  0072                     ??_UARTRXIntResponse:	
  1304                           
  1305                           ; 1 bytes @ 0x2
  1306  0072                     	ds	1
  1307  0073                     UARTRXIntResponse@newByte:	
  1308                           
  1309                           ; 1 bytes @ 0x3
  1310  0073                     	ds	1
  1311  0074                     ??_ISR:	
  1312                           
  1313                           ; 1 bytes @ 0x4
  1314  0074                     	ds	4
  1315                           
  1316                           	psect	cstackBANK0
  1317  004A                     __pcstackBANK0:	
  1318  004A                     ??_ES_Sys_Timer_Init:	
  1319  004A                     ?_ES_InitQueue:	
  1320                           ; 1 bytes @ 0x0
  1321                           
  1322  004A                     ??_ES_GetMSBitSet:	
  1323                           ; 1 bytes @ 0x0
  1324                           
  1325  004A                     ??_IsTimerPending:	
  1326                           ; 1 bytes @ 0x0
  1327                           
  1328  004A                     ??_CheckSSEvent:	
  1329                           ; 1 bytes @ 0x0
  1330                           
  1331  004A                     ?_ES_Timer_InitTimer:	
  1332                           ; 1 bytes @ 0x0
  1333                           
  1334  004A                     ??_USART_Init:	
  1335                           ; 1 bytes @ 0x0
  1336                           
  1337  004A                     ?___bmul:	
  1338                           ; 1 bytes @ 0x0
  1339                           
  1340  004A                     ?_RunSPIService:	
  1341                           ; 1 bytes @ 0x0
  1342                           
  1343  004A                     ES_InitQueue@BlockSize:	
  1344                           ; 3 bytes @ 0x0
  1345                           
  1346  004A                     ___bmul@multiplicand:	
  1347                           ; 1 bytes @ 0x0
  1348                           
  1349  004A                     ES_Timer_InitTimer@NewTime:	
  1350                           ; 1 bytes @ 0x0
  1351                           
  1352  004A                     RunSPIService@ThisEvent:	
  1353                           ; 2 bytes @ 0x0
  1354                           
  1355                           
  1356                           ; 3 bytes @ 0x0
  1357  004A                     	ds	1
  1358  004B                     ??_ES_InitQueue:	
  1359  004B                     ??___bmul:	
  1360                           ; 1 bytes @ 0x1
  1361                           
  1362                           
  1363                           ; 1 bytes @ 0x1
  1364  004B                     	ds	1
  1365  004C                     ??_ES_Timer_InitTimer:	
  1366  004C                     ES_InitQueue@pBlock:	
  1367                           ; 1 bytes @ 0x2
  1368                           
  1369  004C                     CheckSSEvent@thisSS:	
  1370                           ; 1 bytes @ 0x2
  1371                           
  1372  004C                     ___bmul@product:	
  1373                           ; 1 bytes @ 0x2
  1374                           
  1375                           
  1376                           ; 1 bytes @ 0x2
  1377  004C                     	ds	1
  1378  004D                     ??_RunSPIService:	
  1379  004D                     ES_GetMSBitSet@Val2Check:	
  1380                           ; 1 bytes @ 0x3
  1381                           
  1382  004D                     ES_InitQueue@pThisQueue:	
  1383                           ; 1 bytes @ 0x3
  1384                           
  1385  004D                     ES_Timer_InitTimer@Num:	
  1386                           ; 1 bytes @ 0x3
  1387                           
  1388  004D                     ___bmul@multiplier:	
  1389                           ; 1 bytes @ 0x3
  1390                           
  1391  004D                     RunSPIService@ReturnEvent:	
  1392                           ; 1 bytes @ 0x3
  1393                           
  1394                           
  1395                           ; 3 bytes @ 0x3
  1396  004D                     	ds	1
  1397  004E                     ?_ES_DeQueue:	
  1398  004E                     ?_ES_EnQueueFIFO:	
  1399                           ; 1 bytes @ 0x4
  1400                           
  1401  004E                     ?_RunUARTRXService:	
  1402                           ; 1 bytes @ 0x4
  1403                           
  1404  004E                     ES_GetMSBitSet@ReturnVal:	
  1405                           ; 3 bytes @ 0x4
  1406                           
  1407  004E                     ES_DeQueue@pReturnEvent:	
  1408                           ; 1 bytes @ 0x4
  1409                           
  1410  004E                     ES_EnQueueFIFO@Event2Add:	
  1411                           ; 1 bytes @ 0x4
  1412                           
  1413  004E                     RunUARTRXService@ThisEvent:	
  1414                           ; 3 bytes @ 0x4
  1415                           
  1416                           
  1417                           ; 3 bytes @ 0x4
  1418  004E                     	ds	1
  1419  004F                     ??_ES_DeQueue:	
  1420  004F                     ES_GetMSBitSet@Nybble2Test:	
  1421                           ; 1 bytes @ 0x5
  1422                           
  1423                           
  1424                           ; 1 bytes @ 0x5
  1425  004F                     	ds	1
  1426  0050                     ES_GetMSBitSet@LoopCntr:	
  1427                           
  1428                           ; 1 bytes @ 0x6
  1429  0050                     	ds	1
  1430  0051                     ??_RunUARTRXService:	
  1431  0051                     ??_ES_EnQueueFIFO:	
  1432                           ; 1 bytes @ 0x7
  1433                           
  1434                           
  1435                           ; 1 bytes @ 0x7
  1436  0051                     	ds	2
  1437  0053                     ES_EnQueueFIFO@saveCrit:	
  1438                           
  1439                           ; 1 bytes @ 0x9
  1440  0053                     	ds	1
  1441  0054                     ES_EnQueueFIFO@InsertionPoint:	
  1442  0054                     ES_DeQueue@saveCrit:	
  1443                           ; 1 bytes @ 0xA
  1444                           
  1445                           
  1446                           ; 1 bytes @ 0xA
  1447  0054                     	ds	1
  1448  0055                     ES_EnQueueFIFO@pBlock:	
  1449  0055                     ES_DeQueue@NumLeft:	
  1450                           ; 1 bytes @ 0xB
  1451                           
  1452  0055                     RunUARTRXService@ReturnEvent:	
  1453                           ; 1 bytes @ 0xB
  1454                           
  1455                           
  1456                           ; 3 bytes @ 0xB
  1457  0055                     	ds	1
  1458  0056                     ES_EnQueueFIFO@pThisQueue:	
  1459  0056                     ES_DeQueue@pBlock:	
  1460                           ; 1 bytes @ 0xC
  1461                           
  1462                           
  1463                           ; 1 bytes @ 0xC
  1464  0056                     	ds	1
  1465  0057                     ?_ES_PostToService:	
  1466  0057                     ES_DeQueue@pThisQueue:	
  1467                           ; 1 bytes @ 0xD
  1468                           
  1469  0057                     ES_PostToService@TheEvent:	
  1470                           ; 1 bytes @ 0xD
  1471                           
  1472                           
  1473                           ; 3 bytes @ 0xD
  1474  0057                     	ds	1
  1475  0058                     RunUARTRXService@FieldAddressMSB:	
  1476                           
  1477                           ; 1 bytes @ 0xE
  1478  0058                     	ds	1
  1479  0059                     RunUARTRXService@FieldAddressLSB:	
  1480                           
  1481                           ; 1 bytes @ 0xF
  1482  0059                     	ds	1
  1483  005A                     ??_ES_PostToService:	
  1484  005A                     RunUARTRXService@i:	
  1485                           ; 1 bytes @ 0x10
  1486                           
  1487                           
  1488                           ; 1 bytes @ 0x10
  1489  005A                     	ds	1
  1490  005B                     ES_PostToService@WhichService:	
  1491                           
  1492                           ; 1 bytes @ 0x11
  1493  005B                     	ds	1
  1494  005C                     ??_CheckUARTRXEvent:	
  1495  005C                     ?_InitUARTRXService:	
  1496                           ; 1 bytes @ 0x12
  1497                           
  1498  005C                     ?_InitSPIService:	
  1499                           ; 1 bytes @ 0x12
  1500                           
  1501  005C                     ?_PostUARTRXService:	
  1502                           ; 1 bytes @ 0x12
  1503                           
  1504  005C                     InitUARTRXService@Priority:	
  1505                           ; 1 bytes @ 0x12
  1506                           
  1507  005C                     InitSPIService@Priority:	
  1508                           ; 1 bytes @ 0x12
  1509                           
  1510  005C                     PostUARTRXService@ThisEvent:	
  1511                           ; 1 bytes @ 0x12
  1512                           
  1513                           
  1514                           ; 3 bytes @ 0x12
  1515  005C                     	ds	1
  1516  005D                     ??_InitUARTRXService:	
  1517  005D                     ??_InitSPIService:	
  1518                           ; 1 bytes @ 0x13
  1519                           
  1520  005D                     CheckUARTRXEvent@CommEvent:	
  1521                           ; 1 bytes @ 0x13
  1522                           
  1523                           
  1524                           ; 3 bytes @ 0x13
  1525  005D                     	ds	1
  1526  005E                     InitUARTRXService@ThisEvent:	
  1527  005E                     InitSPIService@ThisEvent:	
  1528                           ; 3 bytes @ 0x14
  1529                           
  1530                           
  1531                           ; 3 bytes @ 0x14
  1532  005E                     	ds	1
  1533  005F                     ??_ES_Timer_RTI_Resp:	
  1534  005F                     ??_PostUARTRXService:	
  1535                           ; 1 bytes @ 0x15
  1536                           
  1537                           
  1538                           ; 1 bytes @ 0x15
  1539  005F                     	ds	2
  1540  0061                     ??_ES_Initialize:	
  1541                           
  1542                           ; 1 bytes @ 0x17
  1543  0061                     	ds	1
  1544  0062                     ?_ES_Run:	
  1545                           
  1546                           ; 1 bytes @ 0x18
  1547  0062                     	ds	2
  1548  0064                     ??_ES_Run:	
  1549  0064                     ES_Initialize@i:	
  1550                           ; 1 bytes @ 0x1A
  1551                           
  1552                           
  1553                           ; 1 bytes @ 0x1A
  1554  0064                     	ds	2
  1555  0066                     ES_Run@HighestPrior:	
  1556                           
  1557                           ; 1 bytes @ 0x1C
  1558  0066                     	ds	1
  1559  0067                     ??_main:	
  1560                           
  1561                           ; 1 bytes @ 0x1D
  1562  0067                     	ds	1
  1563  0068                     main@ErrorType:	
  1564                           
  1565                           ; 1 bytes @ 0x1E
  1566  0068                     	ds	1
  1567                           
  1568                           	psect	maintext
  1569  047A                     __pmaintext:	
  1570 ;;
  1571 ;;Main: autosize = 0, tempsize = 1, incstack = 0, save=0
  1572 ;;
  1573 ;; *************** function _main *****************
  1574 ;; Defined at:
  1575 ;;		line 21 in file "main.c"
  1576 ;; Parameters:    Size  Location     Type
  1577 ;;		None
  1578 ;; Auto vars:     Size  Location     Type
  1579 ;;  ErrorType       1   30[BANK0 ] enum E1322
  1580 ;; Return value:  Size  Location     Type
  1581 ;;                  1    wreg      void 
  1582 ;; Registers used:
  1583 ;;		wreg, fsr0l, fsr0h, status,2, status,0, btemp+1, pclath, cstack
  1584 ;; Tracked objects:
  1585 ;;		On entry : B00/0
  1586 ;;		On exit  : 0/0
  1587 ;;		Unchanged: 0/0
  1588 ;; Data sizes:     COMMON   BANK0   BANK1   BANK2
  1589 ;;      Params:         0       0       0       0
  1590 ;;      Locals:         0       1       0       0
  1591 ;;      Temps:          0       1       0       0
  1592 ;;      Totals:         0       2       0       0
  1593 ;;Total ram usage:        2 bytes
  1594 ;; Hardware stack levels required when called:    8
  1595 ;; This function calls:
  1596 ;;		_ES_Initialize
  1597 ;;		_ES_Run
  1598 ;;		_USART_Init
  1599 ;; This function is called by:
  1600 ;;		Startup code after reset
  1601 ;; This function uses a non-reentrant model
  1602 ;;
  1603                           
  1604                           
  1605                           ;psect for function _main
  1606  047A                     _main:	
  1607                           
  1608                           ;main.c: 22: ES_Return_t ErrorType;;main.c: 28: OSCCON = 0b01110000;
  1609                           
  1610                           ;incstack = 0
  1611                           ; Regs used in _main: [wreg-fsr0h+status,2+status,0+btemp+1+pclath+cstack]
  1612  047A  3070               	movlw	112
  1613  047B  1683               	bsf	3,5	;RP0=1, select bank1
  1614  047C  1303               	bcf	3,6	;RP1=0, select bank1
  1615  047D  008F               	movwf	15	;volatile
  1616                           
  1617                           ;main.c: 30: USART_Init();
  1618  047E  118A  2584  118A   	fcall	_USART_Init
  1619                           
  1620                           ;main.c: 33: TRISC3 = 0;
  1621  0481  1683               	bsf	3,5	;RP0=1, select bank1
  1622  0482  1303               	bcf	3,6	;RP1=0, select bank1
  1623  0483  1187               	bcf	7,3	;volatile
  1624                           
  1625                           ;main.c: 34: ANS7 = 0;
  1626  0484  1283               	bcf	3,5	;RP0=0, select bank2
  1627  0485  1703               	bsf	3,6	;RP1=1, select bank2
  1628  0486  139E               	bcf	30,7	;volatile
  1629                           
  1630                           ;main.c: 35: RC3 = 0;
  1631  0487  1283               	bcf	3,5	;RP0=0, select bank0
  1632  0488  1303               	bcf	3,6	;RP1=0, select bank0
  1633  0489  1187               	bcf	7,3	;volatile
  1634                           
  1635                           ;main.c: 38: TRISC4 = 0;
  1636  048A  1683               	bsf	3,5	;RP0=1, select bank1
  1637  048B  1303               	bcf	3,6	;RP1=0, select bank1
  1638  048C  1207               	bcf	7,4	;volatile
  1639                           
  1640                           ;main.c: 39: RC4 = 0;
  1641  048D  1283               	bcf	3,5	;RP0=0, select bank0
  1642  048E  1303               	bcf	3,6	;RP1=0, select bank0
  1643  048F  1207               	bcf	7,4	;volatile
  1644                           
  1645                           ;main.c: 42: ErrorType = ES_Initialize(ES_Timer_RATE_1MS);
  1646  0490  3001               	movlw	1
  1647  0491  118A  2322  118A   	fcall	_ES_Initialize
  1648  0494  1283               	bcf	3,5	;RP0=0, select bank0
  1649  0495  1303               	bcf	3,6	;RP1=0, select bank0
  1650  0496  00E7               	movwf	??_main
  1651  0497  0867               	movf	??_main,w
  1652  0498  00E8               	movwf	main@ErrorType
  1653                           
  1654                           ;main.c: 45: RC4 = 1;
  1655  0499  1607               	bsf	7,4	;volatile
  1656                           
  1657                           ;main.c: 48: if (ErrorType == Success) {
  1658  049A  0868               	movf	main@ErrorType,w
  1659  049B  1D03               	btfss	3,2
  1660  049C  2CA6               	goto	l2565
  1661  049D  3002               	movlw	low u1617jt
  1662  049E  118A  2927         	ljmp	_ES_Run
  1663  04A0                     u1617jf:	
  1664  04A0  1283               	bcf	3,5	;RP0=0, select bank0
  1665  04A1  1303               	bcf	3,6	;RP1=0, select bank0
  1666  04A2  0862               	movf	?_ES_Run,w
  1667  04A3  00E7               	movwf	??_main
  1668  04A4  0867               	movf	??_main,w
  1669  04A5  00E8               	movwf	main@ErrorType
  1670  04A6                     l2565:	
  1671  04A6  0868               	movf	main@ErrorType,w
  1672                           
  1673                           ; Switch size 1, requested type "simple"
  1674                           ; Number of cases is 2, Range of values is 3 to 5
  1675                           ; switch strategies available:
  1676                           ; Name         Instructions Cycles
  1677                           ; simple_byte            7     4 (average)
  1678                           ; direct_byte           16    10 (fixed)
  1679                           ; jumptable            263     9 (fixed)
  1680                           ;	Chosen strategy is simple_byte
  1681  04A7  3A03               	xorlw	3	; case 3
  1682  04A8  1903               	skipnz
  1683  04A9  2CAE               	goto	l334
  1684  04AA  3A06               	xorlw	6	; case 5
  1685  04AB  1903               	skipnz
  1686  04AC  2CAE               	goto	l334
  1687  04AD  2CAE               	goto	l334
  1688  04AE                     l334:	
  1689  04AE  2CAE               	goto	l334
  1690  04AF                     __end_of_main:	
  1691                           
  1692                           	psect	jmp_tab__ES_Run
  1693  0002                     __pjmp_tab__ES_Run:	
  1694                           ;main.c: 50: ErrorType = ES_Run();
  1695                           
  1696  0002                     u1617jt:	
  1697  0002  118A  2CA0         	ljmp	u1617jf
  1698                           
  1699                           	psect	text1
  1700  0584                     __ptext1:	
  1701 ;; *************** function _USART_Init *****************
  1702 ;; Defined at:
  1703 ;;		line 11 in file "sci.c"
  1704 ;; Parameters:    Size  Location     Type
  1705 ;;		None
  1706 ;; Auto vars:     Size  Location     Type
  1707 ;;		None
  1708 ;; Return value:  Size  Location     Type
  1709 ;;                  1    wreg      void 
  1710 ;; Registers used:
  1711 ;;		wreg, status,2
  1712 ;; Tracked objects:
  1713 ;;		On entry : 0/0
  1714 ;;		On exit  : 0/0
  1715 ;;		Unchanged: 0/0
  1716 ;; Data sizes:     COMMON   BANK0   BANK1   BANK2
  1717 ;;      Params:         0       0       0       0
  1718 ;;      Locals:         0       0       0       0
  1719 ;;      Temps:          0       0       0       0
  1720 ;;      Totals:         0       0       0       0
  1721 ;;Total ram usage:        0 bytes
  1722 ;; Hardware stack levels used:    1
  1723 ;; Hardware stack levels required when called:    3
  1724 ;; This function calls:
  1725 ;;		Nothing
  1726 ;; This function is called by:
  1727 ;;		_main
  1728 ;; This function uses a non-reentrant model
  1729 ;;
  1730                           
  1731                           
  1732                           ;psect for function _USART_Init
  1733  0584                     _USART_Init:	
  1734                           
  1735                           ;sci.c: 13: GIE = 0;
  1736                           
  1737                           ;incstack = 0
  1738                           ; Regs used in _USART_Init: [wreg+status,2]
  1739  0584  138B               	bcf	11,7	;volatile
  1740                           
  1741                           ;sci.c: 16: SPBRG = 129;
  1742  0585  3081               	movlw	129
  1743  0586  1683               	bsf	3,5	;RP0=1, select bank1
  1744  0587  1303               	bcf	3,6	;RP1=0, select bank1
  1745  0588  0099               	movwf	25	;volatile
  1746                           
  1747                           ;sci.c: 17: SPBRGH = 0;
  1748  0589  019A               	clrf	26	;volatile
  1749                           
  1750                           ;sci.c: 18: BRGH = 1;
  1751  058A  1518               	bsf	24,2	;volatile
  1752                           
  1753                           ;sci.c: 19: BRG16 = 0;
  1754  058B  119B               	bcf	27,3	;volatile
  1755                           
  1756                           ;sci.c: 22: SYNC = 0;
  1757  058C  1218               	bcf	24,4	;volatile
  1758                           
  1759                           ;sci.c: 23: SPEN = 1;
  1760  058D  1283               	bcf	3,5	;RP0=0, select bank0
  1761  058E  1303               	bcf	3,6	;RP1=0, select bank0
  1762  058F  1798               	bsf	24,7	;volatile
  1763                           
  1764                           ;sci.c: 26: TXIE = 0;
  1765  0590  1683               	bsf	3,5	;RP0=1, select bank1
  1766  0591  1303               	bcf	3,6	;RP1=0, select bank1
  1767  0592  120C               	bcf	12,4	;volatile
  1768                           
  1769                           ;sci.c: 27: RCIE = 1;
  1770  0593  168C               	bsf	12,5	;volatile
  1771                           
  1772                           ;sci.c: 28: PEIE = 1;
  1773  0594  170B               	bsf	11,6	;volatile
  1774                           
  1775                           ;sci.c: 31: TXEN = 1;
  1776  0595  1698               	bsf	24,5	;volatile
  1777                           
  1778                           ;sci.c: 34: CREN = 1;
  1779  0596  1283               	bcf	3,5	;RP0=0, select bank0
  1780  0597  1303               	bcf	3,6	;RP1=0, select bank0
  1781  0598  1618               	bsf	24,4	;volatile
  1782                           
  1783                           ;sci.c: 35: ANS11 = 0;
  1784  0599  1283               	bcf	3,5	;RP0=0, select bank2
  1785  059A  1703               	bsf	3,6	;RP1=1, select bank2
  1786  059B  119F               	bcf	31,3	;volatile
  1787                           
  1788                           ;sci.c: 38: GIE = 1;
  1789  059C  178B               	bsf	11,7	;volatile
  1790  059D  0008               	return
  1791  059E                     __end_of_USART_Init:	
  1792                           
  1793                           	psect	text2
  1794  0127                     __ptext2:	
  1795 ;; *************** function _ES_Run *****************
  1796 ;; Defined at:
  1797 ;;		line 224 in file "ES_Framework.c"
  1798 ;; Parameters:    Size  Location     Type
  1799 ;;		None
  1800 ;; Auto vars:     Size  Location     Type
  1801 ;;  HighestPrior    1   28[BANK0 ] unsigned char 
  1802 ;; Return value:  Size  Location     Type
  1803 ;;                  1   24[BANK0 ] enum E1275
  1804 ;; Registers used:
  1805 ;;		wreg, fsr0l, fsr0h, status,2, status,0, btemp+1, pclath, cstack
  1806 ;; Tracked objects:
  1807 ;;		On entry : 0/0
  1808 ;;		On exit  : 0/0
  1809 ;;		Unchanged: 0/0
  1810 ;; Data sizes:     COMMON   BANK0   BANK1   BANK2
  1811 ;;      Params:         0       2       0       0
  1812 ;;      Locals:         0       1       0       0
  1813 ;;      Temps:          0       2       0       0
  1814 ;;      Totals:         0       5       0       0
  1815 ;;Total ram usage:        5 bytes
  1816 ;; Hardware stack levels required when called:    8
  1817 ;; This function calls:
  1818 ;;		_CheckSSEvent
  1819 ;;		_CheckUARTRXEvent
  1820 ;;		_ES_DeQueue
  1821 ;;		_ES_GetMSBitSet
  1822 ;;		_ES_Timer_RTI_Resp
  1823 ;;		_IsTimerPending
  1824 ;;		_RunSPIService
  1825 ;;		_RunUARTRXService
  1826 ;; This function is called by:
  1827 ;;		_main
  1828 ;; This function uses a non-reentrant model
  1829 ;;
  1830                           
  1831                           
  1832                           ;psect for function _ES_Run
  1833  0127                     _ES_Run:	
  1834                           
  1835                           ;incstack = 0
  1836 ;; using string table level
  1837                           ; Regs used in _ES_Run: [wreg-fsr0h+status,2+status,0+btemp+1+pclath+cstack]
  1838  0127  1283               	bcf	3,5	;RP0=0, select bank0
  1839  0128  1303               	bcf	3,6	;RP1=0, select bank0
  1840  0129  00E3               	movwf	(?_ES_Run+1)^0
  1841  012A                     l2275:	
  1842                           ;ES_Framework.c: 233: while (Ready != 0) {
  1843                           
  1844                           ;ES_Framework.c: 226: uint8_t HighestPrior;;ES_Framework.c: 227: static ES_Event ThisEve
      +                          nt;;ES_Framework.c: 229: while (1) {
  1845                           
  1846  012A  1283               	bcf	3,5	;RP0=0, select bank0
  1847  012B  1303               	bcf	3,6	;RP1=0, select bank0
  1848  012C  0838               	movf	_Ready,w
  1849  012D  1903               	btfsc	3,2
  1850  012E  2985               	goto	l2279
  1851                           
  1852                           ;ES_Framework.c: 234: HighestPrior = ES_GetMSBitSet(Ready);
  1853  012F  0838               	movf	_Ready,w
  1854  0130  118A  23CC  118A   	fcall	_ES_GetMSBitSet
  1855  0133  1283               	bcf	3,5	;RP0=0, select bank0
  1856  0134  1303               	bcf	3,6	;RP1=0, select bank0
  1857  0135  00E4               	movwf	??_ES_Run
  1858  0136  0864               	movf	??_ES_Run,w
  1859  0137  00E6               	movwf	ES_Run@HighestPrior
  1860                           
  1861                           ;ES_Framework.c: 235: if (ES_DeQueue(EventQueues[HighestPrior].pMem, &ThisEvent) == 0) {
  1862  0138  3047               	movlw	(low (ES_Run@ThisEvent| 0))& (0+255)
  1863  0139  00E4               	movwf	??_ES_Run
  1864  013A  0864               	movf	??_ES_Run,w
  1865  013B  00CE               	movwf	ES_DeQueue@pReturnEvent
  1866  013C  0866               	movf	ES_Run@HighestPrior,w
  1867  013D  00E5               	movwf	??_ES_Run+1
  1868  013E  0765               	addwf	??_ES_Run+1,w
  1869  013F  3E20               	addlw	low ((_EventQueues-__stringbase)| (0+32768))
  1870  0140  0084               	movwf	4
  1871  0141  118A  2444  118A   	fcall	stringdir
  1872  0144  118A  2261  118A   	fcall	_ES_DeQueue
  1873  0147  3A00               	xorlw	0
  1874  0148  1D03               	skipz
  1875  0149  2977               	goto	l2273
  1876                           
  1877                           ;ES_Framework.c: 236: Ready &= ~BitNum2SetMask[HighestPrior];
  1878  014A  1283               	bcf	3,5	;RP0=0, select bank0
  1879  014B  1303               	bcf	3,6	;RP1=0, select bank0
  1880  014C  0866               	movf	ES_Run@HighestPrior,w
  1881  014D  3E18               	addlw	low ((_BitNum2SetMask-__stringbase)| (0+32768))
  1882  014E  0084               	movwf	4
  1883  014F  118A  2444  118A   	fcall	stringdir
  1884  0152  3AFF               	xorlw	255
  1885  0153  00E4               	movwf	??_ES_Run
  1886  0154  0864               	movf	??_ES_Run,w
  1887  0155  05B8               	andwf	_Ready,f
  1888  0156  2977               	goto	l2273
  1889  0157                     l2259:	
  1890                           
  1891                           ;ES_Framework.c: 245: if (RunUARTRXService(ThisEvent).EventType != ES_NO_EVENT) return F
      +                          ailedRun;
  1892  0157  0847               	movf	ES_Run@ThisEvent,w
  1893  0158  00CE               	movwf	RunUARTRXService@ThisEvent
  1894  0159  0848               	movf	ES_Run@ThisEvent+1,w
  1895  015A  00CF               	movwf	RunUARTRXService@ThisEvent+1
  1896  015B  0849               	movf	ES_Run@ThisEvent+2,w
  1897  015C  00D0               	movwf	RunUARTRXService@ThisEvent+2
  1898  015D  118A  22C4  118A   	fcall	_RunUARTRXService
  1899  0160  1283               	bcf	3,5	;RP0=0, select bank0
  1900  0161  1303               	bcf	3,6	;RP1=0, select bank0
  1901  0162  084E               	movf	?_RunUARTRXService,w
  1902  0163                     L1:	
  1903  0163  1903               	btfsc	3,2
  1904  0164  292A               	goto	l2275
  1905  0165  3002               	movlw	2
  1906  0166  00E4               	movwf	??_ES_Run
  1907  0167  0864               	movf	??_ES_Run,w
  1908  0168  00E2               	movwf	?_ES_Run
  1909  0169  2994               	goto	l71
  1910  016A                     l2265:	
  1911                           
  1912                           ;ES_Framework.c: 248: if (RunSPIService(ThisEvent).EventType != ES_NO_EVENT) return Fail
      +                          edRun;
  1913  016A  0847               	movf	ES_Run@ThisEvent,w
  1914  016B  00CA               	movwf	RunSPIService@ThisEvent
  1915  016C  0848               	movf	ES_Run@ThisEvent+1,w
  1916  016D  00CB               	movwf	RunSPIService@ThisEvent+1
  1917  016E  0849               	movf	ES_Run@ThisEvent+2,w
  1918  016F  00CC               	movwf	RunSPIService@ThisEvent+2
  1919  0170  118A  2601  118A   	fcall	_RunSPIService
  1920  0173  1283               	bcf	3,5	;RP0=0, select bank0
  1921  0174  1303               	bcf	3,6	;RP1=0, select bank0
  1922  0175  084A               	movf	?_RunSPIService,w
  1923  0176  2963               	goto	L1
  1924  0177                     l2273:	
  1925  0177  1283               	bcf	3,5	;RP0=0, select bank0
  1926  0178  1303               	bcf	3,6	;RP1=0, select bank0
  1927  0179  0866               	movf	ES_Run@HighestPrior,w
  1928                           
  1929                           ; Switch size 1, requested type "simple"
  1930                           ; Number of cases is 2, Range of values is 0 to 1
  1931                           ; switch strategies available:
  1932                           ; Name         Instructions Cycles
  1933                           ; simple_byte            7     4 (average)
  1934                           ; direct_byte           11     7 (fixed)
  1935                           ; jumptable            260     6 (fixed)
  1936                           ;	Chosen strategy is simple_byte
  1937  017A  3A00               	xorlw	0	; case 0
  1938  017B  1903               	skipnz
  1939  017C  2957               	goto	l2259
  1940  017D  3A01               	xorlw	1	; case 1
  1941  017E  1903               	skipnz
  1942  017F  296A               	goto	l2265
  1943  0180  292A               	goto	l2275
  1944  0181  292A               	goto	l2275
  1945  0182                     l2277:	
  1946                           
  1947                           ;ES_Framework.c: 255: ES_Timer_RTI_Resp();
  1948  0182  118A  21FE  118A   	fcall	_ES_Timer_RTI_Resp
  1949  0185                     l2279:	
  1950  0185  118A  25F6  118A   	fcall	_IsTimerPending
  1951  0188  3A00               	xorlw	0
  1952  0189  1D03               	skipz
  1953  018A  2982               	goto	l2277
  1954                           
  1955                           ;ES_Framework.c: 259: CheckSSEvent();
  1956  018B  118A  25B5  118A   	fcall	_CheckSSEvent
  1957                           
  1958                           ;ES_Framework.c: 260: CheckUARTRXEvent();
  1959  018E  118A  254E  118A   	fcall	_CheckUARTRXEvent
  1960  0191  1283               	bcf	3,5	;RP0=0, select bank0
  1961  0192  1303               	bcf	3,6	;RP1=0, select bank0
  1962  0193  292A               	goto	l2275
  1963  0194                     l71:	
  1964  0194  3000               	movlw	high __pjmp_tab__ES_Run
  1965  0195  008A               	movwf	10
  1966  0196  0863               	movf	(?_ES_Run+1)^0,w
  1967  0197  0082               	movwf	2
  1968  0198                     __end_of_ES_Run:	
  1969                           
  1970                           	psect	text3
  1971  02C4                     __ptext3:	
  1972 ;; *************** function _RunUARTRXService *****************
  1973 ;; Defined at:
  1974 ;;		line 141 in file "UART_RX_SM.c"
  1975 ;; Parameters:    Size  Location     Type
  1976 ;;  ThisEvent       3    4[BANK0 ] struct ES_Event_t
  1977 ;; Auto vars:     Size  Location     Type
  1978 ;;  i               1   16[BANK0 ] unsigned char 
  1979 ;;  FieldAddress    1   15[BANK0 ] unsigned char 
  1980 ;;  FieldAddress    1   14[BANK0 ] unsigned char 
  1981 ;;  ReturnEvent     3   11[BANK0 ] struct ES_Event_t
  1982 ;; Return value:  Size  Location     Type
  1983 ;;                  3    4[BANK0 ] struct ES_Event_t
  1984 ;; Registers used:
  1985 ;;		wreg, fsr0l, fsr0h, status,2, status,0, btemp+1, pclath, cstack
  1986 ;; Tracked objects:
  1987 ;;		On entry : 0/0
  1988 ;;		On exit  : 0/0
  1989 ;;		Unchanged: 0/0
  1990 ;; Data sizes:     COMMON   BANK0   BANK1   BANK2
  1991 ;;      Params:         0       3       0       0
  1992 ;;      Locals:         0       6       0       0
  1993 ;;      Temps:          0       4       0       0
  1994 ;;      Totals:         0      13       0       0
  1995 ;;Total ram usage:       13 bytes
  1996 ;; Hardware stack levels used:    1
  1997 ;; Hardware stack levels required when called:    4
  1998 ;; This function calls:
  1999 ;;		_ES_Timer_InitTimer
  2000 ;; This function is called by:
  2001 ;;		_ES_Run
  2002 ;; This function uses a non-reentrant model
  2003 ;;
  2004                           
  2005                           
  2006                           ;psect for function _RunUARTRXService
  2007  02C4                     _RunUARTRXService:	
  2008                           
  2009                           ;UART_RX_SM.c: 143: ES_Event ReturnEvent;;UART_RX_SM.c: 144: ReturnEvent.EventType = ES_
      +                          NO_EVENT;
  2010                           
  2011                           ;incstack = 0
  2012                           ; Regs used in _RunUARTRXService: [wreg-fsr0h+status,2+status,0+btemp+1+pclath+cstack]
  2013  02C4  1283               	bcf	3,5	;RP0=0, select bank0
  2014  02C5  1303               	bcf	3,6	;RP1=0, select bank0
  2015  02C6  01D5               	clrf	RunUARTRXService@ReturnEvent
  2016                           
  2017                           ;UART_RX_SM.c: 146: switch (ThisEvent.EventType)
  2018  02C7  2B13               	goto	l2087
  2019  02C8                     l2051:	
  2020                           
  2021                           ;UART_RX_SM.c: 149: if (ReceivedData[0] == 0x81)
  2022  02C8  3081               	movlw	129
  2023  02C9  063A               	xorwf	_ReceivedData,w	;volatile
  2024  02CA  1D03               	btfss	3,2
  2025  02CB  2B1B               	goto	l2089
  2026                           
  2027                           ;UART_RX_SM.c: 150: {;UART_RX_SM.c: 152: if (ReceivedData[4] & (0x00000004 | 0x00000002)
      +                          )
  2028  02CC  083E               	movf	_ReceivedData+4,w	;volatile
  2029  02CD  3906               	andlw	6
  2030  02CE  1903               	btfsc	3,2
  2031  02CF  2B1B               	goto	l2089
  2032                           
  2033                           ;UART_RX_SM.c: 153: {;UART_RX_SM.c: 154: newPackageAvailable = ((boolean) 0);
  2034  02D0  01B1               	clrf	_newPackageAvailable	;volatile
  2035                           
  2036                           ;UART_RX_SM.c: 156: uint8_t FieldAddressMSB = ReceivedData[4];
  2037  02D1  083E               	movf	_ReceivedData+4,w	;volatile
  2038  02D2  00D1               	movwf	??_RunUARTRXService
  2039  02D3  0851               	movf	??_RunUARTRXService,w
  2040  02D4  00D8               	movwf	RunUARTRXService@FieldAddressMSB
  2041                           
  2042                           ;UART_RX_SM.c: 157: uint8_t FieldAddressLSB = ReceivedData[4];
  2043  02D5  083E               	movf	_ReceivedData+4,w	;volatile
  2044  02D6  00D1               	movwf	??_RunUARTRXService
  2045  02D7  0851               	movf	??_RunUARTRXService,w
  2046  02D8  00D9               	movwf	RunUARTRXService@FieldAddressLSB
  2047                           
  2048                           ;UART_RX_SM.c: 159: FieldAddr = (FieldAddressMSB<<8) | FieldAddressLSB;
  2049  02D9  0859               	movf	RunUARTRXService@FieldAddressLSB,w
  2050  02DA  00D1               	movwf	??_RunUARTRXService
  2051  02DB  01D2               	clrf	??_RunUARTRXService+1
  2052  02DC  0858               	movf	RunUARTRXService@FieldAddressMSB,w
  2053  02DD  00D3               	movwf	??_RunUARTRXService+2
  2054  02DE  01D4               	clrf	??_RunUARTRXService+3
  2055  02DF  0853               	movf	??_RunUARTRXService+2,w
  2056  02E0  00D4               	movwf	??_RunUARTRXService+3
  2057  02E1  01D3               	clrf	??_RunUARTRXService+2
  2058  02E2  0851               	movf	??_RunUARTRXService,w
  2059  02E3  0453               	iorwf	??_RunUARTRXService+2,w
  2060  02E4  00A3               	movwf	_FieldAddr
  2061  02E5  0852               	movf	??_RunUARTRXService+1,w
  2062  02E6  0454               	iorwf	??_RunUARTRXService+3,w
  2063  02E7  00A4               	movwf	_FieldAddr+1
  2064                           
  2065                           ;UART_RX_SM.c: 162: for (uint8_t i = 0; i < 8; i++)
  2066  02E8  01DA               	clrf	RunUARTRXService@i
  2067  02E9                     l2069:	
  2068                           
  2069                           ;UART_RX_SM.c: 163: {;UART_RX_SM.c: 164: ResponseArray[i] = ReceivedData[4+1 + i];
  2070  02E9  085A               	movf	RunUARTRXService@i,w
  2071  02EA  3E3F               	addlw	(low ((_ReceivedData| 0+5)))& (0+255)
  2072  02EB  0084               	movwf	4
  2073  02EC  1383               	bcf	3,7	;select IRP bank0
  2074  02ED  0800               	movf	0,w
  2075  02EE  00D1               	movwf	??_RunUARTRXService
  2076  02EF  085A               	movf	RunUARTRXService@i,w
  2077  02F0  3EB0               	addlw	(low (_ResponseArray| 0))& (0+255)
  2078  02F1  0084               	movwf	4
  2079  02F2  0851               	movf	??_RunUARTRXService,w
  2080  02F3  0080               	movwf	0
  2081  02F4  3001               	movlw	1
  2082  02F5  00D1               	movwf	??_RunUARTRXService
  2083  02F6  0851               	movf	??_RunUARTRXService,w
  2084  02F7  07DA               	addwf	RunUARTRXService@i,f
  2085  02F8  3008               	movlw	8
  2086  02F9  025A               	subwf	RunUARTRXService@i,w
  2087  02FA  1C03               	skipc
  2088  02FB  2AE9               	goto	l2069
  2089                           
  2090                           ;UART_RX_SM.c: 165: };UART_RX_SM.c: 167: newPackageAvailable = ((boolean) !((boolean) 0)
      +                          );
  2091  02FC  3001               	movlw	1
  2092  02FD  00D1               	movwf	??_RunUARTRXService
  2093  02FE  0851               	movf	??_RunUARTRXService,w
  2094  02FF  00B1               	movwf	_newPackageAvailable	;volatile
  2095                           
  2096                           ;UART_RX_SM.c: 169: ES_Timer_InitTimer(0, 76);
  2097  0300  304C               	movlw	76
  2098  0301  00CA               	movwf	ES_Timer_InitTimer@NewTime
  2099  0302  3000               	movlw	0
  2100  0303  00CB               	movwf	ES_Timer_InitTimer@NewTime+1
  2101  0304  3000               	movlw	0
  2102  0305  118A  2508  118A   	fcall	_ES_Timer_InitTimer
  2103                           
  2104                           ;UART_RX_SM.c: 170: hasHeartbeat = ((boolean) !((boolean) 0));
  2105  0308  1283               	bcf	3,5	;RP0=0, select bank0
  2106  0309  1303               	bcf	3,6	;RP1=0, select bank0
  2107  030A  01AC               	clrf	_hasHeartbeat
  2108  030B  0AAC               	incf	_hasHeartbeat,f
  2109  030C  2B1B               	goto	l2089
  2110  030D                     l2081:	
  2111                           
  2112                           ;UART_RX_SM.c: 176: if (ThisEvent.EventParam == 0)
  2113  030D  084F               	movf	RunUARTRXService@ThisEvent+1,w
  2114  030E  0450               	iorwf	RunUARTRXService@ThisEvent+2,w
  2115  030F  1D03               	btfss	3,2
  2116  0310  2B1B               	goto	l2089
  2117                           
  2118                           ;UART_RX_SM.c: 177: {;UART_RX_SM.c: 178: hasHeartbeat = ((boolean) 0);
  2119  0311  01AC               	clrf	_hasHeartbeat
  2120  0312  2B1B               	goto	l2089
  2121  0313                     l2087:	
  2122  0313  084E               	movf	RunUARTRXService@ThisEvent,w
  2123                           
  2124                           ; Switch size 1, requested type "simple"
  2125                           ; Number of cases is 2, Range of values is 4 to 7
  2126                           ; switch strategies available:
  2127                           ; Name         Instructions Cycles
  2128                           ; simple_byte            7     4 (average)
  2129                           ; direct_byte           18    10 (fixed)
  2130                           ; jumptable            263     9 (fixed)
  2131                           ;	Chosen strategy is simple_byte
  2132  0314  3A04               	xorlw	4	; case 4
  2133  0315  1903               	skipnz
  2134  0316  2B0D               	goto	l2081
  2135  0317  3A03               	xorlw	3	; case 7
  2136  0318  1903               	skipnz
  2137  0319  2AC8               	goto	l2051
  2138  031A  2B1B               	goto	l2089
  2139  031B                     l2089:	
  2140                           
  2141                           ;UART_RX_SM.c: 185: return ReturnEvent;
  2142  031B  0855               	movf	RunUARTRXService@ReturnEvent,w
  2143  031C  00CE               	movwf	?_RunUARTRXService
  2144  031D  0856               	movf	RunUARTRXService@ReturnEvent+1,w
  2145  031E  00CF               	movwf	?_RunUARTRXService+1
  2146  031F  0857               	movf	RunUARTRXService@ReturnEvent+2,w
  2147  0320  00D0               	movwf	?_RunUARTRXService+2
  2148  0321  0008               	return
  2149  0322                     __end_of_RunUARTRXService:	
  2150                           
  2151                           	psect	text4
  2152  0508                     __ptext4:	
  2153 ;; *************** function _ES_Timer_InitTimer *****************
  2154 ;; Defined at:
  2155 ;;		line 205 in file "ES_Timers.c"
  2156 ;; Parameters:    Size  Location     Type
  2157 ;;  Num             1    wreg     unsigned char 
  2158 ;;  NewTime         2    0[BANK0 ] unsigned int 
  2159 ;; Auto vars:     Size  Location     Type
  2160 ;;  Num             1    3[BANK0 ] unsigned char 
  2161 ;; Return value:  Size  Location     Type
  2162 ;;                  1    wreg      enum E1162
  2163 ;; Registers used:
  2164 ;;		wreg, fsr0l, fsr0h, status,2, status,0, pclath
  2165 ;; Tracked objects:
  2166 ;;		On entry : 0/0
  2167 ;;		On exit  : 0/0
  2168 ;;		Unchanged: 0/0
  2169 ;; Data sizes:     COMMON   BANK0   BANK1   BANK2
  2170 ;;      Params:         0       2       0       0
  2171 ;;      Locals:         0       1       0       0
  2172 ;;      Temps:          0       1       0       0
  2173 ;;      Totals:         0       4       0       0
  2174 ;;Total ram usage:        4 bytes
  2175 ;; Hardware stack levels used:    1
  2176 ;; Hardware stack levels required when called:    3
  2177 ;; This function calls:
  2178 ;;		Nothing
  2179 ;; This function is called by:
  2180 ;;		_RunUARTRXService
  2181 ;; This function uses a non-reentrant model
  2182 ;;
  2183                           
  2184                           
  2185                           ;psect for function _ES_Timer_InitTimer
  2186  0508                     _ES_Timer_InitTimer:	
  2187                           
  2188                           ;incstack = 0
  2189                           ; Regs used in _ES_Timer_InitTimer: [wreg-fsr0h+status,2+status,0+pclath]
  2190                           ;ES_Timer_InitTimer@Num stored from wreg
  2191  0508  1283               	bcf	3,5	;RP0=0, select bank0
  2192  0509  1303               	bcf	3,6	;RP1=0, select bank0
  2193  050A  00CD               	movwf	ES_Timer_InitTimer@Num
  2194                           
  2195                           ;ES_Timers.c: 208: if( (Num >= (sizeof(TMR_TimerArray)/sizeof(TMR_TimerArray[0]))) ||;ES
      +                          _Timers.c: 210: (Timer2PostFunc[Num] == ((pPostFunc)0)) ||;ES_Timers.c: 212: (NewTime ==
      +                           0) )
  2196  050B  3008               	movlw	8
  2197  050C  024D               	subwf	ES_Timer_InitTimer@Num,w
  2198  050D  1803               	skipnc
  2199  050E  0008               	return
  2200  050F  084D               	movf	ES_Timer_InitTimer@Num,w
  2201  0510  3E10               	addlw	low ((_Timer2PostFunc-__stringbase)| (0+32768))
  2202  0511  0084               	movwf	4
  2203  0512  118A  2444  118A   	fcall	stringdir
  2204  0515  3A00               	xorlw	0
  2205  0516  1903               	skipnz
  2206  0517  0008               	return
  2207  0518  084A               	movf	ES_Timer_InitTimer@NewTime,w
  2208  0519  044B               	iorwf	ES_Timer_InitTimer@NewTime+1,w
  2209  051A  1903               	btfsc	3,2
  2210  051B  0008               	return
  2211                           
  2212                           ;ES_Timers.c: 214: TMR_TimerArray[Num] = NewTime;
  2213  051C  084D               	movf	ES_Timer_InitTimer@Num,w
  2214  051D  00CC               	movwf	??_ES_Timer_InitTimer
  2215  051E  074C               	addwf	??_ES_Timer_InitTimer,w
  2216  051F  3EA0               	addlw	(low (_TMR_TimerArray| 0))& (0+255)
  2217  0520  0084               	movwf	4
  2218  0521  084A               	movf	ES_Timer_InitTimer@NewTime,w
  2219  0522  1383               	bcf	3,7	;select IRP bank1
  2220  0523  0080               	movwf	0
  2221  0524  0A84               	incf	4,f
  2222  0525  084B               	movf	ES_Timer_InitTimer@NewTime+1,w
  2223  0526  0080               	movwf	0
  2224                           
  2225                           ;ES_Timers.c: 215: TMR_ActiveFlags |= BitNum2SetMask[Num];
  2226  0527  084D               	movf	ES_Timer_InitTimer@Num,w
  2227  0528  3E18               	addlw	low ((_BitNum2SetMask-__stringbase)| (0+32768))
  2228  0529  0084               	movwf	4
  2229  052A  118A  2444         	fcall	stringdir
  2230  052C  00CC               	movwf	??_ES_Timer_InitTimer
  2231  052D  084C               	movf	??_ES_Timer_InitTimer,w
  2232  052E  04B6               	iorwf	_TMR_ActiveFlags,f
  2233  052F  0008               	return
  2234  0530                     __end_of_ES_Timer_InitTimer:	
  2235                           
  2236                           	psect	text5
  2237  0601                     __ptext5:	
  2238 ;; *************** function _RunSPIService *****************
  2239 ;; Defined at:
  2240 ;;		line 183 in file "SPI_SM.c"
  2241 ;; Parameters:    Size  Location     Type
  2242 ;;  ThisEvent       3    0[BANK0 ] struct ES_Event_t
  2243 ;; Auto vars:     Size  Location     Type
  2244 ;;  ReturnEvent     3    3[BANK0 ] struct ES_Event_t
  2245 ;; Return value:  Size  Location     Type
  2246 ;;                  3    0[BANK0 ] struct ES_Event_t
  2247 ;; Registers used:
  2248 ;;		wreg, status,2
  2249 ;; Tracked objects:
  2250 ;;		On entry : 0/0
  2251 ;;		On exit  : 0/0
  2252 ;;		Unchanged: 0/0
  2253 ;; Data sizes:     COMMON   BANK0   BANK1   BANK2
  2254 ;;      Params:         0       3       0       0
  2255 ;;      Locals:         0       3       0       0
  2256 ;;      Temps:          0       0       0       0
  2257 ;;      Totals:         0       6       0       0
  2258 ;;Total ram usage:        6 bytes
  2259 ;; Hardware stack levels used:    1
  2260 ;; Hardware stack levels required when called:    3
  2261 ;; This function calls:
  2262 ;;		Nothing
  2263 ;; This function is called by:
  2264 ;;		_ES_Run
  2265 ;; This function uses a non-reentrant model
  2266 ;;
  2267                           
  2268                           
  2269                           ;psect for function _RunSPIService
  2270  0601                     _RunSPIService:	
  2271                           
  2272                           ;SPI_SM.c: 184: ES_Event ReturnEvent;;SPI_SM.c: 185: ReturnEvent.EventType = ES_NO_EVENT
      +                          ;
  2273                           
  2274                           ;incstack = 0
  2275                           ; Regs used in _RunSPIService: [wreg+status,2]
  2276  0601  1283               	bcf	3,5	;RP0=0, select bank0
  2277  0602  1303               	bcf	3,6	;RP1=0, select bank0
  2278  0603  01CD               	clrf	RunSPIService@ReturnEvent
  2279                           
  2280                           ;SPI_SM.c: 187: return ReturnEvent;
  2281  0604  084D               	movf	RunSPIService@ReturnEvent,w
  2282  0605  00CA               	movwf	?_RunSPIService
  2283  0606  084E               	movf	RunSPIService@ReturnEvent+1,w
  2284  0607  00CB               	movwf	?_RunSPIService+1
  2285  0608  084F               	movf	RunSPIService@ReturnEvent+2,w
  2286  0609  00CC               	movwf	?_RunSPIService+2
  2287  060A  0008               	return
  2288  060B                     __end_of_RunSPIService:	
  2289                           
  2290                           	psect	text6
  2291  05F6                     __ptext6:	
  2292 ;; *************** function _IsTimerPending *****************
  2293 ;; Defined at:
  2294 ;;		line 78 in file "ES_Port.c"
  2295 ;; Parameters:    Size  Location     Type
  2296 ;;		None
  2297 ;; Auto vars:     Size  Location     Type
  2298 ;;		None
  2299 ;; Return value:  Size  Location     Type
  2300 ;;                  1    wreg      unsigned char 
  2301 ;; Registers used:
  2302 ;;		wreg, status,2, status,0
  2303 ;; Tracked objects:
  2304 ;;		On entry : 0/0
  2305 ;;		On exit  : 0/0
  2306 ;;		Unchanged: 0/0
  2307 ;; Data sizes:     COMMON   BANK0   BANK1   BANK2
  2308 ;;      Params:         0       0       0       0
  2309 ;;      Locals:         0       0       0       0
  2310 ;;      Temps:          0       0       0       0
  2311 ;;      Totals:         0       0       0       0
  2312 ;;Total ram usage:        0 bytes
  2313 ;; Hardware stack levels used:    1
  2314 ;; Hardware stack levels required when called:    3
  2315 ;; This function calls:
  2316 ;;		Nothing
  2317 ;; This function is called by:
  2318 ;;		_ES_Run
  2319 ;; This function uses a non-reentrant model
  2320 ;;
  2321                           
  2322                           
  2323                           ;psect for function _IsTimerPending
  2324  05F6                     _IsTimerPending:	
  2325                           
  2326                           ;ES_Port.c: 79: if (TickCount > 0) {
  2327                           
  2328                           ;incstack = 0
  2329                           ; Regs used in _IsTimerPending: [wreg+status,2+status,0]
  2330  05F6  1283               	bcf	3,5	;RP0=0, select bank0
  2331  05F7  1303               	bcf	3,6	;RP1=0, select bank0
  2332  05F8  0837               	movf	_TickCount,w
  2333  05F9  1903               	btfsc	3,2
  2334  05FA  2DFF               	goto	l2129
  2335                           
  2336                           ;ES_Port.c: 80: TickCount--;
  2337  05FB  3001               	movlw	1
  2338  05FC  02B7               	subwf	_TickCount,f
  2339                           
  2340                           ;ES_Port.c: 81: return (1);
  2341  05FD  3001               	movlw	1
  2342  05FE  0008               	return
  2343  05FF                     l2129:	
  2344                           
  2345                           ;ES_Port.c: 83: return (0);
  2346  05FF  3000               	movlw	0
  2347  0600  0008               	return
  2348  0601                     __end_of_IsTimerPending:	
  2349                           
  2350                           	psect	text7
  2351  01FE                     __ptext7:	
  2352 ;; *************** function _ES_Timer_RTI_Resp *****************
  2353 ;; Defined at:
  2354 ;;		line 259 in file "ES_Timers.c"
  2355 ;; Parameters:    Size  Location     Type
  2356 ;;		None
  2357 ;; Auto vars:     Size  Location     Type
  2358 ;;		None
  2359 ;; Return value:  Size  Location     Type
  2360 ;;                  1    wreg      void 
  2361 ;; Registers used:
  2362 ;;		wreg, fsr0l, fsr0h, status,2, status,0, pclath, cstack
  2363 ;; Tracked objects:
  2364 ;;		On entry : 0/0
  2365 ;;		On exit  : 0/0
  2366 ;;		Unchanged: 0/0
  2367 ;; Data sizes:     COMMON   BANK0   BANK1   BANK2
  2368 ;;      Params:         0       0       0       0
  2369 ;;      Locals:         0       0       0       0
  2370 ;;      Temps:          0       3       0       0
  2371 ;;      Totals:         0       3       0       0
  2372 ;;Total ram usage:        3 bytes
  2373 ;; Hardware stack levels used:    1
  2374 ;; Hardware stack levels required when called:    7
  2375 ;; This function calls:
  2376 ;;		Absolute function
  2377 ;;		_ES_GetMSBitSet
  2378 ;;		_PostUARTRXService
  2379 ;; This function is called by:
  2380 ;;		_ES_Run
  2381 ;; This function uses a non-reentrant model
  2382 ;;
  2383                           
  2384                           
  2385                           ;psect for function _ES_Timer_RTI_Resp
  2386  01FE                     _ES_Timer_RTI_Resp:	
  2387                           
  2388                           ;ES_Timers.c: 260: static Tflag_t NeedsProcessing;;ES_Timers.c: 261: static uint8_t Next
      +                          Timer2Process;;ES_Timers.c: 262: static ES_Event NewEvent;;ES_Timers.c: 264: ++time;
  2389                           
  2390                           ;incstack = 0
  2391 ;; using string table level
  2392                           ; Regs used in _ES_Timer_RTI_Resp: [wreg-fsr0h+status,2+status,0+pclath+cstack]
  2393  01FE  3001               	movlw	1
  2394  01FF  1283               	bcf	3,5	;RP0=0, select bank0
  2395  0200  1303               	bcf	3,6	;RP1=0, select bank0
  2396  0201  07A5               	addwf	_time,f	;volatile
  2397  0202  1803               	skipnc
  2398  0203  0AA6               	incf	_time+1,f	;volatile
  2399  0204  3000               	movlw	0
  2400  0205  07A6               	addwf	_time+1,f	;volatile
  2401                           
  2402                           ;ES_Timers.c: 265: if (TMR_ActiveFlags != 0) {
  2403  0206  0836               	movf	_TMR_ActiveFlags,w
  2404  0207  1903               	btfsc	3,2
  2405  0208  0008               	return
  2406                           
  2407                           ;ES_Timers.c: 267: NeedsProcessing = TMR_ActiveFlags;
  2408  0209  0836               	movf	_TMR_ActiveFlags,w
  2409  020A  00DF               	movwf	??_ES_Timer_RTI_Resp
  2410  020B  085F               	movf	??_ES_Timer_RTI_Resp,w
  2411  020C  00B5               	movwf	ES_Timer_RTI_Resp@NeedsProcessing
  2412  020D                     l2105:	
  2413                           
  2414                           ;ES_Timers.c: 270: NextTimer2Process = ES_GetMSBitSet(NeedsProcessing);
  2415  020D  0835               	movf	ES_Timer_RTI_Resp@NeedsProcessing,w
  2416  020E  118A  23CC  118A   	fcall	_ES_GetMSBitSet
  2417  0211  1283               	bcf	3,5	;RP0=0, select bank0
  2418  0212  1303               	bcf	3,6	;RP1=0, select bank0
  2419  0213  00DF               	movwf	??_ES_Timer_RTI_Resp
  2420  0214  085F               	movf	??_ES_Timer_RTI_Resp,w
  2421  0215  00B4               	movwf	ES_Timer_RTI_Resp@NextTimer2Process
  2422                           
  2423                           ;ES_Timers.c: 272: if (--TMR_TimerArray[NextTimer2Process] == 0) {
  2424  0216  0834               	movf	ES_Timer_RTI_Resp@NextTimer2Process,w
  2425  0217  00DF               	movwf	??_ES_Timer_RTI_Resp
  2426  0218  075F               	addwf	??_ES_Timer_RTI_Resp,w
  2427  0219  3EA0               	addlw	(low (_TMR_TimerArray| 0))& (0+255)
  2428  021A  0084               	movwf	4
  2429  021B  3001               	movlw	1
  2430  021C  1383               	bcf	3,7	;select IRP bank1
  2431  021D  0280               	subwf	0,f
  2432  021E  0F84               	incfsz	4,f
  2433  021F  3000               	movlw	0
  2434  0220  1C03               	skipc
  2435  0221  0380               	decf	0,f
  2436  0222  0280               	subwf	0,f
  2437  0223  0384               	decf	4,f
  2438  0224  0800               	movf	0,w
  2439  0225  00E0               	movwf	??_ES_Timer_RTI_Resp+1
  2440  0226  0A84               	incf	4,f
  2441  0227  0800               	movf	0,w
  2442  0228  00E1               	movwf	??_ES_Timer_RTI_Resp+2
  2443  0229  0860               	movf	??_ES_Timer_RTI_Resp+1,w
  2444  022A  0461               	iorwf	??_ES_Timer_RTI_Resp+2,w
  2445  022B  1D03               	btfss	3,2
  2446  022C  2A53               	goto	l2115
  2447                           
  2448                           ;ES_Timers.c: 273: NewEvent.EventType = ES_TIMEOUT;
  2449  022D  3004               	movlw	4
  2450  022E  00DF               	movwf	??_ES_Timer_RTI_Resp
  2451  022F  085F               	movf	??_ES_Timer_RTI_Resp,w
  2452  0230  00A0               	movwf	ES_Timer_RTI_Resp@NewEvent
  2453                           
  2454                           ;ES_Timers.c: 274: NewEvent.EventParam = NextTimer2Process;
  2455  0231  0834               	movf	ES_Timer_RTI_Resp@NextTimer2Process,w
  2456  0232  00DF               	movwf	??_ES_Timer_RTI_Resp
  2457  0233  01E0               	clrf	??_ES_Timer_RTI_Resp+1
  2458  0234  085F               	movf	??_ES_Timer_RTI_Resp,w
  2459  0235  00A1               	movwf	ES_Timer_RTI_Resp@NewEvent+1
  2460  0236  0860               	movf	??_ES_Timer_RTI_Resp+1,w
  2461  0237  00A2               	movwf	ES_Timer_RTI_Resp@NewEvent+2
  2462                           
  2463                           ;ES_Timers.c: 276: Timer2PostFunc[NextTimer2Process](NewEvent);
  2464  0238  0820               	movf	ES_Timer_RTI_Resp@NewEvent,w
  2465  0239  00DC               	movwf	PostUARTRXService@ThisEvent
  2466  023A  0821               	movf	ES_Timer_RTI_Resp@NewEvent+1,w
  2467  023B  00DD               	movwf	PostUARTRXService@ThisEvent+1
  2468  023C  0822               	movf	ES_Timer_RTI_Resp@NewEvent+2,w
  2469  023D  00DE               	movwf	PostUARTRXService@ThisEvent+2
  2470  023E  0834               	movf	ES_Timer_RTI_Resp@NextTimer2Process,w
  2471  023F  3E10               	addlw	low ((_Timer2PostFunc-__stringbase)| (0+32768))
  2472  0240  0084               	movwf	4
  2473  0241  118A  2444  118A   	fcall	stringdir
  2474  0244  118A  2034  118A   	fcall	fptable
  2475                           
  2476                           ;ES_Timers.c: 278: TMR_ActiveFlags &= ~BitNum2SetMask[NextTimer2Process];
  2477  0247  1283               	bcf	3,5	;RP0=0, select bank0
  2478  0248  1303               	bcf	3,6	;RP1=0, select bank0
  2479  0249  0834               	movf	ES_Timer_RTI_Resp@NextTimer2Process,w
  2480  024A  3E18               	addlw	low ((_BitNum2SetMask-__stringbase)| (0+32768))
  2481  024B  0084               	movwf	4
  2482  024C  118A  2444  118A   	fcall	stringdir
  2483  024F  3AFF               	xorlw	255
  2484  0250  00DF               	movwf	??_ES_Timer_RTI_Resp
  2485  0251  085F               	movf	??_ES_Timer_RTI_Resp,w
  2486  0252  05B6               	andwf	_TMR_ActiveFlags,f
  2487  0253                     l2115:	
  2488                           
  2489                           ;ES_Timers.c: 279: };ES_Timers.c: 281: NeedsProcessing &= ~BitNum2SetMask[NextTimer2Proc
      +                          ess];
  2490  0253  0834               	movf	ES_Timer_RTI_Resp@NextTimer2Process,w
  2491  0254  3E18               	addlw	low ((_BitNum2SetMask-__stringbase)| (0+32768))
  2492  0255  0084               	movwf	4
  2493  0256  118A  2444  118A   	fcall	stringdir
  2494  0259  3AFF               	xorlw	255
  2495  025A  00DF               	movwf	??_ES_Timer_RTI_Resp
  2496  025B  085F               	movf	??_ES_Timer_RTI_Resp,w
  2497  025C  05B5               	andwf	ES_Timer_RTI_Resp@NeedsProcessing,f
  2498                           
  2499                           ;ES_Timers.c: 282: } while (NeedsProcessing != 0);
  2500  025D  0835               	movf	ES_Timer_RTI_Resp@NeedsProcessing,w
  2501  025E  1903               	btfsc	3,2
  2502  025F  0008               	return
  2503  0260  2A0D               	goto	l2105
  2504  0261                     __end_of_ES_Timer_RTI_Resp:	
  2505                           
  2506                           	psect	text8
  2507  05EA                     __ptext8:	
  2508 ;; *************** function _PostUARTRXService *****************
  2509 ;; Defined at:
  2510 ;;		line 120 in file "UART_RX_SM.c"
  2511 ;; Parameters:    Size  Location     Type
  2512 ;;  ThisEvent       3   18[BANK0 ] struct ES_Event_t
  2513 ;; Auto vars:     Size  Location     Type
  2514 ;;		None
  2515 ;; Return value:  Size  Location     Type
  2516 ;;                  1    wreg      unsigned char 
  2517 ;; Registers used:
  2518 ;;		wreg, fsr0l, fsr0h, status,2, status,0, pclath, cstack
  2519 ;; Tracked objects:
  2520 ;;		On entry : 0/0
  2521 ;;		On exit  : 0/0
  2522 ;;		Unchanged: 0/0
  2523 ;; Data sizes:     COMMON   BANK0   BANK1   BANK2
  2524 ;;      Params:         0       3       0       0
  2525 ;;      Locals:         0       0       0       0
  2526 ;;      Temps:          0       0       0       0
  2527 ;;      Totals:         0       3       0       0
  2528 ;;Total ram usage:        3 bytes
  2529 ;; Hardware stack levels used:    1
  2530 ;; Hardware stack levels required when called:    6
  2531 ;; This function calls:
  2532 ;;		_ES_PostToService
  2533 ;; This function is called by:
  2534 ;;		_ES_Timer_RTI_Resp
  2535 ;; This function uses a non-reentrant model
  2536 ;;
  2537                           
  2538                           
  2539                           ;psect for function _PostUARTRXService
  2540  05EA                     _PostUARTRXService:	
  2541                           
  2542                           ;UART_RX_SM.c: 121: return ES_PostToService(MyPriority, ThisEvent);;	Return value of _Po
      +                          stUARTRXService is never used
  2543                           
  2544                           ;incstack = 0
  2545                           ; Regs used in _PostUARTRXService: [wreg-fsr0h+status,2+status,0+pclath+cstack]
  2546  05EA  1283               	bcf	3,5	;RP0=0, select bank0
  2547  05EB  1303               	bcf	3,6	;RP1=0, select bank0
  2548  05EC  085C               	movf	PostUARTRXService@ThisEvent,w
  2549  05ED  00D7               	movwf	ES_PostToService@TheEvent
  2550  05EE  085D               	movf	PostUARTRXService@ThisEvent+1,w
  2551  05EF  00D8               	movwf	ES_PostToService@TheEvent+1
  2552  05F0  085E               	movf	PostUARTRXService@ThisEvent+2,w
  2553  05F1  00D9               	movwf	ES_PostToService@TheEvent+2
  2554  05F2  0833               	movf	_MyPriority,w
  2555  05F3  118A  24DF         	fcall	_ES_PostToService
  2556  05F5  0008               	return
  2557  05F6                     __end_of_PostUARTRXService:	
  2558                           
  2559                           	psect	text9
  2560  03CC                     __ptext9:	
  2561 ;; *************** function _ES_GetMSBitSet *****************
  2562 ;; Defined at:
  2563 ;;		line 78 in file "ES_LookupTables.c"
  2564 ;; Parameters:    Size  Location     Type
  2565 ;;  Val2Check       1    wreg     unsigned char 
  2566 ;; Auto vars:     Size  Location     Type
  2567 ;;  Val2Check       1    3[BANK0 ] unsigned char 
  2568 ;;  LoopCntr        1    6[BANK0 ] char 
  2569 ;;  Nybble2Test     1    5[BANK0 ] unsigned char 
  2570 ;;  ReturnVal       1    4[BANK0 ] unsigned char 
  2571 ;; Return value:  Size  Location     Type
  2572 ;;                  1    wreg      unsigned char 
  2573 ;; Registers used:
  2574 ;;		wreg, fsr0l, fsr0h, status,2, status,0, pclath
  2575 ;; Tracked objects:
  2576 ;;		On entry : 0/0
  2577 ;;		On exit  : 0/0
  2578 ;;		Unchanged: 0/0
  2579 ;; Data sizes:     COMMON   BANK0   BANK1   BANK2
  2580 ;;      Params:         0       0       0       0
  2581 ;;      Locals:         0       4       0       0
  2582 ;;      Temps:          0       3       0       0
  2583 ;;      Totals:         0       7       0       0
  2584 ;;Total ram usage:        7 bytes
  2585 ;; Hardware stack levels used:    1
  2586 ;; Hardware stack levels required when called:    3
  2587 ;; This function calls:
  2588 ;;		Nothing
  2589 ;; This function is called by:
  2590 ;;		_ES_Run
  2591 ;;		_ES_Timer_RTI_Resp
  2592 ;; This function uses a non-reentrant model
  2593 ;;
  2594                           
  2595                           
  2596                           ;psect for function _ES_GetMSBitSet
  2597  03CC                     _ES_GetMSBitSet:	
  2598                           
  2599                           ;incstack = 0
  2600                           ; Regs used in _ES_GetMSBitSet: [wreg-fsr0h+status,2+status,0+pclath]
  2601                           ;ES_GetMSBitSet@Val2Check stored from wreg
  2602  03CC  1283               	bcf	3,5	;RP0=0, select bank0
  2603  03CD  1303               	bcf	3,6	;RP1=0, select bank0
  2604  03CE  00CD               	movwf	ES_GetMSBitSet@Val2Check
  2605                           
  2606                           ;ES_LookupTables.c: 80: int8_t LoopCntr;;ES_LookupTables.c: 81: uint8_t Nybble2Test;;ES_
      +                          LookupTables.c: 82: uint8_t ReturnVal = 128;
  2607  03CF  3080               	movlw	128
  2608  03D0  00CA               	movwf	??_ES_GetMSBitSet
  2609  03D1  084A               	movf	??_ES_GetMSBitSet,w
  2610  03D2  00CE               	movwf	ES_GetMSBitSet@ReturnVal
  2611                           
  2612                           ;ES_LookupTables.c: 85: for( LoopCntr = sizeof(Val2Check) * (8/4)-1;
  2613  03D3  01D0               	clrf	ES_GetMSBitSet@LoopCntr
  2614  03D4  0AD0               	incf	ES_GetMSBitSet@LoopCntr,f
  2615  03D5                     l1953:	
  2616                           
  2617                           ;ES_LookupTables.c: 88: Nybble2Test = (uint8_t);ES_LookupTables.c: 89: ((Val2Check >> (u
      +                          int8_t)(LoopCntr * 4)) &;ES_LookupTables.c: 90: 0x0F);
  2618  03D5  084D               	movf	ES_GetMSBitSet@Val2Check,w
  2619  03D6  00CA               	movwf	??_ES_GetMSBitSet
  2620  03D7  0850               	movf	ES_GetMSBitSet@LoopCntr,w
  2621  03D8  00CB               	movwf	??_ES_GetMSBitSet+1
  2622  03D9  3001               	movlw	1
  2623  03DA                     u885:	
  2624  03DA  1003               	clrc
  2625  03DB  0DCB               	rlf	??_ES_GetMSBitSet+1,f
  2626  03DC  3EFF               	addlw	-1
  2627  03DD  1D03               	skipz
  2628  03DE  2BDA               	goto	u885
  2629  03DF  1003               	clrc
  2630  03E0  0D4B               	rlf	??_ES_GetMSBitSet+1,w
  2631  03E1  3E01               	addlw	1
  2632  03E2  2BE5               	goto	u894
  2633  03E3                     u895:	
  2634  03E3  1003               	clrc
  2635  03E4  0CCA               	rrf	??_ES_GetMSBitSet,f
  2636  03E5                     u894:	
  2637  03E5  3EFF               	addlw	-1
  2638  03E6  1D03               	skipz
  2639  03E7  2BE3               	goto	u895
  2640  03E8  084A               	movf	??_ES_GetMSBitSet,w
  2641  03E9  390F               	andlw	15
  2642  03EA  00CC               	movwf	??_ES_GetMSBitSet+2
  2643  03EB  084C               	movf	??_ES_GetMSBitSet+2,w
  2644  03EC  00CF               	movwf	ES_GetMSBitSet@Nybble2Test
  2645                           
  2646                           ;ES_LookupTables.c: 91: if ( Nybble2Test != 0){
  2647  03ED  084F               	movf	ES_GetMSBitSet@Nybble2Test,w
  2648  03EE  1903               	btfsc	3,2
  2649  03EF  2C03               	goto	l1957
  2650                           
  2651                           ;ES_LookupTables.c: 93: ReturnVal = Nybble2MSBitNum[Nybble2Test-1] +;ES_LookupTables.c: 
      +                          94: (LoopCntr * 4);
  2652  03F0  0850               	movf	ES_GetMSBitSet@LoopCntr,w
  2653  03F1  00CA               	movwf	??_ES_GetMSBitSet
  2654  03F2  3002               	movlw	2
  2655  03F3                     u915:	
  2656  03F3  1003               	clrc
  2657  03F4  0DCA               	rlf	??_ES_GetMSBitSet,f
  2658  03F5  3EFF               	addlw	-1
  2659  03F6  1D03               	skipz
  2660  03F7  2BF3               	goto	u915
  2661  03F8  084F               	movf	ES_GetMSBitSet@Nybble2Test,w
  2662  03F9  3E00               	addlw	low (((_Nybble2MSBitNum-__stringbase)| (0+32768)+255))
  2663  03FA  0084               	movwf	4
  2664  03FB  118A  2444  118A   	fcall	stringdir
  2665  03FE  074A               	addwf	??_ES_GetMSBitSet,w
  2666  03FF  00CB               	movwf	??_ES_GetMSBitSet+1
  2667  0400  084B               	movf	??_ES_GetMSBitSet+1,w
  2668  0401  00CE               	movwf	ES_GetMSBitSet@ReturnVal
  2669                           
  2670                           ;ES_LookupTables.c: 95: break;
  2671  0402  2C09               	goto	l1961
  2672  0403                     l1957:	
  2673  0403  30FF               	movlw	255
  2674  0404  00CA               	movwf	??_ES_GetMSBitSet
  2675  0405  084A               	movf	??_ES_GetMSBitSet,w
  2676  0406  07D0               	addwf	ES_GetMSBitSet@LoopCntr,f
  2677  0407  1FD0               	btfss	ES_GetMSBitSet@LoopCntr,7
  2678  0408  2BD5               	goto	l1953
  2679  0409                     l1961:	
  2680                           
  2681                           ;ES_LookupTables.c: 96: };ES_LookupTables.c: 97: };ES_LookupTables.c: 98: return ReturnV
      +                          al;
  2682  0409  084E               	movf	ES_GetMSBitSet@ReturnVal,w
  2683  040A  0008               	return
  2684  040B                     __end_of_ES_GetMSBitSet:	
  2685                           
  2686                           	psect	text10
  2687  0261                     __ptext10:	
  2688 ;; *************** function _ES_DeQueue *****************
  2689 ;; Defined at:
  2690 ;;		line 125 in file "ES_Queue.c"
  2691 ;; Parameters:    Size  Location     Type
  2692 ;;  pBlock          1    wreg     PTR struct ES_Event_t
  2693 ;;		 -> Queue1(12), Queue0(12), 
  2694 ;;  pReturnEvent    1    4[BANK0 ] PTR struct ES_Event_t
  2695 ;;		 -> ES_Run@ThisEvent(3), 
  2696 ;; Auto vars:     Size  Location     Type
  2697 ;;  pBlock          1   12[BANK0 ] PTR struct ES_Event_t
  2698 ;;		 -> Queue1(12), Queue0(12), 
  2699 ;;  pThisQueue      1   13[BANK0 ] PTR struct .
  2700 ;;		 -> Queue1(12), Queue0(12), 
  2701 ;;  NumLeft         1   11[BANK0 ] unsigned char 
  2702 ;;  saveCrit        1   10[BANK0 ] unsigned char 
  2703 ;; Return value:  Size  Location     Type
  2704 ;;                  1    wreg      unsigned char 
  2705 ;; Registers used:
  2706 ;;		wreg, fsr0l, fsr0h, status,2, status,0, pclath, cstack
  2707 ;; Tracked objects:
  2708 ;;		On entry : 0/0
  2709 ;;		On exit  : 0/0
  2710 ;;		Unchanged: 0/0
  2711 ;; Data sizes:     COMMON   BANK0   BANK1   BANK2
  2712 ;;      Params:         0       1       0       0
  2713 ;;      Locals:         0       4       0       0
  2714 ;;      Temps:          0       5       0       0
  2715 ;;      Totals:         0      10       0       0
  2716 ;;Total ram usage:       10 bytes
  2717 ;; Hardware stack levels used:    1
  2718 ;; Hardware stack levels required when called:    4
  2719 ;; This function calls:
  2720 ;;		___bmul
  2721 ;; This function is called by:
  2722 ;;		_ES_Run
  2723 ;; This function uses a non-reentrant model
  2724 ;;
  2725                           
  2726                           
  2727                           ;psect for function _ES_DeQueue
  2728  0261                     _ES_DeQueue:	
  2729                           
  2730                           ;incstack = 0
  2731                           ; Regs used in _ES_DeQueue: [wreg-fsr0h+status,2+status,0+pclath+cstack]
  2732                           ;ES_DeQueue@pBlock stored from wreg
  2733  0261  1283               	bcf	3,5	;RP0=0, select bank0
  2734  0262  1303               	bcf	3,6	;RP1=0, select bank0
  2735  0263  00D6               	movwf	ES_DeQueue@pBlock
  2736                           
  2737                           ;ES_Queue.c: 127: unsigned char saveCrit;;ES_Queue.c: 128: pQueue_t pThisQueue;;ES_Queue
      +                          .c: 129: uint8_t NumLeft;;ES_Queue.c: 131: pThisQueue = (pQueue_t)pBlock;
  2738  0264  0856               	movf	ES_DeQueue@pBlock,w
  2739  0265  00CF               	movwf	??_ES_DeQueue
  2740  0266  084F               	movf	??_ES_DeQueue,w
  2741  0267  00D7               	movwf	ES_DeQueue@pThisQueue
  2742                           
  2743                           ;ES_Queue.c: 132: if ( pThisQueue->NumEntries > 0)
  2744  0268  0857               	movf	ES_DeQueue@pThisQueue,w
  2745  0269  3E02               	addlw	2
  2746  026A  0084               	movwf	4
  2747  026B  1383               	bcf	3,7	;select IRP bank0
  2748  026C  0800               	movf	0,w
  2749  026D  1903               	btfsc	3,2
  2750  026E  2AB9               	goto	l2039
  2751  026F  080B               	movf	11,w	;volatile
  2752  0270  00CF               	movwf	??_ES_DeQueue
  2753  0271  084F               	movf	??_ES_DeQueue,w
  2754  0272  00D4               	movwf	ES_DeQueue@saveCrit
  2755  0273  138B               	bcf	11,7	;volatile
  2756                           
  2757                           ;ES_Queue.c: 135: *pReturnEvent = pBlock[ 1 + pThisQueue->CurrentIndex ];
  2758  0274  3003               	movlw	3
  2759  0275  00CF               	movwf	??_ES_DeQueue
  2760  0276  084F               	movf	??_ES_DeQueue,w
  2761  0277  00CA               	movwf	___bmul@multiplicand
  2762  0278  0A57               	incf	ES_DeQueue@pThisQueue,w
  2763  0279  0084               	movwf	4
  2764  027A  0800               	movf	0,w
  2765  027B  118A  25C8  118A   	fcall	___bmul
  2766  027E  1283               	bcf	3,5	;RP0=0, select bank0
  2767  027F  1303               	bcf	3,6	;RP1=0, select bank0
  2768  0280  0756               	addwf	ES_DeQueue@pBlock,w
  2769  0281  00D0               	movwf	??_ES_DeQueue+1
  2770  0282  0850               	movf	??_ES_DeQueue+1,w
  2771  0283  3E03               	addlw	3
  2772  0284  0084               	movwf	4
  2773  0285  1383               	bcf	3,7	;select IRP bank0
  2774  0286  0800               	movf	0,w
  2775  0287  00D1               	movwf	??_ES_DeQueue+2
  2776  0288  0A84               	incf	4,f
  2777  0289  0800               	movf	0,w
  2778  028A  00D2               	movwf	??_ES_DeQueue+3
  2779  028B  0A84               	incf	4,f
  2780  028C  0800               	movf	0,w
  2781  028D  00D3               	movwf	??_ES_DeQueue+4
  2782  028E  084E               	movf	ES_DeQueue@pReturnEvent,w
  2783  028F  0084               	movwf	4
  2784  0290  0851               	movf	??_ES_DeQueue+2,w
  2785  0291  0080               	movwf	0
  2786  0292  0A84               	incf	4,f
  2787  0293  0852               	movf	??_ES_DeQueue+3,w
  2788  0294  0080               	movwf	0
  2789  0295  0A84               	incf	4,f
  2790  0296  0853               	movf	??_ES_DeQueue+4,w
  2791  0297  0080               	movwf	0
  2792                           
  2793                           ;ES_Queue.c: 137: pThisQueue->CurrentIndex++;
  2794  0298  3001               	movlw	1
  2795  0299  00CF               	movwf	??_ES_DeQueue
  2796  029A  0A57               	incf	ES_DeQueue@pThisQueue,w
  2797  029B  0084               	movwf	4
  2798  029C  084F               	movf	??_ES_DeQueue,w
  2799  029D  0780               	addwf	0,f
  2800                           
  2801                           ;ES_Queue.c: 138: if (pThisQueue->CurrentIndex >= pThisQueue->QueueSize)
  2802  029E  0857               	movf	ES_DeQueue@pThisQueue,w
  2803  029F  0084               	movwf	4
  2804  02A0  0800               	movf	0,w
  2805  02A1  00CF               	movwf	??_ES_DeQueue
  2806  02A2  0A57               	incf	ES_DeQueue@pThisQueue,w
  2807  02A3  0084               	movwf	4
  2808  02A4  0800               	movf	0,w
  2809  02A5  00D0               	movwf	??_ES_DeQueue+1
  2810  02A6  084F               	movf	??_ES_DeQueue,w
  2811  02A7  0250               	subwf	??_ES_DeQueue+1,w
  2812  02A8  1C03               	skipc
  2813  02A9  2AAD               	goto	l2035
  2814                           
  2815                           ;ES_Queue.c: 139: pThisQueue->CurrentIndex = 0;
  2816  02AA  0A57               	incf	ES_DeQueue@pThisQueue,w
  2817  02AB  0084               	movwf	4
  2818  02AC  0180               	clrf	0
  2819  02AD                     l2035:	
  2820                           
  2821                           ;ES_Queue.c: 141: NumLeft = --pThisQueue->NumEntries;
  2822  02AD  0857               	movf	ES_DeQueue@pThisQueue,w
  2823  02AE  3E02               	addlw	2
  2824  02AF  0084               	movwf	4
  2825  02B0  3001               	movlw	1
  2826  02B1  0280               	subwf	0,f
  2827  02B2  0800               	movf	0,w
  2828  02B3  00CF               	movwf	??_ES_DeQueue
  2829  02B4  084F               	movf	??_ES_DeQueue,w
  2830  02B5  00D5               	movwf	ES_DeQueue@NumLeft
  2831                           
  2832                           ;ES_Queue.c: 142: {INTCON = saveCrit;};
  2833  02B6  0854               	movf	ES_DeQueue@saveCrit,w
  2834  02B7  008B               	movwf	11	;volatile
  2835                           
  2836                           ;ES_Queue.c: 143: }else {
  2837  02B8  2AC2               	goto	l2045
  2838  02B9                     l2039:	
  2839                           
  2840                           ;ES_Queue.c: 144: (*pReturnEvent).EventType = ES_NO_EVENT;
  2841  02B9  084E               	movf	ES_DeQueue@pReturnEvent,w
  2842  02BA  0084               	movwf	4
  2843  02BB  0180               	clrf	0
  2844                           
  2845                           ;ES_Queue.c: 145: (*pReturnEvent).EventParam = 0;
  2846  02BC  0A4E               	incf	ES_DeQueue@pReturnEvent,w
  2847  02BD  0084               	movwf	4
  2848  02BE  0180               	clrf	0
  2849  02BF  0A84               	incf	4,f
  2850  02C0  0180               	clrf	0
  2851                           
  2852                           ;ES_Queue.c: 146: NumLeft = 0;
  2853  02C1  01D5               	clrf	ES_DeQueue@NumLeft
  2854  02C2                     l2045:	
  2855                           
  2856                           ;ES_Queue.c: 147: };ES_Queue.c: 148: return NumLeft;
  2857  02C2  0855               	movf	ES_DeQueue@NumLeft,w
  2858  02C3  0008               	return
  2859  02C4                     __end_of_ES_DeQueue:	
  2860                           
  2861                           	psect	text11
  2862  054E                     __ptext11:	
  2863 ;; *************** function _CheckUARTRXEvent *****************
  2864 ;; Defined at:
  2865 ;;		line 421 in file "UART_RX_SM.c"
  2866 ;; Parameters:    Size  Location     Type
  2867 ;;		None
  2868 ;; Auto vars:     Size  Location     Type
  2869 ;;  CommEvent       3   19[BANK0 ] struct ES_Event_t
  2870 ;; Return value:  Size  Location     Type
  2871 ;;                  1    wreg      unsigned char 
  2872 ;; Registers used:
  2873 ;;		wreg, fsr0l, fsr0h, status,2, status,0, pclath, cstack
  2874 ;; Tracked objects:
  2875 ;;		On entry : 0/0
  2876 ;;		On exit  : 0/0
  2877 ;;		Unchanged: 0/0
  2878 ;; Data sizes:     COMMON   BANK0   BANK1   BANK2
  2879 ;;      Params:         0       0       0       0
  2880 ;;      Locals:         0       3       0       0
  2881 ;;      Temps:          0       1       0       0
  2882 ;;      Totals:         0       4       0       0
  2883 ;;Total ram usage:        4 bytes
  2884 ;; Hardware stack levels used:    1
  2885 ;; Hardware stack levels required when called:    6
  2886 ;; This function calls:
  2887 ;;		_ES_PostToService
  2888 ;; This function is called by:
  2889 ;;		_ES_Run
  2890 ;;		_ES_CheckUserEvents
  2891 ;; This function uses a non-reentrant model
  2892 ;;
  2893                           
  2894                           
  2895                           ;psect for function _CheckUARTRXEvent
  2896  054E                     _CheckUARTRXEvent:	
  2897                           
  2898                           ;UART_RX_SM.c: 422: if (RXFlag)
  2899                           
  2900                           ;incstack = 0
  2901                           ; Regs used in _CheckUARTRXEvent: [wreg-fsr0h+status,2+status,0+pclath+cstack]
  2902  054E  1283               	bcf	3,5	;RP0=0, select bank0
  2903  054F  1303               	bcf	3,6	;RP1=0, select bank0
  2904  0550  082D               	movf	_RXFlag,w	;volatile
  2905  0551  1903               	btfsc	3,2
  2906  0552  2D67               	goto	l1995
  2907                           
  2908                           ;UART_RX_SM.c: 423: {;UART_RX_SM.c: 425: ES_Event CommEvent;;UART_RX_SM.c: 426: CommEven
      +                          t.EventType = ES_RX_NEW_PACKET;
  2909  0553  3007               	movlw	7
  2910  0554  00DC               	movwf	??_CheckUARTRXEvent
  2911  0555  085C               	movf	??_CheckUARTRXEvent,w
  2912  0556  00DD               	movwf	CheckUARTRXEvent@CommEvent
  2913                           
  2914                           ;UART_RX_SM.c: 427: CommEvent.EventParam = 0;
  2915  0557  01DE               	clrf	CheckUARTRXEvent@CommEvent+1
  2916  0558  01DF               	clrf	CheckUARTRXEvent@CommEvent+2
  2917                           
  2918                           ;UART_RX_SM.c: 428: ES_PostToService(0, CommEvent);
  2919  0559  085D               	movf	CheckUARTRXEvent@CommEvent,w
  2920  055A  00D7               	movwf	ES_PostToService@TheEvent
  2921  055B  085E               	movf	CheckUARTRXEvent@CommEvent+1,w
  2922  055C  00D8               	movwf	ES_PostToService@TheEvent+1
  2923  055D  085F               	movf	CheckUARTRXEvent@CommEvent+2,w
  2924  055E  00D9               	movwf	ES_PostToService@TheEvent+2
  2925  055F  3000               	movlw	0
  2926  0560  118A  24DF         	fcall	_ES_PostToService
  2927                           
  2928                           ;UART_RX_SM.c: 430: RXFlag = ((boolean) 0);
  2929  0562  1283               	bcf	3,5	;RP0=0, select bank0
  2930  0563  1303               	bcf	3,6	;RP1=0, select bank0
  2931  0564  01AD               	clrf	_RXFlag	;volatile
  2932                           
  2933                           ;UART_RX_SM.c: 431: return ((boolean) !((boolean) 0));
  2934  0565  3001               	movlw	1
  2935  0566  0008               	return
  2936  0567                     l1995:	
  2937                           
  2938                           ;UART_RX_SM.c: 432: };UART_RX_SM.c: 433: return ((boolean) 0);
  2939  0567  3000               	movlw	0
  2940  0568  0008               	return
  2941  0569                     __end_of_CheckUARTRXEvent:	
  2942                           
  2943                           	psect	text12
  2944  05B5                     __ptext12:	
  2945 ;; *************** function _CheckSSEvent *****************
  2946 ;; Defined at:
  2947 ;;		line 358 in file "SPI_SM.c"
  2948 ;; Parameters:    Size  Location     Type
  2949 ;;		None
  2950 ;; Auto vars:     Size  Location     Type
  2951 ;;  thisSS          1    2[BANK0 ] unsigned char 
  2952 ;;  returnVal       1    0        unsigned char 
  2953 ;; Return value:  Size  Location     Type
  2954 ;;                  1    wreg      unsigned char 
  2955 ;; Registers used:
  2956 ;;		wreg, status,2, status,0
  2957 ;; Tracked objects:
  2958 ;;		On entry : 0/0
  2959 ;;		On exit  : 0/0
  2960 ;;		Unchanged: 0/0
  2961 ;; Data sizes:     COMMON   BANK0   BANK1   BANK2
  2962 ;;      Params:         0       0       0       0
  2963 ;;      Locals:         0       2       0       0
  2964 ;;      Temps:          0       1       0       0
  2965 ;;      Totals:         0       3       0       0
  2966 ;;Total ram usage:        3 bytes
  2967 ;; Hardware stack levels used:    1
  2968 ;; Hardware stack levels required when called:    3
  2969 ;; This function calls:
  2970 ;;		Nothing
  2971 ;; This function is called by:
  2972 ;;		_ES_Run
  2973 ;; This function uses a non-reentrant model
  2974 ;;
  2975                           
  2976                           
  2977                           ;psect for function _CheckSSEvent
  2978  05B5                     _CheckSSEvent:	
  2979                           
  2980                           ;SPI_SM.c: 363: thisSS = RC6;
  2981                           
  2982                           ;incstack = 0
  2983                           ; Regs used in _CheckSSEvent: [wreg+status,2+status,0]
  2984  05B5  3000               	movlw	0
  2985  05B6  1283               	bcf	3,5	;RP0=0, select bank0
  2986  05B7  1303               	bcf	3,6	;RP1=0, select bank0
  2987  05B8  1B07               	btfsc	7,6	;volatile
  2988  05B9  3001               	movlw	1
  2989  05BA  00CC               	movwf	CheckSSEvent@thisSS
  2990                           
  2991                           ;SPI_SM.c: 364: if (thisSS != lastSS && thisSS)
  2992  05BB  084C               	movf	CheckSSEvent@thisSS,w
  2993  05BC  0627               	xorwf	CheckSSEvent@lastSS,w
  2994  05BD  1903               	skipnz
  2995  05BE  2DC3               	goto	l2143
  2996  05BF  084C               	movf	CheckSSEvent@thisSS,w
  2997  05C0  1903               	btfsc	3,2
  2998  05C1  2DC3               	goto	l2143
  2999                           
  3000                           ;SPI_SM.c: 365: {;SPI_SM.c: 367: currentState = Waiting4Command;
  3001  05C2  01AA               	clrf	SPI_SM@currentState
  3002  05C3                     l2143:	
  3003                           
  3004                           ;SPI_SM.c: 369: };SPI_SM.c: 371: lastSS = thisSS;
  3005  05C3  084C               	movf	CheckSSEvent@thisSS,w
  3006  05C4  00CA               	movwf	??_CheckSSEvent
  3007  05C5  084A               	movf	??_CheckSSEvent,w
  3008  05C6  00A7               	movwf	CheckSSEvent@lastSS
  3009  05C7  0008               	return
  3010  05C8                     __end_of_CheckSSEvent:	
  3011                           
  3012                           	psect	text13
  3013  0322                     __ptext13:	
  3014 ;; *************** function _ES_Initialize *****************
  3015 ;; Defined at:
  3016 ;;		line 189 in file "ES_Framework.c"
  3017 ;; Parameters:    Size  Location     Type
  3018 ;;  NewRate         1    wreg     enum E93
  3019 ;; Auto vars:     Size  Location     Type
  3020 ;;  NewRate         1    0[COMMON] enum E93
  3021 ;;  i               1   26[BANK0 ] unsigned char 
  3022 ;; Return value:  Size  Location     Type
  3023 ;;                  1    wreg      enum E1275
  3024 ;; Registers used:
  3025 ;;		wreg, fsr0l, fsr0h, status,2, status,0, pclath, cstack
  3026 ;; Tracked objects:
  3027 ;;		On entry : 0/0
  3028 ;;		On exit  : 0/0
  3029 ;;		Unchanged: 0/0
  3030 ;; Data sizes:     COMMON   BANK0   BANK1   BANK2
  3031 ;;      Params:         0       0       0       0
  3032 ;;      Locals:         0       1       0       0
  3033 ;;      Temps:          0       3       0       0
  3034 ;;      Totals:         0       4       0       0
  3035 ;;Total ram usage:        4 bytes
  3036 ;; Hardware stack levels used:    1
  3037 ;; Hardware stack levels required when called:    7
  3038 ;; This function calls:
  3039 ;;		_ES_InitQueue
  3040 ;;		_ES_Sys_Timer_Init
  3041 ;;		_InitSPIService
  3042 ;;		_InitUARTRXService
  3043 ;; This function is called by:
  3044 ;;		_main
  3045 ;; This function uses a non-reentrant model
  3046 ;;
  3047                           
  3048                           
  3049                           ;psect for function _ES_Initialize
  3050  0322                     _ES_Initialize:	
  3051                           
  3052                           ;ES_Framework.c: 190: unsigned char i;;ES_Framework.c: 191: ES_Sys_Timer_Init();
  3053                           
  3054                           ;incstack = 0
  3055 ;; using string table level
  3056                           ; Regs used in _ES_Initialize: [wreg-fsr0h+status,2+status,0+pclath+cstack]
  3057  0322  118A  2530  118A   	fcall	_ES_Sys_Timer_Init
  3058                           
  3059                           ;ES_Framework.c: 193: for (i = 0; i < (sizeof(ServDescList)/sizeof(ServDescList[0])); i+
      +                          +) {
  3060  0325  1283               	bcf	3,5	;RP0=0, select bank0
  3061  0326  1303               	bcf	3,6	;RP1=0, select bank0
  3062  0327  01E4               	clrf	ES_Initialize@i
  3063  0328                     l2233:	
  3064                           
  3065                           ;ES_Framework.c: 194: if ((ServDescList[i].InitFunc == (pInitFunc) 0) ||;ES_Framework.c:
      +                           195: (ServDescList[i].RunFunc == (pRunFunc) 0))
  3066  0328  0864               	movf	ES_Initialize@i,w
  3067  0329  00E1               	movwf	??_ES_Initialize
  3068  032A  0761               	addwf	??_ES_Initialize,w
  3069  032B  3E24               	addlw	low ((_ServDescList-__stringbase)| (0+32768))
  3070  032C  0084               	movwf	4
  3071  032D  118A  2444  118A   	fcall	stringdir
  3072  0330  3A00               	xorlw	0
  3073  0331  1903               	skipnz
  3074  0332  2B3E               	goto	l2237
  3075  0333  0864               	movf	ES_Initialize@i,w
  3076  0334  00E1               	movwf	??_ES_Initialize
  3077  0335  0761               	addwf	??_ES_Initialize,w
  3078  0336  3E25               	addlw	low (((_ServDescList-__stringbase)| (0+32768)+1))
  3079  0337  0084               	movwf	4
  3080  0338  118A  2444  118A   	fcall	stringdir
  3081  033B  3A00               	xorlw	0
  3082  033C  1D03               	skipz
  3083  033D  2B40               	goto	l2241
  3084  033E                     l2237:	
  3085                           
  3086                           ;ES_Framework.c: 196: return FailedPointer;
  3087  033E  3003               	movlw	3
  3088  033F  0008               	return
  3089  0340                     l2241:	
  3090                           
  3091                           ;ES_Framework.c: 198: ES_InitQueue(EventQueues[i].pMem, EventQueues[i].Size);
  3092  0340  0864               	movf	ES_Initialize@i,w
  3093  0341  00E1               	movwf	??_ES_Initialize
  3094  0342  0761               	addwf	??_ES_Initialize,w
  3095  0343  3E21               	addlw	low (((_EventQueues-__stringbase)| (0+32768)+1))
  3096  0344  0084               	movwf	4
  3097  0345  118A  2444  118A   	fcall	stringdir
  3098  0348  00E2               	movwf	??_ES_Initialize+1
  3099  0349  0862               	movf	??_ES_Initialize+1,w
  3100  034A  00CA               	movwf	ES_InitQueue@BlockSize
  3101  034B  0864               	movf	ES_Initialize@i,w
  3102  034C  00E3               	movwf	??_ES_Initialize+2
  3103  034D  0763               	addwf	??_ES_Initialize+2,w
  3104  034E  3E20               	addlw	low ((_EventQueues-__stringbase)| (0+32768))
  3105  034F  0084               	movwf	4
  3106  0350  118A  2444  118A   	fcall	stringdir
  3107  0353  118A  259E  118A   	fcall	_ES_InitQueue
  3108                           
  3109                           ;ES_Framework.c: 200: if (ServDescList[i].InitFunc(i) != ((boolean) !((boolean) 0)))
  3110  0356  1283               	bcf	3,5	;RP0=0, select bank0
  3111  0357  1303               	bcf	3,6	;RP1=0, select bank0
  3112  0358  0864               	movf	ES_Initialize@i,w
  3113  0359  00E1               	movwf	??_ES_Initialize
  3114  035A  0861               	movf	??_ES_Initialize,w
  3115  035B  00DC               	movwf	InitSPIService@Priority
  3116  035C  0864               	movf	ES_Initialize@i,w
  3117  035D  00E2               	movwf	??_ES_Initialize+1
  3118  035E  0762               	addwf	??_ES_Initialize+1,w
  3119  035F  3E24               	addlw	low ((_ServDescList-__stringbase)| (0+32768))
  3120  0360  0084               	movwf	4
  3121  0361  118A  2444  118A   	fcall	stringdir
  3122  0364  118A  2034  118A   	fcall	fptable
  3123  0367  3A01               	xorlw	1
  3124  0368  1903               	skipnz
  3125  0369  2B6C               	goto	l2247
  3126                           
  3127                           ;ES_Framework.c: 201: return FailedInit;
  3128  036A  3005               	movlw	5
  3129  036B  0008               	return
  3130  036C                     l2247:	
  3131  036C  3001               	movlw	1
  3132  036D  1283               	bcf	3,5	;RP0=0, select bank0
  3133  036E  1303               	bcf	3,6	;RP1=0, select bank0
  3134  036F  00E1               	movwf	??_ES_Initialize
  3135  0370  0861               	movf	??_ES_Initialize,w
  3136  0371  07E4               	addwf	ES_Initialize@i,f
  3137  0372  3002               	movlw	2
  3138  0373  0264               	subwf	ES_Initialize@i,w
  3139  0374  1C03               	skipc
  3140  0375  2B28               	goto	l2233
  3141                           
  3142                           ;ES_Framework.c: 202: };ES_Framework.c: 203: return Success;
  3143  0376  3000               	movlw	0
  3144  0377  0008               	return
  3145  0378                     __end_of_ES_Initialize:	
  3146                           
  3147                           	psect	text14
  3148  040B                     __ptext14:	
  3149 ;; *************** function _InitSPIService *****************
  3150 ;; Defined at:
  3151 ;;		line 98 in file "SPI_SM.c"
  3152 ;; Parameters:    Size  Location     Type
  3153 ;;  Priority        1   18[BANK0 ] unsigned char 
  3154 ;; Auto vars:     Size  Location     Type
  3155 ;;  ThisEvent       3   20[BANK0 ] struct ES_Event_t
  3156 ;; Return value:  Size  Location     Type
  3157 ;;                  1    wreg      unsigned char 
  3158 ;; Registers used:
  3159 ;;		wreg, fsr0l, fsr0h, status,2, status,0, pclath, cstack
  3160 ;; Tracked objects:
  3161 ;;		On entry : 0/0
  3162 ;;		On exit  : 0/0
  3163 ;;		Unchanged: 0/0
  3164 ;; Data sizes:     COMMON   BANK0   BANK1   BANK2
  3165 ;;      Params:         0       1       0       0
  3166 ;;      Locals:         0       3       0       0
  3167 ;;      Temps:          0       1       0       0
  3168 ;;      Totals:         0       5       0       0
  3169 ;;Total ram usage:        5 bytes
  3170 ;; Hardware stack levels used:    1
  3171 ;; Hardware stack levels required when called:    6
  3172 ;; This function calls:
  3173 ;;		_ES_PostToService
  3174 ;; This function is called by:
  3175 ;;		_ES_Initialize
  3176 ;; This function uses a non-reentrant model
  3177 ;;
  3178                           
  3179                           
  3180                           ;psect for function _InitSPIService
  3181  040B                     _InitSPIService:	
  3182                           
  3183                           ;SPI_SM.c: 99: ES_Event ThisEvent;;SPI_SM.c: 101: MyPriority = Priority;
  3184                           
  3185                           ;incstack = 0
  3186                           ; Regs used in _InitSPIService: [wreg-fsr0h+status,2+status,0+pclath+cstack]
  3187  040B  1283               	bcf	3,5	;RP0=0, select bank0
  3188  040C  1303               	bcf	3,6	;RP1=0, select bank0
  3189  040D  085C               	movf	InitSPIService@Priority,w
  3190  040E  00DD               	movwf	??_InitSPIService
  3191  040F  085D               	movf	??_InitSPIService,w
  3192  0410  00AB               	movwf	SPI_SM@MyPriority
  3193                           
  3194                           ;SPI_SM.c: 104: GIE = 0;
  3195  0411  138B               	bcf	11,7	;volatile
  3196                           
  3197                           ;SPI_SM.c: 108: SSPSTAT = 0b00000000;
  3198  0412  1683               	bsf	3,5	;RP0=1, select bank1
  3199  0413  1303               	bcf	3,6	;RP1=0, select bank1
  3200  0414  0194               	clrf	20	;volatile
  3201                           
  3202                           ;SPI_SM.c: 116: TRISC7 = 0;
  3203  0415  1387               	bcf	7,7	;volatile
  3204                           
  3205                           ;SPI_SM.c: 117: TRISB4 = 1;
  3206  0416  1606               	bsf	6,4	;volatile
  3207                           
  3208                           ;SPI_SM.c: 118: TRISB6 = 1;
  3209  0417  1706               	bsf	6,6	;volatile
  3210                           
  3211                           ;SPI_SM.c: 119: TRISC6 = 1;
  3212  0418  1707               	bsf	7,6	;volatile
  3213                           
  3214                           ;SPI_SM.c: 122: ANSELH &= (~0x00000001 & ~0x00000002 & ~0x00000004);
  3215  0419  30F8               	movlw	248
  3216  041A  1283               	bcf	3,5	;RP0=0, select bank0
  3217  041B  1303               	bcf	3,6	;RP1=0, select bank0
  3218  041C  00DD               	movwf	??_InitSPIService
  3219  041D  085D               	movf	??_InitSPIService,w
  3220  041E  1283               	bcf	3,5	;RP0=0, select bank2
  3221  041F  1703               	bsf	3,6	;RP1=1, select bank2
  3222  0420  059F               	andwf	31,f	;volatile
  3223                           
  3224                           ;SPI_SM.c: 125: SSPBUF = 0x00;
  3225  0421  1283               	bcf	3,5	;RP0=0, select bank0
  3226  0422  1303               	bcf	3,6	;RP1=0, select bank0
  3227  0423  0193               	clrf	19	;volatile
  3228                           
  3229                           ;SPI_SM.c: 130: SSPCON = 0b00110100;
  3230  0424  3034               	movlw	52
  3231  0425  0094               	movwf	20	;volatile
  3232                           
  3233                           ;SPI_SM.c: 133: currentState = Waiting4Command;
  3234  0426  01AA               	clrf	SPI_SM@currentState
  3235                           
  3236                           ;SPI_SM.c: 134: Team = 0;
  3237  0427  01FB               	clrf	_Team	;volatile
  3238                           
  3239                           ;SPI_SM.c: 136: SSPIE = 1;
  3240  0428  1683               	bsf	3,5	;RP0=1, select bank1
  3241  0429  1303               	bcf	3,6	;RP1=0, select bank1
  3242  042A  158C               	bsf	12,3	;volatile
  3243                           
  3244                           ;SPI_SM.c: 137: PEIE = 1;
  3245  042B  170B               	bsf	11,6	;volatile
  3246                           
  3247                           ;SPI_SM.c: 138: GIE = 1;
  3248  042C  178B               	bsf	11,7	;volatile
  3249                           
  3250                           ;SPI_SM.c: 141: ThisEvent.EventType = ES_INIT;
  3251  042D  3002               	movlw	2
  3252  042E  1283               	bcf	3,5	;RP0=0, select bank0
  3253  042F  1303               	bcf	3,6	;RP1=0, select bank0
  3254  0430  00DD               	movwf	??_InitSPIService
  3255  0431  085D               	movf	??_InitSPIService,w
  3256  0432  00DE               	movwf	InitSPIService@ThisEvent
  3257                           
  3258                           ;SPI_SM.c: 142: if (ES_PostToService(MyPriority, ThisEvent) == ((boolean) !((boolean) 0)
      +                          )) {
  3259  0433  085E               	movf	InitSPIService@ThisEvent,w
  3260  0434  00D7               	movwf	ES_PostToService@TheEvent
  3261  0435  085F               	movf	InitSPIService@ThisEvent+1,w
  3262  0436  00D8               	movwf	ES_PostToService@TheEvent+1
  3263  0437  0860               	movf	InitSPIService@ThisEvent+2,w
  3264  0438  00D9               	movwf	ES_PostToService@TheEvent+2
  3265  0439  082B               	movf	SPI_SM@MyPriority,w
  3266  043A  118A  24DF  118A   	fcall	_ES_PostToService
  3267  043D  3A01               	xorlw	1
  3268  043E  1D03               	skipz
  3269  043F  2C42               	goto	l2221
  3270                           
  3271                           ;SPI_SM.c: 143: return ((boolean) !((boolean) 0));
  3272  0440  3001               	movlw	1
  3273  0441  0008               	return
  3274  0442                     l2221:	
  3275                           
  3276                           ;SPI_SM.c: 145: return ((boolean) 0);
  3277  0442  3000               	movlw	0
  3278  0443  0008               	return
  3279  0444                     __end_of_InitSPIService:	
  3280                           
  3281                           	psect	text15
  3282  0569                     __ptext15:	
  3283 ;; *************** function _InitUARTRXService *****************
  3284 ;; Defined at:
  3285 ;;		line 89 in file "UART_RX_SM.c"
  3286 ;; Parameters:    Size  Location     Type
  3287 ;;  Priority        1   18[BANK0 ] unsigned char 
  3288 ;; Auto vars:     Size  Location     Type
  3289 ;;  ThisEvent       3   20[BANK0 ] struct ES_Event_t
  3290 ;; Return value:  Size  Location     Type
  3291 ;;                  1    wreg      unsigned char 
  3292 ;; Registers used:
  3293 ;;		wreg, fsr0l, fsr0h, status,2, status,0, pclath, cstack
  3294 ;; Tracked objects:
  3295 ;;		On entry : 0/0
  3296 ;;		On exit  : 0/0
  3297 ;;		Unchanged: 0/0
  3298 ;; Data sizes:     COMMON   BANK0   BANK1   BANK2
  3299 ;;      Params:         0       1       0       0
  3300 ;;      Locals:         0       3       0       0
  3301 ;;      Temps:          0       1       0       0
  3302 ;;      Totals:         0       5       0       0
  3303 ;;Total ram usage:        5 bytes
  3304 ;; Hardware stack levels used:    1
  3305 ;; Hardware stack levels required when called:    6
  3306 ;; This function calls:
  3307 ;;		_ES_PostToService
  3308 ;; This function is called by:
  3309 ;;		_ES_Initialize
  3310 ;; This function uses a non-reentrant model
  3311 ;;
  3312                           
  3313                           
  3314                           ;psect for function _InitUARTRXService
  3315  0569                     _InitUARTRXService:	
  3316                           
  3317                           ;UART_RX_SM.c: 90: ES_Event ThisEvent;;UART_RX_SM.c: 92: MyPriority = Priority;
  3318                           
  3319                           ;incstack = 0
  3320                           ; Regs used in _InitUARTRXService: [wreg-fsr0h+status,2+status,0+pclath+cstack]
  3321  0569  1283               	bcf	3,5	;RP0=0, select bank0
  3322  056A  1303               	bcf	3,6	;RP1=0, select bank0
  3323  056B  085C               	movf	InitUARTRXService@Priority,w
  3324  056C  00DD               	movwf	??_InitUARTRXService
  3325  056D  085D               	movf	??_InitUARTRXService,w
  3326  056E  00B3               	movwf	_MyPriority
  3327                           
  3328                           ;UART_RX_SM.c: 95: ThisEvent.EventType = ES_INIT;
  3329  056F  3002               	movlw	2
  3330  0570  00DD               	movwf	??_InitUARTRXService
  3331  0571  085D               	movf	??_InitUARTRXService,w
  3332  0572  00DE               	movwf	InitUARTRXService@ThisEvent
  3333                           
  3334                           ;UART_RX_SM.c: 96: if (ES_PostToService(MyPriority, ThisEvent) == ((boolean) !((boolean)
      +                           0))) {
  3335  0573  085E               	movf	InitUARTRXService@ThisEvent,w
  3336  0574  00D7               	movwf	ES_PostToService@TheEvent
  3337  0575  085F               	movf	InitUARTRXService@ThisEvent+1,w
  3338  0576  00D8               	movwf	ES_PostToService@TheEvent+1
  3339  0577  0860               	movf	InitUARTRXService@ThisEvent+2,w
  3340  0578  00D9               	movwf	ES_PostToService@TheEvent+2
  3341  0579  0833               	movf	_MyPriority,w
  3342  057A  118A  24DF  118A   	fcall	_ES_PostToService
  3343  057D  3A01               	xorlw	1
  3344  057E  1D03               	skipz
  3345  057F  2D82               	goto	l2157
  3346                           
  3347                           ;UART_RX_SM.c: 97: return ((boolean) !((boolean) 0));
  3348  0580  3001               	movlw	1
  3349  0581  0008               	return
  3350  0582                     l2157:	
  3351                           
  3352                           ;UART_RX_SM.c: 99: return ((boolean) 0);
  3353  0582  3000               	movlw	0
  3354  0583  0008               	return
  3355  0584                     __end_of_InitUARTRXService:	
  3356                           
  3357                           	psect	text16
  3358  04DF                     __ptext16:	
  3359 ;; *************** function _ES_PostToService *****************
  3360 ;; Defined at:
  3361 ;;		line 313 in file "ES_Framework.c"
  3362 ;; Parameters:    Size  Location     Type
  3363 ;;  WhichService    1    wreg     unsigned char 
  3364 ;;  TheEvent        3   13[BANK0 ] struct ES_Event_t
  3365 ;; Auto vars:     Size  Location     Type
  3366 ;;  WhichService    1   17[BANK0 ] unsigned char 
  3367 ;; Return value:  Size  Location     Type
  3368 ;;                  1    wreg      unsigned char 
  3369 ;; Registers used:
  3370 ;;		wreg, fsr0l, fsr0h, status,2, status,0, pclath, cstack
  3371 ;; Tracked objects:
  3372 ;;		On entry : 0/0
  3373 ;;		On exit  : 0/0
  3374 ;;		Unchanged: 0/0
  3375 ;; Data sizes:     COMMON   BANK0   BANK1   BANK2
  3376 ;;      Params:         0       3       0       0
  3377 ;;      Locals:         0       1       0       0
  3378 ;;      Temps:          0       1       0       0
  3379 ;;      Totals:         0       5       0       0
  3380 ;;Total ram usage:        5 bytes
  3381 ;; Hardware stack levels used:    1
  3382 ;; Hardware stack levels required when called:    5
  3383 ;; This function calls:
  3384 ;;		_ES_EnQueueFIFO
  3385 ;; This function is called by:
  3386 ;;		_InitUARTRXService
  3387 ;;		_PostUARTRXService
  3388 ;;		_CheckUARTRXEvent
  3389 ;;		_InitSPIService
  3390 ;;		_PostSPIService
  3391 ;; This function uses a non-reentrant model
  3392 ;;
  3393                           
  3394                           
  3395                           ;psect for function _ES_PostToService
  3396  04DF                     _ES_PostToService:	
  3397                           
  3398                           ;incstack = 0
  3399 ;; using string table level
  3400                           ; Regs used in _ES_PostToService: [wreg-fsr0h+status,2+status,0+pclath+cstack]
  3401                           ;ES_PostToService@WhichService stored from wreg
  3402  04DF  1283               	bcf	3,5	;RP0=0, select bank0
  3403  04E0  1303               	bcf	3,6	;RP1=0, select bank0
  3404  04E1  00DB               	movwf	ES_PostToService@WhichService
  3405                           
  3406                           ;ES_Framework.c: 314: if ((WhichService < (sizeof(EventQueues)/sizeof(EventQueues[0]))) 
      +                          &&;ES_Framework.c: 315: (ES_EnQueueFIFO(EventQueues[WhichService].pMem, TheEvent) ==;ES_
      +                          Framework.c: 316: ((boolean) !((boolean) 0)))) {
  3407  04E2  3002               	movlw	2
  3408  04E3  025B               	subwf	ES_PostToService@WhichService,w
  3409  04E4  1803               	skipnc
  3410  04E5  2D06               	goto	l1941
  3411  04E6  0857               	movf	ES_PostToService@TheEvent,w
  3412  04E7  00CE               	movwf	ES_EnQueueFIFO@Event2Add
  3413  04E8  0858               	movf	ES_PostToService@TheEvent+1,w
  3414  04E9  00CF               	movwf	ES_EnQueueFIFO@Event2Add+1
  3415  04EA  0859               	movf	ES_PostToService@TheEvent+2,w
  3416  04EB  00D0               	movwf	ES_EnQueueFIFO@Event2Add+2
  3417  04EC  085B               	movf	ES_PostToService@WhichService,w
  3418  04ED  00DA               	movwf	??_ES_PostToService
  3419  04EE  075A               	addwf	??_ES_PostToService,w
  3420  04EF  3E20               	addlw	low ((_EventQueues-__stringbase)| (0+32768))
  3421  04F0  0084               	movwf	4
  3422  04F1  118A  2444  118A   	fcall	stringdir
  3423  04F4  118A  2378  118A   	fcall	_ES_EnQueueFIFO
  3424  04F7  3A01               	xorlw	1
  3425  04F8  1D03               	skipz
  3426  04F9  2D06               	goto	l1941
  3427                           
  3428                           ;ES_Framework.c: 317: Ready |= BitNum2SetMask[WhichService];
  3429  04FA  1283               	bcf	3,5	;RP0=0, select bank0
  3430  04FB  1303               	bcf	3,6	;RP1=0, select bank0
  3431  04FC  085B               	movf	ES_PostToService@WhichService,w
  3432  04FD  3E18               	addlw	low ((_BitNum2SetMask-__stringbase)| (0+32768))
  3433  04FE  0084               	movwf	4
  3434  04FF  118A  2444         	fcall	stringdir
  3435  0501  00DA               	movwf	??_ES_PostToService
  3436  0502  085A               	movf	??_ES_PostToService,w
  3437  0503  04B8               	iorwf	_Ready,f
  3438                           
  3439                           ;ES_Framework.c: 318: return ((boolean) !((boolean) 0));
  3440  0504  3001               	movlw	1
  3441  0505  0008               	return
  3442  0506                     l1941:	
  3443                           
  3444                           ;ES_Framework.c: 320: return ((boolean) 0);
  3445  0506  3000               	movlw	0
  3446  0507  0008               	return
  3447  0508                     __end_of_ES_PostToService:	
  3448                           
  3449                           	psect	text17
  3450  0378                     __ptext17:	
  3451 ;; *************** function _ES_EnQueueFIFO *****************
  3452 ;; Defined at:
  3453 ;;		line 83 in file "ES_Queue.c"
  3454 ;; Parameters:    Size  Location     Type
  3455 ;;  pBlock          1    wreg     PTR struct ES_Event_t
  3456 ;;		 -> Queue1(12), Queue0(12), 
  3457 ;;  Event2Add       3    4[BANK0 ] struct ES_Event_t
  3458 ;; Auto vars:     Size  Location     Type
  3459 ;;  pBlock          1   11[BANK0 ] PTR struct ES_Event_t
  3460 ;;		 -> Queue1(12), Queue0(12), 
  3461 ;;  pThisQueue      1   12[BANK0 ] PTR struct .
  3462 ;;		 -> Queue1(12), Queue0(12), 
  3463 ;;  InsertionPoi    1   10[BANK0 ] unsigned char 
  3464 ;;  saveCrit        1    9[BANK0 ] unsigned char 
  3465 ;; Return value:  Size  Location     Type
  3466 ;;                  1    wreg      unsigned char 
  3467 ;; Registers used:
  3468 ;;		wreg, fsr0l, fsr0h, status,2, status,0, pclath, cstack
  3469 ;; Tracked objects:
  3470 ;;		On entry : 0/0
  3471 ;;		On exit  : 0/0
  3472 ;;		Unchanged: 0/0
  3473 ;; Data sizes:     COMMON   BANK0   BANK1   BANK2
  3474 ;;      Params:         0       3       0       0
  3475 ;;      Locals:         0       4       0       0
  3476 ;;      Temps:          0       2       0       0
  3477 ;;      Totals:         0       9       0       0
  3478 ;;Total ram usage:        9 bytes
  3479 ;; Hardware stack levels used:    1
  3480 ;; Hardware stack levels required when called:    4
  3481 ;; This function calls:
  3482 ;;		___bmul
  3483 ;; This function is called by:
  3484 ;;		_ES_PostToService
  3485 ;;		_ES_PostAll
  3486 ;; This function uses a non-reentrant model
  3487 ;;
  3488                           
  3489                           
  3490                           ;psect for function _ES_EnQueueFIFO
  3491  0378                     _ES_EnQueueFIFO:	
  3492                           
  3493                           ;incstack = 0
  3494                           ; Regs used in _ES_EnQueueFIFO: [wreg-fsr0h+status,2+status,0+pclath+cstack]
  3495                           ;ES_EnQueueFIFO@pBlock stored from wreg
  3496  0378  1283               	bcf	3,5	;RP0=0, select bank0
  3497  0379  1303               	bcf	3,6	;RP1=0, select bank0
  3498  037A  00D5               	movwf	ES_EnQueueFIFO@pBlock
  3499                           
  3500                           ;ES_Queue.c: 85: unsigned char saveCrit;;ES_Queue.c: 86: unsigned char InsertionPoint;;E
      +                          S_Queue.c: 87: pQueue_t pThisQueue;;ES_Queue.c: 88: pThisQueue = (pQueue_t)pBlock;
  3501  037B  0855               	movf	ES_EnQueueFIFO@pBlock,w
  3502  037C  00D1               	movwf	??_ES_EnQueueFIFO
  3503  037D  0851               	movf	??_ES_EnQueueFIFO,w
  3504  037E  00D6               	movwf	ES_EnQueueFIFO@pThisQueue
  3505                           
  3506                           ;ES_Queue.c: 91: if ( pThisQueue->NumEntries < pThisQueue->QueueSize)
  3507  037F  0856               	movf	ES_EnQueueFIFO@pThisQueue,w
  3508  0380  0084               	movwf	4
  3509  0381  1383               	bcf	3,7	;select IRP bank0
  3510  0382  0800               	movf	0,w
  3511  0383  00D1               	movwf	??_ES_EnQueueFIFO
  3512  0384  0856               	movf	ES_EnQueueFIFO@pThisQueue,w
  3513  0385  3E02               	addlw	2
  3514  0386  0084               	movwf	4
  3515  0387  0800               	movf	0,w
  3516  0388  00D2               	movwf	??_ES_EnQueueFIFO+1
  3517  0389  0851               	movf	??_ES_EnQueueFIFO,w
  3518  038A  0252               	subwf	??_ES_EnQueueFIFO+1,w
  3519  038B  1803               	skipnc
  3520  038C  2BCA               	goto	l1925
  3521                           
  3522                           ;ES_Queue.c: 92: {;ES_Queue.c: 93: InsertionPoint = (pThisQueue->CurrentIndex + pThisQue
      +                          ue->NumEntries);
  3523  038D  0856               	movf	ES_EnQueueFIFO@pThisQueue,w
  3524  038E  3E02               	addlw	2
  3525  038F  0084               	movwf	4
  3526  0390  0800               	movf	0,w
  3527  0391  00D1               	movwf	??_ES_EnQueueFIFO
  3528  0392  0A56               	incf	ES_EnQueueFIFO@pThisQueue,w
  3529  0393  0084               	movwf	4
  3530  0394  0800               	movf	0,w
  3531  0395  0751               	addwf	??_ES_EnQueueFIFO,w
  3532  0396  00D2               	movwf	??_ES_EnQueueFIFO+1
  3533  0397  0852               	movf	??_ES_EnQueueFIFO+1,w
  3534  0398  00D4               	movwf	ES_EnQueueFIFO@InsertionPoint
  3535                           
  3536                           ;ES_Queue.c: 94: if (InsertionPoint >= pThisQueue->QueueSize)
  3537  0399  0856               	movf	ES_EnQueueFIFO@pThisQueue,w
  3538  039A  0084               	movwf	4
  3539  039B  0800               	movf	0,w
  3540  039C  0254               	subwf	ES_EnQueueFIFO@InsertionPoint,w
  3541  039D  1C03               	skipc
  3542  039E  2BA3               	goto	l1909
  3543                           
  3544                           ;ES_Queue.c: 95: InsertionPoint -= pThisQueue->QueueSize;
  3545  039F  0856               	movf	ES_EnQueueFIFO@pThisQueue,w
  3546  03A0  0084               	movwf	4
  3547  03A1  0800               	movf	0,w
  3548  03A2  02D4               	subwf	ES_EnQueueFIFO@InsertionPoint,f
  3549  03A3                     l1909:	
  3550  03A3  080B               	movf	11,w	;volatile
  3551  03A4  00D1               	movwf	??_ES_EnQueueFIFO
  3552  03A5  0851               	movf	??_ES_EnQueueFIFO,w
  3553  03A6  00D3               	movwf	ES_EnQueueFIFO@saveCrit
  3554  03A7  138B               	bcf	11,7	;volatile
  3555                           
  3556                           ;ES_Queue.c: 99: pBlock[ 1 + InsertionPoint] = Event2Add;
  3557  03A8  3003               	movlw	3
  3558  03A9  00D1               	movwf	??_ES_EnQueueFIFO
  3559  03AA  0851               	movf	??_ES_EnQueueFIFO,w
  3560  03AB  00CA               	movwf	___bmul@multiplicand
  3561  03AC  0854               	movf	ES_EnQueueFIFO@InsertionPoint,w
  3562  03AD  118A  25C8         	fcall	___bmul
  3563  03AF  1283               	bcf	3,5	;RP0=0, select bank0
  3564  03B0  1303               	bcf	3,6	;RP1=0, select bank0
  3565  03B1  0755               	addwf	ES_EnQueueFIFO@pBlock,w
  3566  03B2  00D2               	movwf	??_ES_EnQueueFIFO+1
  3567  03B3  0852               	movf	??_ES_EnQueueFIFO+1,w
  3568  03B4  3E03               	addlw	3
  3569  03B5  0084               	movwf	4
  3570  03B6  084E               	movf	ES_EnQueueFIFO@Event2Add,w
  3571  03B7  1383               	bcf	3,7	;select IRP bank0
  3572  03B8  0080               	movwf	0
  3573  03B9  0A84               	incf	4,f
  3574  03BA  084F               	movf	ES_EnQueueFIFO@Event2Add+1,w
  3575  03BB  0080               	movwf	0
  3576  03BC  0A84               	incf	4,f
  3577  03BD  0850               	movf	ES_EnQueueFIFO@Event2Add+2,w
  3578  03BE  0080               	movwf	0
  3579                           
  3580                           ;ES_Queue.c: 100: pThisQueue->NumEntries++;
  3581  03BF  3001               	movlw	1
  3582  03C0  00D1               	movwf	??_ES_EnQueueFIFO
  3583  03C1  0856               	movf	ES_EnQueueFIFO@pThisQueue,w
  3584  03C2  3E02               	addlw	2
  3585  03C3  0084               	movwf	4
  3586  03C4  0851               	movf	??_ES_EnQueueFIFO,w
  3587  03C5  0780               	addwf	0,f
  3588                           
  3589                           ;ES_Queue.c: 101: {INTCON = saveCrit;};
  3590  03C6  0853               	movf	ES_EnQueueFIFO@saveCrit,w
  3591  03C7  008B               	movwf	11	;volatile
  3592                           
  3593                           ;ES_Queue.c: 103: return(((boolean) !((boolean) 0)));
  3594  03C8  3001               	movlw	1
  3595  03C9  0008               	return
  3596  03CA                     l1925:	
  3597                           
  3598                           ;ES_Queue.c: 105: return(((boolean) 0));
  3599  03CA  3000               	movlw	0
  3600  03CB  0008               	return
  3601  03CC                     __end_of_ES_EnQueueFIFO:	
  3602                           
  3603                           	psect	text18
  3604  05C8                     __ptext18:	
  3605 ;; *************** function ___bmul *****************
  3606 ;; Defined at:
  3607 ;;		line 4 in file "C:\Program Files (x86)\Microchip\xc8\v2.05\pic\sources\c90\common\Umul8.c"
  3608 ;; Parameters:    Size  Location     Type
  3609 ;;  multiplier      1    wreg     unsigned char 
  3610 ;;  multiplicand    1    0[BANK0 ] unsigned char 
  3611 ;; Auto vars:     Size  Location     Type
  3612 ;;  multiplier      1    3[BANK0 ] unsigned char 
  3613 ;;  product         1    2[BANK0 ] unsigned char 
  3614 ;; Return value:  Size  Location     Type
  3615 ;;                  1    wreg      unsigned char 
  3616 ;; Registers used:
  3617 ;;		wreg, status,2, status,0
  3618 ;; Tracked objects:
  3619 ;;		On entry : 0/0
  3620 ;;		On exit  : 0/0
  3621 ;;		Unchanged: 0/0
  3622 ;; Data sizes:     COMMON   BANK0   BANK1   BANK2
  3623 ;;      Params:         0       1       0       0
  3624 ;;      Locals:         0       2       0       0
  3625 ;;      Temps:          0       1       0       0
  3626 ;;      Totals:         0       4       0       0
  3627 ;;Total ram usage:        4 bytes
  3628 ;; Hardware stack levels used:    1
  3629 ;; Hardware stack levels required when called:    3
  3630 ;; This function calls:
  3631 ;;		Nothing
  3632 ;; This function is called by:
  3633 ;;		_ES_Initialize
  3634 ;;		_ES_Run
  3635 ;;		_ES_PostToService
  3636 ;;		_ES_EnQueueFIFO
  3637 ;;		_ES_DeQueue
  3638 ;;		_ES_PostAll
  3639 ;; This function uses a non-reentrant model
  3640 ;;
  3641                           
  3642                           
  3643                           ;psect for function ___bmul
  3644  05C8                     ___bmul:	
  3645                           
  3646                           ;incstack = 0
  3647                           ; Regs used in ___bmul: [wreg+status,2+status,0]
  3648                           ;___bmul@multiplier stored from wreg
  3649  05C8  1283               	bcf	3,5	;RP0=0, select bank0
  3650  05C9  1303               	bcf	3,6	;RP1=0, select bank0
  3651  05CA  00CD               	movwf	___bmul@multiplier
  3652  05CB  01CC               	clrf	___bmul@product
  3653  05CC                     l1887:	
  3654  05CC  1C4D               	btfss	___bmul@multiplier,0
  3655  05CD  2DD2               	goto	l1891
  3656  05CE  084A               	movf	___bmul@multiplicand,w
  3657  05CF  00CB               	movwf	??___bmul
  3658  05D0  084B               	movf	??___bmul,w
  3659  05D1  07CC               	addwf	___bmul@product,f
  3660  05D2                     l1891:	
  3661  05D2  1003               	clrc
  3662  05D3  0DCA               	rlf	___bmul@multiplicand,f
  3663  05D4  1003               	clrc
  3664  05D5  0CCD               	rrf	___bmul@multiplier,f
  3665  05D6  084D               	movf	___bmul@multiplier,w
  3666  05D7  1D03               	btfss	3,2
  3667  05D8  2DCC               	goto	l1887
  3668  05D9  084C               	movf	___bmul@product,w
  3669  05DA  0008               	return
  3670  05DB                     __end_of___bmul:	
  3671                           
  3672                           	psect	text19
  3673  0530                     __ptext19:	
  3674 ;; *************** function _ES_Sys_Timer_Init *****************
  3675 ;; Defined at:
  3676 ;;		line 25 in file "ES_Port.c"
  3677 ;; Parameters:    Size  Location     Type
  3678 ;;		None
  3679 ;; Auto vars:     Size  Location     Type
  3680 ;;		None
  3681 ;; Return value:  Size  Location     Type
  3682 ;;                  1    wreg      void 
  3683 ;; Registers used:
  3684 ;;		status,2
  3685 ;; Tracked objects:
  3686 ;;		On entry : 0/0
  3687 ;;		On exit  : 0/0
  3688 ;;		Unchanged: 0/0
  3689 ;; Data sizes:     COMMON   BANK0   BANK1   BANK2
  3690 ;;      Params:         0       0       0       0
  3691 ;;      Locals:         0       0       0       0
  3692 ;;      Temps:          0       0       0       0
  3693 ;;      Totals:         0       0       0       0
  3694 ;;Total ram usage:        0 bytes
  3695 ;; Hardware stack levels used:    1
  3696 ;; Hardware stack levels required when called:    3
  3697 ;; This function calls:
  3698 ;;		Nothing
  3699 ;; This function is called by:
  3700 ;;		_ES_Initialize
  3701 ;; This function uses a non-reentrant model
  3702 ;;
  3703                           
  3704                           
  3705                           ;psect for function _ES_Sys_Timer_Init
  3706  0530                     _ES_Sys_Timer_Init:	
  3707                           
  3708                           ;ES_Port.c: 29: TRISC0 = 0;
  3709                           
  3710                           ;incstack = 0
  3711                           ; Regs used in _ES_Sys_Timer_Init: [status,2]
  3712  0530  1683               	bsf	3,5	;RP0=1, select bank1
  3713  0531  1303               	bcf	3,6	;RP1=0, select bank1
  3714  0532  1007               	bcf	7,0	;volatile
  3715                           
  3716                           ;ES_Port.c: 30: ANS4 = 0;
  3717  0533  1283               	bcf	3,5	;RP0=0, select bank2
  3718  0534  1703               	bsf	3,6	;RP1=1, select bank2
  3719  0535  121E               	bcf	30,4	;volatile
  3720                           
  3721                           ;ES_Port.c: 31: RC0 = 0;
  3722  0536  1283               	bcf	3,5	;RP0=0, select bank0
  3723  0537  1303               	bcf	3,6	;RP1=0, select bank0
  3724  0538  1007               	bcf	7,0	;volatile
  3725                           
  3726                           ;ES_Port.c: 34: TRISC5 = 0;
  3727  0539  1683               	bsf	3,5	;RP0=1, select bank1
  3728  053A  1303               	bcf	3,6	;RP1=0, select bank1
  3729  053B  1287               	bcf	7,5	;volatile
  3730                           
  3731                           ;ES_Port.c: 35: RC5 = 0;
  3732  053C  1283               	bcf	3,5	;RP0=0, select bank0
  3733  053D  1303               	bcf	3,6	;RP1=0, select bank0
  3734  053E  1287               	bcf	7,5	;volatile
  3735                           
  3736                           ;ES_Port.c: 38: {GIE = 0;};
  3737  053F  138B               	bcf	11,7	;volatile
  3738                           
  3739                           ;ES_Port.c: 40: T0CS = 0;
  3740  0540  1683               	bsf	3,5	;RP0=1, select bank1
  3741  0541  1303               	bcf	3,6	;RP1=0, select bank1
  3742  0542  1281               	bcf	1,5	;volatile
  3743                           
  3744                           ;ES_Port.c: 41: PSA = 0;
  3745  0543  1181               	bcf	1,3	;volatile
  3746                           
  3747                           ;ES_Port.c: 42: PS0 = 1;
  3748  0544  1401               	bsf	1,0	;volatile
  3749                           
  3750                           ;ES_Port.c: 43: PS1 = 1;
  3751  0545  1481               	bsf	1,1	;volatile
  3752                           
  3753                           ;ES_Port.c: 44: PS2 = 1;
  3754  0546  1501               	bsf	1,2	;volatile
  3755                           
  3756                           ;ES_Port.c: 46: TMR0 = 0;
  3757  0547  1283               	bcf	3,5	;RP0=0, select bank0
  3758  0548  1303               	bcf	3,6	;RP1=0, select bank0
  3759  0549  0181               	clrf	1	;volatile
  3760                           
  3761                           ;ES_Port.c: 47: T0IF = 0;
  3762  054A  110B               	bcf	11,2	;volatile
  3763                           
  3764                           ;ES_Port.c: 48: T0IE = 1;
  3765  054B  168B               	bsf	11,5	;volatile
  3766                           
  3767                           ;ES_Port.c: 50: {GIE = 1;};
  3768  054C  178B               	bsf	11,7	;volatile
  3769  054D  0008               	return
  3770  054E                     __end_of_ES_Sys_Timer_Init:	
  3771                           
  3772                           	psect	text20
  3773  059E                     __ptext20:	
  3774 ;; *************** function _ES_InitQueue *****************
  3775 ;; Defined at:
  3776 ;;		line 56 in file "ES_Queue.c"
  3777 ;; Parameters:    Size  Location     Type
  3778 ;;  pBlock          1    wreg     PTR struct ES_Event_t
  3779 ;;		 -> Queue1(12), Queue0(12), 
  3780 ;;  BlockSize       1    0[BANK0 ] unsigned char 
  3781 ;; Auto vars:     Size  Location     Type
  3782 ;;  pBlock          1    2[BANK0 ] PTR struct ES_Event_t
  3783 ;;		 -> Queue1(12), Queue0(12), 
  3784 ;;  pThisQueue      1    3[BANK0 ] PTR struct .
  3785 ;;		 -> Queue1(12), Queue0(12), 
  3786 ;; Return value:  Size  Location     Type
  3787 ;;                  1    wreg      unsigned char 
  3788 ;; Registers used:
  3789 ;;		wreg, fsr0l, fsr0h, status,2, status,0
  3790 ;; Tracked objects:
  3791 ;;		On entry : 0/0
  3792 ;;		On exit  : 0/0
  3793 ;;		Unchanged: 0/0
  3794 ;; Data sizes:     COMMON   BANK0   BANK1   BANK2
  3795 ;;      Params:         0       1       0       0
  3796 ;;      Locals:         0       2       0       0
  3797 ;;      Temps:          0       1       0       0
  3798 ;;      Totals:         0       4       0       0
  3799 ;;Total ram usage:        4 bytes
  3800 ;; Hardware stack levels used:    1
  3801 ;; Hardware stack levels required when called:    3
  3802 ;; This function calls:
  3803 ;;		Nothing
  3804 ;; This function is called by:
  3805 ;;		_ES_Initialize
  3806 ;; This function uses a non-reentrant model
  3807 ;;
  3808                           
  3809                           
  3810                           ;psect for function _ES_InitQueue
  3811  059E                     _ES_InitQueue:	
  3812                           
  3813                           ;incstack = 0
  3814                           ; Regs used in _ES_InitQueue: [wreg-fsr0h+status,2+status,0]
  3815                           ;ES_InitQueue@pBlock stored from wreg
  3816  059E  1283               	bcf	3,5	;RP0=0, select bank0
  3817  059F  1303               	bcf	3,6	;RP1=0, select bank0
  3818  05A0  00CC               	movwf	ES_InitQueue@pBlock
  3819                           
  3820                           ;ES_Queue.c: 58: pQueue_t pThisQueue;;ES_Queue.c: 60: pThisQueue = (pQueue_t)pBlock;
  3821  05A1  084C               	movf	ES_InitQueue@pBlock,w
  3822  05A2  00CB               	movwf	??_ES_InitQueue
  3823  05A3  084B               	movf	??_ES_InitQueue,w
  3824  05A4  00CD               	movwf	ES_InitQueue@pThisQueue
  3825                           
  3826                           ;ES_Queue.c: 62: pThisQueue->QueueSize = BlockSize - 1;
  3827  05A5  084A               	movf	ES_InitQueue@BlockSize,w
  3828  05A6  3EFF               	addlw	255
  3829  05A7  00CB               	movwf	??_ES_InitQueue
  3830  05A8  084D               	movf	ES_InitQueue@pThisQueue,w
  3831  05A9  0084               	movwf	4
  3832  05AA  084B               	movf	??_ES_InitQueue,w
  3833  05AB  1383               	bcf	3,7	;select IRP bank0
  3834  05AC  0080               	movwf	0
  3835                           
  3836                           ;ES_Queue.c: 63: pThisQueue->CurrentIndex = 0;
  3837  05AD  0A4D               	incf	ES_InitQueue@pThisQueue,w
  3838  05AE  0084               	movwf	4
  3839  05AF  0180               	clrf	0
  3840                           
  3841                           ;ES_Queue.c: 64: pThisQueue->NumEntries = 0;
  3842  05B0  084D               	movf	ES_InitQueue@pThisQueue,w
  3843  05B1  3E02               	addlw	2
  3844  05B2  0084               	movwf	4
  3845  05B3  0180               	clrf	0
  3846  05B4  0008               	return
  3847  05B5                     __end_of_ES_InitQueue:	
  3848                           
  3849                           	psect	text21
  3850  04AF                     __ptext21:	
  3851 ;; *************** function _ISR *****************
  3852 ;; Defined at:
  3853 ;;		line 53 in file "ES_Port.c"
  3854 ;; Parameters:    Size  Location     Type
  3855 ;;		None
  3856 ;; Auto vars:     Size  Location     Type
  3857 ;;		None
  3858 ;; Return value:  Size  Location     Type
  3859 ;;                  1    wreg      void 
  3860 ;; Registers used:
  3861 ;;		wreg, fsr0l, fsr0h, status,2, status,0, pclath, cstack
  3862 ;; Tracked objects:
  3863 ;;		On entry : 0/0
  3864 ;;		On exit  : 0/0
  3865 ;;		Unchanged: 0/0
  3866 ;; Data sizes:     COMMON   BANK0   BANK1   BANK2
  3867 ;;      Params:         0       0       0       0
  3868 ;;      Locals:         0       0       0       0
  3869 ;;      Temps:          4       0       0       0
  3870 ;;      Totals:         4       0       0       0
  3871 ;;Total ram usage:        4 bytes
  3872 ;; Hardware stack levels used:    1
  3873 ;; Hardware stack levels required when called:    2
  3874 ;; This function calls:
  3875 ;;		_SPIIntResponse
  3876 ;;		_UARTRXIntResponse
  3877 ;; This function is called by:
  3878 ;;		Interrupt level 1
  3879 ;; This function uses a non-reentrant model
  3880 ;;
  3881                           
  3882                           
  3883                           ;psect for function _ISR
  3884  04AF                     _ISR:	
  3885                           
  3886                           ;ES_Port.c: 54: RC5 = 1;
  3887  04AF  1283               	bcf	3,5	;RP0=0, select bank0
  3888  04B0  1303               	bcf	3,6	;RP1=0, select bank0
  3889  04B1  1687               	bsf	7,5	;volatile
  3890                           
  3891                           ;ES_Port.c: 56: if (SSPIF && SSPIE) {
  3892  04B2  1D8C               	btfss	12,3	;volatile
  3893  04B3  2CBB               	goto	i1l2501
  3894  04B4  1683               	bsf	3,5	;RP0=1, select bank1
  3895  04B5  1303               	bcf	3,6	;RP1=0, select bank1
  3896  04B6  1D8C               	btfss	12,3	;volatile
  3897  04B7  2CBB               	goto	i1l2501
  3898                           
  3899                           ;ES_Port.c: 57: SPIIntResponse();
  3900  04B8  118A  2046  118A   	fcall	_SPIIntResponse
  3901  04BB                     i1l2501:	
  3902                           
  3903                           ;ES_Port.c: 58: };ES_Port.c: 60: if (RCIF && RCIE) {
  3904  04BB  1283               	bcf	3,5	;RP0=0, select bank0
  3905  04BC  1303               	bcf	3,6	;RP1=0, select bank0
  3906  04BD  1E8C               	btfss	12,5	;volatile
  3907  04BE  2CC6               	goto	i1l2507
  3908  04BF  1683               	bsf	3,5	;RP0=1, select bank1
  3909  04C0  1303               	bcf	3,6	;RP1=0, select bank1
  3910  04C1  1E8C               	btfss	12,5	;volatile
  3911  04C2  2CC6               	goto	i1l2507
  3912                           
  3913                           ;ES_Port.c: 61: UARTRXIntResponse();
  3914  04C3  118A  2198  118A   	fcall	_UARTRXIntResponse
  3915  04C6                     i1l2507:	
  3916                           
  3917                           ;ES_Port.c: 62: };ES_Port.c: 69: if (T0IF) {
  3918  04C6  1D0B               	btfss	11,2	;volatile
  3919  04C7  2CD3               	goto	i1l2513
  3920                           
  3921                           ;ES_Port.c: 70: T0IF = 0;
  3922  04C8  110B               	bcf	11,2	;volatile
  3923                           
  3924                           ;ES_Port.c: 71: TickCount++;
  3925  04C9  3001               	movlw	1
  3926  04CA  00F4               	movwf	??_ISR
  3927  04CB  0874               	movf	??_ISR,w
  3928  04CC  1283               	bcf	3,5	;RP0=0, select bank0
  3929  04CD  1303               	bcf	3,6	;RP1=0, select bank0
  3930  04CE  07B7               	addwf	_TickCount,f
  3931                           
  3932                           ;ES_Port.c: 72: PORTC ^= 0x00000001;
  3933  04CF  3001               	movlw	1
  3934  04D0  00F4               	movwf	??_ISR
  3935  04D1  0874               	movf	??_ISR,w
  3936  04D2  0687               	xorwf	7,f	;volatile
  3937  04D3                     i1l2513:	
  3938                           
  3939                           ;ES_Port.c: 73: };ES_Port.c: 75: RC5 = 0;
  3940  04D3  1283               	bcf	3,5	;RP0=0, select bank0
  3941  04D4  1303               	bcf	3,6	;RP1=0, select bank0
  3942  04D5  1287               	bcf	7,5	;volatile
  3943  04D6  0877               	movf	??_ISR+3,w
  3944  04D7  008A               	movwf	10
  3945  04D8  0876               	movf	??_ISR+2,w
  3946  04D9  0084               	movwf	4
  3947  04DA  0E75               	swapf	(??_ISR+1)^(0+4294967168),w
  3948  04DB  0083               	movwf	3
  3949  04DC  0EFE               	swapf	126,f
  3950  04DD  0E7E               	swapf	126,w
  3951  04DE  0009               	retfie
  3952  04DF                     __end_of_ISR:	
  3953                           
  3954                           	psect	intentry
  3955  0004                     __pintentry:	
  3956                           ;incstack = 0
  3957                           ; Regs used in _ISR: [wreg-fsr0h+status,2+status,0+pclath+cstack]
  3958                           
  3959  0004                     interrupt_function:	
  3960  007E                     saved_w	set	btemp
  3961  0004  00FE               	movwf	btemp
  3962  0005  0E03               	swapf	3,w
  3963  0006  00F5               	movwf	??_ISR+1
  3964  0007  0804               	movf	4,w
  3965  0008  00F6               	movwf	??_ISR+2
  3966  0009  080A               	movf	10,w
  3967  000A  00F7               	movwf	??_ISR+3
  3968  000B  118A  2CAF         	ljmp	_ISR
  3969                           
  3970                           	psect	text22
  3971  0198                     __ptext22:	
  3972 ;; *************** function _UARTRXIntResponse *****************
  3973 ;; Defined at:
  3974 ;;		line 335 in file "UART_RX_SM.c"
  3975 ;; Parameters:    Size  Location     Type
  3976 ;;		None
  3977 ;; Auto vars:     Size  Location     Type
  3978 ;;  newByte         1    3[COMMON] unsigned char 
  3979 ;; Return value:  Size  Location     Type
  3980 ;;                  1    wreg      void 
  3981 ;; Registers used:
  3982 ;;		wreg, fsr0l, fsr0h, status,2, status,0, pclath, cstack
  3983 ;; Tracked objects:
  3984 ;;		On entry : 0/0
  3985 ;;		On exit  : 0/0
  3986 ;;		Unchanged: 0/0
  3987 ;; Data sizes:     COMMON   BANK0   BANK1   BANK2
  3988 ;;      Params:         0       0       0       0
  3989 ;;      Locals:         1       0       0       0
  3990 ;;      Temps:          1       0       0       0
  3991 ;;      Totals:         2       0       0       0
  3992 ;;Total ram usage:        2 bytes
  3993 ;; Hardware stack levels used:    1
  3994 ;; Hardware stack levels required when called:    1
  3995 ;; This function calls:
  3996 ;;		_ClearReceivedDataArray
  3997 ;; This function is called by:
  3998 ;;		_ISR
  3999 ;; This function uses a non-reentrant model
  4000 ;;
  4001                           
  4002                           
  4003                           ;psect for function _UARTRXIntResponse
  4004  0198                     _UARTRXIntResponse:	
  4005                           
  4006                           ;UART_RX_SM.c: 336: static uint8_t currentByteIndex;;UART_RX_SM.c: 337: static uint8_t b
      +                          odyByteCount;;UART_RX_SM.c: 340: uint8_t newByte = RCREG;
  4007                           
  4008                           ;incstack = 0
  4009                           ; Regs used in _UARTRXIntResponse: [wreg-fsr0h+status,2+status,0+pclath+cstack]
  4010  0198  1283               	bcf	3,5	;RP0=0, select bank0
  4011  0199  1303               	bcf	3,6	;RP1=0, select bank0
  4012  019A  081A               	movf	26,w	;volatile
  4013  019B  00F2               	movwf	??_UARTRXIntResponse
  4014  019C  0872               	movf	??_UARTRXIntResponse,w
  4015  019D  00F3               	movwf	UARTRXIntResponse@newByte
  4016                           
  4017                           ;UART_RX_SM.c: 342: switch (currentState) {
  4018  019E  29EC               	goto	i1l2437
  4019  019F                     i1l2393:	
  4020                           
  4021                           ;UART_RX_SM.c: 344: if (newByte == 0x7E)
  4022  019F  307E               	movlw	126
  4023  01A0  0673               	xorwf	UARTRXIntResponse@newByte,w
  4024  01A1  1D03               	btfss	3,2
  4025  01A2  0008               	return
  4026                           
  4027                           ;UART_RX_SM.c: 345: {;UART_RX_SM.c: 346: ClearReceivedDataArray();
  4028  01A3  118A  25DB         	fcall	_ClearReceivedDataArray
  4029                           
  4030                           ;UART_RX_SM.c: 347: currentState = WaitForMSB;
  4031  01A5  1283               	bcf	3,5	;RP0=0, select bank0
  4032  01A6  1303               	bcf	3,6	;RP1=0, select bank0
  4033  01A7  01B2               	clrf	_currentState
  4034  01A8  0AB2               	incf	_currentState,f
  4035  01A9  0008               	return
  4036  01AA                     i1l2399:	
  4037                           
  4038                           ;UART_RX_SM.c: 352: if (newByte == 0)
  4039  01AA  0873               	movf	UARTRXIntResponse@newByte,w
  4040  01AB  1D03               	btfss	3,2
  4041  01AC  29B2               	goto	i1l2403
  4042                           
  4043                           ;UART_RX_SM.c: 353: {;UART_RX_SM.c: 354: currentState = WaitForLSB;
  4044  01AD  3002               	movlw	2
  4045  01AE  00F2               	movwf	??_UARTRXIntResponse
  4046  01AF  0872               	movf	??_UARTRXIntResponse,w
  4047  01B0  00B2               	movwf	_currentState
  4048                           
  4049                           ;UART_RX_SM.c: 355: }
  4050  01B1  0008               	return
  4051  01B2                     i1l2403:	
  4052                           
  4053                           ;UART_RX_SM.c: 356: else;UART_RX_SM.c: 357: {;UART_RX_SM.c: 358: currentState = WaitFor7
      +                          E;
  4054  01B2  01B2               	clrf	_currentState
  4055  01B3  0008               	return
  4056  01B4                     i1l2405:	
  4057                           
  4058                           ;UART_RX_SM.c: 363: bodyByteCount = newByte;
  4059  01B4  0873               	movf	UARTRXIntResponse@newByte,w
  4060  01B5  00F2               	movwf	??_UARTRXIntResponse
  4061  01B6  0872               	movf	??_UARTRXIntResponse,w
  4062  01B7  00FC               	movwf	UARTRXIntResponse@bodyByteCount
  4063                           
  4064                           ;UART_RX_SM.c: 364: if (bodyByteCount > 13)
  4065  01B8  300E               	movlw	14
  4066  01B9  027C               	subwf	UARTRXIntResponse@bodyByteCount,w
  4067  01BA  1803               	btfsc	3,0
  4068  01BB  29B2               	goto	i1l2403
  4069                           
  4070                           ;UART_RX_SM.c: 368: else;UART_RX_SM.c: 369: {;UART_RX_SM.c: 370: currentByteIndex = 0;
  4071  01BC  01FD               	clrf	UARTRXIntResponse@currentByteIndex
  4072                           
  4073                           ;UART_RX_SM.c: 371: checksum = 0;
  4074  01BD  01B9               	clrf	_checksum
  4075                           
  4076                           ;UART_RX_SM.c: 373: currentState = SuckUpData;
  4077  01BE  3004               	movlw	4
  4078  01BF  00F2               	movwf	??_UARTRXIntResponse
  4079  01C0  0872               	movf	??_UARTRXIntResponse,w
  4080  01C1  00B2               	movwf	_currentState
  4081  01C2  0008               	return
  4082  01C3                     i1l2413:	
  4083                           
  4084                           ;UART_RX_SM.c: 378: if (currentByteIndex < 13)
  4085  01C3  300D               	movlw	13
  4086  01C4  027D               	subwf	UARTRXIntResponse@currentByteIndex,w
  4087  01C5  1803               	skipnc
  4088  01C6  29D4               	goto	i1l2419
  4089                           
  4090                           ;UART_RX_SM.c: 379: {;UART_RX_SM.c: 380: ReceivedData[currentByteIndex] = newByte;
  4091  01C7  0873               	movf	UARTRXIntResponse@newByte,w
  4092  01C8  00F2               	movwf	??_UARTRXIntResponse
  4093  01C9  087D               	movf	UARTRXIntResponse@currentByteIndex,w
