:020000040000FA
:100000008A110D288A11A02CFE00030EF5000408A9
:10001000F6000A08F7008A11AF2C8A110F288A11FE
:1000200013268A11E9008A1114268A11EA008A111E
:1000300015268A11EB008A1116268A11EC0083130B
:10004000A0308400D5308A110B268A11203084001C
:100050004A308A110B268A11783084007E308A114A
:100060000B2683018A117A2CFF0000308A007F085A
:10007000820739288A11692D8A110B2C8A114E2D7D
:100080008A11EA2D8A11012E8A11C42A83160313BC
:10009000141C0800831203131308F0007008F10009
:1000A0001129FF3093008A1117268A11013A031D86
:1000B000DC288A111B268A11F0007008F900103024
:1000C0007106031D69281030F0007008FB00A13094
:1000D000DD287103031D72280130F0007008FB0059
:1000E000A330DD28D2307106031D7C2810307B063A
:1000F000031D7C287908C328D2307106031D85288A
:100100007B03031D8528790AC328B4307106031DBB
:10011000B0287B080319B0280130F0007008F800FF
:100120007908023E840083130008F00070088312EF
:100130000313E9007908033E84000008F00070080A
:10014000EA007908043E84000008F0007008EB0023
:100150007908053E84000008F0007008EC00E228F1
:1001600078307106031DBA287B080319BA2879086C
:10017000063EC32869307106031DC7287B08031992
:10018000C7287908073E840083130008DD28D23091
:1001900071060319D728B43071060319D7287830AF
:1001A00071060319D72869307106031DDC287B0806
:1001B000031DDC28A030DD28FF30F000700883121A
:1001C0000313E9006930F0007008FA00AA01AA0AD6
:1001D00025297A08840083130008930002300D2932
:1001E0007A0A840083130008930078080319FB2817
:1001F000F80103300D299301AA0125297A08023E4E
:10020000840083130008930004300D297A08033E0C
:1002100084008313000893000530F0007008AA00E2
:1002200025292A08003A03195128013A0319E92817
:10023000033A0319F028013A0319FE28073A031973
:100240000629013A0319FB2825298C11080083127D
:100250000313E300831203133808031985293808B0
:100260008A11CC238A1183120313E4006408E60088
:100270004730E4006408CE006608E5006507203ECC
:1002800084008A1144248A118A1161228A11003A59
:10029000031D7729831203136608183E84008A1110
:1002A00044248A11FF3AE4006408B8057729470816
:1002B000CE004808CF004908D0008A11C4228A1114
:1002C000831203134E0803192A290230E40064083C
:1002D000E20094294708CA004808CB004908CC002E
:1002E0008A1101268A11831203134A086329831293
:1002F00003136608003A03195729013A03196A29BA
:100300002A292A298A11FE218A118A11F6258A11A1
:10031000003A031D82298A11B5258A118A114E25BA
:100320008A11831203132A2900308A00630882008D
:10033000831203131A08F2007208F300EC297E30CE
:100340007306031D08008A11DB2583120313B20113
:10035000B20A08007308031DB2290230F2007208C5
:10036000B2000800B20108007308F2007208FC0035
:100370000E307C020318B229FD01B9010430F200ED
:100380007208B20008000D307D020318D4297308EA
:10039000F2007D083A3E8400720883138000013029
:1003A000F2007208FD07DF297D087C06031DDE29A7
:1003B000FD010530F2007208B200DF29B2017308B6
:1003C000F2007208B9070800390A031DB22901308A
:1003D000F2007208AD00B2293208003A03199F29D1
:1003E000013A0319AA29033A0319B429063A031951
:1003F000C329013A0319E429FD29080001308312B9
:100400000313A5070318A60A0030A6073608031928
:1004100008003608DF005F08B50035088A11CC23D4
:100420008A1183120313DF005F08B4003408DF0071
:100430005F07A03E8400013083138002840F0030E8
:10044000031C8003800284030008E000840A000883
:10045000E10060086104031D532A0430DF005F08D7
:10046000A0003408DF00E0015F08A1006008A200DE
:100470002008DC002108DD002208DE003408103EE0
:1004800084008A1144248A118A1134208A1183122B
:1004900003133408183E84008A1144248A11FF3A59
:1004A000DF005F08B6053408183E84008A11442432
:1004B0008A11FF3ADF005F08B50535080319080007
:1004C0000D2A83120313D6005608CF004F08D70019
:1004D0005708023E8400831300080319B92A0B0849
:1004E000CF004F08D4008B130330CF004F08CA0051
:1004F000570A840000088A11C8258A118312031341
:100500005607D0005008033E840083130008D10032
:10051000840A0008D200840A0008D3004E08840030
:1005200051088000840A52088000840A5308800021
:100530000130CF00570A84004F0880075708840015
:100540000008CF00570A84000008D0004F0850026E
:10055000031CAD2A570A840080015708023E84001C
:10056000013080020008CF004F08D50054088B00EE
:10057000C22A4E08840080014E0A84008001840A49
:100580008001D5015508080083120313D501132BF0
:1005900081303A06031D1B2B3E08063903191B2B1D
:1005A000B1013E08D1005108D8003E08D1005108E1
:1005B000D9005908D100D2015808D300D4015308FA
:1005C000D400D30151085304A30052085404A400DA
:1005D000DA015A083F3E840083130008D1005A080C
:1005E000B03E8400510880000130D1005108DA0784
:1005F00008305A02031CE92A0130D1005108B10029
:100600004C30CA000030CB0000308A1108258A1116
:1006100083120313AC01AC0A1B2B4F085004031DBB
:100620001B2BAC011B2B4E08043A03190D2B033A6C
:100630000319C82A1B2B5508CE005608CF005708AF
:10064000D00008008A1130258A1183120313E401B7
:100650006408E1006107243E84008A1144248A1161
:10066000003A03193E2B6408E1006107253E84002F
:100670008A1144248A11003A031D402B03300800DC
:100680006408E1006107213E84008A1144248A1134
:10069000E2006208CA006408E3006307203E8400A9
:1006A0008A1144248A118A119E258A118312031308
:1006B0006408E1006108DC006408E2006207243E8F
:1006C00084008A1144248A118A1134208A11013A43
:1006D00003196C2B05300800013083120313E1006D
:1006E0006108E40702306402031C282B0030080074
:1006F00083120313D5005508D1005108D6005608BF
:10070000840083130008D1005608023E84000008CC
:10071000D200510852020318CA2B5608023E840028
:100720000008D100560A840000085107D200520880
:10073000D4005608840000085402031CA32B56085A
:1007400084000008D4020B08D1005108D3008B1399
:100750000330D1005108CA0054088A11C8258312F9
:1007600003135507D2005208033E84004E0883133A
:100770008000840A4F088000840A500880000130FD
:10078000D1005608023E84005108800753088B00B0
:10079000013008000030080083120313CD008030C0
:1007A000CA004A08CE00D001D00A4D08CA0050083D
:1007B000CB0001300310CB0DFF3E031DDA2B0310DD
:1007C0004B0D013EE52B0310CA0CFF3E031DE32B2E
:1007D0004A080F39CC004C08CF004F080319032CEE
:1007E0005008CA0002300310CA0DFF3E031DF32B50
:1007F0004F08003E84008A1144248A114A07CB0026
:100800004B08CE00092CFF30CA004A08D007D01F81
:10081000D52B4E080800831203135C08DD005D0829
:10082000AB008B1383160313940187130616061768
:100830000717F83083120313DD005D0883120317D6
:100840009F0583120313930134309400AA01FB0126
:10085000831603138C150B178B17023083120313A7
:10086000DD005D08DE005E08D7005F08D800600884
:10087000D9002B088A11DF248A11013A031D422C6A
:10088000013008000030080004308A000408840A9F
:10089000820700340034013401340234023402345B
:1008A0000234033403340334033403340334033491
:1008B000033407340034003400340034003400348E
:1008C0000034013402340434083410342034403409
:1008D0008034C9340434BD34043401340B3403345B
:1008E00009340534123427340034003400340A3417
:1008F0002D340A347030831603138F008A11842537
:100900008A11831603138711831203179E13831210
:10091000031387118316031307128312031307129D
:1009200001308A1122238A1183120313E70067081A
:10093000E80007166808031DA62C02308A11272933
:10094000831203136208E7006708E8006808033AA7
:100950000319AE2C063A0319AE2CAE2CAE2C831222
:10096000031387168C1DBB2C831603138C1DBB2C05
:100970008A1146208A11831203138C1EC62C8316FB
:1009800003138C1EC62C8A1198218A110B1DD32C9F
:100990000B110130F400740883120313B707013000
:1009A000F4007408870683120313871277088A00FD
:1009B00076088400750E8300FE0E7E0E09008312F9
:1009C0000313DB0002305B020318062D5708CE002C
:1009D0005808CF005908D0005B08DA005A07203EBB
:1009E00084008A1144248A118A1178238A11013AD9
:1009F000031D062D831203135B08183E84008A1121
:100A00004424DA005A08B804013008000030080015
:100A100083120313CD0008304D02031808004D085F
:100A2000103E84008A1144248A11003A03190800F8
:100A30004A084B04031908004D08CC004C07A03E9F
:100A400084004A0883138000840A4B0880004D0804
:100A5000183E84008A114424CC004C08B6040800D7
:100A6000831603130710831203171E128312031336
:100A700007108316031387128312031387128B1335
:100A8000831603138112811101148114011583123D
:100A9000031381010B118B168B17080083120313AC
:100AA0002D080319672D0730DC005C08DD00DE012E
:100AB000DF015D08D7005E08D8005F08D90000306C
:100AC0008A11DF2483120313AD01013008000030C6
:100AD0000800831203135C08DD005D08B3000230D8
:100AE000DD005D08DE005E08D7005F08D800600802
:100AF000D90033088A11DF248A11013A031D822D9F
:100B000001300800003008008B1381308316031376
:100B100099009A0118159B11181283120313981744
:100B2000831603130C128C160B17981683120313DB
:100B30001816831203179F118B17080083120313D3
:100B4000CC004C08CB004B08CD004A08FF3ECB0040
:100B50004D0884004B08831380004D0A84008001F7
:100B60004D08023E84008001080000308312031308
:100B7000071B0130CC004C0827060319C32D4C0875
:100B80000319C32DAA014C08CA004A08A70008008F
:100B900083120313CD00CC014D1CD22D4A08CB008B
:100BA0004B08CC070310CA0D0310CD0C4D08031DD4
:100BB000CC2D4C080800F10171083A3E84008313E3
:100BC00080010130F0007008F1070D307102031848
:100BD0000800DC2D831203135C08D7005D08D800E1
:100BE0005E08D90033088A11DF240800831203133A
:100BF00037080319FF2D0130B7020130080000301B
:100C0000080083120313CD014D08CA004E08CB0023
:100C10004F08CC00080064008001840A0406031910
:100C2000003404060C2EFF34FF34FF34FF348312EB
:0A0C3000031331080800B03008007B
:02400E00E2F0DE
:00000001FF
