Microchip MPLAB XC8 Compiler V2.05 ()

Linker command line:

-W-3 --edf=C:\Program Files (x86)\Microchip\xc8\v2.05\pic\dat\en_msgs.txt \
  -cs -h+dist/Managed_Stack/production\COMPASS_SW.production.sym \
  --cmf=dist/Managed_Stack/production\COMPASS_SW.production.cmf -z -Q16F690 \
  -oC:\Users\TAOffice\AppData\Local\Temp\s45g.2 --defsym=__MPLAB_BUILD=1 \
  -Mdist/Managed_Stack/production/COMPASS_SW.production.map -E1 -ver=XC8 \
  --acfsm=1493 -ASTACK=0120h-016Fh -pstack=STACK -ACODE=00h-07FFhx2 \
  -ASTRCODE=00h-0FFFh -ASTRING=00h-0FFhx16 -ACONST=00h-0FFhx16 \
  -AENTRY=00h-0FFhx16 -ACOMMON=070h-07Fh -ABANK0=020h-06Fh \
  -ABANK1=0A0h-0EFh -ABANK2=0120h-016Fh \
  -ARAM=020h-06Fh,0A0h-0EFh,0120h-016Fh \
  -AABS1=020h-07Fh,0A0h-0EFh,0120h-016Fh -ASFR0=00h-01Fh -ASFR1=080h-09Fh \
  -ASFR2=0100h-011Fh -ASFR3=0180h-01EFh \
  -preset_vec=00h,intentry=04h,init,end_init -ppowerup=CODE -pcinit=CODE \
  -pfunctab=ENTRY -ACONFIG=02007h-02007h -pconfig=CONFIG -DCONFIG=2 \
  -AIDLOC=02000h-02003h -pidloc=IDLOC -DIDLOC=2 -AEEDATA=00h-0FFh/02100h \
  -peeprom_data=EEDATA -DEEDATA=2 -DCODE=2 -DSTRCODE=2 -DSTRING=2 -DCONST=2 \
  -DENTRY=2 -k C:\Users\TAOffice\AppData\Local\Temp\s45g.o \
  dist/Managed_Stack/production\COMPASS_SW.production.o 

Object code version is 3.11

Machine type is 16F690



                Name                               Link     Load   Length Selector   Space Scale
C:\Users\TAOffice\AppData\Local\Temp\s45g.o
                end_init                              D        D        2        8       0
                reset_vec                             0        0        2        0       0
                config                             2007     2007        1     400E       0
dist/Managed_Stack/production\COMPASS_SW.production.o
                cinit                                 F        F       25        8       0
                functab                              34       34       12       68       0
                intentry                              4        4        9        8       0
                text26                              61B      61B        2      8F4       0
                text25                              617      617        4      8F4       0
                text24                               46       46       E1       8C       0
                text23                              5DB      5DB        F      8F4       0
                text22                              198      198       66       8C       0
                text21                              4AF      4AF       30      8F4       0
                text20                              59E      59E       17      8F4       0
                text19                              530      530       1E      8F4       0
                text18                              5C8      5C8       13      8F4       0
                text17                              378      378       54       8C       0
                text16                              4DF      4DF       29      8F4       0
                text15                              569      569       1B      8F4       0
                text14                              40B      40B       39       8C       0
                text13                              322      322       56       8C       0
                text12                              5B5      5B5       13      8F4       0
                text11                              54E      54E       1B      8F4       0
                text10                              261      261       63       8C       0
                text9                               3CC      3CC       3F       8C       0
                text8                               5EA      5EA        C      8F4       0
                text7                               1FE      1FE       63       8C       0
                text6                               5F6      5F6        B      8F4       0
                text5                               601      601        A      8F4       0
                text4                               508      508       28      8F4       0
                text3                               2C4      2C4       5E       8C       0
                text2                               127      127       71       8C       0
                text1                               584      584       1A      8F4       0
                jmp_tab__ES_Run                       2        2        2        4       0
                maintext                            47A      47A       35      8F4       0
                cstackBANK0                          4A       4A       1F       20       1
                cstackCOMMON                         70       70        8       70       1
                clrtext                             60B      60B        8      8F4       0
                bssBANK1                             A0       A0       35       A0       1
                dataBANK0                            69       69        4       20       1
                bssBANK0                             20       20       2A       20       1
                bssCOMMON                            78       78        6       70       1
                strings                             444      444       36      888       0
                idataBANK0                          613      613        4      8F4       0

TOTAL           Name                               Link     Load   Length     Space
        CLASS   STACK          

        CLASS   CODE           
                end_init                              D        D        2         0
                cinit                                 F        F       25         0
                intentry                              4        4        9         0
                reset_vec                             0        0        2         0
                text26                              61B      61B        2         0
                text25                              617      617        4         0
                text24                               46       46       E1         0
                text23                              5DB      5DB        F         0
                text22                              198      198       66         0
                text21                              4AF      4AF       30         0
                text20                              59E      59E       17         0
                text19                              530      530       1E         0
                text18                              5C8      5C8       13         0
                text17                              378      378       54         0
                text16                              4DF      4DF       29         0
                text15                              569      569       1B         0
                text14                              40B      40B       39         0
                text13                              322      322       56         0
                text12                              5B5      5B5       13         0
                text11                              54E      54E       1B         0
                text10                              261      261       63         0
                text9                               3CC      3CC       3F         0
                text8                               5EA      5EA        C         0
                text7                               1FE      1FE       63         0
                text6                               5F6      5F6        B         0
                text5                               601      601        A         0
                text4                               508      508       28         0
                text3                               2C4      2C4       5E         0
                text2                               127      127       71         0
                text1                               584      584       1A         0
                maintext                            47A      47A       35         0
                clrtext                             60B      60B        8         0
                idataBANK0                          613      613        4         0

        CLASS   STRCODE        

        CLASS   STRING         
                strings                             444      444       36         0

        CLASS   CONST          

        CLASS   ENTRY          
                functab                              34       34       12         0
                jmp_tab__ES_Run                       2        2        2         0

        CLASS   COMMON         
                cstackCOMMON                         70       70        8         1
                bssCOMMON                            78       78        6         1

        CLASS   BANK0          
                cstackBANK0                          4A       4A       1F         1
                dataBANK0                            69       69        4         1
                bssBANK0                             20       20       2A         1

        CLASS   BANK1          
                bssBANK1                             A0       A0       35         1

        CLASS   BANK2          

        CLASS   RAM            

        CLASS   ABS1           
                abs_s1                               7E       7E        2         1

        CLASS   SFR0           

        CLASS   SFR1           

        CLASS   SFR2           

        CLASS   SFR3           

        CLASS   CONFIG         
                config                             2007     2007        1         0

        CLASS   IDLOC          

        CLASS   EEDATA         

        CLASS   BANK3          



SEGMENTS        Name                           Load    Length   Top    Selector   Space  Class     Delta

                reset_vec                      000000  000002  000002         0       0  CODE        2
                jmp_tab__ES_Run                000002  000002  000004         4       0  ENTRY       2
                intentry                       000004  000030  000034         8       0  CODE        2
                bssBANK0                       000020  00004D  00006D        20       1  BANK0       1
                functab                        000034  000012  000046        68       0  ENTRY       2
                cstackCOMMON                   000070  00000E  00007E        70       1  COMMON      1
                text24                         000046  0003FE  000444        8C       0  CODE        2
                bssBANK1                       0000A0  000035  0000D5        A0       1  BANK1       1
                strings                        000444  000036  00047A       888       0  STRING      2
                maintext                       00047A  0001A3  00061D       8F4       0  CODE        2
                config                         002007  000001  002008      400E       0  CONFIG      2


UNUSED ADDRESS RANGES

        Name                Unused          Largest block    Delta
        BANK0            006D-006F              3           1
        BANK1            00D5-00EF             1B           1
        BANK2            0120-016F             50           1
        CODE             061D-0FFF            1E3           2
        CONST            061D-0FFF            100           2
        EEDATA           2100-21FF            100           2
        ENTRY            061D-0FFF            100           2
        IDLOC            2000-2003              4           2
        RAM              006D-006F              3           1
                         00D5-00EF             1B
                         0120-016F             50
        SFR0             0000-001F             20           1
        SFR1             0080-009F             20           1
        SFR2             0100-011F             20           1
        SFR3             0180-01EF             70           1
        STACK            0120-016F             50           1
        STRCODE          061D-0FFF            9E3           2
        STRING           061D-0FFF            100           2

                                  Symbol Table

?_ES_Run                            cstackBANK0     0062
?_RunSPIService                     cstackBANK0     004A
?_RunUARTRXService                  cstackBANK0     004E
CheckSSEvent@lastSS                 bssBANK0        0027
CheckSSEvent@thisSS                 cstackBANK0     004C
CheckUARTRXEvent@CommEvent          cstackBANK0     005D
ClearReceivedDataArray@i            cstackCOMMON    0071
ES_DeQueue@NumLeft                  cstackBANK0     0055
ES_DeQueue@pBlock                   cstackBANK0     0056
ES_DeQueue@pReturnEvent             cstackBANK0     004E
ES_DeQueue@pThisQueue               cstackBANK0     0057
ES_DeQueue@saveCrit                 cstackBANK0     0054
ES_EnQueueFIFO@Event2Add            cstackBANK0     004E
ES_EnQueueFIFO@InsertionPoint       cstackBANK0     0054
ES_EnQueueFIFO@pBlock               cstackBANK0     0055
ES_EnQueueFIFO@pThisQueue           cstackBANK0     0056
ES_EnQueueFIFO@saveCrit             cstackBANK0     0053
ES_GetMSBitSet@LoopCntr             cstackBANK0     0050
ES_GetMSBitSet@Nybble2Test          cstackBANK0     004F
ES_GetMSBitSet@ReturnVal            cstackBANK0     004E
ES_GetMSBitSet@Val2Check            cstackBANK0     004D
ES_InitQueue@BlockSize              cstackBANK0     004A
ES_InitQueue@pBlock                 cstackBANK0     004C
ES_InitQueue@pThisQueue             cstackBANK0     004D
ES_Initialize@i                     cstackBANK0     0064
ES_PostToService@TheEvent           cstackBANK0     0057
ES_PostToService@WhichService       cstackBANK0     005B
ES_Run@HighestPrior                 cstackBANK0     0066
ES_Run@ThisEvent                    bssBANK0        0047
ES_Timer_InitTimer@NewTime          cstackBANK0     004A
ES_Timer_InitTimer@Num              cstackBANK0     004D
ES_Timer_RTI_Resp@NeedsProcessing   bssBANK0        0035
ES_Timer_RTI_Resp@NewEvent          bssBANK0        0020
ES_Timer_RTI_Resp@NextTimer2Process bssBANK0        0034
InitSPIService@Priority             cstackBANK0     005C
InitSPIService@ThisEvent            cstackBANK0     005E
InitUARTRXService@Priority          cstackBANK0     005C
InitUARTRXService@ThisEvent         cstackBANK0     005E
PostUARTRXService@ThisEvent         cstackBANK0     005C
RunSPIService@ReturnEvent           cstackBANK0     004D
RunSPIService@ThisEvent             cstackBANK0     004A
RunUARTRXService@FieldAddressLSB    cstackBANK0     0059
RunUARTRXService@FieldAddressMSB    cstackBANK0     0058
RunUARTRXService@ReturnEvent        cstackBANK0     0055
RunUARTRXService@ThisEvent          cstackBANK0     004E
RunUARTRXService@i                  cstackBANK0     005A
SPIIntResponse@readByte             cstackCOMMON    0071
SPI_SM@MyPriority                   bssBANK0        002B
SPI_SM@currentState                 bssBANK0        002A
UARTRXIntResponse@bodyByteCount     bssCOMMON       007C
UARTRXIntResponse@currentByteIndex  bssCOMMON       007D
UARTRXIntResponse@newByte           cstackCOMMON    0073
_ANS11                              (abs)           08FB
_ANS4                               (abs)           08F4
_ANS7                               (abs)           08F7
_ANSELH                             (abs)           011F
_BF                                 (abs)           04A0
_BRG16                              (abs)           04DB
_BRGH                               (abs)           04C2
_BitNum2SetMask                     strings         0461
_CREN                               (abs)           00C4
_CheckSSEvent                       text12          05B5
_CheckUARTRXEvent                   text11          054E
_ClearReceivedDataArray             text23          05DB
_ES_DeQueue                         text10          0261
_ES_EnQueueFIFO                     text17          0378
_ES_GetMSBitSet                     text9           03CC
_ES_InitQueue                       text20          059E
_ES_Initialize                      text13          0322
_ES_PostToService                   text16          04DF
_ES_Run                             text2           0127
_ES_Sys_Timer_Init                  text19          0530
_ES_Timer_InitTimer                 text4           0508
_ES_Timer_RTI_Resp                  text7           01FE
_EventQueues                        strings         0469
_FieldAddr                          bssBANK0        0023
_GIE                                (abs)           005F
_INTCON                             (abs)           000B
_ISR                                text21          04AF
_InitSPIService                     text14          040B
_InitUARTRXService                  text15          0569
_IsTimerPending                     text6           05F6
_MyPriority                         bssBANK0        0033
_Nybble2MSBitNum                    strings         044A
_OSCCON                             (abs)           008F
_PEIE                               (abs)           005E
_PORTC                              (abs)           0007
_PS0                                (abs)           0408
_PS1                                (abs)           0409
_PS2                                (abs)           040A
_PSA                                (abs)           040B
_PackageResponseStore               bssCOMMON       0079
_PostUARTRXService                  text8           05EA
_Queue0                             bssBANK1        00C9
_Queue1                             bssBANK1        00BD
_RC0                                (abs)           0038
_RC3                                (abs)           003B
_RC4                                (abs)           003C
_RC5                                (abs)           003D
_RC6                                (abs)           003E
_RCIE                               (abs)           0465
_RCIF                               (abs)           0065
_RCREG                              (abs)           001A
_RXFlag                             bssBANK0        002D
_RX_getResponseBuffer               text26          061B
_RX_newPackageReady                 text25          0617
_Ready                              bssBANK0        0038
_ReceivedData                       bssBANK0        003A
_ResponseArray                      bssBANK1        00B0
_RunSPIService                      text5           0601
_RunUARTRXService                   text3           02C4
_SPBRG                              (abs)           0099
_SPBRGH                             (abs)           009A
_SPEN                               (abs)           00C7
_SPIBuffer                          bssCOMMON       007A
_SPIIntResponse                     text24          0046
_SSPBUF                             (abs)           0013
_SSPCON                             (abs)           0014
_SSPIE                              (abs)           0463
_SSPIF                              (abs)           0063
_SSPSTAT                            (abs)           0094
_SYNC                               (abs)           04C4
_ServDescList                       strings         046D
_T0CS                               (abs)           040D
_T0IE                               (abs)           005D
_T0IF                               (abs)           005A
_TMR0                               (abs)           0001
_TMR_ActiveFlags                    bssBANK0        0036
_TMR_TimerArray                     bssBANK1        00A0
_TRISB4                             (abs)           0434
_TRISB6                             (abs)           0436
_TRISC0                             (abs)           0438
_TRISC3                             (abs)           043B
_TRISC4                             (abs)           043C
_TRISC5                             (abs)           043D
_TRISC6                             (abs)           043E
_TRISC7                             (abs)           043F
_TXEN                               (abs)           04C5
_TXIE                               (abs)           0464
_TXIF                               (abs)           0064
_TXREG                              (abs)           0019
_Team                               bssCOMMON       007B
_TickCount                          bssBANK0        0037
_Timer2PostFunc                     strings         0459
_UARTRXIntResponse                  text22          0198
_USART_Init                         text1           0584
__CFG_BOREN$OFF                     (abs)           0000
__CFG_CP$OFF                        (abs)           0000
__CFG_CPD$OFF                       (abs)           0000
__CFG_FCMEN$OFF                     (abs)           0000
__CFG_FOSC$HS                       (abs)           0000
__CFG_IESO$OFF                      (abs)           0000
__CFG_MCLRE$ON                      (abs)           0000
__CFG_PWRTE$ON                      (abs)           0000
__CFG_WDTE$OFF                      (abs)           0000
__Habs1                             abs1            0000
__Hbank0                            bank0           0000
__Hbank1                            bank1           0000
__Hbank2                            bank2           0000
__Hbank3                            bank3           0000
__HbssBANK0                         bssBANK0        0000
__HbssBANK1                         bssBANK1        0000
__HbssCOMMON                        bssCOMMON       0000
__Hcinit                            cinit           0034
__Hclrtext                          clrtext         0000
__Hcode                             code            0000
__Hcommon                           common          0000
__Hconfig                           config          2008
__HcstackBANK0                      cstackBANK0     0000
__HcstackCOMMON                     cstackCOMMON    0000
__HdataBANK0                        dataBANK0       0000
__Heeprom_data                      eeprom_data     0000
__Hend_init                         end_init        000F
__Hfunctab                          functab         0046
__HidataBANK0                       idataBANK0      0000
__Hidloc                            idloc           0000
__Hinit                             init            000D
__Hintentry                         intentry        000D
__Hjmp_tab__ES_Run                  jmp_tab__ES_Run 0000
__Hmaintext                         maintext        0000
__Hpowerup                          powerup         0000
__Hram                              ram             0000
__Hreset_vec                        reset_vec       0002
__Hsfr0                             sfr0            0000
__Hsfr1                             sfr1            0000
__Hsfr2                             sfr2            0000
__Hsfr3                             sfr3            0000
__Hspace_0                          (abs)           2008
__Hspace_1                          (abs)           00D5
__Hspace_2                          (abs)           0000
__Hspace_3                          (abs)           0000
__Hstack                            stack           0000
__Hstrings                          strings         0000
__Htext                             text            0000
__Labs1                             abs1            0000
__Lbank0                            bank0           0000
__Lbank1                            bank1           0000
__Lbank2                            bank2           0000
__Lbank3                            bank3           0000
__LbssBANK0                         bssBANK0        0000
__LbssBANK1                         bssBANK1        0000
__LbssCOMMON                        bssCOMMON       0000
__Lcinit                            cinit           000F
__Lclrtext                          clrtext         0000
__Lcode                             code            0000
__Lcommon                           common          0000
__Lconfig                           config          2007
__LcstackBANK0                      cstackBANK0     0000
__LcstackCOMMON                     cstackCOMMON    0000
__LdataBANK0                        dataBANK0       0000
__Leeprom_data                      eeprom_data     0000
__Lend_init                         end_init        000D
__Lfunctab                          functab         0034
__LidataBANK0                       idataBANK0      0000
__Lidloc                            idloc           0000
__Linit                             init            000D
__Lintentry                         intentry        0004
__Ljmp_tab__ES_Run                  jmp_tab__ES_Run 0000
__Lmaintext                         maintext        0000
__Lpowerup                          powerup         0000
__Lram                              ram             0000
__Lreset_vec                        reset_vec       0000
__Lsfr0                             sfr0            0000
__Lsfr1                             sfr1            0000
__Lsfr2                             sfr2            0000
__Lsfr3                             sfr3            0000
__Lspace_0                          (abs)           0000
__Lspace_1                          (abs)           0000
__Lspace_2                          (abs)           0000
__Lspace_3                          (abs)           0000
__Lstack                            stack           0000
__Lstrings                          strings         0000
__Ltext                             text            0000
__S0                                (abs)           2008
__S1                                (abs)           00D5
__S2                                (abs)           0000
__S3                                (abs)           0000
___bmul                             text18          05C8
___bmul@multiplicand                cstackBANK0     004A
___bmul@multiplier                  cstackBANK0     004D
___bmul@product                     cstackBANK0     004C
___int_sp                           stack           0000
___latbits                          (abs)           0001
___sp                               stack           0000
___stackhi                          (abs)           0000
___stacklo                          (abs)           0000
__end_of_BitNum2SetMask             strings         0469
__end_of_CheckSSEvent               text12          05C8
__end_of_CheckUARTRXEvent           text11          0569
__end_of_ClearReceivedDataArray     text23          05EA
__end_of_ES_DeQueue                 text10          02C4
__end_of_ES_EnQueueFIFO             text17          03CC
__end_of_ES_EventList               strings         0472
__end_of_ES_GetMSBitSet             text9           040B
__end_of_ES_InitQueue               text20          05B5
__end_of_ES_Initialize              text13          0378
__end_of_ES_PostToService           text16          0508
__end_of_ES_Run                     text2           0198
__end_of_ES_Sys_Timer_Init          text19          054E
__end_of_ES_Timer_InitTimer         text4           0530
__end_of_ES_Timer_RTI_Resp          text7           0261
__end_of_EventQueues                strings         046D
__end_of_ISR                        text21          04DF
__end_of_InitSPIService             text14          0444
__end_of_InitUARTRXService          text15          0584
__end_of_IsTimerPending             text6           0601
__end_of_Nybble2MSBitNum            strings         0459
__end_of_PostUARTRXService          text8           05F6
__end_of_RX_getResponseBuffer       text26          061D
__end_of_RX_newPackageReady         text25          061B
__end_of_RunSPIService              text5           060B
__end_of_RunUARTRXService           text3           0322
__end_of_SPIIntResponse             text24          0127
__end_of_ServDescList               strings         0471
__end_of_TestResponseArray          strings         047A
__end_of_Timer2PostFunc             strings         0461
__end_of_UARTRXIntResponse          text22          01FE
__end_of_USART_Init                 text1           059E
__end_of___bmul                     text18          05DB
__end_of__fptable                   functab         0046
__end_of__initialization            cinit           0031
__end_of__stringtab                 strings         044A
__end_of_main                       maintext        04AF
__fptable                           functab         0034
__initialization                    cinit           000F
__pbssBANK0                         bssBANK0        0020
__pbssBANK1                         bssBANK1        00A0
__pbssCOMMON                        bssCOMMON       0078
__pcstackBANK0                      cstackBANK0     004A
__pcstackCOMMON                     cstackCOMMON    0070
__pdataBANK0                        dataBANK0       0069
__pfunctab                          functab         0034
__pidataBANK0                       idataBANK0      0613
__pintentry                         intentry        0004
__pjmp_tab__ES_Run                  jmp_tab__ES_Run 0002
__pmaintext                         maintext        047A
__pstrings                          strings         0444
__ptext1                            text1           0584
__ptext10                           text10          0261
__ptext11                           text11          054E
__ptext12                           text12          05B5
__ptext13                           text13          0322
__ptext14                           text14          040B
__ptext15                           text15          0569
__ptext16                           text16          04DF
__ptext17                           text17          0378
__ptext18                           text18          05C8
__ptext19                           text19          0530
__ptext2                            text2           0127
__ptext20                           text20          059E
__ptext21                           text21          04AF
__ptext22                           text22          0198
__ptext23                           text23          05DB
__ptext24                           text24          0046
__ptext25                           text25          0617
__ptext26                           text26          061B
__ptext3                            text3           02C4
__ptext4                            text4           0508
__ptext5                            text5           0601
__ptext6                            text6           05F6
__ptext7                            text7           01FE
__ptext8                            text8           05EA
__ptext9                            text9           03CC
__size_of_CheckSSEvent              (abs)           0000
__size_of_CheckUARTRXEvent          (abs)           0000
__size_of_ClearReceivedDataArray    (abs)           0000
__size_of_ES_DeQueue                (abs)           0000
__size_of_ES_EnQueueFIFO            (abs)           0000
__size_of_ES_GetMSBitSet            (abs)           0000
__size_of_ES_InitQueue              (abs)           0000
__size_of_ES_Initialize             (abs)           0000
__size_of_ES_PostToService          (abs)           0000
__size_of_ES_Run                    (abs)           0000
__size_of_ES_Sys_Timer_Init         (abs)           0000
__size_of_ES_Timer_InitTimer        (abs)           0000
__size_of_ES_Timer_RTI_Resp         (abs)           0000
__size_of_ISR                       (abs)           0000
__size_of_InitSPIService            (abs)           0000
__size_of_InitUARTRXService         (abs)           0000
__size_of_IsTimerPending            (abs)           0000
__size_of_PostUARTRXService         (abs)           0000
__size_of_RX_getResponseBuffer      (abs)           0000
__size_of_RX_newPackageReady        (abs)           0000
__size_of_RunSPIService             (abs)           0000
__size_of_RunUARTRXService          (abs)           0000
__size_of_SPIIntResponse            (abs)           0000
__size_of_UARTRXIntResponse         (abs)           0000
__size_of_USART_Init                (abs)           0000
__size_of___bmul                    (abs)           0000
__size_of__fptable                  (abs)           0000
__size_of_main                      (abs)           0000
__stringbase                        strings         0449
__stringtab                         strings         0444
_checksum                           bssBANK0        0039
_commOpen                           bssBANK0        0029
_currentState                       bssBANK0        0032
_flag2                              bssBANK0        002F
_flag3                              bssBANK0        002E
_hasHeartbeat                       bssBANK0        002C
_main                               maintext        047A
_newPackageAvailable                bssBANK0        0031
_newRequest                         bssBANK0        0028
_newResponseAvailable               bssBANK0        0030
_responseBytes                      dataBANK0       0069
_scoreRequest                       bssCOMMON       0078
_time                               bssBANK0        0025
btemp                               (abs)           007E
clear_ram0                          clrtext         060B
end_of_initialization               cinit           0031
entry__CheckUARTRXEvent             functab         003E
entry__RunSPIService                functab         0042
entry__RunUARTRXService             functab         0044
fpbase                              functab         0039
fptable                             functab         0034
fptotal                             (abs)           000C
interrupt_function                  intentry        0004
intlevel0                           functab         0034
intlevel1                           functab         0034
intlevel2                           functab         0034
intlevel3                           functab         0034
intlevel4                           functab         0034
intlevel5                           functab         0034
main@ErrorType                      cstackBANK0     0068
reset_vec                           reset_vec       0000
saved_w                             (abs)           007E
start                               init            000D
start_initialization                cinit           000F
u1617jf                             maintext        04A0
wtemp0                              (abs)           007E


FUNCTION INFORMATION:

 *************** function _main *****************
 Defined at:
		line 21 in file "main.c"
 Parameters:    Size  Location     Type
		None
 Auto vars:     Size  Location     Type
  ErrorType       1   30[BANK0 ] enum E1322
 Return value:  Size  Location     Type
                  1    wreg      void 
 Registers used:
		wreg, fsr0l, fsr0h, status,2, status,0, btemp+1, pclath, cstack
 Tracked objects:
		On entry : 
		On exit  : 
		Unchanged: 
 Data sizes:     COMMON   BANK0   BANK1   BANK2
      Params:         0       0       0       0
      Locals:         0       1       0       0
      Temps:          0       1       0       0
      Totals:         0       2       0       0
Total ram usage:        2 bytes
 Hardware stack levels required when called:    8
 This function calls:
		_ES_Initialize
		_ES_Run
		_USART_Init
 This function is called by:
		Startup code after reset
 This function uses a non-reentrant model


 *************** function _USART_Init *****************
 Defined at:
		line 11 in file "sci.c"
 Parameters:    Size  Location     Type
		None
 Auto vars:     Size  Location     Type
		None
 Return value:  Size  Location     Type
                  1    wreg      void 
 Registers used:
		wreg, status,2
 Tracked objects:
		On entry : 
		On exit  : 
		Unchanged: 
 Data sizes:     COMMON   BANK0   BANK1   BANK2
      Params:         0       0       0       0
      Locals:         0       0       0       0
      Temps:          0       0       0       0
      Totals:         0       0       0       0
Total ram usage:        0 bytes
 Hardware stack levels used:    1
 Hardware stack levels required when called:    3
 This function calls:
		Nothing
 This function is called by:
		_main
 This function uses a non-reentrant model


 *************** function _ES_Run *****************
 Defined at:
		line 224 in file "ES_Framework.c"
 Parameters:    Size  Location     Type
		None
 Auto vars:     Size  Location     Type
  HighestPrior    1   28[BANK0 ] unsigned char 
 Return value:  Size  Location     Type
                  1   24[BANK0 ] enum E1275
 Registers used:
		wreg, fsr0l, fsr0h, status,2, status,0, btemp+1, pclath, cstack
 Tracked objects:
		On entry : 
		On exit  : 
		Unchanged: 
 Data sizes:     COMMON   BANK0   BANK1   BANK2
      Params:         0       2       0       0
      Locals:         0       1       0       0
      Temps:          0       2       0       0
      Totals:         0       5       0       0
Total ram usage:        5 bytes
 Hardware stack levels required when called:    8
 This function calls:
		_CheckSSEvent
		_CheckUARTRXEvent
		_ES_DeQueue
		_ES_GetMSBitSet
		_ES_Timer_RTI_Resp
		_IsTimerPending
		_RunSPIService
		_RunUARTRXService
 This function is called by:
		_main
 This function uses a non-reentrant model


 *************** function _RunUARTRXService *****************
 Defined at:
		line 141 in file "UART_RX_SM.c"
 Parameters:    Size  Location     Type
  ThisEvent       3    4[BANK0 ] struct ES_Event_t
 Auto vars:     Size  Location     Type
  i               1   16[BANK0 ] unsigned char 
  FieldAddress    1   15[BANK0 ] unsigned char 
  FieldAddress    1   14[BANK0 ] unsigned char 
  ReturnEvent     3   11[BANK0 ] struct ES_Event_t
 Return value:  Size  Location     Type
                  3    4[BANK0 ] struct ES_Event_t
 Registers used:
		wreg, fsr0l, fsr0h, status,2, status,0, btemp+1, pclath, cstack
 Tracked objects:
		On entry : 
		On exit  : 
		Unchanged: 
 Data sizes:     COMMON   BANK0   BANK1   BANK2
      Params:         0       3       0       0
      Locals:         0       6       0       0
      Temps:          0       4       0       0
      Totals:         0      13       0       0
Total ram usage:       13 bytes
 Hardware stack levels used:    1
 Hardware stack levels required when called:    4
 This function calls:
		_ES_Timer_InitTimer
 This function is called by:
		_ES_Run
 This function uses a non-reentrant model


 *************** function _ES_Timer_InitTimer *****************
 Defined at:
		line 205 in file "ES_Timers.c"
 Parameters:    Size  Location     Type
  Num             1    wreg     unsigned char 
  NewTime         2    0[BANK0 ] unsigned int 
 Auto vars:     Size  Location     Type
  Num             1    3[BANK0 ] unsigned char 
 Return value:  Size  Location     Type
                  1    wreg      enum E1162
 Registers used:
		wreg, fsr0l, fsr0h, status,2, status,0, pclath
 Tracked objects:
		On entry : 
		On exit  : 
		Unchanged: 
 Data sizes:     COMMON   BANK0   BANK1   BANK2
      Params:         0       2       0       0
      Locals:         0       1       0       0
      Temps:          0       1       0       0
      Totals:         0       4       0       0
Total ram usage:        4 bytes
 Hardware stack levels used:    1
 Hardware stack levels required when called:    3
 This function calls:
		Nothing
 This function is called by:
		_RunUARTRXService
 This function uses a non-reentrant model


 *************** function _RunSPIService *****************
 Defined at:
		line 183 in file "SPI_SM.c"
 Parameters:    Size  Location     Type
  ThisEvent       3    0[BANK0 ] struct ES_Event_t
 Auto vars:     Size  Location     Type
  ReturnEvent     3    3[BANK0 ] struct ES_Event_t
 Return value:  Size  Location     Type
                  3    0[BANK0 ] struct ES_Event_t
 Registers used:
		wreg, status,2
 Tracked objects:
		On entry : 
		On exit  : 
		Unchanged: 
 Data sizes:     COMMON   BANK0   BANK1   BANK2
      Params:         0       3       0       0
      Locals:         0       3       0       0
      Temps:          0       0       0       0
      Totals:         0       6       0       0
Total ram usage:        6 bytes
 Hardware stack levels used:    1
 Hardware stack levels required when called:    3
 This function calls:
		Nothing
 This function is called by:
		_ES_Run
 This function uses a non-reentrant model


 *************** function _IsTimerPending *****************
 Defined at:
		line 78 in file "ES_Port.c"
 Parameters:    Size  Location     Type
		None
 Auto vars:     Size  Location     Type
		None
 Return value:  Size  Location     Type
                  1    wreg      unsigned char 
 Registers used:
		wreg, status,2, status,0
 Tracked objects:
		On entry : 
		On exit  : 
		Unchanged: 
 Data sizes:     COMMON   BANK0   BANK1   BANK2
      Params:         0       0       0       0
      Locals:         0       0       0       0
      Temps:          0       0       0       0
      Totals:         0       0       0       0
Total ram usage:        0 bytes
 Hardware stack levels used:    1
 Hardware stack levels required when called:    3
 This function calls:
		Nothing
 This function is called by:
		_ES_Run
 This function uses a non-reentrant model


 *************** function _ES_Timer_RTI_Resp *****************
 Defined at:
		line 259 in file "ES_Timers.c"
 Parameters:    Size  Location     Type
		None
 Auto vars:     Size  Location     Type
		None
 Return value:  Size  Location     Type
                  1    wreg      void 
 Registers used:
		wreg, fsr0l, fsr0h, status,2, status,0, pclath, cstack
 Tracked objects:
		On entry : 
		On exit  : 
		Unchanged: 
 Data sizes:     COMMON   BANK0   BANK1   BANK2
      Params:         0       0       0       0
      Locals:         0       0       0       0
      Temps:          0       3       0       0
      Totals:         0       3       0       0
Total ram usage:        3 bytes
 Hardware stack levels used:    1
 Hardware stack levels required when called:    7
 This function calls:
		Absolute function
		_ES_GetMSBitSet
		_PostUARTRXService
 This function is called by:
		_ES_Run
 This function uses a non-reentrant model


 *************** function _PostUARTRXService *****************
 Defined at:
		line 120 in file "UART_RX_SM.c"
 Parameters:    Size  Location     Type
  ThisEvent       3   18[BANK0 ] struct ES_Event_t
 Auto vars:     Size  Location     Type
		None
 Return value:  Size  Location     Type
                  1    wreg      unsigned char 
 Registers used:
		wreg, fsr0l, fsr0h, status,2, status,0, pclath, cstack
 Tracked objects:
		On entry : 
		On exit  : 
		Unchanged: 
 Data sizes:     COMMON   BANK0   BANK1   BANK2
      Params:         0       3       0       0
      Locals:         0       0       0       0
      Temps:          0       0       0       0
      Totals:         0       3       0       0
Total ram usage:        3 bytes
 Hardware stack levels used:    1
 Hardware stack levels required when called:    6
 This function calls:
		_ES_PostToService
 This function is called by:
		_ES_Timer_RTI_Resp
 This function uses a non-reentrant model


 *************** function _ES_GetMSBitSet *****************
 Defined at:
		line 78 in file "ES_LookupTables.c"
 Parameters:    Size  Location     Type
  Val2Check       1    wreg     unsigned char 
 Auto vars:     Size  Location     Type
  Val2Check       1    3[BANK0 ] unsigned char 
  LoopCntr        1    6[BANK0 ] char 
  Nybble2Test     1    5[BANK0 ] unsigned char 
  ReturnVal       1    4[BANK0 ] unsigned char 
 Return value:  Size  Location     Type
                  1    wreg      unsigned char 
 Registers used:
		wreg, fsr0l, fsr0h, status,2, status,0, pclath
 Tracked objects:
		On entry : 
		On exit  : 
		Unchanged: 
 Data sizes:     COMMON   BANK0   BANK1   BANK2
      Params:         0       0       0       0
      Locals:         0       4       0       0
      Temps:          0       3       0       0
      Totals:         0       7       0       0
Total ram usage:        7 bytes
 Hardware stack levels used:    1
 Hardware stack levels required when called:    3
 This function calls:
		Nothing
 This function is called by:
		_ES_Run
		_ES_Timer_RTI_Resp
 This function uses a non-reentrant model


 *************** function _ES_DeQueue *****************
 Defined at:
		line 125 in file "ES_Queue.c"
 Parameters:    Size  Location     Type
  pBlock          1    wreg     PTR struct ES_Event_t
		 -> Queue1(12), Queue0(12), 
  pReturnEvent    1    4[BANK0 ] PTR struct ES_Event_t
		 -> ES_Run@ThisEvent(3), 
 Auto vars:     Size  Location     Type
  pBlock          1   12[BANK0 ] PTR struct ES_Event_t
		 -> Queue1(12), Queue0(12), 
  pThisQueue      1   13[BANK0 ] PTR struct .
		 -> Queue1(12), Queue0(12), 
  NumLeft         1   11[BANK0 ] unsigned char 
  saveCrit        1   10[BANK0 ] unsigned char 
 Return value:  Size  Location     Type
                  1    wreg      unsigned char 
 Registers used:
		wreg, fsr0l, fsr0h, status,2, status,0, pclath, cstack
 Tracked objects:
		On entry : 
		On exit  : 
		Unchanged: 
 Data sizes:     COMMON   BANK0   BANK1   BANK2
      Params:         0       1       0       0
      Locals:         0       4       0       0
      Temps:          0       5       0       0
      Totals:         0      10       0       0
Total ram usage:       10 bytes
 Hardware stack levels used:    1
 Hardware stack levels required when called:    4
 This function calls:
		___bmul
 This function is called by:
		_ES_Run
 This function uses a non-reentrant model


 *************** function _CheckUARTRXEvent *****************
 Defined at:
		line 421 in file "UART_RX_SM.c"
 Parameters:    Size  Location     Type
		None
 Auto vars:     Size  Location     Type
  CommEvent       3   19[BANK0 ] struct ES_Event_t
 Return value:  Size  Location     Type
                  1    wreg      unsigned char 
 Registers used:
		wreg, fsr0l, fsr0h, status,2, status,0, pclath, cstack
 Tracked objects:
		On entry : 
		On exit  : 
		Unchanged: 
 Data sizes:     COMMON   BANK0   BANK1   BANK2
      Params:         0       0       0       0
      Locals:         0       3       0       0
      Temps:          0       1       0       0
      Totals:         0       4       0       0
Total ram usage:        4 bytes
 Hardware stack levels used:    1
 Hardware stack levels required when called:    6
 This function calls:
		_ES_PostToService
 This function is called by:
		_ES_Run
		_ES_CheckUserEvents
 This function uses a non-reentrant model


 *************** function _CheckSSEvent *****************
 Defined at:
		line 358 in file "SPI_SM.c"
 Parameters:    Size  Location     Type
		None
 Auto vars:     Size  Location     Type
  thisSS          1    2[BANK0 ] unsigned char 
  returnVal       1    0        unsigned char 
 Return value:  Size  Location     Type
                  1    wreg      unsigned char 
 Registers used:
		wreg, status,2, status,0
 Tracked objects:
		On entry : 
		On exit  : 
		Unchanged: 
 Data sizes:     COMMON   BANK0   BANK1   BANK2
      Params:         0       0       0       0
      Locals:         0       2       0       0
      Temps:          0       1       0       0
      Totals:         0       3       0       0
Total ram usage:        3 bytes
 Hardware stack levels used:    1
 Hardware stack levels required when called:    3
 This function calls:
		Nothing
 This function is called by:
		_ES_Run
 This function uses a non-reentrant model


 *************** function _ES_Initialize *****************
 Defined at:
		line 189 in file "ES_Framework.c"
 Parameters:    Size  Location     Type
  NewRate         1    wreg     enum E93
 Auto vars:     Size  Location     Type
  NewRate         1    0[COMMON] enum E93
  i               1   26[BANK0 ] unsigned char 
 Return value:  Size  Location     Type
                  1    wreg      enum E1275
 Registers used:
		wreg, fsr0l, fsr0h, status,2, status,0, pclath, cstack
 Tracked objects:
		On entry : 
		On exit  : 
		Unchanged: 
 Data sizes:     COMMON   BANK0   BANK1   BANK2
      Params:         0       0       0       0
      Locals:         0       1       0       0
      Temps:          0       3       0       0
      Totals:         0       4       0       0
Total ram usage:        4 bytes
 Hardware stack levels used:    1
 Hardware stack levels required when called:    7
 This function calls:
		_ES_InitQueue
		_ES_Sys_Timer_Init
		_InitSPIService
		_InitUARTRXService
 This function is called by:
		_main
 This function uses a non-reentrant model


 *************** function _InitSPIService *****************
 Defined at:
		line 98 in file "SPI_SM.c"
 Parameters:    Size  Location     Type
  Priority        1   18[BANK0 ] unsigned char 
 Auto vars:     Size  Location     Type
  ThisEvent       3   20[BANK0 ] struct ES_Event_t
 Return value:  Size  Location     Type
                  1    wreg      unsigned char 
 Registers used:
		wreg, fsr0l, fsr0h, status,2, status,0, pclath, cstack
 Tracked objects:
		On entry : 
		On exit  : 
		Unchanged: 
 Data sizes:     COMMON   BANK0   BANK1   BANK2
      Params:         0       1       0       0
      Locals:         0       3       0       0
      Temps:          0       1       0       0
      Totals:         0       5       0       0
Total ram usage:        5 bytes
 Hardware stack levels used:    1
 Hardware stack levels required when called:    6
 This function calls:
		_ES_PostToService
 This function is called by:
		_ES_Initialize
 This function uses a non-reentrant model


 *************** function _InitUARTRXService *****************
 Defined at:
		line 89 in file "UART_RX_SM.c"
 Parameters:    Size  Location     Type
  Priority        1   18[BANK0 ] unsigned char 
 Auto vars:     Size  Location     Type
  ThisEvent       3   20[BANK0 ] struct ES_Event_t
 Return value:  Size  Location     Type
                  1    wreg      unsigned char 
 Registers used:
		wreg, fsr0l, fsr0h, status,2, status,0, pclath, cstack
 Tracked objects:
		On entry : 
		On exit  : 
		Unchanged: 
 Data sizes:     COMMON   BANK0   BANK1   BANK2
      Params:         0       1       0       0
      Locals:         0       3       0       0
      Temps:          0       1       0       0
      Totals:         0       5       0       0
Total ram usage:        5 bytes
 Hardware stack levels used:    1
 Hardware stack levels required when called:    6
 This function calls:
		_ES_PostToService
 This function is called by:
		_ES_Initialize
 This function uses a non-reentrant model


 *************** function _ES_PostToService *****************
 Defined at:
		line 313 in file "ES_Framework.c"
 Parameters:    Size  Location     Type
  WhichService    1    wreg     unsigned char 
  TheEvent        3   13[BANK0 ] struct ES_Event_t
 Auto vars:     Size  Location     Type
  WhichService    1   17[BANK0 ] unsigned char 
 Return value:  Size  Location     Type
                  1    wreg      unsigned char 
 Registers used:
		wreg, fsr0l, fsr0h, status,2, status,0, pclath, cstack
 Tracked objects:
		On entry : 
		On exit  : 
		Unchanged: 
 Data sizes:     COMMON   BANK0   BANK1   BANK2
      Params:         0       3       0       0
      Locals:         0       1       0       0
      Temps:          0       1       0       0
      Totals:         0       5       0       0
Total ram usage:        5 bytes
 Hardware stack levels used:    1
 Hardware stack levels required when called:    5
 This function calls:
		_ES_EnQueueFIFO
 This function is called by:
		_InitUARTRXService
		_PostUARTRXService
		_CheckUARTRXEvent
		_InitSPIService
		_PostSPIService
 This function uses a non-reentrant model


 *************** function _ES_EnQueueFIFO *****************
 Defined at:
		line 83 in file "ES_Queue.c"
 Parameters:    Size  Location     Type
  pBlock          1    wreg     PTR struct ES_Event_t
		 -> Queue1(12), Queue0(12), 
  Event2Add       3    4[BANK0 ] struct ES_Event_t
 Auto vars:     Size  Location     Type
  pBlock          1   11[BANK0 ] PTR struct ES_Event_t
		 -> Queue1(12), Queue0(12), 
  pThisQueue      1   12[BANK0 ] PTR struct .
		 -> Queue1(12), Queue0(12), 
  InsertionPoi    1   10[BANK0 ] unsigned char 
  saveCrit        1    9[BANK0 ] unsigned char 
 Return value:  Size  Location     Type
                  1    wreg      unsigned char 
 Registers used:
		wreg, fsr0l, fsr0h, status,2, status,0, pclath, cstack
 Tracked objects:
		On entry : 
		On exit  : 
		Unchanged: 
 Data sizes:     COMMON   BANK0   BANK1   BANK2
      Params:         0       3       0       0
      Locals:         0       4       0       0
      Temps:          0       2       0       0
      Totals:         0       9       0       0
Total ram usage:        9 bytes
 Hardware stack levels used:    1
 Hardware stack levels required when called:    4
 This function calls:
		___bmul
 This function is called by:
		_ES_PostToService
		_ES_PostAll
 This function uses a non-reentrant model


 *************** function ___bmul *****************
 Defined at:
		line 4 in file "C:\Program Files (x86)\Microchip\xc8\v2.05\pic\sources\c90\common\Umul8.c"
 Parameters:    Size  Location     Type
  multiplier      1    wreg     unsigned char 
  multiplicand    1    0[BANK0 ] unsigned char 
 Auto vars:     Size  Location     Type
  multiplier      1    3[BANK0 ] unsigned char 
  product         1    2[BANK0 ] unsigned char 
 Return value:  Size  Location     Type
                  1    wreg      unsigned char 
 Registers used:
		wreg, status,2, status,0
 Tracked objects:
		On entry : 
		On exit  : 
		Unchanged: 
 Data sizes:     COMMON   BANK0   BANK1   BANK2
      Params:         0       1       0       0
      Locals:         0       2       0       0
      Temps:          0       1       0       0
      Totals:         0       4       0       0
Total ram usage:        4 bytes
 Hardware stack levels used:    1
 Hardware stack levels required when called:    3
 This function calls:
		Nothing
 This function is called by:
		_ES_Initialize
		_ES_Run
		_ES_PostToService
		_ES_EnQueueFIFO
		_ES_DeQueue
		_ES_PostAll
 This function uses a non-reentrant model


 *************** function _ES_Sys_Timer_Init *****************
 Defined at:
		line 25 in file "ES_Port.c"
 Parameters:    Size  Location     Type
		None
 Auto vars:     Size  Location     Type
		None
 Return value:  Size  Location     Type
                  1    wreg      void 
 Registers used:
		status,2
 Tracked objects:
		On entry : 
		On exit  : 
		Unchanged: 
 Data sizes:     COMMON   BANK0   BANK1   BANK2
      Params:         0       0       0       0
      Locals:         0       0       0       0
      Temps:          0       0       0       0
      Totals:         0       0       0       0
Total ram usage:        0 bytes
 Hardware stack levels used:    1
 Hardware stack levels required when called:    3
 This function calls:
		Nothing
 This function is called by:
		_ES_Initialize
 This function uses a non-reentrant model


 *************** function _ES_InitQueue *****************
 Defined at:
		line 56 in file "ES_Queue.c"
 Parameters:    Size  Location     Type
  pBlock          1    wreg     PTR struct ES_Event_t
		 -> Queue1(12), Queue0(12), 
  BlockSize       1    0[BANK0 ] unsigned char 
 Auto vars:     Size  Location     Type
  pBlock          1    2[BANK0 ] PTR struct ES_Event_t
		 -> Queue1(12), Queue0(12), 
  pThisQueue      1    3[BANK0 ] PTR struct .
		 -> Queue1(12), Queue0(12), 
 Return value:  Size  Location     Type
                  1    wreg      unsigned char 
 Registers used:
		wreg, fsr0l, fsr0h, status,2, status,0
 Tracked objects:
		On entry : 
		On exit  : 
		Unchanged: 
 Data sizes:     COMMON   BANK0   BANK1   BANK2
      Params:         0       1       0       0
      Locals:         0       2       0       0
      Temps:          0       1       0       0
      Totals:         0       4       0       0
Total ram usage:        4 bytes
 Hardware stack levels used:    1
 Hardware stack levels required when called:    3
 This function calls:
		Nothing
 This function is called by:
		_ES_Initialize
 This function uses a non-reentrant model


 *************** function _ISR *****************
 Defined at:
		line 53 in file "ES_Port.c"
 Parameters:    Size  Location     Type
		None
 Auto vars:     Size  Location     Type
		None
 Return value:  Size  Location     Type
                  1    wreg      void 
 Registers used:
		wreg, fsr0l, fsr0h, status,2, status,0, pclath, cstack
 Tracked objects:
		On entry : 
		On exit  : 
		Unchanged: 
 Data sizes:     COMMON   BANK0   BANK1   BANK2
      Params:         0       0       0       0
      Locals:         0       0       0       0
      Temps:          4       0       0       0
      Totals:         4       0       0       0
Total ram usage:        4 bytes
 Hardware stack levels used:    1
 Hardware stack levels required when called:    2
 This function calls:
		_SPIIntResponse
		_UARTRXIntResponse
 This function is called by:
		Interrupt level 1
 This function uses a non-reentrant model


 *************** function _UARTRXIntResponse *****************
 Defined at:
		line 335 in file "UART_RX_SM.c"
 Parameters:    Size  Location     Type
		None
 Auto vars:     Size  Location     Type
  newByte         1    3[COMMON] unsigned char 
 Return value:  Size  Location     Type
                  1    wreg      void 
 Registers used:
		wreg, fsr0l, fsr0h, status,2, status,0, pclath, cstack
 Tracked objects:
		On entry : 
		On exit  : 
		Unchanged: 
 Data sizes:     COMMON   BANK0   BANK1   BANK2
      Params:         0       0       0       0
      Locals:         1       0       0       0
      Temps:          1       0       0       0
      Totals:         2       0       0       0
Total ram usage:        2 bytes
 Hardware stack levels used:    1
 Hardware stack levels required when called:    1
 This function calls:
		_ClearReceivedDataArray
 This function is called by:
		_ISR
 This function uses a non-reentrant model


 *************** function _ClearReceivedDataArray *****************
 Defined at:
		line 452 in file "UART_RX_SM.c"
 Parameters:    Size  Location     Type
		None
 Auto vars:     Size  Location     Type
  i               1    1[COMMON] unsigned char 
 Return value:  Size  Location     Type
                  1    wreg      void 
 Registers used:
		wreg, fsr0l, fsr0h, status,2, status,0
 Tracked objects:
		On entry : 
		On exit  : 
		Unchanged: 
 Data sizes:     COMMON   BANK0   BANK1   BANK2
      Params:         0       0       0       0
      Locals:         1       0       0       0
      Temps:          1       0       0       0
      Totals:         2       0       0       0
Total ram usage:        2 bytes
 Hardware stack levels used:    1
 This function calls:
		Nothing
 This function is called by:
		_UARTRXIntResponse
 This function uses a non-reentrant model


 *************** function _SPIIntResponse *****************
 Defined at:
		line 204 in file "SPI_SM.c"
 Parameters:    Size  Location     Type
		None
 Auto vars:     Size  Location     Type
  readByte        1    1[COMMON] unsigned char 
 Return value:  Size  Location     Type
                  1    wreg      void 
 Registers used:
		wreg, fsr0l, fsr0h, status,2, status,0, pclath, cstack
 Tracked objects:
		On entry : 
		On exit  : 
		Unchanged: 
 Data sizes:     COMMON   BANK0   BANK1   BANK2
      Params:         0       0       0       0
      Locals:         1       0       0       0
      Temps:          1       0       0       0
      Totals:         2       0       0       0
Total ram usage:        2 bytes
 Hardware stack levels used:    1
 Hardware stack levels required when called:    1
 This function calls:
		_RX_getResponseBuffer
		_RX_newPackageReady
 This function is called by:
		_ISR
 This function uses a non-reentrant model


 *************** function _RX_newPackageReady *****************
 Defined at:
		line 218 in file "UART_RX_SM.c"
 Parameters:    Size  Location     Type
		None
 Auto vars:     Size  Location     Type
		None
 Return value:  Size  Location     Type
                  1    wreg      unsigned char 
 Registers used:
		wreg
 Tracked objects:
		On entry : 
		On exit  : 
		Unchanged: 
 Data sizes:     COMMON   BANK0   BANK1   BANK2
      Params:         0       0       0       0
      Locals:         0       0       0       0
      Temps:          0       0       0       0
      Totals:         0       0       0       0
Total ram usage:        0 bytes
 Hardware stack levels used:    1
 This function calls:
		Nothing
 This function is called by:
		_SPIIntResponse
 This function uses a non-reentrant model


 *************** function _RX_getResponseBuffer *****************
 Defined at:
		line 235 in file "UART_RX_SM.c"
 Parameters:    Size  Location     Type
		None
 Auto vars:     Size  Location     Type
		None
 Return value:  Size  Location     Type
                  1    wreg      PTR volatile unsigned ch
 Registers used:
		wreg
 Tracked objects:
		On entry : 
		On exit  : 
		Unchanged: 
 Data sizes:     COMMON   BANK0   BANK1   BANK2
      Params:         0       0       0       0
      Locals:         0       0       0       0
      Temps:          0       0       0       0
      Totals:         0       0       0       0
Total ram usage:        0 bytes
 Hardware stack levels used:    1
 This function calls:
		Nothing
 This function is called by:
		_SPIIntResponse
 This function uses a non-reentrant model



MODULE INFORMATION

Module		Function		Class		Link	Load	Size
ES_Queue.c
		_ES_EnQueueFIFO		CODE           	0378	0000	85
		_ES_DeQueue    		CODE           	0261	0000	100
		_ES_InitQueue  		CODE           	059E	0000	24

ES_Queue.c estimated size: 209

ES_LookupTables.c
		_ES_GetMSBitSet		CODE           	03CC	0000	64

ES_LookupTables.c estimated size: 64

ES_Framework.c
		_ES_PostToService		CODE           	04DF	0000	42
		_ES_Run        		CODE           	0127	0000	114
		_ES_Initialize 		CODE           	0322	0000	87

ES_Framework.c estimated size: 243

UART_RX_SM.c
		_UARTRXIntResponse		CODE           	0198	0000	103
		_InitUARTRXService		CODE           	0569	0000	28
		_CheckUARTRXEvent		CODE           	054E	0000	28
		_RX_newPackageReady		CODE           	0617	0000	5
		_ClearReceivedDataArray		CODE           	05DB	0000	16
		_RunUARTRXService		CODE           	02C4	0000	95
		_PostUARTRXService		CODE           	05EA	0000	13
		_RX_getResponseBuffer		CODE           	061B	0000	3

UART_RX_SM.c estimated size: 291

C:\Program Files (x86)\Microchip\xc8\v2.05\pic\sources\c90\common\Umul8.c
		___bmul        		CODE           	05C8	0000	20

C:\Program Files (x86)\Microchip\xc8\v2.05\pic\sources\c90\common\Umul8.c estimated size: 20

shared
		_BitNum2SetMask		STRING         	0461	0000	9
		__stringtab    		STRING         	0444	0000	7
		_ES_EventList  		STRING         	0000	0000	0
		_TestResponseArray		STRING         	0000	0000	0
		_Nybble2MSBitNum		STRING         	044A	0000	16
		_EventQueues   		STRING         	0469	0000	5
		__initialization		CODE           	000F	0000	35
		_Timer2PostFunc		STRING         	0459	0000	9
		__fptable      		ENTRY          	0034	0000	19
		_ServDescList  		STRING         	046D	0000	5

shared estimated size: 105

SPI_SM.c
		_CheckSSEvent  		CODE           	05B5	0000	20
		_RunSPIService 		CODE           	0601	0000	11
		_SPIIntResponse		CODE           	0046	0000	226
		_InitSPIService		CODE           	040B	0000	58

SPI_SM.c estimated size: 315

ES_Port.c
		_ISR           		CODE           	04AF	0000	49
		_IsTimerPending		CODE           	05F6	0000	12
		_ES_Sys_Timer_Init		CODE           	0530	0000	31

ES_Port.c estimated size: 92

ES_Timers.c
		_ES_Timer_RTI_Resp		CODE           	01FE	0000	100
		_ES_Timer_InitTimer		CODE           	0508	0000	41

ES_Timers.c estimated size: 141

main.c
		_main          		CODE           	047A	0000	54

main.c estimated size: 54

sci.c
		_USART_Init    		CODE           	0584	0000	27

sci.c estimated size: 27

