

Microchip Technology PIC STD Macro Assembler V1.36 build -262312587 
                                                                                               Thu Feb 04 21:25:22 2016

Microchip Technology Omniscient Code Generator v1.36 (Standard mode) build 201601150325
     1                           	processor	16F690
     2                           	opt	pw 120
     3                           	opt	sm
     4                           	psect	idataBANK0,global,class=CODE,delta=2
     5                           	psect	idataBANK1,global,class=CODE,delta=2
     6                           	psect	strings,global,class=STRING,delta=2
     7                           	psect	cinit,global,class=CODE,merge=1,delta=2
     8                           	psect	bssCOMMON,global,class=COMMON,space=1,delta=1
     9                           	psect	bssBANK0,global,class=BANK0,space=1,delta=1
    10                           	psect	dataBANK0,global,class=BANK0,space=1,delta=1
    11                           	psect	bssBANK1,global,class=BANK1,space=1,delta=1
    12                           	psect	dataBANK1,global,class=BANK1,space=1,delta=1
    13                           	psect	bssBANK2,global,class=BANK2,space=1,delta=1
    14                           	psect	clrtext,global,class=CODE,delta=2
    15                           	psect	cstackCOMMON,global,class=COMMON,space=1,delta=1
    16                           	psect	cstackBANK0,global,class=BANK0,space=1,delta=1
    17                           	psect	maintext,global,class=CODE,split=1,delta=2
    18                           	psect	text1,local,class=CODE,merge=1,delta=2
    19                           	psect	text4,local,class=CODE,merge=1,inline,delta=2
    20                           	psect	text14,local,class=CODE,merge=1,delta=2
    21                           	psect	text22,local,class=CODE,merge=1,delta=2
    22                           	psect	text32,local,class=CODE,merge=1,delta=2
    23                           	psect	intentry,global,class=CODE,delta=2
    24                           	psect	text33,local,class=CODE,merge=1,inline,delta=2
    25                           	psect	text34,local,class=CODE,merge=1,inline,delta=2
    26                           	psect	text35,local,class=CODE,merge=1,inline,delta=2
    27                           	psect	text36,local,class=CODE,merge=1,inline,delta=2
    28                           	psect	text40,local,class=CODE,merge=1,inline,delta=2
    29                           	psect	functab,global,reloc=256,class=CODE,delta=2
    30                           	dabs	1,0x7E,2
    31  0000                     	;# 
    32  0001                     	;# 
    33  0002                     	;# 
    34  0003                     	;# 
    35  0004                     	;# 
    36  0005                     	;# 
    37  0006                     	;# 
    38  0007                     	;# 
    39  000A                     	;# 
    40  000B                     	;# 
    41  000C                     	;# 
    42  000D                     	;# 
    43  000E                     	;# 
    44  000E                     	;# 
    45  000F                     	;# 
    46  0010                     	;# 
    47  0011                     	;# 
    48  0012                     	;# 
    49  0013                     	;# 
    50  0014                     	;# 
    51  0015                     	;# 
    52  0015                     	;# 
    53  0016                     	;# 
    54  0017                     	;# 
    55  0018                     	;# 
    56  0019                     	;# 
    57  001A                     	;# 
    58  001C                     	;# 
    59  001D                     	;# 
    60  001E                     	;# 
    61  001F                     	;# 
    62  0081                     	;# 
    63  0085                     	;# 
    64  0086                     	;# 
    65  0087                     	;# 
    66  008C                     	;# 
    67  008D                     	;# 
    68  008E                     	;# 
    69  008F                     	;# 
    70  0090                     	;# 
    71  0092                     	;# 
    72  0093                     	;# 
    73  0093                     	;# 
    74  0093                     	;# 
    75  0094                     	;# 
    76  0095                     	;# 
    77  0095                     	;# 
    78  0096                     	;# 
    79  0096                     	;# 
    80  0097                     	;# 
    81  0098                     	;# 
    82  0099                     	;# 
    83  009A                     	;# 
    84  009B                     	;# 
    85  009E                     	;# 
    86  009F                     	;# 
    87  010C                     	;# 
    88  010C                     	;# 
    89  010D                     	;# 
    90  010E                     	;# 
    91  010F                     	;# 
    92  0115                     	;# 
    93  0116                     	;# 
    94  0118                     	;# 
    95  0119                     	;# 
    96  011A                     	;# 
    97  011B                     	;# 
    98  011E                     	;# 
    99  011F                     	;# 
   100  018C                     	;# 
   101  018D                     	;# 
   102  019D                     	;# 
   103  019E                     	;# 
   104  0000                     	;# 
   105  0001                     	;# 
   106  0002                     	;# 
   107  0003                     	;# 
   108  0004                     	;# 
   109  0005                     	;# 
   110  0006                     	;# 
   111  0007                     	;# 
   112  000A                     	;# 
   113  000B                     	;# 
   114  000C                     	;# 
   115  000D                     	;# 
   116  000E                     	;# 
   117  000E                     	;# 
   118  000F                     	;# 
   119  0010                     	;# 
   120  0011                     	;# 
   121  0012                     	;# 
   122  0013                     	;# 
   123  0014                     	;# 
   124  0015                     	;# 
   125  0015                     	;# 
   126  0016                     	;# 
   127  0017                     	;# 
   128  0018                     	;# 
   129  0019                     	;# 
   130  001A                     	;# 
   131  001C                     	;# 
   132  001D                     	;# 
   133  001E                     	;# 
   134  001F                     	;# 
   135  0081                     	;# 
   136  0085                     	;# 
   137  0086                     	;# 
   138  0087                     	;# 
   139  008C                     	;# 
   140  008D                     	;# 
   141  008E                     	;# 
   142  008F                     	;# 
   143  0090                     	;# 
   144  0092                     	;# 
   145  0093                     	;# 
   146  0093                     	;# 
   147  0093                     	;# 
   148  0094                     	;# 
   149  0095                     	;# 
   150  0095                     	;# 
   151  0096                     	;# 
   152  0096                     	;# 
   153  0097                     	;# 
   154  0098                     	;# 
   155  0099                     	;# 
   156  009A                     	;# 
   157  009B                     	;# 
   158  009E                     	;# 
   159  009F                     	;# 
   160  010C                     	;# 
   161  010C                     	;# 
   162  010D                     	;# 
   163  010E                     	;# 
   164  010F                     	;# 
   165  0115                     	;# 
   166  0116                     	;# 
   167  0118                     	;# 
   168  0119                     	;# 
   169  011A                     	;# 
   170  011B                     	;# 
   171  011E                     	;# 
   172  011F                     	;# 
   173  018C                     	;# 
   174  018D                     	;# 
   175  019D                     	;# 
   176  019E                     	;# 
   177  0000                     	;# 
   178  0001                     	;# 
   179  0002                     	;# 
   180  0003                     	;# 
   181  0004                     	;# 
   182  0005                     	;# 
   183  0006                     	;# 
   184  0007                     	;# 
   185  000A                     	;# 
   186  000B                     	;# 
   187  000C                     	;# 
   188  000D                     	;# 
   189  000E                     	;# 
   190  000E                     	;# 
   191  000F                     	;# 
   192  0010                     	;# 
   193  0011                     	;# 
   194  0012                     	;# 
   195  0013                     	;# 
   196  0014                     	;# 
   197  0015                     	;# 
   198  0015                     	;# 
   199  0016                     	;# 
   200  0017                     	;# 
   201  0018                     	;# 
   202  0019                     	;# 
   203  001A                     	;# 
   204  001C                     	;# 
   205  001D                     	;# 
   206  001E                     	;# 
   207  001F                     	;# 
   208  0081                     	;# 
   209  0085                     	;# 
   210  0086                     	;# 
   211  0087                     	;# 
   212  008C                     	;# 
   213  008D                     	;# 
   214  008E                     	;# 
   215  008F                     	;# 
   216  0090                     	;# 
   217  0092                     	;# 
   218  0093                     	;# 
   219  0093                     	;# 
   220  0093                     	;# 
   221  0094                     	;# 
   222  0095                     	;# 
   223  0095                     	;# 
   224  0096                     	;# 
   225  0096                     	;# 
   226  0097                     	;# 
   227  0098                     	;# 
   228  0099                     	;# 
   229  009A                     	;# 
   230  009B                     	;# 
   231  009E                     	;# 
   232  009F                     	;# 
   233  010C                     	;# 
   234  010C                     	;# 
   235  010D                     	;# 
   236  010E                     	;# 
   237  010F                     	;# 
   238  0115                     	;# 
   239  0116                     	;# 
   240  0118                     	;# 
   241  0119                     	;# 
   242  011A                     	;# 
   243  011B                     	;# 
   244  011E                     	;# 
   245  011F                     	;# 
   246  018C                     	;# 
   247  018D                     	;# 
   248  019D                     	;# 
   249  019E                     	;# 
   250  0000                     	;# 
   251  0001                     	;# 
   252  0002                     	;# 
   253  0003                     	;# 
   254  0004                     	;# 
   255  0005                     	;# 
   256  0006                     	;# 
   257  0007                     	;# 
   258  000A                     	;# 
   259  000B                     	;# 
   260  000C                     	;# 
   261  000D                     	;# 
   262  000E                     	;# 
   263  000E                     	;# 
   264  000F                     	;# 
   265  0010                     	;# 
   266  0011                     	;# 
   267  0012                     	;# 
   268  0013                     	;# 
   269  0014                     	;# 
   270  0015                     	;# 
   271  0015                     	;# 
   272  0016                     	;# 
   273  0017                     	;# 
   274  0018                     	;# 
   275  0019                     	;# 
   276  001A                     	;# 
   277  001C                     	;# 
   278  001D                     	;# 
   279  001E                     	;# 
   280  001F                     	;# 
   281  0081                     	;# 
   282  0085                     	;# 
   283  0086                     	;# 
   284  0087                     	;# 
   285  008C                     	;# 
   286  008D                     	;# 
   287  008E                     	;# 
   288  008F                     	;# 
   289  0090                     	;# 
   290  0092                     	;# 
   291  0093                     	;# 
   292  0093                     	;# 
   293  0093                     	;# 
   294  0094                     	;# 
   295  0095                     	;# 
   296  0095                     	;# 
   297  0096                     	;# 
   298  0096                     	;# 
   299  0097                     	;# 
   300  0098                     	;# 
   301  0099                     	;# 
   302  009A                     	;# 
   303  009B                     	;# 
   304  009E                     	;# 
   305  009F                     	;# 
   306  010C                     	;# 
   307  010C                     	;# 
   308  010D                     	;# 
   309  010E                     	;# 
   310  010F                     	;# 
   311  0115                     	;# 
   312  0116                     	;# 
   313  0118                     	;# 
   314  0119                     	;# 
   315  011A                     	;# 
   316  011B                     	;# 
   317  011E                     	;# 
   318  011F                     	;# 
   319  018C                     	;# 
   320  018D                     	;# 
   321  019D                     	;# 
   322  019E                     	;# 
   323  0000                     	;# 
   324  0001                     	;# 
   325  0002                     	;# 
   326  0003                     	;# 
   327  0004                     	;# 
   328  0005                     	;# 
   329  0006                     	;# 
   330  0007                     	;# 
   331  000A                     	;# 
   332  000B                     	;# 
   333  000C                     	;# 
   334  000D                     	;# 
   335  000E                     	;# 
   336  000E                     	;# 
   337  000F                     	;# 
   338  0010                     	;# 
   339  0011                     	;# 
   340  0012                     	;# 
   341  0013                     	;# 
   342  0014                     	;# 
   343  0015                     	;# 
   344  0015                     	;# 
   345  0016                     	;# 
   346  0017                     	;# 
   347  0018                     	;# 
   348  0019                     	;# 
   349  001A                     	;# 
   350  001C                     	;# 
   351  001D                     	;# 
   352  001E                     	;# 
   353  001F                     	;# 
   354  0081                     	;# 
   355  0085                     	;# 
   356  0086                     	;# 
   357  0087                     	;# 
   358  008C                     	;# 
   359  008D                     	;# 
   360  008E                     	;# 
   361  008F                     	;# 
   362  0090                     	;# 
   363  0092                     	;# 
   364  0093                     	;# 
   365  0093                     	;# 
   366  0093                     	;# 
   367  0094                     	;# 
   368  0095                     	;# 
   369  0095                     	;# 
   370  0096                     	;# 
   371  0096                     	;# 
   372  0097                     	;# 
   373  0098                     	;# 
   374  0099                     	;# 
   375  009A                     	;# 
   376  009B                     	;# 
   377  009E                     	;# 
   378  009F                     	;# 
   379  010C                     	;# 
   380  010C                     	;# 
   381  010D                     	;# 
   382  010E                     	;# 
   383  010F                     	;# 
   384  0115                     	;# 
   385  0116                     	;# 
   386  0118                     	;# 
   387  0119                     	;# 
   388  011A                     	;# 
   389  011B                     	;# 
   390  011E                     	;# 
   391  011F                     	;# 
   392  018C                     	;# 
   393  018D                     	;# 
   394  019D                     	;# 
   395  019E                     	;# 
   396  0000                     	;# 
   397  0001                     	;# 
   398  0002                     	;# 
   399  0003                     	;# 
   400  0004                     	;# 
   401  0005                     	;# 
   402  0006                     	;# 
   403  0007                     	;# 
   404  000A                     	;# 
   405  000B                     	;# 
   406  000C                     	;# 
   407  000D                     	;# 
   408  000E                     	;# 
   409  000E                     	;# 
   410  000F                     	;# 
   411  0010                     	;# 
   412  0011                     	;# 
   413  0012                     	;# 
   414  0013                     	;# 
   415  0014                     	;# 
   416  0015                     	;# 
   417  0015                     	;# 
   418  0016                     	;# 
   419  0017                     	;# 
   420  0018                     	;# 
   421  0019                     	;# 
   422  001A                     	;# 
   423  001C                     	;# 
   424  001D                     	;# 
   425  001E                     	;# 
   426  001F                     	;# 
   427  0081                     	;# 
   428  0085                     	;# 
   429  0086                     	;# 
   430  0087                     	;# 
   431  008C                     	;# 
   432  008D                     	;# 
   433  008E                     	;# 
   434  008F                     	;# 
   435  0090                     	;# 
   436  0092                     	;# 
   437  0093                     	;# 
   438  0093                     	;# 
   439  0093                     	;# 
   440  0094                     	;# 
   441  0095                     	;# 
   442  0095                     	;# 
   443  0096                     	;# 
   444  0096                     	;# 
   445  0097                     	;# 
   446  0098                     	;# 
   447  0099                     	;# 
   448  009A                     	;# 
   449  009B                     	;# 
   450  009E                     	;# 
   451  009F                     	;# 
   452  010C                     	;# 
   453  010C                     	;# 
   454  010D                     	;# 
   455  010E                     	;# 
   456  010F                     	;# 
   457  0115                     	;# 
   458  0116                     	;# 
   459  0118                     	;# 
   460  0119                     	;# 
   461  011A                     	;# 
   462  011B                     	;# 
   463  011E                     	;# 
   464  011F                     	;# 
   465  018C                     	;# 
   466  018D                     	;# 
   467  019D                     	;# 
   468  019E                     	;# 
   469  0000                     	;# 
   470  0001                     	;# 
   471  0002                     	;# 
   472  0003                     	;# 
   473  0004                     	;# 
   474  0005                     	;# 
   475  0006                     	;# 
   476  0007                     	;# 
   477  000A                     	;# 
   478  000B                     	;# 
   479  000C                     	;# 
   480  000D                     	;# 
   481  000E                     	;# 
   482  000E                     	;# 
   483  000F                     	;# 
   484  0010                     	;# 
   485  0011                     	;# 
   486  0012                     	;# 
   487  0013                     	;# 
   488  0014                     	;# 
   489  0015                     	;# 
   490  0015                     	;# 
   491  0016                     	;# 
   492  0017                     	;# 
   493  0018                     	;# 
   494  0019                     	;# 
   495  001A                     	;# 
   496  001C                     	;# 
   497  001D                     	;# 
   498  001E                     	;# 
   499  001F                     	;# 
   500  0081                     	;# 
   501  0085                     	;# 
   502  0086                     	;# 
   503  0087                     	;# 
   504  008C                     	;# 
   505  008D                     	;# 
   506  008E                     	;# 
   507  008F                     	;# 
   508  0090                     	;# 
   509  0092                     	;# 
   510  0093                     	;# 
   511  0093                     	;# 
   512  0093                     	;# 
   513  0094                     	;# 
   514  0095                     	;# 
   515  0095                     	;# 
   516  0096                     	;# 
   517  0096                     	;# 
   518  0097                     	;# 
   519  0098                     	;# 
   520  0099                     	;# 
   521  009A                     	;# 
   522  009B                     	;# 
   523  009E                     	;# 
   524  009F                     	;# 
   525  010C                     	;# 
   526  010C                     	;# 
   527  010D                     	;# 
   528  010E                     	;# 
   529  010F                     	;# 
   530  0115                     	;# 
   531  0116                     	;# 
   532  0118                     	;# 
   533  0119                     	;# 
   534  011A                     	;# 
   535  011B                     	;# 
   536  011E                     	;# 
   537  011F                     	;# 
   538  018C                     	;# 
   539  018D                     	;# 
   540  019D                     	;# 
   541  019E                     	;# 
   542  0000                     	;# 
   543  0001                     	;# 
   544  0002                     	;# 
   545  0003                     	;# 
   546  0004                     	;# 
   547  0005                     	;# 
   548  0006                     	;# 
   549  0007                     	;# 
   550  000A                     	;# 
   551  000B                     	;# 
   552  000C                     	;# 
   553  000D                     	;# 
   554  000E                     	;# 
   555  000E                     	;# 
   556  000F                     	;# 
   557  0010                     	;# 
   558  0011                     	;# 
   559  0012                     	;# 
   560  0013                     	;# 
   561  0014                     	;# 
   562  0015                     	;# 
   563  0015                     	;# 
   564  0016                     	;# 
   565  0017                     	;# 
   566  0018                     	;# 
   567  0019                     	;# 
   568  001A                     	;# 
   569  001C                     	;# 
   570  001D                     	;# 
   571  001E                     	;# 
   572  001F                     	;# 
   573  0081                     	;# 
   574  0085                     	;# 
   575  0086                     	;# 
   576  0087                     	;# 
   577  008C                     	;# 
   578  008D                     	;# 
   579  008E                     	;# 
   580  008F                     	;# 
   581  0090                     	;# 
   582  0092                     	;# 
   583  0093                     	;# 
   584  0093                     	;# 
   585  0093                     	;# 
   586  0094                     	;# 
   587  0095                     	;# 
   588  0095                     	;# 
   589  0096                     	;# 
   590  0096                     	;# 
   591  0097                     	;# 
   592  0098                     	;# 
   593  0099                     	;# 
   594  009A                     	;# 
   595  009B                     	;# 
   596  009E                     	;# 
   597  009F                     	;# 
   598  010C                     	;# 
   599  010C                     	;# 
   600  010D                     	;# 
   601  010E                     	;# 
   602  010F                     	;# 
   603  0115                     	;# 
   604  0116                     	;# 
   605  0118                     	;# 
   606  0119                     	;# 
   607  011A                     	;# 
   608  011B                     	;# 
   609  011E                     	;# 
   610  011F                     	;# 
   611  018C                     	;# 
   612  018D                     	;# 
   613  019D                     	;# 
   614  019E                     	;# 
   615  0000                     	;# 
   616  0001                     	;# 
   617  0002                     	;# 
   618  0003                     	;# 
   619  0004                     	;# 
   620  0005                     	;# 
   621  0006                     	;# 
   622  0007                     	;# 
   623  000A                     	;# 
   624  000B                     	;# 
   625  000C                     	;# 
   626  000D                     	;# 
   627  000E                     	;# 
   628  000E                     	;# 
   629  000F                     	;# 
   630  0010                     	;# 
   631  0011                     	;# 
   632  0012                     	;# 
   633  0013                     	;# 
   634  0014                     	;# 
   635  0015                     	;# 
   636  0015                     	;# 
   637  0016                     	;# 
   638  0017                     	;# 
   639  0018                     	;# 
   640  0019                     	;# 
   641  001A                     	;# 
   642  001C                     	;# 
   643  001D                     	;# 
   644  001E                     	;# 
   645  001F                     	;# 
   646  0081                     	;# 
   647  0085                     	;# 
   648  0086                     	;# 
   649  0087                     	;# 
   650  008C                     	;# 
   651  008D                     	;# 
   652  008E                     	;# 
   653  008F                     	;# 
   654  0090                     	;# 
   655  0092                     	;# 
   656  0093                     	;# 
   657  0093                     	;# 
   658  0093                     	;# 
   659  0094                     	;# 
   660  0095                     	;# 
   661  0095                     	;# 
   662  0096                     	;# 
   663  0096                     	;# 
   664  0097                     	;# 
   665  0098                     	;# 
   666  0099                     	;# 
   667  009A                     	;# 
   668  009B                     	;# 
   669  009E                     	;# 
   670  009F                     	;# 
   671  010C                     	;# 
   672  010C                     	;# 
   673  010D                     	;# 
   674  010E                     	;# 
   675  010F                     	;# 
   676  0115                     	;# 
   677  0116                     	;# 
   678  0118                     	;# 
   679  0119                     	;# 
   680  011A                     	;# 
   681  011B                     	;# 
   682  011E                     	;# 
   683  011F                     	;# 
   684  018C                     	;# 
   685  018D                     	;# 
   686  019D                     	;# 
   687  019E                     	;# 
   688  0000                     	;# 
   689  0001                     	;# 
   690  0002                     	;# 
   691  0003                     	;# 
   692  0004                     	;# 
   693  0005                     	;# 
   694  0006                     	;# 
   695  0007                     	;# 
   696  000A                     	;# 
   697  000B                     	;# 
   698  000C                     	;# 
   699  000D                     	;# 
   700  000E                     	;# 
   701  000E                     	;# 
   702  000F                     	;# 
   703  0010                     	;# 
   704  0011                     	;# 
   705  0012                     	;# 
   706  0013                     	;# 
   707  0014                     	;# 
   708  0015                     	;# 
   709  0015                     	;# 
   710  0016                     	;# 
   711  0017                     	;# 
   712  0018                     	;# 
   713  0019                     	;# 
   714  001A                     	;# 
   715  001C                     	;# 
   716  001D                     	;# 
   717  001E                     	;# 
   718  001F                     	;# 
   719  0081                     	;# 
   720  0085                     	;# 
   721  0086                     	;# 
   722  0087                     	;# 
   723  008C                     	;# 
   724  008D                     	;# 
   725  008E                     	;# 
   726  008F                     	;# 
   727  0090                     	;# 
   728  0092                     	;# 
   729  0093                     	;# 
   730  0093                     	;# 
   731  0093                     	;# 
   732  0094                     	;# 
   733  0095                     	;# 
   734  0095                     	;# 
   735  0096                     	;# 
   736  0096                     	;# 
   737  0097                     	;# 
   738  0098                     	;# 
   739  0099                     	;# 
   740  009A                     	;# 
   741  009B                     	;# 
   742  009E                     	;# 
   743  009F                     	;# 
   744  010C                     	;# 
   745  010C                     	;# 
   746  010D                     	;# 
   747  010E                     	;# 
   748  010F                     	;# 
   749  0115                     	;# 
   750  0116                     	;# 
   751  0118                     	;# 
   752  0119                     	;# 
   753  011A                     	;# 
   754  011B                     	;# 
   755  011E                     	;# 
   756  011F                     	;# 
   757  018C                     	;# 
   758  018D                     	;# 
   759  019D                     	;# 
   760  019E                     	;# 
   761  0000                     	;# 
   762  0001                     	;# 
   763  0002                     	;# 
   764  0003                     	;# 
   765  0004                     	;# 
   766  0005                     	;# 
   767  0006                     	;# 
   768  0007                     	;# 
   769  000A                     	;# 
   770  000B                     	;# 
   771  000C                     	;# 
   772  000D                     	;# 
   773  000E                     	;# 
   774  000E                     	;# 
   775  000F                     	;# 
   776  0010                     	;# 
   777  0011                     	;# 
   778  0012                     	;# 
   779  0013                     	;# 
   780  0014                     	;# 
   781  0015                     	;# 
   782  0015                     	;# 
   783  0016                     	;# 
   784  0017                     	;# 
   785  0018                     	;# 
   786  0019                     	;# 
   787  001A                     	;# 
   788  001C                     	;# 
   789  001D                     	;# 
   790  001E                     	;# 
   791  001F                     	;# 
   792  0081                     	;# 
   793  0085                     	;# 
   794  0086                     	;# 
   795  0087                     	;# 
   796  008C                     	;# 
   797  008D                     	;# 
   798  008E                     	;# 
   799  008F                     	;# 
   800  0090                     	;# 
   801  0092                     	;# 
   802  0093                     	;# 
   803  0093                     	;# 
   804  0093                     	;# 
   805  0094                     	;# 
   806  0095                     	;# 
   807  0095                     	;# 
   808  0096                     	;# 
   809  0096                     	;# 
   810  0097                     	;# 
   811  0098                     	;# 
   812  0099                     	;# 
   813  009A                     	;# 
   814  009B                     	;# 
   815  009E                     	;# 
   816  009F                     	;# 
   817  010C                     	;# 
   818  010C                     	;# 
   819  010D                     	;# 
   820  010E                     	;# 
   821  010F                     	;# 
   822  0115                     	;# 
   823  0116                     	;# 
   824  0118                     	;# 
   825  0119                     	;# 
   826  011A                     	;# 
   827  011B                     	;# 
   828  011E                     	;# 
   829  011F                     	;# 
   830  018C                     	;# 
   831  018D                     	;# 
   832  019D                     	;# 
   833  019E                     	;# 
   834  0000                     	;# 
   835  0001                     	;# 
   836  0002                     	;# 
   837  0003                     	;# 
   838  0004                     	;# 
   839  0005                     	;# 
   840  0006                     	;# 
   841  0007                     	;# 
   842  000A                     	;# 
   843  000B                     	;# 
   844  000C                     	;# 
   845  000D                     	;# 
   846  000E                     	;# 
   847  000E                     	;# 
   848  000F                     	;# 
   849  0010                     	;# 
   850  0011                     	;# 
   851  0012                     	;# 
   852  0013                     	;# 
   853  0014                     	;# 
   854  0015                     	;# 
   855  0015                     	;# 
   856  0016                     	;# 
   857  0017                     	;# 
   858  0018                     	;# 
   859  0019                     	;# 
   860  001A                     	;# 
   861  001C                     	;# 
   862  001D                     	;# 
   863  001E                     	;# 
   864  001F                     	;# 
   865  0081                     	;# 
   866  0085                     	;# 
   867  0086                     	;# 
   868  0087                     	;# 
   869  008C                     	;# 
   870  008D                     	;# 
   871  008E                     	;# 
   872  008F                     	;# 
   873  0090                     	;# 
   874  0092                     	;# 
   875  0093                     	;# 
   876  0093                     	;# 
   877  0093                     	;# 
   878  0094                     	;# 
   879  0095                     	;# 
   880  0095                     	;# 
   881  0096                     	;# 
   882  0096                     	;# 
   883  0097                     	;# 
   884  0098                     	;# 
   885  0099                     	;# 
   886  009A                     	;# 
   887  009B                     	;# 
   888  009E                     	;# 
   889  009F                     	;# 
   890  010C                     	;# 
   891  010C                     	;# 
   892  010D                     	;# 
   893  010E                     	;# 
   894  010F                     	;# 
   895  0115                     	;# 
   896  0116                     	;# 
   897  0118                     	;# 
   898  0119                     	;# 
   899  011A                     	;# 
   900  011B                     	;# 
   901  011E                     	;# 
   902  011F                     	;# 
   903  018C                     	;# 
   904  018D                     	;# 
   905  019D                     	;# 
   906  019E                     	;# 
   907  0000                     	;# 
   908  0001                     	;# 
   909  0002                     	;# 
   910  0003                     	;# 
   911  0004                     	;# 
   912  0005                     	;# 
   913  0006                     	;# 
   914  0007                     	;# 
   915  000A                     	;# 
   916  000B                     	;# 
   917  000C                     	;# 
   918  000D                     	;# 
   919  000E                     	;# 
   920  000E                     	;# 
   921  000F                     	;# 
   922  0010                     	;# 
   923  0011                     	;# 
   924  0012                     	;# 
   925  0013                     	;# 
   926  0014                     	;# 
   927  0015                     	;# 
   928  0015                     	;# 
   929  0016                     	;# 
   930  0017                     	;# 
   931  0018                     	;# 
   932  0019                     	;# 
   933  001A                     	;# 
   934  001C                     	;# 
   935  001D                     	;# 
   936  001E                     	;# 
   937  001F                     	;# 
   938  0081                     	;# 
   939  0085                     	;# 
   940  0086                     	;# 
   941  0087                     	;# 
   942  008C                     	;# 
   943  008D                     	;# 
   944  008E                     	;# 
   945  008F                     	;# 
   946  0090                     	;# 
   947  0092                     	;# 
   948  0093                     	;# 
   949  0093                     	;# 
   950  0093                     	;# 
   951  0094                     	;# 
   952  0095                     	;# 
   953  0095                     	;# 
   954  0096                     	;# 
   955  0096                     	;# 
   956  0097                     	;# 
   957  0098                     	;# 
   958  0099                     	;# 
   959  009A                     	;# 
   960  009B                     	;# 
   961  009E                     	;# 
   962  009F                     	;# 
   963  010C                     	;# 
   964  010C                     	;# 
   965  010D                     	;# 
   966  010E                     	;# 
   967  010F                     	;# 
   968  0115                     	;# 
   969  0116                     	;# 
   970  0118                     	;# 
   971  0119                     	;# 
   972  011A                     	;# 
   973  011B                     	;# 
   974  011E                     	;# 
   975  011F                     	;# 
   976  018C                     	;# 
   977  018D                     	;# 
   978  019D                     	;# 
   979  019E                     	;# 
   980                           
   981                           	psect	idataBANK0
   982  0000                     __pidataBANK0:	
   983                           
   984                           	psect	idataBANK1
   985  0000                     __pidataBANK1:	
   986                           
   987                           	psect	strings
   988  0040                     __pstrings:	
   989  0040                     stringtab:	
   990  0040                     __stringtab:	
   991  0040                     stringcode:	
   992                           ;	String table - string pointers are 1 byte each
   993                           
   994  0040                     stringdir:	
   995  0040  3000               	movlw	high stringdir
   996  0041  008A               	movwf	10
   997  0042  0804               	movf	4,w
   998  0043  0A84               	incf	4,f
   999  0044  0782               	addwf	2,f
  1000  0045                     __stringbase:	
  1001  0045  3400               	retlw	0
  1002  0046                     __end_of__stringtab:	
  1003  0046                     _Nybble2MSBitNum:	
  1004  0046  3400               	retlw	0
  1005  0047  3401               	retlw	1
  1006  0048  3401               	retlw	1
  1007  0049  3402               	retlw	2
  1008  004A  3402               	retlw	2
  1009  004B  3402               	retlw	2
  1010  004C  3402               	retlw	2
  1011  004D  3403               	retlw	3
  1012  004E  3403               	retlw	3
  1013  004F  3403               	retlw	3
  1014  0050  3403               	retlw	3
  1015  0051  3403               	retlw	3
  1016  0052  3403               	retlw	3
  1017  0053  3403               	retlw	3
  1018  0054  3403               	retlw	3
  1019  0055                     __end_of_Nybble2MSBitNum:	
  1020  0055                     _BitNum2SetMask:	
  1021  0055  3401               	retlw	1
  1022  0056  3402               	retlw	2
  1023  0057  3404               	retlw	4
  1024  0058  3408               	retlw	8
  1025  0059  3410               	retlw	16
  1026  005A  3420               	retlw	32
  1027  005B  3440               	retlw	64
  1028  005C  3480               	retlw	128
  1029  005D                     __end_of_BitNum2SetMask:	
  1030  005D                     _EventQueues:	
  1031  005D  3420               	retlw	low (_Queue0| (0+256))
  1032  005E  3404               	retlw	4
  1033  005F  342C               	retlw	low (_Queue1| (0+256))
  1034  0060  3404               	retlw	4
  1035  0061  3438               	retlw	low (_Queue2| (0+256))
  1036  0062  3404               	retlw	4
  1037  0063  3444               	retlw	low (_Queue3| (0+256))
  1038  0064  3404               	retlw	4
  1039  0065                     __end_of_EventQueues:	
  1040  0065                     _ServDescList:	
  1041  0065  3403               	retlw	low (fp__InitUARTRXService-fpbase)
  1042  0066  3419               	retlw	low (fp__RunUARTRXService-fpbase)
  1043  0067  3401               	retlw	low (fp__InitUARTTXService-fpbase)
  1044  0068  341B               	retlw	low (fp__RunUARTTXService-fpbase)
  1045  0069  3405               	retlw	low (fp__InitSPIService-fpbase)
  1046  006A  3417               	retlw	low (fp__RunSPIService-fpbase)
  1047  006B  3407               	retlw	low (fp__InitPACSystemService-fpbase)
  1048  006C  3415               	retlw	low (fp__RunPACSystemService-fpbase)
  1049  006D                     __end_of_ServDescList:	
  1050  006D                     _Timer2PostFunc:	
  1051  006D  3411               	retlw	low (fp__PostUARTRXService-fpbase)
  1052  006E  340F               	retlw	low (fp__PostUARTTXService-fpbase)
  1053  006F  3413               	retlw	low (fp__PostPACSystemService-fpbase)
  1054  0070  3400               	retlw	0
  1055  0071  3400               	retlw	0
  1056  0072  3400               	retlw	0
  1057  0073  3400               	retlw	0
  1058  0074  3400               	retlw	0
  1059  0075                     __end_of_Timer2PostFunc:	
  1060  0075                     _ES_EventList:	
  1061  0075  340B               	retlw	low (fp__CheckUARTRXEvent-fpbase)
  1062  0076  340D               	retlw	low (fp__CheckUARTTXEvent-fpbase)
  1063  0077  3409               	retlw	low (fp__CheckSPIEvent-fpbase)
  1064  0078                     __end_of_ES_EventList:	
  1065  000B                     _INTCON	set	11
  1066  0007                     _PORTC	set	7
  1067  001A                     _RCREG	set	26
  1068  0013                     _SSPBUF	set	19
  1069  0014                     _SSPCON	set	20
  1070  0001                     _TMR0	set	1
  1071  0019                     _TXREG	set	25
  1072  00C4                     _CREN	set	196
  1073  005F                     _GIE	set	95
  1074  005E                     _PEIE	set	94
  1075  0038                     _RC0	set	56
  1076  003B                     _RC3	set	59
  1077  003F                     _RC7	set	63
  1078  0065                     _RCIF	set	101
  1079  00C7                     _SPEN	set	199
  1080  0063                     _SSPIF	set	99
  1081  005D                     _T0IE	set	93
  1082  005A                     _T0IF	set	90
  1083  0064                     _TXIF	set	100
  1084  008F                     _OSCCON	set	143
  1085  0099                     _SPBRG	set	153
  1086  009A                     _SPBRGH	set	154
  1087  0094                     _SSPSTAT	set	148
  1088  04A0                     _BF	set	1184
  1089  04DB                     _BRG16	set	1243
  1090  04C2                     _BRGH	set	1218
  1091  0408                     _PS0	set	1032
  1092  0409                     _PS1	set	1033
  1093  040A                     _PS2	set	1034
  1094  040B                     _PSA	set	1035
  1095  0465                     _RCIE	set	1125
  1096  0463                     _SSPIE	set	1123
  1097  04C4                     _SYNC	set	1220
  1098  040D                     _T0CS	set	1037
  1099  0434                     _TRISB4	set	1076
  1100  0436                     _TRISB6	set	1078
  1101  0438                     _TRISC0	set	1080
  1102  043B                     _TRISC3	set	1083
  1103  043E                     _TRISC6	set	1086
  1104  043F                     _TRISC7	set	1087
  1105  04C5                     _TXEN	set	1221
  1106  0464                     _TXIE	set	1124
  1107  08FB                     _ANS11	set	2299
  1108  08F4                     _ANS4	set	2292
  1109  08F7                     _ANS7	set	2295
  1110  08F9                     _ANS9	set	2297
  1111                           
  1112                           ; #config settings
  1113  0000                     
  1114                           	psect	cinit
  1115  0013                     start_initialization:	
  1116  0013                     __initialization:	
  1117                           
  1118                           ; Clear objects allocated to COMMON
  1119  0013  01FD               	clrf	__pbssCOMMON& (0+127)
  1120                           
  1121                           ; Clear objects allocated to BANK0
  1122  0014  1383               	bcf	3,7	;select IRP bank0
  1123  0015  304E               	movlw	low __pbssBANK0
  1124  0016  0084               	movwf	4
  1125  0017  306D               	movlw	low (__pbssBANK0+31)
  1126  0018  118A  27F3  118A   	fcall	clear_ram0
  1127                           
  1128                           ; Clear objects allocated to BANK1
  1129  001B  30A0               	movlw	low __pbssBANK1
  1130  001C  0084               	movwf	4
  1131  001D  30E1               	movlw	low (__pbssBANK1+65)
  1132  001E  118A  27F3  118A   	fcall	clear_ram0
  1133                           
  1134                           ; Clear objects allocated to BANK2
  1135  0021  1783               	bsf	3,7	;select IRP bank2
  1136  0022  3020               	movlw	low __pbssBANK2
  1137  0023  0084               	movwf	4
  1138  0024  3050               	movlw	low (__pbssBANK2+48)
  1139  0025  118A  27F3         	fcall	clear_ram0
  1140                           
  1141                           ; Initialize objects allocated to BANK1
  1142  0027  1683               	bsf	3,5	;RP0=1, select bank1
  1143  0028  1303               	bcf	3,6	;RP1=0, select bank1
  1144                           
  1145                           ;initializer for _statusBuffer
  1146  0029  30FF               	movlw	255
  1147  002A  00E1               	movwf	__pdataBANK1& (0+127)
  1148  002B  30FF               	movlw	255
  1149  002C  00E2               	movwf	(__pdataBANK1+1)& (0+127)
  1150  002D  30FF               	movlw	255
  1151  002E  00E3               	movwf	(__pdataBANK1+2)& (0+127)
  1152  002F  30FF               	movlw	255
  1153  0030  00E4               	movwf	(__pdataBANK1+3)& (0+127)
  1154  0031  30FF               	movlw	255
  1155  0032  00E5               	movwf	(__pdataBANK1+4)& (0+127)
  1156  0033  30FF               	movlw	255
  1157  0034  00E6               	movwf	(__pdataBANK1+5)& (0+127)
  1158                           
  1159                           ; Initialize objects allocated to BANK0
  1160  0035  1283               	bcf	3,5	;RP0=0, select bank0
  1161  0036  1303               	bcf	3,6	;RP1=0, select bank0
  1162                           
  1163                           ;initializer for _responseBytes
  1164  0037  30FF               	movlw	255
  1165  0038  00ED               	movwf	__pdataBANK0& (0+127)
  1166  0039  30FF               	movlw	255
  1167  003A  00EE               	movwf	(__pdataBANK0+1)& (0+127)
  1168  003B  30FF               	movlw	255
  1169  003C  00EF               	movwf	(__pdataBANK0+2)& (0+127)
  1170  003D                     end_of_initialization:	
  1171                           ;End of C runtime variable initialization code
  1172                           
  1173  003D                     __end_of__initialization:	
  1174  003D  0183               	clrf	3
  1175  003E  118A  2878         	ljmp	_main	;jump to C main() function
  1176                           
  1177                           	psect	bssCOMMON
  1178  007D                     __pbssCOMMON:	
  1179  007D                     UARTRXIntResponse@currentByteIndex:	
  1180  007D                     	ds	1
  1181                           
  1182                           	psect	bssBANK0
  1183  004E                     __pbssBANK0:	
  1184  004E                     ES_Timer_RTI_Resp@NeedsProcessing:	
  1185  004E                     	ds	1
  1186  004F                     ES_Timer_RTI_Resp@NextTimer2Process:	
  1187  004F                     	ds	1
  1188  0050                     PACSystemService@MyPriority:	
  1189  0050                     	ds	1
  1190  0051                     SPI_SM@MyPriority:	
  1191  0051                     	ds	1
  1192  0052                     SPI_SM@currentState:	
  1193  0052                     	ds	1
  1194  0053                     UARTRXIntResponse@bodyByteCount:	
  1195  0053                     	ds	1
  1196  0054                     UARTRXIntResponse@checksum:	
  1197  0054                     	ds	1
  1198  0055                     UART_TX_SM@MyPriority:	
  1199  0055                     	ds	1
  1200  0056                     UART_TX_SM@currentState:	
  1201  0056                     	ds	1
  1202  0057                     _MyPriority:	
  1203  0057                     	ds	1
  1204  0058                     _RXFlag:	
  1205  0058                     	ds	1
  1206  0059                     _Ready:	
  1207  0059                     	ds	1
  1208  005A                     _SPIBuffer:	
  1209  005A                     	ds	1
  1210  005B                     _TMR_ActiveFlags:	
  1211  005B                     	ds	1
  1212  005C                     _TickCount:	
  1213  005C                     	ds	1
  1214  005D                     _colorRequestData:	
  1215  005D                     	ds	1
  1216  005E                     _commOpen:	
  1217  005E                     	ds	1
  1218  005F                     _currentState:	
  1219  005F                     	ds	1
  1220  0060                     _hasHeartbeat:	
  1221  0060                     	ds	1
  1222  0061                     _index:	
  1223  0061                     	ds	1
  1224  0062                     _length:	
  1225  0062                     	ds	1
  1226  0063                     _newRequest:	
  1227  0063                     	ds	1
  1228  0064                     _newResponseAvailable:	
  1229  0064                     	ds	1
  1230  0065                     _radioPing:	
  1231  0065                     	ds	1
  1232  0066                     _readRXIndex:	
  1233  0066                     	ds	1
  1234  0067                     _readRespIndex:	
  1235  0067                     	ds	1
  1236  0068                     _readStatIndex:	
  1237  0068                     	ds	1
  1238  0069                     _sendCompleteFlag:	
  1239  0069                     	ds	1
  1240  006A                     _writeRXIndex:	
  1241  006A                     	ds	1
  1242  006B                     _writeRespIndex:	
  1243  006B                     	ds	1
  1244  006C                     _writeStatIndex:	
  1245  006C                     	ds	1
  1246                           
  1247                           	psect	dataBANK0
  1248  006D                     __pdataBANK0:	
  1249  006D                     _responseBytes:	
  1250  006D                     	ds	3
  1251                           
  1252                           	psect	bssBANK1
  1253  00A0                     __pbssBANK1:	
  1254  00A0                     _RXBuffer:	
  1255  00A0                     	ds	20
  1256  00B4                     _TMR_TimerArray:	
  1257  00B4                     	ds	16
  1258  00C4                     _XBeePacket:	
  1259  00C4                     	ds	10
  1260  00CE                     ES_Timer_RTI_Resp@NewEvent:	
  1261  00CE                     	ds	3
  1262  00D1                     UART_TX_SM@superPACAddr:	
  1263  00D1                     	ds	2
  1264  00D3                     _superPACAddr:	
  1265  00D3                     	ds	2
  1266  00D5                     _time:	
  1267  00D5                     	ds	2
  1268  00D7                     _TXError:	
  1269  00D7                     	ds	1
  1270  00D8                     _responseBuffer:	
  1271  00D8                     	ds	6
  1272  00DE                     ES_Run@ThisEvent:	
  1273  00DE                     	ds	3
  1274                           
  1275                           	psect	dataBANK1
  1276  00E1                     __pdataBANK1:	
  1277  00E1                     _statusBuffer:	
  1278  00E1                     	ds	6
  1279                           
  1280                           	psect	bssBANK2
  1281  0120                     __pbssBANK2:	
  1282  0120                     _Queue0:	
  1283  0120                     	ds	12
  1284  012C                     _Queue1:	
  1285  012C                     	ds	12
  1286  0138                     _Queue2:	
  1287  0138                     	ds	12
  1288  0144                     _Queue3:	
  1289  0144                     	ds	12
  1290                           
  1291                           	psect	clrtext
  1292  07F3                     clear_ram0:	
  1293                           ;	Called with FSR containing the base address, and
  1294                           ;	W with the last address+1
  1295                           
  1296  07F3  0064               	clrwdt	;clear the watchdog before getting into this loop
  1297  07F4                     clrloop0:	
  1298  07F4  0180               	clrf	0	;clear RAM location pointed to by FSR
  1299  07F5  0A84               	incf	4,f	;increment pointer
  1300  07F6  0604               	xorwf	4,w	;XOR with final address
  1301  07F7  1903               	btfsc	3,2	;have we reached the end yet?
  1302  07F8  3400               	retlw	0	;all done for this memory range, return
  1303  07F9  0604               	xorwf	4,w	;XOR again to restore value
  1304  07FA  2FF4               	goto	clrloop0	;do the next byte
  1305                           
  1306                           	psect	cstackCOMMON
  1307  0070                     __pcstackCOMMON:	
  1308  0070                     ?_CheckUARTRXEvent:	
  1309  0070                     ?_CheckUARTTXEvent:	
  1310                           ; 1 bytes @ 0x0
  1311                           
  1312  0070                     ?_CheckSPIEvent:	
  1313                           ; 1 bytes @ 0x0
  1314                           
  1315  0070                     ?_ES_Sys_Timer_Init:	
  1316                           ; 1 bytes @ 0x0
  1317                           
  1318  0070                     ?_ES_GetMSBitSet:	
  1319                           ; 1 bytes @ 0x0
  1320                           
  1321  0070                     ?_ES_Timer_RTI_Resp:	
  1322                           ; 1 bytes @ 0x0
  1323                           
  1324  0070                     ?_IsTimerPending:	
  1325                           ; 1 bytes @ 0x0
  1326                           
  1327  0070                     ?_SPIIntResponse:	
  1328                           ; 1 bytes @ 0x0
  1329                           
  1330  0070                     ?_UARTRXIntResponse:	
  1331                           ; 1 bytes @ 0x0
  1332                           
  1333  0070                     ?_UARTTXIntResponse:	
  1334                           ; 1 bytes @ 0x0
  1335                           
  1336  0070                     ??_UARTTXIntResponse:	
  1337                           ; 1 bytes @ 0x0
  1338                           
  1339  0070                     ?_TX_clearXBeePacket:	
  1340                           ; 1 bytes @ 0x0
  1341                           
  1342  0070                     ?_TX_appendXBeePacket:	
  1343                           ; 1 bytes @ 0x0
  1344                           
  1345  0070                     ?_TX_getChecksum:	
  1346                           ; 1 bytes @ 0x0
  1347                           
  1348  0070                     ?_retrySend:	
  1349                           ; 1 bytes @ 0x0
  1350                           
  1351  0070                     ?_ES_Initialize:	
  1352                           ; 1 bytes @ 0x0
  1353                           
  1354  0070                     ?_ES_Run:	
  1355                           ; 1 bytes @ 0x0
  1356                           
  1357  0070                     ?_ISR:	
  1358                           ; 1 bytes @ 0x0
  1359                           
  1360  0070                     ?_USART_Init:	
  1361                           ; 1 bytes @ 0x0
  1362                           
  1363  0070                     ?_main:	
  1364                           ; 1 bytes @ 0x0
  1365                           
  1366  0070                     ?_RX_newResponseReady:	
  1367                           ; 1 bytes @ 0x0
  1368                           
  1369  0070                     ??_RX_newResponseReady:	
  1370                           ; 1 bytes @ 0x0
  1371                           
  1372  0070                     ?_RX_clearResponseReady:	
  1373                           ; 1 bytes @ 0x0
  1374                           
  1375  0070                     ??_RX_clearResponseReady:	
  1376                           ; 1 bytes @ 0x0
  1377                           
  1378  0070                     ?_RX_getStatusBuffer:	
  1379                           ; 1 bytes @ 0x0
  1380                           
  1381  0070                     ?_RX_getResponseBuffer:	
  1382                           ; 1 bytes @ 0x0
  1383                           
  1384  0070                     ?i1___bmul:	
  1385                           ; 1 bytes @ 0x0
  1386                           
  1387  0070                     ES_Initialize@NewRate:	
  1388                           ; 1 bytes @ 0x0
  1389                           
  1390  0070                     i1___bmul@multiplicand:	
  1391                           ; 1 bytes @ 0x0
  1392                           
  1393                           
  1394                           ; 1 bytes @ 0x0
  1395  0070                     	ds	1
  1396  0071                     ??i1___bmul:	
  1397                           
  1398                           ; 1 bytes @ 0x1
  1399  0071                     	ds	1
  1400  0072                     i1___bmul@multiplier:	
  1401                           
  1402                           ; 1 bytes @ 0x2
  1403  0072                     	ds	1
  1404  0073                     i1___bmul@product:	
  1405                           
  1406                           ; 1 bytes @ 0x3
  1407  0073                     	ds	1
  1408  0074                     ??_UARTRXIntResponse:	
  1409  0074                     ??_RX_getStatusBuffer:	
  1410                           ; 1 bytes @ 0x4
  1411                           
  1412  0074                     ??_RX_getResponseBuffer:	
  1413                           ; 1 bytes @ 0x4
  1414                           
  1415                           
  1416                           ; 1 bytes @ 0x4
  1417  0074                     	ds	1
  1418  0075                     ??_SPIIntResponse:	
  1419                           
  1420                           ; 1 bytes @ 0x5
  1421  0075                     	ds	1
  1422  0076                     SPIIntResponse@readByte:	
  1423                           
  1424                           ; 1 bytes @ 0x6
  1425  0076                     	ds	1
  1426  0077                     UARTRXIntResponse@newByte:	
  1427                           
  1428                           ; 1 bytes @ 0x7
  1429  0077                     	ds	1
  1430  0078                     ??_ISR:	
  1431                           
  1432                           ; 1 bytes @ 0x8
  1433  0078                     	ds	5
  1434                           
  1435                           	psect	cstackBANK0
  1436  0020                     __pcstackBANK0:	
  1437  0020                     ??_ES_Sys_Timer_Init:	
  1438  0020                     ?_ES_InitQueue:	
  1439                           ; 1 bytes @ 0x0
  1440                           
  1441  0020                     ??_ES_GetMSBitSet:	
  1442                           ; 1 bytes @ 0x0
  1443                           
  1444  0020                     ??_IsTimerPending:	
  1445                           ; 1 bytes @ 0x0
  1446                           
  1447  0020                     ??_TX_clearXBeePacket:	
  1448                           ; 1 bytes @ 0x0
  1449                           
  1450  0020                     ??_TX_appendXBeePacket:	
  1451                           ; 1 bytes @ 0x0
  1452                           
  1453  0020                     ??_TX_getChecksum:	
  1454                           ; 1 bytes @ 0x0
  1455                           
  1456  0020                     ?_ES_Timer_InitTimer:	
  1457                           ; 1 bytes @ 0x0
  1458                           
  1459  0020                     ??_USART_Init:	
  1460                           ; 1 bytes @ 0x0
  1461                           
  1462  0020                     ?___bmul:	
  1463                           ; 1 bytes @ 0x0
  1464                           
  1465  0020                     ?_RunSPIService:	
  1466                           ; 1 bytes @ 0x0
  1467                           
  1468  0020                     ES_InitQueue@BlockSize:	
  1469                           ; 3 bytes @ 0x0
  1470                           
  1471  0020                     ___bmul@multiplicand:	
  1472                           ; 1 bytes @ 0x0
  1473                           
  1474  0020                     ES_Timer_InitTimer@NewTime:	
  1475                           ; 1 bytes @ 0x0
  1476                           
  1477  0020                     RunSPIService@ThisEvent:	
  1478                           ; 2 bytes @ 0x0
  1479                           
  1480                           
  1481                           ; 3 bytes @ 0x0
  1482  0020                     	ds	1
  1483  0021                     ??_ES_InitQueue:	
  1484  0021                     ??___bmul:	
  1485                           ; 1 bytes @ 0x1
  1486                           
  1487  0021                     TX_appendXBeePacket@newByte:	
  1488                           ; 1 bytes @ 0x1
  1489                           
  1490  0021                     TX_getChecksum@chk:	
  1491                           ; 1 bytes @ 0x1
  1492                           
  1493                           
  1494                           ; 1 bytes @ 0x1
  1495  0021                     	ds	1
  1496  0022                     ??_ES_Timer_InitTimer:	
  1497  0022                     ES_InitQueue@pBlock:	
  1498                           ; 1 bytes @ 0x2
  1499                           
  1500  0022                     TX_getChecksum@i:	
  1501                           ; 1 bytes @ 0x2
  1502                           
  1503  0022                     ___bmul@product:	
  1504                           ; 1 bytes @ 0x2
  1505                           
  1506                           
  1507                           ; 1 bytes @ 0x2
  1508  0022                     	ds	1
  1509  0023                     ??_RunSPIService:	
  1510  0023                     ES_GetMSBitSet@Val2Check:	
  1511                           ; 1 bytes @ 0x3
  1512                           
  1513  0023                     ES_InitQueue@pThisQueue:	
  1514                           ; 1 bytes @ 0x3
  1515                           
  1516  0023                     ES_Timer_InitTimer@Num:	
  1517                           ; 1 bytes @ 0x3
  1518                           
  1519  0023                     ___bmul@multiplier:	
  1520                           ; 1 bytes @ 0x3
  1521                           
  1522  0023                     RunSPIService@ReturnEvent:	
  1523                           ; 1 bytes @ 0x3
  1524                           
  1525                           
  1526                           ; 3 bytes @ 0x3
  1527  0023                     	ds	1
  1528  0024                     ?_ES_DeQueue:	
  1529  0024                     ?_ES_EnQueueFIFO:	
  1530                           ; 1 bytes @ 0x4
  1531                           
  1532  0024                     ?_RunPACSystemService:	
  1533                           ; 1 bytes @ 0x4
  1534                           
  1535  0024                     ES_GetMSBitSet@ReturnVal:	
  1536                           ; 3 bytes @ 0x4
  1537                           
  1538  0024                     ES_DeQueue@pReturnEvent:	
  1539                           ; 1 bytes @ 0x4
  1540                           
  1541  0024                     ES_EnQueueFIFO@Event2Add:	
  1542                           ; 1 bytes @ 0x4
  1543                           
  1544  0024                     RunPACSystemService@ThisEvent:	
  1545                           ; 3 bytes @ 0x4
  1546                           
  1547                           
  1548                           ; 3 bytes @ 0x4
  1549  0024                     	ds	1
  1550  0025                     ??_ES_DeQueue:	
  1551  0025                     ES_GetMSBitSet@Nybble2Test:	
  1552                           ; 1 bytes @ 0x5
  1553                           
  1554                           
  1555                           ; 1 bytes @ 0x5
  1556  0025                     	ds	1
  1557  0026                     ES_GetMSBitSet@LoopCntr:	
  1558                           
  1559                           ; 1 bytes @ 0x6
  1560  0026                     	ds	1
  1561  0027                     ??_RunPACSystemService:	
  1562  0027                     ??_ES_EnQueueFIFO:	
  1563                           ; 1 bytes @ 0x7
  1564                           
  1565                           
  1566                           ; 1 bytes @ 0x7
  1567  0027                     	ds	1
  1568  0028                     RunPACSystemService@ReturnEvent:	
  1569                           
  1570                           ; 3 bytes @ 0x8
  1571  0028                     	ds	1
  1572  0029                     ES_EnQueueFIFO@saveCrit:	
  1573                           
  1574                           ; 1 bytes @ 0x9
  1575  0029                     	ds	1
  1576  002A                     ES_EnQueueFIFO@InsertionPoint:	
  1577  002A                     ES_DeQueue@saveCrit:	
  1578                           ; 1 bytes @ 0xA
  1579                           
  1580                           
  1581                           ; 1 bytes @ 0xA
  1582  002A                     	ds	1
  1583  002B                     ES_EnQueueFIFO@pBlock:	
  1584  002B                     ES_DeQueue@NumLeft:	
  1585                           ; 1 bytes @ 0xB
  1586                           
  1587                           
  1588                           ; 1 bytes @ 0xB
  1589  002B                     	ds	1
  1590  002C                     ES_EnQueueFIFO@pThisQueue:	
  1591  002C                     ES_DeQueue@pBlock:	
  1592                           ; 1 bytes @ 0xC
  1593                           
  1594                           
  1595                           ; 1 bytes @ 0xC
  1596  002C                     	ds	1
  1597  002D                     ?_ES_PostToService:	
  1598  002D                     ES_DeQueue@pThisQueue:	
  1599                           ; 1 bytes @ 0xD
  1600                           
  1601  002D                     ES_PostToService@TheEvent:	
  1602                           ; 1 bytes @ 0xD
  1603                           
  1604                           
  1605                           ; 3 bytes @ 0xD
  1606  002D                     	ds	3
  1607  0030                     ??_ES_PostToService:	
  1608                           
  1609                           ; 1 bytes @ 0x10
  1610  0030                     	ds	1
  1611  0031                     ES_PostToService@WhichService:	
  1612                           
  1613                           ; 1 bytes @ 0x11
  1614  0031                     	ds	1
  1615  0032                     ??_CheckUARTRXEvent:	
  1616  0032                     ??_CheckUARTTXEvent:	
  1617                           ; 1 bytes @ 0x12
  1618                           
  1619  0032                     ??_CheckSPIEvent:	
  1620                           ; 1 bytes @ 0x12
  1621                           
  1622  0032                     ?_InitUARTRXService:	
  1623                           ; 1 bytes @ 0x12
  1624                           
  1625  0032                     ?_InitUARTTXService:	
  1626                           ; 1 bytes @ 0x12
  1627                           
  1628  0032                     ?_InitSPIService:	
  1629                           ; 1 bytes @ 0x12
  1630                           
  1631  0032                     ?_InitPACSystemService:	
  1632                           ; 1 bytes @ 0x12
  1633                           
  1634  0032                     ?_PostUARTRXService:	
  1635                           ; 1 bytes @ 0x12
  1636                           
  1637  0032                     ?_PostUARTTXService:	
  1638                           ; 1 bytes @ 0x12
  1639                           
  1640  0032                     ?_PostPACSystemService:	
  1641                           ; 1 bytes @ 0x12
  1642                           
  1643  0032                     ??_retrySend:	
  1644                           ; 1 bytes @ 0x12
  1645                           
  1646  0032                     ?_RunUARTRXService:	
  1647                           ; 1 bytes @ 0x12
  1648                           
  1649  0032                     InitUARTRXService@Priority:	
  1650                           ; 3 bytes @ 0x12
  1651                           
  1652  0032                     InitUARTTXService@Priority:	
  1653                           ; 1 bytes @ 0x12
  1654                           
  1655  0032                     InitPACSystemService@Priority:	
  1656                           ; 1 bytes @ 0x12
  1657                           
  1658  0032                     InitSPIService@Priority:	
  1659                           ; 1 bytes @ 0x12
  1660                           
  1661  0032                     PostUARTRXService@ThisEvent:	
  1662                           ; 1 bytes @ 0x12
  1663                           
  1664  0032                     RunUARTRXService@ThisEvent:	
  1665                           ; 3 bytes @ 0x12
  1666                           
  1667  0032                     PostUARTTXService@ThisEvent:	
  1668                           ; 3 bytes @ 0x12
  1669                           
  1670  0032                     PostPACSystemService@ThisEvent:	
  1671                           ; 3 bytes @ 0x12
  1672                           
  1673                           
  1674                           ; 3 bytes @ 0x12
  1675  0032                     	ds	1
  1676  0033                     ??_InitUARTRXService:	
  1677  0033                     ??_InitUARTTXService:	
  1678                           ; 1 bytes @ 0x13
  1679                           
  1680  0033                     ??_InitSPIService:	
  1681                           ; 1 bytes @ 0x13
  1682                           
  1683  0033                     ??_InitPACSystemService:	
  1684                           ; 1 bytes @ 0x13
  1685                           
  1686  0033                     CheckUARTRXEvent@CommEvent:	
  1687                           ; 1 bytes @ 0x13
  1688                           
  1689  0033                     CheckUARTTXEvent@TXEvent:	
  1690                           ; 3 bytes @ 0x13
  1691                           
  1692  0033                     retrySend@LEDEvent:	
  1693                           ; 3 bytes @ 0x13
  1694                           
  1695                           
  1696                           ; 3 bytes @ 0x13
  1697  0033                     	ds	1
  1698  0034                     InitUARTRXService@ThisEvent:	
  1699  0034                     InitUARTTXService@ThisEvent:	
  1700                           ; 3 bytes @ 0x14
  1701                           
  1702  0034                     InitPACSystemService@ThisEvent:	
  1703                           ; 3 bytes @ 0x14
  1704                           
  1705  0034                     InitSPIService@ThisEvent:	
  1706                           ; 3 bytes @ 0x14
  1707                           
  1708  0034                     CheckSPIEvent@SPIEvent:	
  1709                           ; 3 bytes @ 0x14
  1710                           
  1711                           
  1712                           ; 3 bytes @ 0x14
  1713  0034                     	ds	1
  1714  0035                     ??_RunUARTRXService:	
  1715  0035                     ??_ES_Timer_RTI_Resp:	
  1716                           ; 1 bytes @ 0x15
  1717                           
  1718  0035                     ??_PostUARTRXService:	
  1719                           ; 1 bytes @ 0x15
  1720                           
  1721  0035                     ??_PostUARTTXService:	
  1722                           ; 1 bytes @ 0x15
  1723                           
  1724  0035                     ??_PostPACSystemService:	
  1725                           ; 1 bytes @ 0x15
  1726                           
  1727                           
  1728                           ; 1 bytes @ 0x15
  1729  0035                     	ds	1
  1730  0036                     ?_RunUARTTXService:	
  1731  0036                     RunUARTTXService@ThisEvent:	
  1732                           ; 3 bytes @ 0x16
  1733                           
  1734                           
  1735                           ; 3 bytes @ 0x16
  1736  0036                     	ds	1
  1737  0037                     ??_ES_Initialize:	
  1738                           
  1739                           ; 1 bytes @ 0x17
  1740  0037                     	ds	2
  1741  0039                     ??_RunUARTTXService:	
  1742  0039                     ES_Initialize@i:	
  1743                           ; 1 bytes @ 0x19
  1744                           
  1745                           
  1746                           ; 1 bytes @ 0x19
  1747  0039                     	ds	3
  1748  003C                     RunUARTRXService@ReturnEvent:	
  1749                           
  1750                           ; 3 bytes @ 0x1C
  1751  003C                     	ds	1
  1752  003D                     RunUARTTXService@ReturnEvent:	
  1753                           
  1754                           ; 3 bytes @ 0x1D
  1755  003D                     	ds	2
  1756  003F                     RunUARTRXService@msgAddr:	
  1757                           
  1758                           ; 2 bytes @ 0x1F
  1759  003F                     	ds	1
  1760  0040                     _RunUARTTXService$644:	
  1761                           
  1762                           ; 2 bytes @ 0x20
  1763  0040                     	ds	1
  1764  0041                     RunUARTRXService@addrEvent:	
  1765                           
  1766                           ; 3 bytes @ 0x21
  1767  0041                     	ds	3
  1768  0044                     RunUARTRXService@TXEvent:	
  1769                           
  1770                           ; 3 bytes @ 0x24
  1771  0044                     	ds	3
  1772  0047                     RunUARTRXService@i:	
  1773                           
  1774                           ; 1 bytes @ 0x27
  1775  0047                     	ds	1
  1776  0048                     RunUARTRXService@i_541:	
  1777                           
  1778                           ; 1 bytes @ 0x28
  1779  0048                     	ds	1
  1780  0049                     ??_ES_Run:	
  1781                           
  1782                           ; 1 bytes @ 0x29
  1783  0049                     	ds	2
  1784  004B                     ES_Run@HighestPrior:	
  1785                           
  1786                           ; 1 bytes @ 0x2B
  1787  004B                     	ds	1
  1788  004C                     ??_main:	
  1789                           
  1790                           ; 1 bytes @ 0x2C
  1791  004C                     	ds	1
  1792  004D                     main@ErrorType:	
  1793                           
  1794                           ; 1 bytes @ 0x2D
  1795  004D                     	ds	1
  1796                           
  1797                           	psect	maintext
  1798  0078                     __pmaintext:	
  1799 ;;
  1800 ;;Main: autosize = 0, tempsize = 1, incstack = 0, save=0
  1801 ;;
  1802 ;; *************** function _main *****************
  1803 ;; Defined at:
  1804 ;;		line 21 in file "main.c"
  1805 ;; Parameters:    Size  Location     Type
  1806 ;;		None
  1807 ;; Auto vars:     Size  Location     Type
  1808 ;;  ErrorType       1   45[BANK0 ] enum E1641
  1809 ;; Return value:  Size  Location     Type
  1810 ;;                  1    wreg      void 
  1811 ;; Registers used:
  1812 ;;		wreg, fsr0l, fsr0h, status,2, status,0, btemp+1, pclath, cstack
  1813 ;; Tracked objects:
  1814 ;;		On entry : B00/0
  1815 ;;		On exit  : 0/0
  1816 ;;		Unchanged: 0/0
  1817 ;; Data sizes:     COMMON   BANK0   BANK1   BANK2
  1818 ;;      Params:         0       0       0       0
  1819 ;;      Locals:         0       1       0       0
  1820 ;;      Temps:          0       1       0       0
  1821 ;;      Totals:         0       2       0       0
  1822 ;;Total ram usage:        2 bytes
  1823 ;; Hardware stack levels required when called:   10
  1824 ;; This function calls:
  1825 ;;		_ES_Initialize
  1826 ;;		_ES_Run
  1827 ;;		_USART_Init
  1828 ;; This function is called by:
  1829 ;;		Startup code after reset
  1830 ;; This function uses a non-reentrant model
  1831 ;;
  1832                           
  1833                           
  1834                           ;psect for function _main
  1835  0078                     _main:	
  1836                           
  1837                           ;main.c: 22: ES_Return_t ErrorType;
  1838                           ;main.c: 28: OSCCON = 0b01110000;
  1839                           
  1840                           ;incstack = 0
  1841 ;; hardware stack exceeded
  1842                           ; Regs used in _main: [wreg-fsr0h+status,2+status,0+btemp+1+pclath+cstack]
  1843  0078  3070               	movlw	112
  1844  0079  1683               	bsf	3,5	;RP0=1, select bank1
  1845  007A  1303               	bcf	3,6	;RP1=0, select bank1
  1846  007B  008F               	movwf	15	;volatile
  1847                           
  1848                           ;main.c: 30: USART_Init();
  1849  007C  118A  27D9  118A   	fcall	_USART_Init
  1850                           
  1851                           ;main.c: 33: TRISC3 = 0;
  1852  007F  1683               	bsf	3,5	;RP0=1, select bank1
  1853  0080  1303               	bcf	3,6	;RP1=0, select bank1
  1854  0081  1187               	bcf	7,3	;volatile
  1855                           
  1856                           ;main.c: 34: ANS7 = 0;
  1857  0082  1283               	bcf	3,5	;RP0=0, select bank2
  1858  0083  1703               	bsf	3,6	;RP1=1, select bank2
  1859  0084  139E               	bcf	30,7	;volatile
  1860                           
  1861                           ;main.c: 35: RC3 = 0;
  1862  0085  1283               	bcf	3,5	;RP0=0, select bank0
  1863  0086  1303               	bcf	3,6	;RP1=0, select bank0
  1864  0087  1187               	bcf	7,3	;volatile
  1865                           
  1866                           ;main.c: 38: ErrorType = ES_Initialize(ES_Timer_RATE_1MS);
  1867  0088  3001               	movlw	1
  1868  0089  118A  2759  118A   	fcall	_ES_Initialize
  1869  008C  1283               	bcf	3,5	;RP0=0, select bank0
  1870  008D  1303               	bcf	3,6	;RP1=0, select bank0
  1871  008E  00CC               	movwf	??_main
  1872  008F  00CD               	movwf	main@ErrorType
  1873                           
  1874                           ;main.c: 41: if (ErrorType == Success) {
  1875  0090  084D               	movf	main@ErrorType,w
  1876  0091  1D03               	btfss	3,2
  1877  0092  289A               	goto	l3206
  1878                           
  1879                           ;main.c: 43: ErrorType = ES_Run();
  1880  0093  118A  2154  118A   	fcall	_ES_Run
  1881  0096  1283               	bcf	3,5	;RP0=0, select bank0
  1882  0097  1303               	bcf	3,6	;RP1=0, select bank0
  1883  0098  00CC               	movwf	??_main
  1884  0099  00CD               	movwf	main@ErrorType
  1885  009A                     l3206:	
  1886                           ;main.c: 57: }
  1887                           
  1888                           ;main.c: 56: break;
  1889                           
  1890                           ;main.c: 54: default:
  1891                           
  1892                           ;main.c: 53: break;
  1893                           
  1894                           ;main.c: 51: case FailedInit:
  1895                           
  1896                           ;main.c: 50: break;
  1897                           
  1898                           ;main.c: 48: case FailedPointer:
  1899                           
  1900                           ;main.c: 45: }
  1901                           ;main.c: 47: switch (ErrorType) {
  1902                           
  1903  009A  084D               	movf	main@ErrorType,w
  1904                           
  1905                           ; Switch size 1, requested type "space"
  1906                           ; Number of cases is 2, Range of values is 3 to 5
  1907                           ; switch strategies available:
  1908                           ; Name         Instructions Cycles
  1909                           ; simple_byte            7     4 (average)
  1910                           ; direct_byte           16    10 (fixed)
  1911                           ; jumptable            263     9 (fixed)
  1912                           ;	Chosen strategy is simple_byte
  1913  009B  3A03               	xorlw	3	; case 3
  1914  009C  1903               	skipnz
  1915  009D  28A2               	goto	l354
  1916  009E  3A06               	xorlw	6	; case 5
  1917  009F  1903               	skipnz
  1918  00A0  28A2               	goto	l354
  1919  00A1  28A2               	goto	l354
  1920  00A2                     l354:	
  1921                           ;main.c: 58: for (;;)
  1922                           
  1923                           
  1924                           ;main.c: 59: ;
  1925  00A2  28A2               	goto	l354
  1926  00A3                     __end_of_main:	
  1927                           
  1928                           	psect	text1
  1929  07D9                     __ptext1:	
  1930 ;; *************** function _USART_Init *****************
  1931 ;; Defined at:
  1932 ;;		line 11 in file "sci.c"
  1933 ;; Parameters:    Size  Location     Type
  1934 ;;		None
  1935 ;; Auto vars:     Size  Location     Type
  1936 ;;		None
  1937 ;; Return value:  Size  Location     Type
  1938 ;;                  1    wreg      void 
  1939 ;; Registers used:
  1940 ;;		wreg, status,2
  1941 ;; Tracked objects:
  1942 ;;		On entry : 0/0
  1943 ;;		On exit  : 0/0
  1944 ;;		Unchanged: 0/0
  1945 ;; Data sizes:     COMMON   BANK0   BANK1   BANK2
  1946 ;;      Params:         0       0       0       0
  1947 ;;      Locals:         0       0       0       0
  1948 ;;      Temps:          0       0       0       0
  1949 ;;      Totals:         0       0       0       0
  1950 ;;Total ram usage:        0 bytes
  1951 ;; Hardware stack levels used:    1
  1952 ;; Hardware stack levels required when called:    4
  1953 ;; This function calls:
  1954 ;;		Nothing
  1955 ;; This function is called by:
  1956 ;;		_main
  1957 ;; This function uses a non-reentrant model
  1958 ;;
  1959                           
  1960                           
  1961                           ;psect for function _USART_Init
  1962  07D9                     _USART_Init:	
  1963                           
  1964                           ;sci.c: 13: GIE = 0;
  1965                           
  1966                           ;incstack = 0
  1967                           ; Regs used in _USART_Init: [wreg+status,2]
  1968  07D9  138B               	bcf	11,7	;volatile
  1969                           
  1970                           ;sci.c: 16: SPBRG = 129;
  1971  07DA  3081               	movlw	129
  1972  07DB  1683               	bsf	3,5	;RP0=1, select bank1
  1973  07DC  1303               	bcf	3,6	;RP1=0, select bank1
  1974  07DD  0099               	movwf	25	;volatile
  1975                           
  1976                           ;sci.c: 17: SPBRGH = 0;
  1977  07DE  019A               	clrf	26	;volatile
  1978                           
  1979                           ;sci.c: 18: BRGH = 1;
  1980  07DF  1518               	bsf	24,2	;volatile
  1981                           
  1982                           ;sci.c: 19: BRG16 = 0;
  1983  07E0  119B               	bcf	27,3	;volatile
  1984                           
  1985                           ;sci.c: 22: SYNC = 0;
  1986  07E1  1218               	bcf	24,4	;volatile
  1987                           
  1988                           ;sci.c: 23: SPEN = 1;
  1989  07E2  1283               	bcf	3,5	;RP0=0, select bank0
  1990  07E3  1303               	bcf	3,6	;RP1=0, select bank0
  1991  07E4  1798               	bsf	24,7	;volatile
  1992                           
  1993                           ;sci.c: 26: TXIE = 0;
  1994  07E5  1683               	bsf	3,5	;RP0=1, select bank1
  1995  07E6  1303               	bcf	3,6	;RP1=0, select bank1
  1996  07E7  120C               	bcf	12,4	;volatile
  1997                           
  1998                           ;sci.c: 27: RCIE = 0;
  1999  07E8  128C               	bcf	12,5	;volatile
  2000                           
  2001                           ;sci.c: 28: PEIE = 0;
  2002  07E9  130B               	bcf	11,6	;volatile
  2003                           
  2004                           ;sci.c: 31: TXEN = 1;
  2005  07EA  1698               	bsf	24,5	;volatile
  2006                           
  2007                           ;sci.c: 34: CREN = 1;
  2008  07EB  1283               	bcf	3,5	;RP0=0, select bank0
  2009  07EC  1303               	bcf	3,6	;RP1=0, select bank0
  2010  07ED  1618               	bsf	24,4	;volatile
  2011                           
  2012                           ;sci.c: 35: ANS11 = 0;
  2013  07EE  1283               	bcf	3,5	;RP0=0, select bank2
  2014  07EF  1703               	bsf	3,6	;RP1=1, select bank2
  2015  07F0  119F               	bcf	31,3	;volatile
  2016                           
  2017                           ;sci.c: 38: GIE = 1;
  2018  07F1  178B               	bsf	11,7	;volatile
  2019  07F2  0008               	return
  2020  07F3                     __end_of_USART_Init:	
  2021                           
  2022                           	psect	text4
  2023  0000                     __ptext4:	
  2024 ;; *************** function _retrySend *****************
  2025 ;; Defined at:
  2026 ;;		line 306 in file "UART_TX_SM.c"
  2027 ;; Parameters:    Size  Location     Type
  2028 ;;		None
  2029 ;; Auto vars:     Size  Location     Type
  2030 ;;  LEDEvent        3   19[BANK0 ] struct ES_Event_t
  2031 ;; Return value:  Size  Location     Type
  2032 ;;                  1    wreg      void 
  2033 ;; Registers used:
  2034 ;;		wreg, fsr0l, fsr0h, status,2, status,0, pclath, cstack
  2035 ;; Tracked objects:
  2036 ;;		On entry : 0/0
  2037 ;;		On exit  : 0/0
  2038 ;;		Unchanged: 0/0
  2039 ;; Data sizes:     COMMON   BANK0   BANK1   BANK2
  2040 ;;      Params:         0       0       0       0
  2041 ;;      Locals:         0       3       0       0
  2042 ;;      Temps:          0       1       0       0
  2043 ;;      Totals:         0       4       0       0
  2044 ;;Total ram usage:        4 bytes
  2045 ;; Hardware stack levels used:    1
  2046 ;; Hardware stack levels required when called:    7
  2047 ;; This function calls:
  2048 ;;		_ES_PostToService
  2049 ;; This function is called by:
  2050 ;;		_RunUARTTXService
  2051 ;; This function uses a non-reentrant model
  2052 ;;
  2053                           
  2054  0000                     _retrySend:	
  2055                           ;psect for function _retrySend
  2056                           
  2057  0000                     __end_of_retrySend:	
  2058                           ;UART_TX_SM.c: 315: TXIE = 1;
  2059                           
  2060                           ;UART_TX_SM.c: 314: currentState = TX_SendMSG;
  2061                           
  2062                           ;UART_TX_SM.c: 313: index = 0;
  2063                           
  2064                           ;UART_TX_SM.c: 310: ES_PostToService(3, LEDEvent);
  2065                           
  2066                           ;UART_TX_SM.c: 309: LEDEvent.EventParam = TX_ERR_TIMEOUT;
  2067                           
  2068                           ;UART_TX_SM.c: 307: ES_Event LEDEvent;
  2069                           ;UART_TX_SM.c: 308: LEDEvent.EventType = ES_TOGGLE_LED;
  2070                           
  2071                           ;incstack = 0
  2072 ;; hardware stack exceeded
  2073                           ; Regs used in _retrySend: [wreg-fsr0h+status,2+status,0+pclath+cstack]
  2074                           
  2075                           
  2076                           	psect	text14
  2077  0122                     __ptext14:	
  2078 ;; *************** function _PostPACSystemService *****************
  2079 ;; Defined at:
  2080 ;;		line 92 in file "PACSystemService.c"
  2081 ;; Parameters:    Size  Location     Type
  2082 ;;  ThisEvent       3   18[BANK0 ] struct ES_Event_t
  2083 ;; Auto vars:     Size  Location     Type
  2084 ;;		None
  2085 ;; Return value:  Size  Location     Type
  2086 ;;                  1    wreg      unsigned char 
  2087 ;; Registers used:
  2088 ;;		wreg, fsr0l, fsr0h, status,2, status,0, pclath, cstack
  2089 ;; Tracked objects:
  2090 ;;		On entry : 0/0
  2091 ;;		On exit  : 0/0
  2092 ;;		Unchanged: 0/0
  2093 ;; Data sizes:     COMMON   BANK0   BANK1   BANK2
  2094 ;;      Params:         0       3       0       0
  2095 ;;      Locals:         0       0       0       0
  2096 ;;      Temps:          0       0       0       0
  2097 ;;      Totals:         0       3       0       0
  2098 ;;Total ram usage:        3 bytes
  2099 ;; Hardware stack levels used:    1
  2100 ;; Hardware stack levels required when called:    7
  2101 ;; This function calls:
  2102 ;;		_ES_PostToService
  2103 ;; This function is called by:
  2104 ;;		_ES_Timer_RTI_Resp
  2105 ;; This function uses a non-reentrant model
  2106 ;;
  2107                           
  2108                           
  2109                           ;psect for function _PostPACSystemService
  2110  0122                     _PostPACSystemService:	
  2111                           
  2112                           ;PACSystemService.c: 93: return ES_PostToService(MyPriority, ThisEvent);
  2113                           ;	Return value of _PostPACSystemService is never used
  2114                           
  2115                           ;incstack = 0
  2116 ;; hardware stack exceeded
  2117                           ; Regs used in _PostPACSystemService: [wreg-fsr0h+status,2+status,0+pclath+cstack]
  2118  0122  1283               	bcf	3,5	;RP0=0, select bank0
  2119  0123  1303               	bcf	3,6	;RP1=0, select bank0
  2120  0124  0832               	movf	PostPACSystemService@ThisEvent,w
  2121  0125  00AD               	movwf	ES_PostToService@TheEvent
  2122  0126  0833               	movf	PostPACSystemService@ThisEvent+1,w
  2123  0127  00AE               	movwf	ES_PostToService@TheEvent+1
  2124  0128  0834               	movf	PostPACSystemService@ThisEvent+2,w
  2125  0129  00AF               	movwf	ES_PostToService@TheEvent+2
  2126  012A  0850               	movf	PACSystemService@MyPriority,w
  2127  012B  2E68               	ljmp	_ES_PostToService
  2128  012C                     __end_of_PostPACSystemService:	
  2129  012C                     __ptext15:	
  2130 ;; *************** function _PostUARTRXService *****************
  2131 ;; Defined at:
  2132 ;;		line 183 in file "UART_RX_SM.c"
  2133 ;; Parameters:    Size  Location     Type
  2134 ;;  ThisEvent       3   18[BANK0 ] struct ES_Event_t
  2135 ;; Auto vars:     Size  Location     Type
  2136 ;;		None
  2137 ;; Return value:  Size  Location     Type
  2138 ;;                  1    wreg      unsigned char 
  2139 ;; Registers used:
  2140 ;;		wreg, fsr0l, fsr0h, status,2, status,0, pclath, cstack
  2141 ;; Tracked objects:
  2142 ;;		On entry : 0/0
  2143 ;;		On exit  : 0/0
  2144 ;;		Unchanged: 0/0
  2145 ;; Data sizes:     COMMON   BANK0   BANK1   BANK2
  2146 ;;      Params:         0       3       0       0
  2147 ;;      Locals:         0       0       0       0
  2148 ;;      Temps:          0       0       0       0
  2149 ;;      Totals:         0       3       0       0
  2150 ;;Total ram usage:        3 bytes
  2151 ;; Hardware stack levels used:    1
  2152 ;; Hardware stack levels required when called:    7
  2153 ;; This function calls:
  2154 ;;		_ES_PostToService
  2155 ;; This function is called by:
  2156 ;;		_ES_Timer_RTI_Resp
  2157 ;; This function uses a non-reentrant model
  2158 ;;
  2159                           
  2160                           
  2161                           ;psect for function _PostUARTRXService
  2162  012C                     _PostUARTRXService:	
  2163                           
  2164                           ;UART_RX_SM.c: 184: return ES_PostToService(MyPriority, ThisEvent);
  2165                           ;	Return value of _PostUARTRXService is never used
  2166                           
  2167                           ;incstack = 0
  2168 ;; hardware stack exceeded
  2169                           ; Regs used in _PostUARTRXService: [wreg-fsr0h+status,2+status,0+pclath+cstack]
  2170  012C  1283               	bcf	3,5	;RP0=0, select bank0
  2171  012D  1303               	bcf	3,6	;RP1=0, select bank0
  2172  012E  0832               	movf	PostUARTRXService@ThisEvent,w
  2173  012F  00AD               	movwf	ES_PostToService@TheEvent
  2174  0130  0833               	movf	PostUARTRXService@ThisEvent+1,w
  2175  0131  00AE               	movwf	ES_PostToService@TheEvent+1
  2176  0132  0834               	movf	PostUARTRXService@ThisEvent+2,w
  2177  0133  00AF               	movwf	ES_PostToService@TheEvent+2
  2178  0134  0857               	movf	_MyPriority,w
  2179  0135  2E68               	ljmp	_ES_PostToService
  2180  0136                     __end_of_PostUARTRXService:	
  2181  0136                     __ptext16:	
  2182 ;; *************** function _PostUARTTXService *****************
  2183 ;; Defined at:
  2184 ;;		line 125 in file "UART_TX_SM.c"
  2185 ;; Parameters:    Size  Location     Type
  2186 ;;  ThisEvent       3   18[BANK0 ] struct ES_Event_t
  2187 ;; Auto vars:     Size  Location     Type
  2188 ;;		None
  2189 ;; Return value:  Size  Location     Type
  2190 ;;                  1    wreg      unsigned char 
  2191 ;; Registers used:
  2192 ;;		wreg, fsr0l, fsr0h, status,2, status,0, pclath, cstack
  2193 ;; Tracked objects:
  2194 ;;		On entry : 0/0
  2195 ;;		On exit  : 0/0
  2196 ;;		Unchanged: 0/0
  2197 ;; Data sizes:     COMMON   BANK0   BANK1   BANK2
  2198 ;;      Params:         0       3       0       0
  2199 ;;      Locals:         0       0       0       0
  2200 ;;      Temps:          0       0       0       0
  2201 ;;      Totals:         0       3       0       0
  2202 ;;Total ram usage:        3 bytes
  2203 ;; Hardware stack levels used:    1
  2204 ;; Hardware stack levels required when called:    7
  2205 ;; This function calls:
  2206 ;;		_ES_PostToService
  2207 ;; This function is called by:
  2208 ;;		_ES_Timer_RTI_Resp
  2209 ;; This function uses a non-reentrant model
  2210 ;;
  2211                           
  2212                           
  2213                           ;psect for function _PostUARTTXService
  2214  0136                     _PostUARTTXService:	
  2215                           
  2216                           ;UART_TX_SM.c: 126: return ES_PostToService(MyPriority, ThisEvent);
  2217                           ;	Return value of _PostUARTTXService is never used
  2218                           
  2219                           ;incstack = 0
  2220 ;; hardware stack exceeded
  2221                           ; Regs used in _PostUARTTXService: [wreg-fsr0h+status,2+status,0+pclath+cstack]
  2222  0136  1283               	bcf	3,5	;RP0=0, select bank0
  2223  0137  1303               	bcf	3,6	;RP1=0, select bank0
  2224  0138  0832               	movf	PostUARTTXService@ThisEvent,w
  2225  0139  00AD               	movwf	ES_PostToService@TheEvent
  2226  013A  0833               	movf	PostUARTTXService@ThisEvent+1,w
  2227  013B  00AE               	movwf	ES_PostToService@TheEvent+1
  2228  013C  0834               	movf	PostUARTTXService@ThisEvent+2,w
  2229  013D  00AF               	movwf	ES_PostToService@TheEvent+2
  2230  013E  0855               	movf	UART_TX_SM@MyPriority,w
  2231  013F  2E68               	ljmp	_ES_PostToService
  2232  0140                     __end_of_PostUARTTXService:	
  2233  0140                     __ptext23:	
  2234 ;; *************** function _InitPACSystemService *****************
  2235 ;; Defined at:
  2236 ;;		line 61 in file "PACSystemService.c"
  2237 ;; Parameters:    Size  Location     Type
  2238 ;;  Priority        1   18[BANK0 ] unsigned char 
  2239 ;; Auto vars:     Size  Location     Type
  2240 ;;  ThisEvent       3   20[BANK0 ] struct ES_Event_t
  2241 ;; Return value:  Size  Location     Type
  2242 ;;                  1    wreg      unsigned char 
  2243 ;; Registers used:
  2244 ;;		wreg, fsr0l, fsr0h, status,2, status,0, pclath, cstack
  2245 ;; Tracked objects:
  2246 ;;		On entry : 0/0
  2247 ;;		On exit  : 0/0
  2248 ;;		Unchanged: 0/0
  2249 ;; Data sizes:     COMMON   BANK0   BANK1   BANK2
  2250 ;;      Params:         0       1       0       0
  2251 ;;      Locals:         0       3       0       0
  2252 ;;      Temps:          0       1       0       0
  2253 ;;      Totals:         0       5       0       0
  2254 ;;Total ram usage:        5 bytes
  2255 ;; Hardware stack levels used:    1
  2256 ;; Hardware stack levels required when called:    7
  2257 ;; This function calls:
  2258 ;;		_ES_PostToService
  2259 ;; This function is called by:
  2260 ;;		_ES_Initialize
  2261 ;; This function uses a non-reentrant model
  2262 ;;
  2263                           
  2264                           
  2265                           ;psect for function _InitPACSystemService
  2266  0140                     _InitPACSystemService:	
  2267                           
  2268                           ;PACSystemService.c: 62: ES_Event ThisEvent;
  2269                           ;PACSystemService.c: 64: MyPriority = Priority;
  2270                           
  2271                           ;incstack = 0
  2272 ;; hardware stack exceeded
  2273                           ; Regs used in _InitPACSystemService: [wreg-fsr0h+status,2+status,0+pclath+cstack]
  2274  0140  1283               	bcf	3,5	;RP0=0, select bank0
  2275  0141  1303               	bcf	3,6	;RP1=0, select bank0
  2276  0142  0832               	movf	InitPACSystemService@Priority,w
  2277  0143  00B3               	movwf	??_InitPACSystemService
  2278  0144  00D0               	movwf	PACSystemService@MyPriority
  2279                           
  2280                           ;PACSystemService.c: 67: ThisEvent.EventType = ES_INIT;
  2281  0145  3002               	movlw	2
  2282  0146  00B3               	movwf	??_InitPACSystemService
  2283  0147  00B4               	movwf	InitPACSystemService@ThisEvent
  2284                           
  2285                           ;PACSystemService.c: 68: if (ES_PostToService(MyPriority, ThisEvent) == ((boolean) !((bo
      +                          olean) 0))) {
  2286  0148  00AD               	movwf	ES_PostToService@TheEvent
  2287  0149  0835               	movf	InitPACSystemService@ThisEvent+1,w
  2288  014A  00AE               	movwf	ES_PostToService@TheEvent+1
  2289  014B  0836               	movf	InitPACSystemService@ThisEvent+2,w
  2290  014C  00AF               	movwf	ES_PostToService@TheEvent+2
  2291  014D  0850               	movf	PACSystemService@MyPriority,w
  2292  014E  2668  118A         	fcall	_ES_PostToService
  2293  0150  3A01               	xorlw	1
  2294  0151  1903               	btfsc	3,2
  2295                           
  2296                           ;PACSystemService.c: 69: return ((boolean) !((boolean) 0));
  2297  0152  3401               	retlw	1
  2298                           
  2299                           ;PACSystemService.c: 71: return ((boolean) 0);
  2300                           
  2301                           ;PACSystemService.c: 70: } else {
  2302  0153  3400               	retlw	0
  2303  0154                     __end_of_InitPACSystemService:	
  2304  0154                     __ptext2:	
  2305 ;; *************** function _ES_Run *****************
  2306 ;; Defined at:
  2307 ;;		line 224 in file "ES_Framework.c"
  2308 ;; Parameters:    Size  Location     Type
  2309 ;;		None
  2310 ;; Auto vars:     Size  Location     Type
  2311 ;;  HighestPrior    1   43[BANK0 ] unsigned char 
  2312 ;; Return value:  Size  Location     Type
  2313 ;;                  1    wreg      enum E1594
  2314 ;; Registers used:
  2315 ;;		wreg, fsr0l, fsr0h, status,2, status,0, btemp+1, pclath, cstack
  2316 ;; Tracked objects:
  2317 ;;		On entry : 0/0
  2318 ;;		On exit  : 0/0
  2319 ;;		Unchanged: 0/0
  2320 ;; Data sizes:     COMMON   BANK0   BANK1   BANK2
  2321 ;;      Params:         0       0       0       0
  2322 ;;      Locals:         0       1       0       0
  2323 ;;      Temps:          0       2       0       0
  2324 ;;      Totals:         0       3       0       0
  2325 ;;Total ram usage:        3 bytes
  2326 ;; Hardware stack levels used:    1
  2327 ;; Hardware stack levels required when called:    9
  2328 ;; This function calls:
  2329 ;;		_CheckSPIEvent
  2330 ;;		_CheckUARTRXEvent
  2331 ;;		_CheckUARTTXEvent
  2332 ;;		_ES_DeQueue
  2333 ;;		_ES_GetMSBitSet
  2334 ;;		_ES_Timer_RTI_Resp
  2335 ;;		_IsTimerPending
  2336 ;;		_RunPACSystemService
  2337 ;;		_RunSPIService
  2338 ;;		_RunUARTRXService
  2339 ;;		_RunUARTTXService
  2340 ;; This function is called by:
  2341 ;;		_main
  2342 ;; This function uses a non-reentrant model
  2343 ;;
  2344                           
  2345                           
  2346                           ;psect for function _ES_Run
  2347  0154                     _ES_Run:	
  2348                           
  2349                           ;ES_Framework.c: 237: }
  2350                           ;ES_Framework.c: 243: switch (HighestPrior) {
  2351  0154  29B6               	goto	l2940
  2352  0155                     l2912:	
  2353                           ;ES_Framework.c: 244: case 0:
  2354                           
  2355                           
  2356                           ;ES_Framework.c: 245: if (RunUARTRXService(ThisEvent).EventType != ES_NO_EVENT) return F
      +                          ailedRun;
  2357  0155  1683               	bsf	3,5	;RP0=1, select bank1
  2358  0156  1303               	bcf	3,6	;RP1=0, select bank1
  2359  0157  085E               	movf	ES_Run@ThisEvent^(0+128),w
  2360  0158  1283               	bcf	3,5	;RP0=0, select bank0
  2361  0159  1303               	bcf	3,6	;RP1=0, select bank0
  2362  015A  00B2               	movwf	RunUARTRXService@ThisEvent
  2363  015B  1683               	bsf	3,5	;RP0=1, select bank1
  2364  015C  1303               	bcf	3,6	;RP1=0, select bank1
  2365  015D  085F               	movf	(ES_Run@ThisEvent+1)^(0+128),w
  2366  015E  1283               	bcf	3,5	;RP0=0, select bank0
  2367  015F  1303               	bcf	3,6	;RP1=0, select bank0
  2368  0160  00B3               	movwf	RunUARTRXService@ThisEvent+1
  2369  0161  1683               	bsf	3,5	;RP0=1, select bank1
  2370  0162  1303               	bcf	3,6	;RP1=0, select bank1
  2371  0163  0860               	movf	(ES_Run@ThisEvent+2)^(0+128),w
  2372  0164  1283               	bcf	3,5	;RP0=0, select bank0
  2373  0165  1303               	bcf	3,6	;RP1=0, select bank0
  2374  0166  00B4               	movwf	RunUARTRXService@ThisEvent+2
  2375  0167  24EE  118A         	fcall	_RunUARTRXService
  2376  0169  1283               	bcf	3,5	;RP0=0, select bank0
  2377  016A  1303               	bcf	3,6	;RP1=0, select bank0
  2378  016B  0832               	movf	?_RunUARTRXService,w
  2379  016C  29B4               	goto	L3
  2380  016D                     l2918:	
  2381                           ;ES_Framework.c: 247: case 1:
  2382                           
  2383                           ;ES_Framework.c: 246: break;
  2384                           
  2385                           
  2386                           ;ES_Framework.c: 248: if (RunUARTTXService(ThisEvent).EventType != ES_NO_EVENT) return F
      +                          ailedRun;
  2387  016D  1683               	bsf	3,5	;RP0=1, select bank1
  2388  016E  1303               	bcf	3,6	;RP1=0, select bank1
  2389  016F  085E               	movf	ES_Run@ThisEvent^(0+128),w
  2390  0170  1283               	bcf	3,5	;RP0=0, select bank0
  2391  0171  1303               	bcf	3,6	;RP1=0, select bank0
  2392  0172  00B6               	movwf	RunUARTTXService@ThisEvent
  2393  0173  1683               	bsf	3,5	;RP0=1, select bank1
  2394  0174  1303               	bcf	3,6	;RP1=0, select bank1
  2395  0175  085F               	movf	(ES_Run@ThisEvent+1)^(0+128),w
  2396  0176  1283               	bcf	3,5	;RP0=0, select bank0
  2397  0177  1303               	bcf	3,6	;RP1=0, select bank0
  2398  0178  00B7               	movwf	RunUARTTXService@ThisEvent+1
  2399  0179  1683               	bsf	3,5	;RP0=1, select bank1
  2400  017A  1303               	bcf	3,6	;RP1=0, select bank1
  2401  017B  0860               	movf	(ES_Run@ThisEvent+2)^(0+128),w
  2402  017C  1283               	bcf	3,5	;RP0=0, select bank0
  2403  017D  1303               	bcf	3,6	;RP1=0, select bank0
  2404  017E  00B8               	movwf	RunUARTTXService@ThisEvent+2
  2405  017F  23DF  118A         	fcall	_RunUARTTXService
  2406  0181  1283               	bcf	3,5	;RP0=0, select bank0
  2407  0182  1303               	bcf	3,6	;RP1=0, select bank0
  2408  0183  0836               	movf	?_RunUARTTXService,w
  2409  0184  29B4               	goto	L3
  2410  0185                     l2924:	
  2411                           ;ES_Framework.c: 250: case 2:
  2412                           
  2413                           ;ES_Framework.c: 249: break;
  2414                           
  2415                           
  2416                           ;ES_Framework.c: 251: if (RunSPIService(ThisEvent).EventType != ES_NO_EVENT) return Fail
      +                          edRun;
  2417  0185  1683               	bsf	3,5	;RP0=1, select bank1
  2418  0186  1303               	bcf	3,6	;RP1=0, select bank1
  2419  0187  085E               	movf	ES_Run@ThisEvent^(0+128),w
  2420  0188  1283               	bcf	3,5	;RP0=0, select bank0
  2421  0189  1303               	bcf	3,6	;RP1=0, select bank0
  2422  018A  00A0               	movwf	RunSPIService@ThisEvent
  2423  018B  1683               	bsf	3,5	;RP0=1, select bank1
  2424  018C  1303               	bcf	3,6	;RP1=0, select bank1
  2425  018D  085F               	movf	(ES_Run@ThisEvent+1)^(0+128),w
  2426  018E  1283               	bcf	3,5	;RP0=0, select bank0
  2427  018F  1303               	bcf	3,6	;RP1=0, select bank0
  2428  0190  00A1               	movwf	RunSPIService@ThisEvent+1
  2429  0191  1683               	bsf	3,5	;RP0=1, select bank1
  2430  0192  1303               	bcf	3,6	;RP1=0, select bank1
  2431  0193  0860               	movf	(ES_Run@ThisEvent+2)^(0+128),w
  2432  0194  1283               	bcf	3,5	;RP0=0, select bank0
  2433  0195  1303               	bcf	3,6	;RP1=0, select bank0
  2434  0196  00A2               	movwf	RunSPIService@ThisEvent+2
  2435  0197  2357  118A         	fcall	_RunSPIService
  2436  0199  1283               	bcf	3,5	;RP0=0, select bank0
  2437  019A  1303               	bcf	3,6	;RP1=0, select bank0
  2438  019B  0820               	movf	?_RunSPIService,w
  2439  019C  29B4               	goto	L3
  2440  019D                     l2930:	
  2441                           ;ES_Framework.c: 253: case 3:
  2442                           
  2443                           ;ES_Framework.c: 252: break;
  2444                           
  2445                           
  2446                           ;ES_Framework.c: 254: if (RunPACSystemService(ThisEvent).EventType != ES_NO_EVENT) retur
      +                          n FailedRun;
  2447  019D  1683               	bsf	3,5	;RP0=1, select bank1
  2448  019E  1303               	bcf	3,6	;RP1=0, select bank1
  2449  019F  085E               	movf	ES_Run@ThisEvent^(0+128),w
  2450  01A0  1283               	bcf	3,5	;RP0=0, select bank0
  2451  01A1  1303               	bcf	3,6	;RP1=0, select bank0
  2452  01A2  00A4               	movwf	RunPACSystemService@ThisEvent
  2453  01A3  1683               	bsf	3,5	;RP0=1, select bank1
  2454  01A4  1303               	bcf	3,6	;RP1=0, select bank1
  2455  01A5  085F               	movf	(ES_Run@ThisEvent+1)^(0+128),w
  2456  01A6  1283               	bcf	3,5	;RP0=0, select bank0
  2457  01A7  1303               	bcf	3,6	;RP1=0, select bank0
  2458  01A8  00A5               	movwf	RunPACSystemService@ThisEvent+1
  2459  01A9  1683               	bsf	3,5	;RP0=1, select bank1
  2460  01AA  1303               	bcf	3,6	;RP1=0, select bank1
  2461  01AB  0860               	movf	(ES_Run@ThisEvent+2)^(0+128),w
  2462  01AC  1283               	bcf	3,5	;RP0=0, select bank0
  2463  01AD  1303               	bcf	3,6	;RP1=0, select bank0
  2464  01AE  00A6               	movwf	RunPACSystemService@ThisEvent+2
  2465  01AF  268C  118A         	fcall	_RunPACSystemService
  2466  01B1  1283               	bcf	3,5	;RP0=0, select bank0
  2467  01B2  1303               	bcf	3,6	;RP1=0, select bank0
  2468  01B3  0824               	movf	?_RunPACSystemService,w
  2469  01B4                     L3:	
  2470  01B4  1D03               	btfss	3,2
  2471  01B5  3402               	retlw	2
  2472  01B6                     l2940:	
  2473                           ;ES_Framework.c: 233: while (Ready != 0) {
  2474                           
  2475                           ;incstack = 0
  2476 ;; hardware stack exceeded
  2477                           ; Regs used in _ES_Run: [wreg-fsr0h+status,2+status,0+btemp+1+pclath+cstack]
  2478                           ;ES_Framework.c: 226: uint8_t HighestPrior;
  2479                           ;ES_Framework.c: 227: static ES_Event ThisEvent;
  2480                           ;ES_Framework.c: 229: while (1) {
  2481                           
  2482  01B6  1283               	bcf	3,5	;RP0=0, select bank0
  2483  01B7  1303               	bcf	3,6	;RP1=0, select bank0
  2484  01B8  0859               	movf	_Ready,w
  2485  01B9  1903               	btfsc	3,2
  2486  01BA  29F1               	goto	l2944
  2487                           
  2488                           ;ES_Framework.c: 234: HighestPrior = ES_GetMSBitSet(Ready);
  2489  01BB  1283               	bcf	3,5	;RP0=0, select bank0
  2490  01BC  1303               	bcf	3,6	;RP1=0, select bank0
  2491  01BD  0859               	movf	_Ready,w
  2492  01BE  226C               	fcall	_ES_GetMSBitSet
  2493  01BF  1283               	bcf	3,5	;RP0=0, select bank0
  2494  01C0  1303               	bcf	3,6	;RP1=0, select bank0
  2495  01C1  00C9               	movwf	??_ES_Run
  2496  01C2  00CB               	movwf	ES_Run@HighestPrior
  2497                           
  2498                           ;ES_Framework.c: 235: if (ES_DeQueue(EventQueues[HighestPrior].pMem, &ThisEvent) == 0) {
  2499  01C3  30DE               	movlw	(low (ES_Run@ThisEvent| 0))& (0+255)
  2500  01C4  00C9               	movwf	??_ES_Run
  2501  01C5  00A4               	movwf	ES_DeQueue@pReturnEvent
  2502  01C6  084B               	movf	ES_Run@HighestPrior,w
  2503  01C7  00CA               	movwf	??_ES_Run+1
  2504  01C8  074A               	addwf	??_ES_Run+1,w
  2505  01C9  3E18               	addlw	low ((_EventQueues-__stringbase)| (0+32768))
  2506  01CA  0084               	movwf	4
  2507  01CB  118A  2040  118A   	fcall	stringdir
  2508  01CE  22F1  118A         	fcall	_ES_DeQueue
  2509  01D0  3A00               	xorlw	0
  2510  01D1  1D03               	skipz
  2511  01D2  29DE               	goto	l2938
  2512                           
  2513                           ;ES_Framework.c: 236: Ready &= ~BitNum2SetMask[HighestPrior];
  2514  01D3  1283               	bcf	3,5	;RP0=0, select bank0
  2515  01D4  1303               	bcf	3,6	;RP1=0, select bank0
  2516  01D5  084B               	movf	ES_Run@HighestPrior,w
  2517  01D6  3E10               	addlw	low ((_BitNum2SetMask-__stringbase)| (0+32768))
  2518  01D7  0084               	movwf	4
  2519  01D8  118A  2040  118A   	fcall	stringdir
  2520  01DB  3AFF               	xorlw	255
  2521  01DC  00C9               	movwf	??_ES_Run
  2522  01DD  05D9               	andwf	_Ready,f
  2523  01DE                     l2938:	
  2524                           ;ES_Framework.c: 256: }
  2525                           
  2526                           ;ES_Framework.c: 255: break;
  2527                           
  2528  01DE  1283               	bcf	3,5	;RP0=0, select bank0
  2529  01DF  1303               	bcf	3,6	;RP1=0, select bank0
  2530  01E0  084B               	movf	ES_Run@HighestPrior,w
  2531                           
  2532                           ; Switch size 1, requested type "space"
  2533                           ; Number of cases is 4, Range of values is 0 to 3
  2534                           ; switch strategies available:
  2535                           ; Name         Instructions Cycles
  2536                           ; simple_byte           13     7 (average)
  2537                           ; direct_byte           15     7 (fixed)
  2538                           ; jumptable            260     6 (fixed)
  2539                           ;	Chosen strategy is simple_byte
  2540  01E1  3A00               	xorlw	0	; case 0
  2541  01E2  1903               	skipnz
  2542  01E3  2955               	goto	l2912
  2543  01E4  3A01               	xorlw	1	; case 1
  2544  01E5  1903               	skipnz
  2545  01E6  296D               	goto	l2918
  2546  01E7  3A03               	xorlw	3	; case 2
  2547  01E8  1903               	skipnz
  2548  01E9  2985               	goto	l2924
  2549  01EA  3A01               	xorlw	1	; case 3
  2550  01EB  1903               	skipnz
  2551  01EC  299D               	goto	l2930
  2552  01ED  29B6               	goto	l2940
  2553  01EE  29B6               	goto	l2940
  2554  01EF                     l2942:	
  2555                           ;ES_Framework.c: 257: }
  2556                           ;ES_Framework.c: 260: while (IsTimerPending() > 0)
  2557                           
  2558                           
  2559                           ;ES_Framework.c: 261: ES_Timer_RTI_Resp();
  2560  01EF  21FD  118A         	fcall	_ES_Timer_RTI_Resp
  2561  01F1                     l2944:	
  2562  01F1  234F  118A         	fcall	_IsTimerPending
  2563  01F3  3A00               	xorlw	0
  2564  01F4  1D03               	skipz
  2565  01F5  29EF               	goto	l2942
  2566                           
  2567                           ;ES_Framework.c: 265: CheckSPIEvent();
  2568  01F6  22AA  118A         	fcall	_CheckSPIEvent
  2569                           
  2570                           ;ES_Framework.c: 266: CheckUARTRXEvent();
  2571  01F8  22C5  118A         	fcall	_CheckUARTRXEvent
  2572                           
  2573                           ;ES_Framework.c: 267: CheckUARTTXEvent();
  2574  01FA  22DB  118A         	fcall	_CheckUARTTXEvent
  2575  01FC  29B6               	goto	l2940
  2576  01FD                     __end_of_ES_Run:	
  2577                           ;ES_Framework.c: 268: }
  2578                           ;ES_Framework.c: 269: return 0;
  2579                           
  2580  01FD                     __ptext13:	
  2581 ;; *************** function _ES_Timer_RTI_Resp *****************
  2582 ;; Defined at:
  2583 ;;		line 258 in file "ES_Timers.c"
  2584 ;; Parameters:    Size  Location     Type
  2585 ;;		None
  2586 ;; Auto vars:     Size  Location     Type
  2587 ;;		None
  2588 ;; Return value:  Size  Location     Type
  2589 ;;                  1    wreg      void 
  2590 ;; Registers used:
  2591 ;;		wreg, fsr0l, fsr0h, status,2, status,0, pclath, cstack
  2592 ;; Tracked objects:
  2593 ;;		On entry : 0/0
  2594 ;;		On exit  : 0/0
  2595 ;;		Unchanged: 0/0
  2596 ;; Data sizes:     COMMON   BANK0   BANK1   BANK2
  2597 ;;      Params:         0       0       0       0
  2598 ;;      Locals:         0       0       0       0
  2599 ;;      Temps:          0       3       0       0
  2600 ;;      Totals:         0       3       0       0
  2601 ;;Total ram usage:        3 bytes
  2602 ;; Hardware stack levels used:    1
  2603 ;; Hardware stack levels required when called:    8
  2604 ;; This function calls:
  2605 ;;		Absolute function
  2606 ;;		_ES_GetMSBitSet
  2607 ;;		_PostPACSystemService
  2608 ;;		_PostUARTRXService
  2609 ;;		_PostUARTTXService
  2610 ;; This function is called by:
  2611 ;;		_ES_Run
  2612 ;; This function uses a non-reentrant model
  2613 ;;
  2614                           
  2615                           
  2616                           ;psect for function _ES_Timer_RTI_Resp
  2617  01FD                     _ES_Timer_RTI_Resp:	
  2618                           
  2619                           ;ES_Timers.c: 259: static Tflag_t NeedsProcessing;
  2620                           ;ES_Timers.c: 260: static uint8_t NextTimer2Process;
  2621                           ;ES_Timers.c: 261: static ES_Event NewEvent;
  2622                           ;ES_Timers.c: 263: ++time;
  2623                           
  2624                           ;incstack = 0
  2625 ;; hardware stack exceeded
  2626                           ; Regs used in _ES_Timer_RTI_Resp: [wreg-fsr0h+status,2+status,0+pclath+cstack]
  2627  01FD  3001               	movlw	1
  2628  01FE  1683               	bsf	3,5	;RP0=1, select bank1
  2629  01FF  1303               	bcf	3,6	;RP1=0, select bank1
  2630  0200  07D5               	addwf	_time^(0+128),f	;volatile
  2631  0201  1803               	skipnc
  2632  0202  0AD6               	incf	(_time+1)^(0+128),f	;volatile
  2633  0203  3000               	movlw	0
  2634  0204  07D6               	addwf	(_time+1)^(0+128),f	;volatile
  2635                           
  2636                           ;ES_Timers.c: 264: if (TMR_ActiveFlags != 0) {
  2637  0205  1283               	bcf	3,5	;RP0=0, select bank0
  2638  0206  1303               	bcf	3,6	;RP1=0, select bank0
  2639  0207  085B               	movf	_TMR_ActiveFlags,w
  2640  0208  1903               	btfsc	3,2
  2641  0209  0008               	return
  2642                           
  2643                           ;ES_Timers.c: 266: NeedsProcessing = TMR_ActiveFlags;
  2644  020A  00B5               	movwf	??_ES_Timer_RTI_Resp
  2645  020B  00CE               	movwf	ES_Timer_RTI_Resp@NeedsProcessing
  2646  020C                     l2720:	
  2647                           ;ES_Timers.c: 267: do {
  2648                           
  2649                           
  2650                           ;ES_Timers.c: 269: NextTimer2Process = ES_GetMSBitSet(NeedsProcessing);
  2651  020C  084E               	movf	ES_Timer_RTI_Resp@NeedsProcessing,w
  2652  020D  226C  118A         	fcall	_ES_GetMSBitSet
  2653  020F  1283               	bcf	3,5	;RP0=0, select bank0
  2654  0210  1303               	bcf	3,6	;RP1=0, select bank0
  2655  0211  00B5               	movwf	??_ES_Timer_RTI_Resp
  2656  0212  00CF               	movwf	ES_Timer_RTI_Resp@NextTimer2Process
  2657                           
  2658                           ;ES_Timers.c: 271: if (--TMR_TimerArray[NextTimer2Process] == 0) {
  2659  0213  00B5               	movwf	??_ES_Timer_RTI_Resp
  2660  0214  0735               	addwf	??_ES_Timer_RTI_Resp,w
  2661  0215  3EB4               	addlw	(low (_TMR_TimerArray| 0))& (0+255)
  2662  0216  0084               	movwf	4
  2663  0217  3001               	movlw	1
  2664  0218  1383               	bcf	3,7	;select IRP bank1
  2665  0219  0280               	subwf	0,f
  2666  021A  0F84               	incfsz	4,f
  2667  021B  3000               	movlw	0
  2668  021C  1C03               	skipc
  2669  021D  0380               	decf	0,f
  2670  021E  0280               	subwf	0,f
  2671  021F  0384               	decf	4,f
  2672  0220  0800               	movf	0,w
  2673  0221  00B6               	movwf	??_ES_Timer_RTI_Resp+1
  2674  0222  0A84               	incf	4,f
  2675  0223  0800               	movf	0,w
  2676  0224  00B7               	movwf	??_ES_Timer_RTI_Resp+2
  2677  0225  0436               	iorwf	??_ES_Timer_RTI_Resp+1,w
  2678  0226  1D03               	btfss	3,2
  2679  0227  2A5F               	goto	l2730
  2680                           
  2681                           ;ES_Timers.c: 272: NewEvent.EventType = ES_TIMEOUT;
  2682  0228  3004               	movlw	4
  2683  0229  00B5               	movwf	??_ES_Timer_RTI_Resp
  2684  022A  1683               	bsf	3,5	;RP0=1, select bank1
  2685  022B  1303               	bcf	3,6	;RP1=0, select bank1
  2686  022C  00CE               	movwf	ES_Timer_RTI_Resp@NewEvent^(0+128)
  2687                           
  2688                           ;ES_Timers.c: 273: NewEvent.EventParam = NextTimer2Process;
  2689  022D  1283               	bcf	3,5	;RP0=0, select bank0
  2690  022E  1303               	bcf	3,6	;RP1=0, select bank0
  2691  022F  084F               	movf	ES_Timer_RTI_Resp@NextTimer2Process,w
  2692  0230  00B5               	movwf	??_ES_Timer_RTI_Resp
  2693  0231  01B6               	clrf	??_ES_Timer_RTI_Resp+1
  2694  0232  1683               	bsf	3,5	;RP0=1, select bank1
  2695  0233  1303               	bcf	3,6	;RP1=0, select bank1
  2696  0234  00CF               	movwf	(ES_Timer_RTI_Resp@NewEvent^(0+128)+1)
  2697  0235  1283               	bcf	3,5	;RP0=0, select bank0
  2698  0236  1303               	bcf	3,6	;RP1=0, select bank0
  2699  0237  0836               	movf	??_ES_Timer_RTI_Resp+1,w
  2700  0238  1683               	bsf	3,5	;RP0=1, select bank1
  2701  0239  1303               	bcf	3,6	;RP1=0, select bank1
  2702  023A  00D0               	movwf	((ES_Timer_RTI_Resp@NewEvent+1)^(0+128)+1)
  2703                           
  2704                           ;ES_Timers.c: 275: Timer2PostFunc[NextTimer2Process](NewEvent);
  2705  023B  084E               	movf	ES_Timer_RTI_Resp@NewEvent^(0+128),w
  2706  023C  1283               	bcf	3,5	;RP0=0, select bank0
  2707  023D  1303               	bcf	3,6	;RP1=0, select bank0
  2708  023E  00B2               	movwf	PostPACSystemService@ThisEvent
  2709  023F  1683               	bsf	3,5	;RP0=1, select bank1
  2710  0240  1303               	bcf	3,6	;RP1=0, select bank1
  2711  0241  084F               	movf	(ES_Timer_RTI_Resp@NewEvent+1)^(0+128),w
  2712  0242  1283               	bcf	3,5	;RP0=0, select bank0
  2713  0243  1303               	bcf	3,6	;RP1=0, select bank0
  2714  0244  00B3               	movwf	PostPACSystemService@ThisEvent+1
  2715  0245  1683               	bsf	3,5	;RP0=1, select bank1
  2716  0246  1303               	bcf	3,6	;RP1=0, select bank1
  2717  0247  0850               	movf	(ES_Timer_RTI_Resp@NewEvent+2)^(0+128),w
  2718  0248  1283               	bcf	3,5	;RP0=0, select bank0
  2719  0249  1303               	bcf	3,6	;RP1=0, select bank0
  2720  024A  00B4               	movwf	PostPACSystemService@ThisEvent+2
  2721  024B  084F               	movf	ES_Timer_RTI_Resp@NextTimer2Process,w
  2722  024C  3E28               	addlw	low ((_Timer2PostFunc-__stringbase)| (0+32768))
  2723  024D  0084               	movwf	4
  2724  024E  118A  2040  118A   	fcall	stringdir
  2725  0251  118A  2100  118A   	fcall	fptable
  2726                           
  2727                           ;ES_Timers.c: 277: TMR_ActiveFlags &= ~BitNum2SetMask[NextTimer2Process];
  2728  0254  1283               	bcf	3,5	;RP0=0, select bank0
  2729  0255  1303               	bcf	3,6	;RP1=0, select bank0
  2730  0256  084F               	movf	ES_Timer_RTI_Resp@NextTimer2Process,w
  2731  0257  3E10               	addlw	low ((_BitNum2SetMask-__stringbase)| (0+32768))
  2732  0258  0084               	movwf	4
  2733  0259  118A  2040  118A   	fcall	stringdir
  2734  025C  3AFF               	xorlw	255
  2735  025D  00B5               	movwf	??_ES_Timer_RTI_Resp
  2736  025E  05DB               	andwf	_TMR_ActiveFlags,f
  2737  025F                     l2730:	
  2738                           
  2739                           ;ES_Timers.c: 278: }
  2740                           ;ES_Timers.c: 280: NeedsProcessing &= ~BitNum2SetMask[NextTimer2Process];
  2741  025F  084F               	movf	ES_Timer_RTI_Resp@NextTimer2Process,w
  2742  0260  3E10               	addlw	low ((_BitNum2SetMask-__stringbase)| (0+32768))
  2743  0261  0084               	movwf	4
  2744  0262  118A  2040  118A   	fcall	stringdir
  2745  0265  3AFF               	xorlw	255
  2746  0266  00B5               	movwf	??_ES_Timer_RTI_Resp
  2747  0267  05CE               	andwf	ES_Timer_RTI_Resp@NeedsProcessing,f
  2748                           
  2749                           ;ES_Timers.c: 281: } while (NeedsProcessing != 0);
  2750  0268  084E               	movf	ES_Timer_RTI_Resp@NeedsProcessing,w
  2751  0269  1903               	btfsc	3,2
  2752  026A  0008               	return
  2753  026B  2A0C               	goto	l2720
  2754  026C                     __end_of_ES_Timer_RTI_Resp:	
  2755  026C                     __ptext17:	
  2756 ;; *************** function _ES_GetMSBitSet *****************
  2757 ;; Defined at:
  2758 ;;		line 78 in file "ES_LookupTables.c"
  2759 ;; Parameters:    Size  Location     Type
  2760 ;;  Val2Check       1    wreg     unsigned char 
  2761 ;; Auto vars:     Size  Location     Type
  2762 ;;  Val2Check       1    3[BANK0 ] unsigned char 
  2763 ;;  LoopCntr        1    6[BANK0 ] char 
  2764 ;;  Nybble2Test     1    5[BANK0 ] unsigned char 
  2765 ;;  ReturnVal       1    4[BANK0 ] unsigned char 
  2766 ;; Return value:  Size  Location     Type
  2767 ;;                  1    wreg      unsigned char 
  2768 ;; Registers used:
  2769 ;;		wreg, fsr0l, fsr0h, status,2, status,0, pclath
  2770 ;; Tracked objects:
  2771 ;;		On entry : 0/0
  2772 ;;		On exit  : 0/0
  2773 ;;		Unchanged: 0/0
  2774 ;; Data sizes:     COMMON   BANK0   BANK1   BANK2
  2775 ;;      Params:         0       0       0       0
  2776 ;;      Locals:         0       4       0       0
  2777 ;;      Temps:          0       3       0       0
  2778 ;;      Totals:         0       7       0       0
  2779 ;;Total ram usage:        7 bytes
  2780 ;; Hardware stack levels used:    1
  2781 ;; Hardware stack levels required when called:    4
  2782 ;; This function calls:
  2783 ;;		Nothing
  2784 ;; This function is called by:
  2785 ;;		_ES_Run
  2786 ;;		_ES_Timer_RTI_Resp
  2787 ;; This function uses a non-reentrant model
  2788 ;;
  2789                           
  2790                           
  2791                           ;psect for function _ES_GetMSBitSet
  2792  026C                     _ES_GetMSBitSet:	
  2793                           
  2794                           ;incstack = 0
  2795                           ; Regs used in _ES_GetMSBitSet: [wreg-fsr0h+status,2+status,0+pclath]
  2796                           ;ES_GetMSBitSet@Val2Check stored from wreg
  2797  026C  1283               	bcf	3,5	;RP0=0, select bank0
  2798  026D  1303               	bcf	3,6	;RP1=0, select bank0
  2799  026E  00A3               	movwf	ES_GetMSBitSet@Val2Check
  2800                           
  2801                           ;ES_LookupTables.c: 80: int8_t LoopCntr;
  2802                           ;ES_LookupTables.c: 81: uint8_t Nybble2Test;
  2803                           ;ES_LookupTables.c: 82: uint8_t ReturnVal = 128;
  2804  026F  3080               	movlw	128
  2805  0270  00A0               	movwf	??_ES_GetMSBitSet
  2806  0271  00A4               	movwf	ES_GetMSBitSet@ReturnVal
  2807                           
  2808                           ;ES_LookupTables.c: 85: for( LoopCntr = sizeof(Val2Check) * (8/4)-1;
  2809  0272  01A6               	clrf	ES_GetMSBitSet@LoopCntr
  2810  0273  0AA6               	incf	ES_GetMSBitSet@LoopCntr,f
  2811                           
  2812                           ;ES_LookupTables.c: 86: LoopCntr >= 0; LoopCntr--) {
  2813  0274  1BA6               	btfsc	ES_GetMSBitSet@LoopCntr,7
  2814  0275  2AA8               	goto	l2316
  2815  0276                     l2308:	
  2816                           
  2817                           ;ES_LookupTables.c: 88: Nybble2Test = (uint8_t)
  2818                           ;ES_LookupTables.c: 89: ((Val2Check >> (uint8_t)(LoopCntr * 4)) &
  2819                           ;ES_LookupTables.c: 90: 0x0F);
  2820  0276  0823               	movf	ES_GetMSBitSet@Val2Check,w
  2821  0277  00A0               	movwf	??_ES_GetMSBitSet
  2822  0278  0826               	movf	ES_GetMSBitSet@LoopCntr,w
  2823  0279  00A1               	movwf	??_ES_GetMSBitSet+1
  2824  027A  3001               	movlw	1
  2825  027B  1003               	clrc
  2826  027C                     L7:	
  2827  027C  0DA1               	rlf	??_ES_GetMSBitSet+1,f
  2828  027D  3EFF               	addlw	-1
  2829  027E  1003               	clrc
  2830  027F  1D03               	skipz
  2831  0280  2A7C               	goto	L7
  2832  0281  0D21               	rlf	??_ES_GetMSBitSet+1,w
  2833  0282  3E01               	addlw	1
  2834  0283  2A86               	goto	u1184
  2835  0284                     u1185:	
  2836  0284  1003               	clrc
  2837  0285  0CA0               	rrf	??_ES_GetMSBitSet,f
  2838  0286                     u1184:	
  2839  0286  3EFF               	addlw	-1
  2840  0287  1D03               	skipz
  2841  0288  2A84               	goto	u1185
  2842  0289  0820               	movf	??_ES_GetMSBitSet,w
  2843  028A  390F               	andlw	15
  2844  028B  00A2               	movwf	??_ES_GetMSBitSet+2
  2845  028C  00A5               	movwf	ES_GetMSBitSet@Nybble2Test
  2846                           
  2847                           ;ES_LookupTables.c: 91: if ( Nybble2Test != 0){
  2848  028D  0825               	movf	ES_GetMSBitSet@Nybble2Test,w
  2849  028E  1903               	btfsc	3,2
  2850  028F  2AA3               	goto	l2312
  2851                           
  2852                           ;ES_LookupTables.c: 93: ReturnVal = Nybble2MSBitNum[Nybble2Test-1] +
  2853                           ;ES_LookupTables.c: 94: (LoopCntr * 4);
  2854  0290  0826               	movf	ES_GetMSBitSet@LoopCntr,w
  2855  0291  00A0               	movwf	??_ES_GetMSBitSet
  2856  0292  3002               	movlw	2
  2857  0293                     u1205:	
  2858  0293  1003               	clrc
  2859  0294  0DA0               	rlf	??_ES_GetMSBitSet,f
  2860  0295  3EFF               	addlw	-1
  2861  0296  1D03               	skipz
  2862  0297  2A93               	goto	u1205
  2863  0298  0825               	movf	ES_GetMSBitSet@Nybble2Test,w
  2864  0299  3EFF               	addlw	255
  2865  029A  3E01               	addlw	low ((_Nybble2MSBitNum-__stringbase)| (0+32768))
  2866  029B  0084               	movwf	4
  2867  029C  118A  2040  118A   	fcall	stringdir
  2868  029F  0720               	addwf	??_ES_GetMSBitSet,w
  2869  02A0  00A1               	movwf	??_ES_GetMSBitSet+1
  2870  02A1  00A4               	movwf	ES_GetMSBitSet@ReturnVal
  2871                           
  2872                           ;ES_LookupTables.c: 95: break;
  2873  02A2  2AA8               	goto	l2316
  2874  02A3                     l2312:	
  2875  02A3  30FF               	movlw	255
  2876  02A4  00A0               	movwf	??_ES_GetMSBitSet
  2877  02A5  07A6               	addwf	ES_GetMSBitSet@LoopCntr,f
  2878  02A6  1FA6               	btfss	ES_GetMSBitSet@LoopCntr,7
  2879  02A7  2A76               	goto	l2308
  2880  02A8                     l2316:	
  2881                           
  2882                           ;ES_LookupTables.c: 96: }
  2883                           ;ES_LookupTables.c: 97: }
  2884                           ;ES_LookupTables.c: 98: return ReturnVal;
  2885  02A8  0824               	movf	ES_GetMSBitSet@ReturnVal,w
  2886  02A9  0008               	return
  2887  02AA                     __end_of_ES_GetMSBitSet:	
  2888  02AA                     __ptext21:	
  2889 ;; *************** function _CheckSPIEvent *****************
  2890 ;; Defined at:
  2891 ;;		line 287 in file "SPI_SM.c"
  2892 ;; Parameters:    Size  Location     Type
  2893 ;;		None
  2894 ;; Auto vars:     Size  Location     Type
  2895 ;;  SPIEvent        3   20[BANK0 ] struct ES_Event_t
  2896 ;; Return value:  Size  Location     Type
  2897 ;;                  1    wreg      unsigned char 
  2898 ;; Registers used:
  2899 ;;		wreg, fsr0l, fsr0h, status,2, status,0, pclath, cstack
  2900 ;; Tracked objects:
  2901 ;;		On entry : 0/0
  2902 ;;		On exit  : 0/0
  2903 ;;		Unchanged: 0/0
  2904 ;; Data sizes:     COMMON   BANK0   BANK1   BANK2
  2905 ;;      Params:         0       0       0       0
  2906 ;;      Locals:         0       3       0       0
  2907 ;;      Temps:          0       2       0       0
  2908 ;;      Totals:         0       5       0       0
  2909 ;;Total ram usage:        5 bytes
  2910 ;; Hardware stack levels used:    1
  2911 ;; Hardware stack levels required when called:    7
  2912 ;; This function calls:
  2913 ;;		_ES_PostToService
  2914 ;; This function is called by:
  2915 ;;		_ES_Run
  2916 ;;		_ES_CheckUserEvents
  2917 ;; This function uses a non-reentrant model
  2918 ;;
  2919                           
  2920                           
  2921                           ;psect for function _CheckSPIEvent
  2922  02AA                     _CheckSPIEvent:	
  2923                           
  2924                           ;SPI_SM.c: 288: if (newRequest) {
  2925                           
  2926                           ;incstack = 0
  2927 ;; hardware stack exceeded
  2928                           ; Regs used in _CheckSPIEvent: [wreg-fsr0h+status,2+status,0+pclath+cstack]
  2929  02AA  1283               	bcf	3,5	;RP0=0, select bank0
  2930  02AB  1303               	bcf	3,6	;RP1=0, select bank0
  2931  02AC  0863               	movf	_newRequest,w
  2932  02AD  1903               	btfsc	3,2
  2933  02AE  3400               	retlw	0
  2934                           
  2935                           ;SPI_SM.c: 289: ES_Event SPIEvent;
  2936                           ;SPI_SM.c: 290: SPIEvent.EventType = ES_TX_REQUEST_SEND;
  2937  02AF  300D               	movlw	13
  2938  02B0  00B2               	movwf	??_CheckSPIEvent
  2939  02B1  00B4               	movwf	CheckSPIEvent@SPIEvent
  2940                           
  2941                           ;SPI_SM.c: 291: SPIEvent.EventParam = colorRequestData;
  2942  02B2  085D               	movf	_colorRequestData,w
  2943  02B3  00B2               	movwf	??_CheckSPIEvent
  2944  02B4  01B3               	clrf	??_CheckSPIEvent+1
  2945  02B5  00B5               	movwf	CheckSPIEvent@SPIEvent+1
  2946  02B6  0833               	movf	??_CheckSPIEvent+1,w
  2947  02B7  00B6               	movwf	CheckSPIEvent@SPIEvent+2
  2948                           
  2949                           ;SPI_SM.c: 292: ES_PostToService(1, SPIEvent);
  2950  02B8  0834               	movf	CheckSPIEvent@SPIEvent,w
  2951  02B9  00AD               	movwf	ES_PostToService@TheEvent
  2952  02BA  0835               	movf	CheckSPIEvent@SPIEvent+1,w
  2953  02BB  00AE               	movwf	ES_PostToService@TheEvent+1
  2954  02BC  0836               	movf	CheckSPIEvent@SPIEvent+2,w
  2955  02BD  00AF               	movwf	ES_PostToService@TheEvent+2
  2956  02BE  3001               	movlw	1
  2957  02BF  2668               	fcall	_ES_PostToService
  2958                           
  2959                           ;SPI_SM.c: 294: newRequest = ((boolean) 0);
  2960  02C0  1283               	bcf	3,5	;RP0=0, select bank0
  2961  02C1  3001               	movlw	1
  2962  02C2  1303               	bcf	3,6	;RP1=0, select bank0
  2963  02C3  01E3               	clrf	_newRequest
  2964                           
  2965                           ;SPI_SM.c: 295: return ((boolean) !((boolean) 0));
  2966  02C4  0008               	return
  2967  02C5                     __end_of_CheckSPIEvent:	
  2968                           ;SPI_SM.c: 296: }
  2969                           ;SPI_SM.c: 297: return ((boolean) 0);
  2970                           
  2971  02C5                     __ptext20:	
  2972 ;; *************** function _CheckUARTRXEvent *****************
  2973 ;; Defined at:
  2974 ;;		line 343 in file "UART_RX_SM.c"
  2975 ;; Parameters:    Size  Location     Type
  2976 ;;		None
  2977 ;; Auto vars:     Size  Location     Type
  2978 ;;  CommEvent       3   19[BANK0 ] struct ES_Event_t
  2979 ;; Return value:  Size  Location     Type
  2980 ;;                  1    wreg      unsigned char 
  2981 ;; Registers used:
  2982 ;;		wreg, fsr0l, fsr0h, status,2, status,0, pclath, cstack
  2983 ;; Tracked objects:
  2984 ;;		On entry : 0/0
  2985 ;;		On exit  : 0/0
  2986 ;;		Unchanged: 0/0
  2987 ;; Data sizes:     COMMON   BANK0   BANK1   BANK2
  2988 ;;      Params:         0       0       0       0
  2989 ;;      Locals:         0       3       0       0
  2990 ;;      Temps:          0       1       0       0
  2991 ;;      Totals:         0       4       0       0
  2992 ;;Total ram usage:        4 bytes
  2993 ;; Hardware stack levels used:    1
  2994 ;; Hardware stack levels required when called:    7
  2995 ;; This function calls:
  2996 ;;		_ES_PostToService
  2997 ;; This function is called by:
  2998 ;;		_ES_Run
  2999 ;;		_ES_CheckUserEvents
  3000 ;; This function uses a non-reentrant model
  3001 ;;
  3002                           
  3003                           
  3004                           ;psect for function _CheckUARTRXEvent
  3005  02C5                     _CheckUARTRXEvent:	
  3006                           
  3007                           ;UART_RX_SM.c: 344: if (RXFlag) {
  3008                           
  3009                           ;incstack = 0
  3010 ;; hardware stack exceeded
  3011                           ; Regs used in _CheckUARTRXEvent: [wreg-fsr0h+status,2+status,0+pclath+cstack]
  3012  02C5  1283               	bcf	3,5	;RP0=0, select bank0
  3013  02C6  1303               	bcf	3,6	;RP1=0, select bank0
  3014  02C7  0858               	movf	_RXFlag,w
  3015  02C8  1903               	btfsc	3,2
  3016  02C9  3400               	retlw	0
  3017                           
  3018                           ;UART_RX_SM.c: 345: ES_Event CommEvent;
  3019                           ;UART_RX_SM.c: 347: CommEvent.EventType = ES_RX_NEW_PACKET;
  3020  02CA  3007               	movlw	7
  3021  02CB  00B2               	movwf	??_CheckUARTRXEvent
  3022  02CC  00B3               	movwf	CheckUARTRXEvent@CommEvent
  3023                           
  3024                           ;UART_RX_SM.c: 348: CommEvent.EventParam = 0;
  3025  02CD  01B4               	clrf	CheckUARTRXEvent@CommEvent+1
  3026  02CE  01B5               	clrf	CheckUARTRXEvent@CommEvent+2
  3027                           
  3028                           ;UART_RX_SM.c: 349: ES_PostToService(0, CommEvent);
  3029  02CF  00AD               	movwf	ES_PostToService@TheEvent
  3030  02D0  0834               	movf	CheckUARTRXEvent@CommEvent+1,w
  3031  02D1  00AE               	movwf	ES_PostToService@TheEvent+1
  3032  02D2  0835               	movf	CheckUARTRXEvent@CommEvent+2,w
  3033  02D3  00AF               	movwf	ES_PostToService@TheEvent+2
  3034  02D4  3000               	movlw	0
  3035  02D5  2668               	fcall	_ES_PostToService
  3036                           
  3037                           ;UART_RX_SM.c: 351: RXFlag = ((boolean) 0);
  3038  02D6  1283               	bcf	3,5	;RP0=0, select bank0
  3039  02D7  3001               	movlw	1
  3040  02D8  1303               	bcf	3,6	;RP1=0, select bank0
  3041  02D9  01D8               	clrf	_RXFlag
  3042                           
  3043                           ;UART_RX_SM.c: 352: return ((boolean) !((boolean) 0));
  3044  02DA  0008               	return
  3045  02DB                     __end_of_CheckUARTRXEvent:	
  3046                           ;UART_RX_SM.c: 353: }
  3047                           ;UART_RX_SM.c: 354: return ((boolean) 0);
  3048                           
  3049  02DB                     __ptext19:	
  3050 ;; *************** function _CheckUARTTXEvent *****************
  3051 ;; Defined at:
  3052 ;;		line 284 in file "UART_TX_SM.c"
  3053 ;; Parameters:    Size  Location     Type
  3054 ;;		None
  3055 ;; Auto vars:     Size  Location     Type
  3056 ;;  TXEvent         3   19[BANK0 ] struct ES_Event_t
  3057 ;; Return value:  Size  Location     Type
  3058 ;;                  1    wreg      unsigned char 
  3059 ;; Registers used:
  3060 ;;		wreg, fsr0l, fsr0h, status,2, status,0, pclath, cstack
  3061 ;; Tracked objects:
  3062 ;;		On entry : 0/0
  3063 ;;		On exit  : 0/0
  3064 ;;		Unchanged: 0/0
  3065 ;; Data sizes:     COMMON   BANK0   BANK1   BANK2
  3066 ;;      Params:         0       0       0       0
  3067 ;;      Locals:         0       3       0       0
  3068 ;;      Temps:          0       1       0       0
  3069 ;;      Totals:         0       4       0       0
  3070 ;;Total ram usage:        4 bytes
  3071 ;; Hardware stack levels used:    1
  3072 ;; Hardware stack levels required when called:    7
  3073 ;; This function calls:
  3074 ;;		_ES_PostToService
  3075 ;; This function is called by:
  3076 ;;		_ES_Run
  3077 ;;		_ES_CheckUserEvents
  3078 ;; This function uses a non-reentrant model
  3079 ;;
  3080                           
  3081                           
  3082                           ;psect for function _CheckUARTTXEvent
  3083  02DB                     _CheckUARTTXEvent:	
  3084                           
  3085                           ;UART_TX_SM.c: 285: if (sendCompleteFlag) {
  3086                           
  3087                           ;incstack = 0
  3088 ;; hardware stack exceeded
  3089                           ; Regs used in _CheckUARTTXEvent: [wreg-fsr0h+status,2+status,0+pclath+cstack]
  3090  02DB  1283               	bcf	3,5	;RP0=0, select bank0
  3091  02DC  1303               	bcf	3,6	;RP1=0, select bank0
  3092  02DD  0869               	movf	_sendCompleteFlag,w
  3093  02DE  1903               	btfsc	3,2
  3094  02DF  3400               	retlw	0
  3095                           
  3096                           ;UART_TX_SM.c: 286: ES_Event TXEvent;
  3097                           ;UART_TX_SM.c: 287: TXEvent.EventType = ES_TX_SEND_COMPLETE;
  3098  02E0  300C               	movlw	12
  3099  02E1  00B2               	movwf	??_CheckUARTTXEvent
  3100  02E2  00B3               	movwf	CheckUARTTXEvent@TXEvent
  3101                           
  3102                           ;UART_TX_SM.c: 288: TXEvent.EventParam = 0;
  3103  02E3  01B4               	clrf	CheckUARTTXEvent@TXEvent+1
  3104  02E4  01B5               	clrf	CheckUARTTXEvent@TXEvent+2
  3105                           
  3106                           ;UART_TX_SM.c: 289: ES_PostToService(MyPriority, TXEvent);
  3107  02E5  00AD               	movwf	ES_PostToService@TheEvent
  3108  02E6  0834               	movf	CheckUARTTXEvent@TXEvent+1,w
  3109  02E7  00AE               	movwf	ES_PostToService@TheEvent+1
  3110  02E8  0835               	movf	CheckUARTTXEvent@TXEvent+2,w
  3111  02E9  00AF               	movwf	ES_PostToService@TheEvent+2
  3112  02EA  0855               	movf	UART_TX_SM@MyPriority,w
  3113  02EB  2668               	fcall	_ES_PostToService
  3114                           
  3115                           ;UART_TX_SM.c: 291: sendCompleteFlag = ((boolean) 0);
  3116  02EC  1283               	bcf	3,5	;RP0=0, select bank0
  3117  02ED  3001               	movlw	1
  3118  02EE  1303               	bcf	3,6	;RP1=0, select bank0
  3119  02EF  01E9               	clrf	_sendCompleteFlag
  3120                           
  3121                           ;UART_TX_SM.c: 292: return ((boolean) !((boolean) 0));
  3122  02F0  0008               	return
  3123  02F1                     __end_of_CheckUARTTXEvent:	
  3124                           ;UART_TX_SM.c: 293: }
  3125                           ;UART_TX_SM.c: 294: return ((boolean) 0);
  3126                           
  3127  02F1                     __ptext18:	
  3128 ;; *************** function _ES_DeQueue *****************
  3129 ;; Defined at:
  3130 ;;		line 125 in file "ES_Queue.c"
  3131 ;; Parameters:    Size  Location     Type
  3132 ;;  pBlock          1    wreg     PTR struct ES_Event_t
  3133 ;;		 -> Queue3(12), Queue2(12), Queue1(12), Queue0(12), 
  3134 ;;  pReturnEvent    1    4[BANK0 ] PTR struct ES_Event_t
  3135 ;;		 -> ES_Run@ThisEvent(3), 
  3136 ;; Auto vars:     Size  Location     Type
  3137 ;;  pBlock          1   12[BANK0 ] PTR struct ES_Event_t
  3138 ;;		 -> Queue3(12), Queue2(12), Queue1(12), Queue0(12), 
  3139 ;;  pThisQueue      1   13[BANK0 ] PTR struct .
  3140 ;;		 -> Queue3(12), Queue2(12), Queue1(12), Queue0(12), 
  3141 ;;  NumLeft         1   11[BANK0 ] unsigned char 
  3142 ;;  saveCrit        1   10[BANK0 ] unsigned char 
  3143 ;; Return value:  Size  Location     Type
  3144 ;;                  1    wreg      unsigned char 
  3145 ;; Registers used:
  3146 ;;		wreg, fsr0l, fsr0h, status,2, status,0, pclath, cstack
  3147 ;; Tracked objects:
  3148 ;;		On entry : 0/0
  3149 ;;		On exit  : 0/0
  3150 ;;		Unchanged: 0/0
  3151 ;; Data sizes:     COMMON   BANK0   BANK1   BANK2
  3152 ;;      Params:         0       1       0       0
  3153 ;;      Locals:         0       4       0       0
  3154 ;;      Temps:          0       5       0       0
  3155 ;;      Totals:         0      10       0       0
  3156 ;;Total ram usage:       10 bytes
  3157 ;; Hardware stack levels used:    1
  3158 ;; Hardware stack levels required when called:    5
  3159 ;; This function calls:
  3160 ;;		___bmul
  3161 ;; This function is called by:
  3162 ;;		_ES_Run
  3163 ;; This function uses a non-reentrant model
  3164 ;;
  3165                           
  3166                           
  3167                           ;psect for function _ES_DeQueue
  3168  02F1                     _ES_DeQueue:	
  3169                           
  3170                           ;incstack = 0
  3171                           ; Regs used in _ES_DeQueue: [wreg-fsr0h+status,2+status,0+pclath+cstack]
  3172                           ;ES_DeQueue@pBlock stored from wreg
  3173  02F1  1283               	bcf	3,5	;RP0=0, select bank0
  3174  02F2  1303               	bcf	3,6	;RP1=0, select bank0
  3175  02F3  00AC               	movwf	ES_DeQueue@pBlock
  3176                           
  3177                           ;ES_Queue.c: 127: unsigned char saveCrit;
  3178                           ;ES_Queue.c: 128: pQueue_t pThisQueue;
  3179                           ;ES_Queue.c: 129: uint8_t NumLeft;
  3180                           ;ES_Queue.c: 131: pThisQueue = (pQueue_t)pBlock;
  3181  02F4  00A5               	movwf	??_ES_DeQueue
  3182  02F5  00AD               	movwf	ES_DeQueue@pThisQueue
  3183                           
  3184                           ;ES_Queue.c: 132: if ( pThisQueue->NumEntries > 0)
  3185  02F6  3E02               	addlw	2
  3186  02F7  0084               	movwf	4
  3187  02F8  1783               	bsf	3,7	;select IRP bank2
  3188  02F9  0800               	movf	0,w
  3189  02FA  1903               	btfsc	3,2
  3190  02FB  2B43               	goto	l2498
  3191                           
  3192                           ;ES_Queue.c: 133: {
  3193                           ;ES_Queue.c: 134: do{ saveCrit = INTCON; GIE = 0;}while(0);
  3194  02FC  080B               	movf	11,w	;volatile
  3195  02FD  00A5               	movwf	??_ES_DeQueue
  3196  02FE  00AA               	movwf	ES_DeQueue@saveCrit
  3197  02FF  138B               	bcf	11,7	;volatile
  3198                           
  3199                           ;ES_Queue.c: 135: *pReturnEvent = pBlock[ 1 + pThisQueue->CurrentIndex ];
  3200  0300  3003               	movlw	3
  3201  0301  00A5               	movwf	??_ES_DeQueue
  3202  0302  00A0               	movwf	___bmul@multiplicand
  3203  0303  0A2D               	incf	ES_DeQueue@pThisQueue,w
  3204  0304  0084               	movwf	4
  3205  0305  0800               	movf	0,w
  3206  0306  3E01               	addlw	1
  3207  0307  2656  118A         	fcall	___bmul
  3208  0309  1283               	bcf	3,5	;RP0=0, select bank0
  3209  030A  1303               	bcf	3,6	;RP1=0, select bank0
  3210  030B  072C               	addwf	ES_DeQueue@pBlock,w
  3211  030C  00A6               	movwf	??_ES_DeQueue+1
  3212  030D  0084               	movwf	4
  3213  030E  1783               	bsf	3,7	;select IRP bank2
  3214  030F  0800               	movf	0,w
  3215  0310  00A7               	movwf	??_ES_DeQueue+2
  3216  0311  0A84               	incf	4,f
  3217  0312  0800               	movf	0,w
  3218  0313  00A8               	movwf	??_ES_DeQueue+3
  3219  0314  0A84               	incf	4,f
  3220  0315  0800               	movf	0,w
  3221  0316  00A9               	movwf	??_ES_DeQueue+4
  3222  0317  0824               	movf	ES_DeQueue@pReturnEvent,w
  3223  0318  0084               	movwf	4
  3224  0319  0827               	movf	??_ES_DeQueue+2,w
  3225  031A  1383               	bcf	3,7	;select IRP bank0
  3226  031B  0080               	movwf	0
  3227  031C  0A84               	incf	4,f
  3228  031D  0828               	movf	??_ES_DeQueue+3,w
  3229  031E  0080               	movwf	0
  3230  031F  0A84               	incf	4,f
  3231  0320  0829               	movf	??_ES_DeQueue+4,w
  3232  0321  0080               	movwf	0
  3233                           
  3234                           ;ES_Queue.c: 137: pThisQueue->CurrentIndex++;
  3235  0322  3001               	movlw	1
  3236  0323  00A5               	movwf	??_ES_DeQueue
  3237  0324  0A2D               	incf	ES_DeQueue@pThisQueue,w
  3238  0325  0084               	movwf	4
  3239  0326  0825               	movf	??_ES_DeQueue,w
  3240  0327  1783               	bsf	3,7	;select IRP bank2
  3241  0328  0780               	addwf	0,f
  3242                           
  3243                           ;ES_Queue.c: 138: if (pThisQueue->CurrentIndex >= pThisQueue->QueueSize)
  3244  0329  082D               	movf	ES_DeQueue@pThisQueue,w
  3245  032A  0084               	movwf	4
  3246  032B  0800               	movf	0,w
  3247  032C  00A5               	movwf	??_ES_DeQueue
  3248  032D  0A2D               	incf	ES_DeQueue@pThisQueue,w
  3249  032E  0084               	movwf	4
  3250  032F  0800               	movf	0,w
  3251  0330  00A6               	movwf	??_ES_DeQueue+1
  3252  0331  0825               	movf	??_ES_DeQueue,w
  3253  0332  0226               	subwf	??_ES_DeQueue+1,w
  3254  0333  1C03               	skipc
  3255  0334  2B38               	goto	l2494
  3256                           
  3257                           ;ES_Queue.c: 139: pThisQueue->CurrentIndex = 0;
  3258  0335  0A2D               	incf	ES_DeQueue@pThisQueue,w
  3259  0336  0084               	movwf	4
  3260  0337  0180               	clrf	0
  3261  0338                     l2494:	
  3262                           
  3263                           ;ES_Queue.c: 141: NumLeft = --pThisQueue->NumEntries;
  3264  0338  082D               	movf	ES_DeQueue@pThisQueue,w
  3265  0339  3E02               	addlw	2
  3266  033A  0084               	movwf	4
  3267  033B  3001               	movlw	1
  3268  033C  0280               	subwf	0,f
  3269  033D  0800               	movf	0,w
  3270  033E  00A5               	movwf	??_ES_DeQueue
  3271  033F  00AB               	movwf	ES_DeQueue@NumLeft
  3272                           
  3273                           ;ES_Queue.c: 142: {INTCON = saveCrit;};
  3274  0340  082A               	movf	ES_DeQueue@saveCrit,w
  3275  0341  008B               	movwf	11	;volatile
  3276                           
  3277                           ;ES_Queue.c: 143: }else {
  3278  0342  2B4D               	goto	l2504
  3279  0343                     l2498:	
  3280                           
  3281                           ;ES_Queue.c: 144: (*pReturnEvent).EventType = ES_NO_EVENT;
  3282  0343  0824               	movf	ES_DeQueue@pReturnEvent,w
  3283  0344  0084               	movwf	4
  3284  0345  1383               	bcf	3,7	;select IRP bank0
  3285  0346  0180               	clrf	0
  3286                           
  3287                           ;ES_Queue.c: 145: (*pReturnEvent).EventParam = 0;
  3288  0347  0A24               	incf	ES_DeQueue@pReturnEvent,w
  3289  0348  0084               	movwf	4
  3290  0349  0180               	clrf	0
  3291  034A  0A84               	incf	4,f
  3292  034B  0180               	clrf	0
  3293                           
  3294                           ;ES_Queue.c: 146: NumLeft = 0;
  3295  034C  01AB               	clrf	ES_DeQueue@NumLeft
  3296  034D                     l2504:	
  3297                           
  3298                           ;ES_Queue.c: 147: }
  3299                           ;ES_Queue.c: 148: return NumLeft;
  3300  034D  082B               	movf	ES_DeQueue@NumLeft,w
  3301  034E  0008               	return
  3302  034F                     __end_of_ES_DeQueue:	
  3303  034F                     __ptext12:	
  3304 ;; *************** function _IsTimerPending *****************
  3305 ;; Defined at:
  3306 ;;		line 78 in file "ES_Port.c"
  3307 ;; Parameters:    Size  Location     Type
  3308 ;;		None
  3309 ;; Auto vars:     Size  Location     Type
  3310 ;;		None
  3311 ;; Return value:  Size  Location     Type
  3312 ;;                  1    wreg      unsigned char 
  3313 ;; Registers used:
  3314 ;;		wreg, status,2, status,0
  3315 ;; Tracked objects:
  3316 ;;		On entry : 0/0
  3317 ;;		On exit  : 0/0
  3318 ;;		Unchanged: 0/0
  3319 ;; Data sizes:     COMMON   BANK0   BANK1   BANK2
  3320 ;;      Params:         0       0       0       0
  3321 ;;      Locals:         0       0       0       0
  3322 ;;      Temps:          0       0       0       0
  3323 ;;      Totals:         0       0       0       0
  3324 ;;Total ram usage:        0 bytes
  3325 ;; Hardware stack levels used:    1
  3326 ;; Hardware stack levels required when called:    4
  3327 ;; This function calls:
  3328 ;;		Nothing
  3329 ;; This function is called by:
  3330 ;;		_ES_Run
  3331 ;; This function uses a non-reentrant model
  3332 ;;
  3333                           
  3334                           
  3335                           ;psect for function _IsTimerPending
  3336  034F                     _IsTimerPending:	
  3337                           
  3338                           ;ES_Port.c: 79: if (TickCount > 0) {
  3339                           
  3340                           ;incstack = 0
  3341                           ; Regs used in _IsTimerPending: [wreg+status,2+status,0]
  3342  034F  1283               	bcf	3,5	;RP0=0, select bank0
  3343  0350  1303               	bcf	3,6	;RP1=0, select bank0
  3344  0351  085C               	movf	_TickCount,w
  3345  0352  1903               	btfsc	3,2
  3346  0353  3400               	retlw	0
  3347                           
  3348                           ;ES_Port.c: 80: TickCount--;
  3349  0354  3001               	movlw	1
  3350  0355  02DC               	subwf	_TickCount,f
  3351                           
  3352                           ;ES_Port.c: 81: return (1);
  3353  0356  3401               	retlw	1
  3354  0357                     __end_of_IsTimerPending:	
  3355                           ;ES_Port.c: 83: return (0);
  3356                           
  3357                           ;ES_Port.c: 82: } else
  3358                           
  3359  0357                     __ptext9:	
  3360 ;; *************** function _RunSPIService *****************
  3361 ;; Defined at:
  3362 ;;		line 170 in file "SPI_SM.c"
  3363 ;; Parameters:    Size  Location     Type
  3364 ;;  ThisEvent       3    0[BANK0 ] struct ES_Event_t
  3365 ;; Auto vars:     Size  Location     Type
  3366 ;;  ReturnEvent     3    3[BANK0 ] struct ES_Event_t
  3367 ;; Return value:  Size  Location     Type
  3368 ;;                  3    0[BANK0 ] struct ES_Event_t
  3369 ;; Registers used:
  3370 ;;		wreg, status,2
  3371 ;; Tracked objects:
  3372 ;;		On entry : 0/0
  3373 ;;		On exit  : 0/0
  3374 ;;		Unchanged: 0/0
  3375 ;; Data sizes:     COMMON   BANK0   BANK1   BANK2
  3376 ;;      Params:         0       3       0       0
  3377 ;;      Locals:         0       3       0       0
  3378 ;;      Temps:          0       0       0       0
  3379 ;;      Totals:         0       6       0       0
  3380 ;;Total ram usage:        6 bytes
  3381 ;; Hardware stack levels used:    1
  3382 ;; Hardware stack levels required when called:    4
  3383 ;; This function calls:
  3384 ;;		Nothing
  3385 ;; This function is called by:
  3386 ;;		_ES_Run
  3387 ;; This function uses a non-reentrant model
  3388 ;;
  3389                           
  3390                           
  3391                           ;psect for function _RunSPIService
  3392  0357                     _RunSPIService:	
  3393                           
  3394                           ;SPI_SM.c: 171: ES_Event ReturnEvent;
  3395                           ;SPI_SM.c: 172: ReturnEvent.EventType = ES_NO_EVENT;
  3396                           
  3397                           ;incstack = 0
  3398                           ; Regs used in _RunSPIService: [wreg+status,2]
  3399  0357  1283               	bcf	3,5	;RP0=0, select bank0
  3400  0358  1303               	bcf	3,6	;RP1=0, select bank0
  3401  0359  01A3               	clrf	RunSPIService@ReturnEvent
  3402                           
  3403                           ;SPI_SM.c: 176: return ReturnEvent;
  3404  035A  0823               	movf	RunSPIService@ReturnEvent,w
  3405  035B  00A0               	movwf	?_RunSPIService
  3406  035C  0824               	movf	RunSPIService@ReturnEvent+1,w
  3407  035D  00A1               	movwf	?_RunSPIService+1
  3408  035E  0825               	movf	RunSPIService@ReturnEvent+2,w
  3409  035F  00A2               	movwf	?_RunSPIService+2
  3410  0360  0008               	return
  3411  0361                     __end_of_RunSPIService:	
  3412  0361                     __ptext26:	
  3413 ;; *************** function _InitUARTTXService *****************
  3414 ;; Defined at:
  3415 ;;		line 91 in file "UART_TX_SM.c"
  3416 ;; Parameters:    Size  Location     Type
  3417 ;;  Priority        1   18[BANK0 ] unsigned char 
  3418 ;; Auto vars:     Size  Location     Type
  3419 ;;  ThisEvent       3   20[BANK0 ] struct ES_Event_t
  3420 ;; Return value:  Size  Location     Type
  3421 ;;                  1    wreg      unsigned char 
  3422 ;; Registers used:
  3423 ;;		wreg, fsr0l, fsr0h, status,2, status,0, pclath, cstack
  3424 ;; Tracked objects:
  3425 ;;		On entry : 0/0
  3426 ;;		On exit  : 0/0
  3427 ;;		Unchanged: 0/0
  3428 ;; Data sizes:     COMMON   BANK0   BANK1   BANK2
  3429 ;;      Params:         0       1       0       0
  3430 ;;      Locals:         0       3       0       0
  3431 ;;      Temps:          0       1       0       0
  3432 ;;      Totals:         0       5       0       0
  3433 ;;Total ram usage:        5 bytes
  3434 ;; Hardware stack levels used:    1
  3435 ;; Hardware stack levels required when called:    7
  3436 ;; This function calls:
  3437 ;;		_ES_PostToService
  3438 ;; This function is called by:
  3439 ;;		_ES_Initialize
  3440 ;; This function uses a non-reentrant model
  3441 ;;
  3442                           
  3443                           
  3444                           ;psect for function _InitUARTTXService
  3445  0361                     _InitUARTTXService:	
  3446                           
  3447                           ;UART_TX_SM.c: 92: ES_Event ThisEvent;
  3448                           ;UART_TX_SM.c: 94: MyPriority = Priority;
  3449                           
  3450                           ;incstack = 0
  3451 ;; hardware stack exceeded
  3452                           ; Regs used in _InitUARTTXService: [wreg-fsr0h+status,2+status,0+pclath+cstack]
  3453  0361  1283               	bcf	3,5	;RP0=0, select bank0
  3454  0362  1303               	bcf	3,6	;RP1=0, select bank0
  3455  0363  0832               	movf	InitUARTTXService@Priority,w
  3456  0364  00B3               	movwf	??_InitUARTTXService
  3457  0365  00D5               	movwf	UART_TX_SM@MyPriority
  3458  0366  3002               	movlw	2
  3459                           
  3460                           ;UART_TX_SM.c: 96: length = 0;
  3461  0367  01E2               	clrf	_length
  3462  0368  01E1               	clrf	_index
  3463                           
  3464                           ;UART_TX_SM.c: 100: ThisEvent.EventType = ES_INIT;
  3465  0369  00B3               	movwf	??_InitUARTTXService
  3466  036A  00B4               	movwf	InitUARTTXService@ThisEvent
  3467                           
  3468                           ;UART_TX_SM.c: 101: if (ES_PostToService(MyPriority, ThisEvent) == ((boolean) !((boolean
      +                          ) 0))) {
  3469  036B  00AD               	movwf	ES_PostToService@TheEvent
  3470  036C  0835               	movf	InitUARTTXService@ThisEvent+1,w
  3471  036D  00AE               	movwf	ES_PostToService@TheEvent+1
  3472  036E  0836               	movf	InitUARTTXService@ThisEvent+2,w
  3473  036F  00AF               	movwf	ES_PostToService@TheEvent+2
  3474  0370  0855               	movf	UART_TX_SM@MyPriority,w
  3475  0371  2668  118A         	fcall	_ES_PostToService
  3476  0373  3A01               	xorlw	1
  3477  0374  1903               	btfsc	3,2
  3478                           
  3479                           ;UART_TX_SM.c: 102: return ((boolean) !((boolean) 0));
  3480  0375  3401               	retlw	1
  3481                           
  3482                           ;UART_TX_SM.c: 104: return ((boolean) 0);
  3483                           
  3484                           ;UART_TX_SM.c: 103: } else {
  3485  0376  3400               	retlw	0
  3486  0377                     __end_of_InitUARTTXService:	
  3487  0377                     __ptext24:	
  3488 ;; *************** function _InitSPIService *****************
  3489 ;; Defined at:
  3490 ;;		line 83 in file "SPI_SM.c"
  3491 ;; Parameters:    Size  Location     Type
  3492 ;;  Priority        1   18[BANK0 ] unsigned char 
  3493 ;; Auto vars:     Size  Location     Type
  3494 ;;  ThisEvent       3   20[BANK0 ] struct ES_Event_t
  3495 ;; Return value:  Size  Location     Type
  3496 ;;                  1    wreg      unsigned char 
  3497 ;; Registers used:
  3498 ;;		wreg, fsr0l, fsr0h, status,2, status,0, pclath, cstack
  3499 ;; Tracked objects:
  3500 ;;		On entry : 0/0
  3501 ;;		On exit  : 0/0
  3502 ;;		Unchanged: 0/0
  3503 ;; Data sizes:     COMMON   BANK0   BANK1   BANK2
  3504 ;;      Params:         0       1       0       0
  3505 ;;      Locals:         0       3       0       0
  3506 ;;      Temps:          0       1       0       0
  3507 ;;      Totals:         0       5       0       0
  3508 ;;Total ram usage:        5 bytes
  3509 ;; Hardware stack levels used:    1
  3510 ;; Hardware stack levels required when called:    7
  3511 ;; This function calls:
  3512 ;;		_ES_PostToService
  3513 ;; This function is called by:
  3514 ;;		_ES_Initialize
  3515 ;; This function uses a non-reentrant model
  3516 ;;
  3517                           
  3518                           
  3519                           ;psect for function _InitSPIService
  3520  0377                     _InitSPIService:	
  3521                           
  3522                           ;SPI_SM.c: 84: ES_Event ThisEvent;
  3523                           ;SPI_SM.c: 86: MyPriority = Priority;
  3524                           
  3525                           ;incstack = 0
  3526 ;; hardware stack exceeded
  3527                           ; Regs used in _InitSPIService: [wreg-fsr0h+status,2+status,0+pclath+cstack]
  3528  0377  1283               	bcf	3,5	;RP0=0, select bank0
  3529  0378  1303               	bcf	3,6	;RP1=0, select bank0
  3530  0379  0832               	movf	InitSPIService@Priority,w
  3531  037A  00B3               	movwf	??_InitSPIService
  3532  037B  00D1               	movwf	SPI_SM@MyPriority
  3533                           
  3534                           ;SPI_SM.c: 88: radioPing = ((boolean) 0);
  3535  037C  01E5               	clrf	_radioPing
  3536                           
  3537                           ;SPI_SM.c: 90: GIE = 0;
  3538  037D  138B               	bcf	11,7	;volatile
  3539                           
  3540                           ;SPI_SM.c: 94: SSPSTAT = 0b00000000;
  3541  037E  1683               	bsf	3,5	;RP0=1, select bank1
  3542  037F  1303               	bcf	3,6	;RP1=0, select bank1
  3543  0380  0194               	clrf	20	;volatile
  3544                           
  3545                           ;SPI_SM.c: 102: TRISC7 = 0;
  3546  0381  1387               	bcf	7,7	;volatile
  3547                           
  3548                           ;SPI_SM.c: 103: TRISB4 = 1;
  3549  0382  1606               	bsf	6,4	;volatile
  3550                           
  3551                           ;SPI_SM.c: 104: TRISB6 = 1;
  3552  0383  1706               	bsf	6,6	;volatile
  3553                           
  3554                           ;SPI_SM.c: 105: TRISC6 = 1;
  3555  0384  1707               	bsf	7,6	;volatile
  3556                           
  3557                           ;SPI_SM.c: 109: SSPBUF = 0xFF;
  3558  0385  30FF               	movlw	255
  3559  0386  1283               	bcf	3,5	;RP0=0, select bank0
  3560  0387  1303               	bcf	3,6	;RP1=0, select bank0
  3561  0388  0093               	movwf	19	;volatile
  3562                           
  3563                           ;SPI_SM.c: 114: SSPCON = 0b00110100;
  3564  0389  3034               	movlw	52
  3565  038A  0094               	movwf	20	;volatile
  3566                           
  3567                           ;SPI_SM.c: 117: currentState = Waiting4Command;
  3568  038B  01D2               	clrf	SPI_SM@currentState
  3569                           
  3570                           ;SPI_SM.c: 119: SSPIE = 0;
  3571  038C  1683               	bsf	3,5	;RP0=1, select bank1
  3572  038D  1303               	bcf	3,6	;RP1=0, select bank1
  3573  038E  118C               	bcf	12,3	;volatile
  3574                           
  3575                           ;SPI_SM.c: 120: PEIE = 0;
  3576  038F  130B               	bcf	11,6	;volatile
  3577                           
  3578                           ;SPI_SM.c: 121: GIE = 1;
  3579  0390  178B               	bsf	11,7	;volatile
  3580                           
  3581                           ;SPI_SM.c: 124: ThisEvent.EventType = ES_INIT;
  3582  0391  3002               	movlw	2
  3583  0392  1283               	bcf	3,5	;RP0=0, select bank0
  3584  0393  1303               	bcf	3,6	;RP1=0, select bank0
  3585  0394  00B3               	movwf	??_InitSPIService
  3586  0395  00B4               	movwf	InitSPIService@ThisEvent
  3587                           
  3588                           ;SPI_SM.c: 125: if (ES_PostToService(MyPriority, ThisEvent) == ((boolean) !((boolean) 0)
      +                          )) {
  3589  0396  00AD               	movwf	ES_PostToService@TheEvent
  3590  0397  0835               	movf	InitSPIService@ThisEvent+1,w
  3591  0398  00AE               	movwf	ES_PostToService@TheEvent+1
  3592  0399  0836               	movf	InitSPIService@ThisEvent+2,w
  3593  039A  00AF               	movwf	ES_PostToService@TheEvent+2
  3594  039B  0851               	movf	SPI_SM@MyPriority,w
  3595  039C  2668  118A         	fcall	_ES_PostToService
  3596  039E  3A01               	xorlw	1
  3597  039F  1903               	btfsc	3,2
  3598                           
  3599                           ;SPI_SM.c: 126: return ((boolean) !((boolean) 0));
  3600  03A0  3401               	retlw	1
  3601                           
  3602                           ;SPI_SM.c: 128: return ((boolean) 0);
  3603                           
  3604                           ;SPI_SM.c: 127: } else {
  3605  03A1  3400               	retlw	0
  3606  03A2                     __end_of_InitSPIService:	
  3607  03A2                     __ptext25:	
  3608 ;; *************** function _InitUARTRXService *****************
  3609 ;; Defined at:
  3610 ;;		line 143 in file "UART_RX_SM.c"
  3611 ;; Parameters:    Size  Location     Type
  3612 ;;  Priority        1   18[BANK0 ] unsigned char 
  3613 ;; Auto vars:     Size  Location     Type
  3614 ;;  ThisEvent       3   20[BANK0 ] struct ES_Event_t
  3615 ;; Return value:  Size  Location     Type
  3616 ;;                  1    wreg      unsigned char 
  3617 ;; Registers used:
  3618 ;;		wreg, fsr0l, fsr0h, status,2, status,0, pclath, cstack
  3619 ;; Tracked objects:
  3620 ;;		On entry : 0/0
  3621 ;;		On exit  : 0/0
  3622 ;;		Unchanged: 0/0
  3623 ;; Data sizes:     COMMON   BANK0   BANK1   BANK2
  3624 ;;      Params:         0       1       0       0
  3625 ;;      Locals:         0       3       0       0
  3626 ;;      Temps:          0       1       0       0
  3627 ;;      Totals:         0       5       0       0
  3628 ;;Total ram usage:        5 bytes
  3629 ;; Hardware stack levels used:    1
  3630 ;; Hardware stack levels required when called:    7
  3631 ;; This function calls:
  3632 ;;		_ES_PostToService
  3633 ;; This function is called by:
  3634 ;;		_ES_Initialize
  3635 ;; This function uses a non-reentrant model
  3636 ;;
  3637                           
  3638                           
  3639                           ;psect for function _InitUARTRXService
  3640  03A2                     _InitUARTRXService:	
  3641                           
  3642                           ;UART_RX_SM.c: 144: ES_Event ThisEvent;
  3643                           ;UART_RX_SM.c: 146: MyPriority = Priority;
  3644                           
  3645                           ;incstack = 0
  3646 ;; hardware stack exceeded
  3647                           ; Regs used in _InitUARTRXService: [wreg-fsr0h+status,2+status,0+pclath+cstack]
  3648  03A2  1283               	bcf	3,5	;RP0=0, select bank0
  3649  03A3  1303               	bcf	3,6	;RP1=0, select bank0
  3650  03A4  0832               	movf	InitUARTRXService@Priority,w
  3651  03A5  00B3               	movwf	??_InitUARTRXService
  3652  03A6  00D7               	movwf	_MyPriority
  3653                           
  3654                           ;UART_RX_SM.c: 149: readRXIndex = readStatIndex = readRespIndex = 1;
  3655  03A7  3001               	movlw	1
  3656  03A8  00E7               	movwf	_readRespIndex
  3657  03A9  00E8               	movwf	_readStatIndex
  3658  03AA  00B3               	movwf	??_InitUARTRXService
  3659  03AB  00E6               	movwf	_readRXIndex
  3660                           
  3661                           ;UART_RX_SM.c: 150: do{ if (readRXIndex == 0) { readRXIndex = 1; writeRXIndex = 0; } els
      +                          e { readRXIndex = 0; writeRXIndex = 1; } }while(0);
  3662  03AC  0866               	movf	_readRXIndex,w
  3663  03AD  1D03               	btfss	3,2
  3664  03AE  2BB3               	goto	l2756
  3665  03AF  01E6               	clrf	_readRXIndex
  3666  03B0  0AE6               	incf	_readRXIndex,f
  3667  03B1  01EA               	clrf	_writeRXIndex
  3668  03B2  2BB6               	goto	l2760
  3669  03B3                     l2756:	
  3670  03B3  01E6               	clrf	_readRXIndex
  3671  03B4  01EA               	clrf	_writeRXIndex
  3672  03B5  0AEA               	incf	_writeRXIndex,f
  3673  03B6                     l2760:	
  3674                           ;UART_RX_SM.c: 151: do{ if (readStatIndex == 0) { readStatIndex = 1; writeStatIndex = 0;
      +                           } else { readStatIndex = 0; writeStatIndex = 1; } }while(0);
  3675                           
  3676  03B6  0868               	movf	_readStatIndex,w
  3677  03B7  1D03               	btfss	3,2
  3678  03B8  2BBD               	goto	l2766
  3679  03B9  01E8               	clrf	_readStatIndex
  3680  03BA  0AE8               	incf	_readStatIndex,f
  3681  03BB  01EC               	clrf	_writeStatIndex
  3682  03BC  2BC0               	goto	l2770
  3683  03BD                     l2766:	
  3684  03BD  01E8               	clrf	_readStatIndex
  3685  03BE  01EC               	clrf	_writeStatIndex
  3686  03BF  0AEC               	incf	_writeStatIndex,f
  3687  03C0                     l2770:	
  3688                           ;UART_RX_SM.c: 152: do{ if (readRespIndex == 0) { readRespIndex = 1; writeRespIndex = 0;
      +                           } else { readRespIndex = 0; writeRespIndex = 1; } }while(0);
  3689                           
  3690  03C0  0867               	movf	_readRespIndex,w
  3691  03C1  1D03               	btfss	3,2
  3692  03C2  2BC7               	goto	l2776
  3693  03C3  01E7               	clrf	_readRespIndex
  3694  03C4  0AE7               	incf	_readRespIndex,f
  3695  03C5  01EB               	clrf	_writeRespIndex
  3696  03C6  2BCA               	goto	l406
  3697  03C7                     l2776:	
  3698  03C7  01E7               	clrf	_readRespIndex
  3699  03C8  01EB               	clrf	_writeRespIndex
  3700  03C9  0AEB               	incf	_writeRespIndex,f
  3701  03CA                     l406:	
  3702                           
  3703                           ;UART_RX_SM.c: 155: superPACAddr = 0;
  3704  03CA  1683               	bsf	3,5	;RP0=1, select bank1
  3705  03CB  3002               	movlw	2
  3706  03CC  1303               	bcf	3,6	;RP1=0, select bank1
  3707  03CD  01D3               	clrf	_superPACAddr^(0+128)
  3708  03CE  01D4               	clrf	(_superPACAddr+1)^(0+128)
  3709                           
  3710                           ;UART_RX_SM.c: 158: ThisEvent.EventType = ES_INIT;
  3711  03CF  1283               	bcf	3,5	;RP0=0, select bank0
  3712  03D0  1303               	bcf	3,6	;RP1=0, select bank0
  3713  03D1  00B3               	movwf	??_InitUARTRXService
  3714  03D2  00B4               	movwf	InitUARTRXService@ThisEvent
  3715                           
  3716                           ;UART_RX_SM.c: 159: if (ES_PostToService(MyPriority, ThisEvent) == ((boolean) !((boolean
      +                          ) 0))) {
  3717  03D3  00AD               	movwf	ES_PostToService@TheEvent
  3718  03D4  0835               	movf	InitUARTRXService@ThisEvent+1,w
  3719  03D5  00AE               	movwf	ES_PostToService@TheEvent+1
  3720  03D6  0836               	movf	InitUARTRXService@ThisEvent+2,w
  3721  03D7  00AF               	movwf	ES_PostToService@TheEvent+2
  3722  03D8  0857               	movf	_MyPriority,w
  3723  03D9  2668  118A         	fcall	_ES_PostToService
  3724  03DB  3A01               	xorlw	1
  3725  03DC  1903               	btfsc	3,2
  3726                           
  3727                           ;UART_RX_SM.c: 160: return ((boolean) !((boolean) 0));
  3728  03DD  3401               	retlw	1
  3729                           
  3730                           ;UART_RX_SM.c: 162: return ((boolean) 0);
  3731                           
  3732                           ;UART_RX_SM.c: 161: } else {
  3733  03DE  3400               	retlw	0
  3734  03DF                     __end_of_InitUARTRXService:	
  3735  03DF                     __ptext3:	
  3736 ;; *************** function _RunUARTTXService *****************
  3737 ;; Defined at:
  3738 ;;		line 146 in file "UART_TX_SM.c"
  3739 ;; Parameters:    Size  Location     Type
  3740 ;;  ThisEvent       3   22[BANK0 ] struct ES_Event_t
  3741 ;; Auto vars:     Size  Location     Type
  3742 ;;  ReturnEvent     3   29[BANK0 ] struct ES_Event_t
  3743 ;; Return value:  Size  Location     Type
  3744 ;;                  3   22[BANK0 ] struct ES_Event_t
  3745 ;; Registers used:
  3746 ;;		wreg, fsr0l, fsr0h, status,2, status,0, pclath, cstack
  3747 ;; Tracked objects:
  3748 ;;		On entry : 0/0
  3749 ;;		On exit  : 0/0
  3750 ;;		Unchanged: 0/0
  3751 ;; Data sizes:     COMMON   BANK0   BANK1   BANK2
  3752 ;;      Params:         0       3       0       0
  3753 ;;      Locals:         0       5       0       0
  3754 ;;      Temps:          0       4       0       0
  3755 ;;      Totals:         0      12       0       0
  3756 ;;Total ram usage:       12 bytes
  3757 ;; Hardware stack levels used:    1
  3758 ;; Hardware stack levels required when called:    8
  3759 ;; This function calls:
  3760 ;;		_ES_Timer_InitTimer
  3761 ;;		_TX_appendXBeePacket
  3762 ;;		_TX_clearXBeePacket
  3763 ;;		_TX_getChecksum
  3764 ;;		_retrySend
  3765 ;; This function is called by:
  3766 ;;		_ES_Run
  3767 ;; This function uses a non-reentrant model
  3768 ;;
  3769                           
  3770                           
  3771                           ;psect for function _RunUARTTXService
  3772  03DF                     _RunUARTTXService:	
  3773                           
  3774                           ;UART_TX_SM.c: 147: ES_Event ReturnEvent;
  3775                           ;UART_TX_SM.c: 148: ReturnEvent.EventType = ES_NO_EVENT;
  3776                           
  3777                           ;incstack = 0
  3778 ;; hardware stack exceeded
  3779                           ; Regs used in _RunUARTTXService: [wreg-fsr0h+status,2+status,0+pclath+cstack]
  3780  03DF  1283               	bcf	3,5	;RP0=0, select bank0
  3781  03E0  1303               	bcf	3,6	;RP1=0, select bank0
  3782  03E1  01BD               	clrf	RunUARTTXService@ReturnEvent
  3783                           
  3784                           ;UART_TX_SM.c: 150: switch (currentState) {
  3785  03E2  2CC0               	goto	l2672
  3786  03E3                     l2600:	
  3787                           ;UART_TX_SM.c: 151: case InitPTXState:
  3788                           
  3789                           
  3790                           ;UART_TX_SM.c: 152: if (ThisEvent.EventType == ES_INIT)
  3791  03E3  3002               	movlw	2
  3792  03E4  0636               	xorwf	RunUARTTXService@ThisEvent,w
  3793  03E5  1D03               	btfss	3,2
  3794  03E6  2CCE               	goto	l2674
  3795  03E7  2C8D               	goto	l552
  3796  03E8                     l2604:	
  3797                           ;UART_TX_SM.c: 157: case TX_Idle:
  3798                           
  3799                           ;UART_TX_SM.c: 155: }
  3800                           ;UART_TX_SM.c: 156: break;
  3801                           
  3802                           ;UART_TX_SM.c: 153: {
  3803                           ;UART_TX_SM.c: 154: currentState = TX_Idle;
  3804                           
  3805                           
  3806                           ;UART_TX_SM.c: 158: if (ThisEvent.EventType == ES_TX_REQUEST_SEND) {
  3807  03E8  300D               	movlw	13
  3808  03E9  0636               	xorwf	RunUARTTXService@ThisEvent,w
  3809  03EA  1D03               	btfss	3,2
  3810  03EB  2C41               	goto	l2640
  3811                           
  3812                           ;UART_TX_SM.c: 160: if (((superPACAddr[0] | superPACAddr[1] == 0) ? ((boolean) 0) : ((bo
      +                          olean) !((boolean) 0)))) {
  3813  03EC  1683               	bsf	3,5	;RP0=1, select bank1
  3814  03ED  1303               	bcf	3,6	;RP1=0, select bank1
  3815  03EE  0852               	movf	(UART_TX_SM@superPACAddr^(0+128)+1),w
  3816  03EF  1D03               	btfss	3,2
  3817  03F0  2BF3               	goto	u1490
  3818  03F1  3001               	movlw	1
  3819  03F2  2BF4               	goto	u1500
  3820  03F3                     u1490:	
  3821  03F3  3000               	movlw	0
  3822  03F4                     u1500:	
  3823  03F4  1283               	bcf	3,5	;RP0=0, select bank0
  3824  03F5  1303               	bcf	3,6	;RP1=0, select bank0
  3825  03F6  00B9               	movwf	??_RunUARTTXService
  3826  03F7  01BA               	clrf	??_RunUARTTXService+1
  3827  03F8  1683               	bsf	3,5	;RP0=1, select bank1
  3828  03F9  1303               	bcf	3,6	;RP1=0, select bank1
  3829  03FA  0451               	iorwf	UART_TX_SM@superPACAddr^(0+128),w
  3830  03FB  1283               	bcf	3,5	;RP0=0, select bank0
  3831  03FC  1303               	bcf	3,6	;RP1=0, select bank0
  3832  03FD  00BB               	movwf	??_RunUARTTXService+2
  3833  03FE  083A               	movf	??_RunUARTTXService+1,w
  3834  03FF  00BC               	movwf	??_RunUARTTXService+3
  3835  0400  043B               	iorwf	??_RunUARTTXService+2,w
  3836  0401  1D03               	btfss	3,2
  3837  0402  2C06               	goto	l2610
  3838  0403  3001               	movlw	1
  3839  0404  00C0               	movwf	_RunUARTTXService$644
  3840  0405  2C07               	goto	L5
  3841  0406                     l2610:	
  3842  0406  01C0               	clrf	_RunUARTTXService$644
  3843  0407                     L5:	
  3844  0407  01C1               	clrf	_RunUARTTXService$644+1
  3845  0408  0840               	movf	_RunUARTTXService$644,w
  3846  0409  0441               	iorwf	_RunUARTTXService$644+1,w
  3847  040A  1903               	btfsc	3,2
  3848  040B  2C3C               	goto	l536
  3849                           
  3850                           ;UART_TX_SM.c: 162: TXError = ((boolean) 0);
  3851  040C  1683               	bsf	3,5	;RP0=1, select bank1
  3852  040D  1303               	bcf	3,6	;RP1=0, select bank1
  3853  040E  01D7               	clrf	_TXError^(0+128)
  3854                           
  3855                           ;UART_TX_SM.c: 164: TX_clearXBeePacket();
  3856  040F  273A  118A         	fcall	_TX_clearXBeePacket
  3857                           
  3858                           ;UART_TX_SM.c: 165: TX_appendXBeePacket(0x7E);
  3859  0411  307E               	movlw	126
  3860  0412  24DA  118A         	fcall	_TX_appendXBeePacket
  3861                           
  3862                           ;UART_TX_SM.c: 166: TX_appendXBeePacket(0x00);
  3863  0414  3000               	movlw	0
  3864  0415  24DA  118A         	fcall	_TX_appendXBeePacket
  3865                           
  3866                           ;UART_TX_SM.c: 167: TX_appendXBeePacket(0x05);
  3867  0417  3005               	movlw	5
  3868  0418  24DA  118A         	fcall	_TX_appendXBeePacket
  3869                           
  3870                           ;UART_TX_SM.c: 168: TX_appendXBeePacket(0x01);
  3871  041A  3001               	movlw	1
  3872  041B  24DA  118A         	fcall	_TX_appendXBeePacket
  3873                           
  3874                           ;UART_TX_SM.c: 169: TX_appendXBeePacket(0x01);
  3875  041D  3001               	movlw	1
  3876  041E  24DA  118A         	fcall	_TX_appendXBeePacket
  3877                           
  3878                           ;UART_TX_SM.c: 170: TX_appendXBeePacket(superPACAddr[0]);
  3879  0420  1683               	bsf	3,5	;RP0=1, select bank1
  3880  0421  1303               	bcf	3,6	;RP1=0, select bank1
  3881  0422  0851               	movf	UART_TX_SM@superPACAddr^(0+128),w
  3882  0423  24DA  118A         	fcall	_TX_appendXBeePacket
  3883                           
  3884                           ;UART_TX_SM.c: 171: TX_appendXBeePacket(superPACAddr[1]);
  3885  0425  1683               	bsf	3,5	;RP0=1, select bank1
  3886  0426  1303               	bcf	3,6	;RP1=0, select bank1
  3887  0427  0852               	movf	(UART_TX_SM@superPACAddr^(0+128)+1),w
  3888  0428  24DA  118A         	fcall	_TX_appendXBeePacket
  3889                           
  3890                           ;UART_TX_SM.c: 172: TX_appendXBeePacket((uint8_t) ThisEvent.EventParam);
  3891  042A  1283               	bcf	3,5	;RP0=0, select bank0
  3892  042B  1303               	bcf	3,6	;RP1=0, select bank0
  3893  042C  0837               	movf	RunUARTTXService@ThisEvent+1,w
  3894  042D  24DA  118A         	fcall	_TX_appendXBeePacket
  3895                           
  3896                           ;UART_TX_SM.c: 173: TX_appendXBeePacket(TX_getChecksum());
  3897  042F  2740  118A         	fcall	_TX_getChecksum
  3898  0431  24DA  118A         	fcall	_TX_appendXBeePacket
  3899                           
  3900                           ;UART_TX_SM.c: 176: currentState = TX_SendMSG;
  3901  0433  3002               	movlw	2
  3902  0434  1283               	bcf	3,5	;RP0=0, select bank0
  3903  0435  1303               	bcf	3,6	;RP1=0, select bank0
  3904  0436  00B9               	movwf	??_RunUARTTXService
  3905  0437  00D6               	movwf	UART_TX_SM@currentState
  3906                           
  3907                           ;UART_TX_SM.c: 177: TXIE = 1;
  3908  0438  1683               	bsf	3,5	;RP0=1, select bank1
  3909  0439  1303               	bcf	3,6	;RP1=0, select bank1
  3910  043A  160C               	bsf	12,4	;volatile
  3911                           
  3912                           ;UART_TX_SM.c: 178: } else {
  3913  043B  2CCE               	goto	l2674
  3914  043C                     l536:	
  3915                           
  3916                           ;UART_TX_SM.c: 179: TXError = ((boolean) !((boolean) 0));
  3917  043C  1683               	bsf	3,5	;RP0=1, select bank1
  3918  043D  1303               	bcf	3,6	;RP1=0, select bank1
  3919  043E  01D7               	clrf	_TXError^(0+128)
  3920  043F  0AD7               	incf	_TXError^(0+128),f
  3921                           
  3922                           ;UART_TX_SM.c: 180: }
  3923                           ;UART_TX_SM.c: 181: } else if (ThisEvent.EventType == ES_TX_NEW_ADDR) {
  3924  0440  2CCE               	goto	l2674
  3925  0441                     l2640:	
  3926  0441  300B               	movlw	11
  3927  0442  1283               	bcf	3,5	;RP0=0, select bank0
  3928  0443  0636               	xorwf	RunUARTTXService@ThisEvent,w
  3929  0444  1D03               	btfss	3,2
  3930  0445  2CCE               	goto	l2674
  3931                           
  3932                           ;UART_TX_SM.c: 182: superPACAddr[0] = (ThisEvent.EventParam >> 8) & 0xFF;
  3933  0446  0838               	movf	RunUARTTXService@ThisEvent+2,w
  3934  0447  00B9               	movwf	??_RunUARTTXService
  3935  0448  1683               	bsf	3,5	;RP0=1, select bank1
  3936  0449  1303               	bcf	3,6	;RP1=0, select bank1
  3937  044A  00D1               	movwf	UART_TX_SM@superPACAddr^(0+128)
  3938                           
  3939                           ;UART_TX_SM.c: 183: superPACAddr[1] = ThisEvent.EventParam & 0xFF;
  3940  044B  1283               	bcf	3,5	;RP0=0, select bank0
  3941  044C  1303               	bcf	3,6	;RP1=0, select bank0
  3942  044D  0837               	movf	RunUARTTXService@ThisEvent+1,w
  3943  044E  00B9               	movwf	??_RunUARTTXService
  3944  044F  1683               	bsf	3,5	;RP0=1, select bank1
  3945  0450  1303               	bcf	3,6	;RP1=0, select bank1
  3946  0451  00D2               	movwf	(UART_TX_SM@superPACAddr^(0+128)+1)
  3947                           
  3948                           ;UART_TX_SM.c: 187: }
  3949                           ;UART_TX_SM.c: 188: break;
  3950  0452  2CCE               	goto	l2674
  3951  0453                     l2646:	
  3952                           ;UART_TX_SM.c: 190: case TX_SendMSG:
  3953                           
  3954                           
  3955                           ;UART_TX_SM.c: 191: if (ThisEvent.EventType == ES_TX_SEND_COMPLETE) {
  3956  0453  300C               	movlw	12
  3957  0454  1283               	bcf	3,5	;RP0=0, select bank0
  3958  0455  0636               	xorwf	RunUARTTXService@ThisEvent,w
  3959  0456  1D03               	btfss	3,2
  3960  0457  2CCE               	goto	l2674
  3961                           
  3962                           ;UART_TX_SM.c: 192: currentState = TX_WaitStatus;
  3963  0458  3003               	movlw	3
  3964  0459  00B9               	movwf	??_RunUARTTXService
  3965  045A  00D6               	movwf	UART_TX_SM@currentState
  3966                           
  3967                           ;UART_TX_SM.c: 193: ES_Timer_InitTimer(1, (76 / 4));
  3968  045B  3013               	movlw	19
  3969  045C  00A0               	movwf	ES_Timer_InitTimer@NewTime
  3970  045D  3001               	movlw	1
  3971  045E  01A1               	clrf	ES_Timer_InitTimer@NewTime+1
  3972  045F  26CA  118A         	fcall	_ES_Timer_InitTimer
  3973                           
  3974                           ;UART_TX_SM.c: 194: }
  3975                           ;UART_TX_SM.c: 195: break;
  3976  0461  2CCE               	goto	l2674
  3977  0462                     l2652:	
  3978                           ;UART_TX_SM.c: 197: case TX_WaitStatus:
  3979                           
  3980                           
  3981                           ;UART_TX_SM.c: 198: {
  3982                           ;UART_TX_SM.c: 200: if (ThisEvent.EventType == ES_TIMEOUT) {
  3983  0462  3004               	movlw	4
  3984  0463  1283               	bcf	3,5	;RP0=0, select bank0
  3985  0464  1303               	bcf	3,6	;RP1=0, select bank0
  3986  0465  0636               	xorwf	RunUARTTXService@ThisEvent,w
  3987  0466  1D03               	btfss	3,2
  3988  0467  2C88               	goto	l2660
  3989                           
  3990                           ;UART_TX_SM.c: 201: if (ThisEvent.EventParam == 1) {
  3991  0468  0337               	decf	RunUARTTXService@ThisEvent+1,w
  3992  0469  0438               	iorwf	RunUARTTXService@ThisEvent+2,w
  3993  046A  1D03               	btfss	3,2
  3994  046B  2C85               	goto	l2658
  3995                           
  3996                           ;psect for function _retrySend
  3997                           
  3998                           ;UART_TX_SM.c: 203: retrySend();
  3999  046C                     i1L_retrySend:	
  4000  046C                     i1Ll2376:	
  4001                           
  4002                           ;UART_TX_SM.c: 307: ES_Event LEDEvent;
  4003                           ;UART_TX_SM.c: 308: LEDEvent.EventType = ES_TOGGLE_LED;
  4004  046C  300F               	movlw	15
  4005  046D  1283               	bcf	3,5	;RP0=0, select bank0
  4006  046E  1303               	bcf	3,6	;RP1=0, select bank0
  4007  046F  00B2               	movwf	??_retrySend
  4008  0470  00B3               	movwf	retrySend@LEDEvent
  4009  0471                     i1Ll2378:	
  4010                           
  4011                           ;UART_TX_SM.c: 309: LEDEvent.EventParam = TX_ERR_TIMEOUT;
  4012  0471  01B4               	clrf	retrySend@LEDEvent+1
  4013  0472  01B5               	clrf	retrySend@LEDEvent+2
  4014  0473                     i1Ll2380:	
  4015                           
  4016                           ;UART_TX_SM.c: 310: ES_PostToService(3, LEDEvent);
  4017  0473  0833               	movf	retrySend@LEDEvent,w
  4018  0474  00AD               	movwf	ES_PostToService@TheEvent
  4019  0475  0834               	movf	retrySend@LEDEvent+1,w
  4020  0476  00AE               	movwf	ES_PostToService@TheEvent+1
  4021  0477  0835               	movf	retrySend@LEDEvent+2,w
  4022  0478  00AF               	movwf	ES_PostToService@TheEvent+2
  4023  0479  3003               	movlw	3
  4024  047A  2668  118A         	fcall	_ES_PostToService
  4025  047C                     i1Ll2382:	
  4026                           
  4027                           ;UART_TX_SM.c: 313: index = 0;
  4028  047C  1283               	bcf	3,5	;RP0=0, select bank0
  4029  047D  1303               	bcf	3,6	;RP1=0, select bank0
  4030  047E  01E1               	clrf	_index
  4031  047F                     i1Ll2384:	
  4032                           
  4033                           ;UART_TX_SM.c: 314: currentState = TX_SendMSG;
  4034  047F  3002               	movlw	2
  4035  0480  00B2               	movwf	??_retrySend
  4036  0481  00D6               	movwf	UART_TX_SM@currentState
  4037  0482                     i1Ll2386:	
  4038                           
  4039                           ;UART_TX_SM.c: 315: TXIE = 1;
  4040  0482  1683               	bsf	3,5	;RP0=1, select bank1
  4041  0483  1303               	bcf	3,6	;RP1=0, select bank1
  4042  0484  160C               	bsf	12,4	;volatile
  4043  0485                     i1Ll595:	
  4044  0485                     l2658:	
  4045                           
  4046                           ;UART_TX_SM.c: 204: }
  4047                           ;UART_TX_SM.c: 205: currentState = TX_Idle;
  4048  0485  1283               	bcf	3,5	;RP0=0, select bank0
  4049  0486  1303               	bcf	3,6	;RP1=0, select bank0
  4050  0487  2C8D               	goto	l552
  4051  0488                     l2660:	
  4052                           ;UART_TX_SM.c: 206: } else if (ThisEvent.EventType == ES_TX_STATUS) {
  4053                           
  4054  0488  300E               	movlw	14
  4055  0489  0636               	xorwf	RunUARTTXService@ThisEvent,w
  4056  048A  1903               	btfsc	3,2
  4057  048B  2CAA               	goto	l2668
  4058  048C  2CCE               	goto	l2674
  4059  048D                     l552:	
  4060                           ;UART_TX_SM.c: 208: case 0:
  4061                           
  4062                           ;UART_TX_SM.c: 207: switch (ThisEvent.EventParam) {
  4063                           
  4064                           
  4065                           ;UART_TX_SM.c: 209: currentState = TX_Idle;
  4066  048D  01D6               	clrf	UART_TX_SM@currentState
  4067  048E  0AD6               	incf	UART_TX_SM@currentState,f
  4068                           
  4069                           ;UART_TX_SM.c: 210: break;
  4070  048F  2CCE               	goto	l2674
  4071  0490                     l2664:	
  4072                           ;UART_TX_SM.c: 211: case 1:
  4073                           
  4074  0490                     i2L__ptext4:	
  4075                           ;UART_TX_SM.c: 212: case 2:
  4076                           ;UART_TX_SM.c: 213: case 3:
  4077                           ;UART_TX_SM.c: 214: retrySend();
  4078                           
  4079                           
  4080                           ;psect for function _retrySend
  4081  0490                     i2L_retrySend:	
  4082  0490                     i2Ll2376:	
  4083                           
  4084                           ;UART_TX_SM.c: 307: ES_Event LEDEvent;
  4085                           ;UART_TX_SM.c: 308: LEDEvent.EventType = ES_TOGGLE_LED;
  4086  0490  300F               	movlw	15
  4087  0491  1283               	bcf	3,5	;RP0=0, select bank0
  4088  0492  1303               	bcf	3,6	;RP1=0, select bank0
  4089  0493  00B2               	movwf	??_retrySend
  4090  0494  00B3               	movwf	retrySend@LEDEvent
  4091  0495                     i2Ll2378:	
  4092                           
  4093                           ;UART_TX_SM.c: 309: LEDEvent.EventParam = TX_ERR_TIMEOUT;
  4094  0495  01B4               	clrf	retrySend@LEDEvent+1
  4095  0496  01B5               	clrf	retrySend@LEDEvent+2
  4096  0497                     i2Ll2380:	
  4097                           
  4098                           ;UART_TX_SM.c: 310: ES_PostToService(3, LEDEvent);
  4099  0497  0833               	movf	retrySend@LEDEvent,w
  4100  0498  00AD               	movwf	ES_PostToService@TheEvent
  4101  0499  0834               	movf	retrySend@LEDEvent+1,w
  4102  049A  00AE               	movwf	ES_PostToService@TheEvent+1
  4103  049B  0835               	movf	retrySend@LEDEvent+2,w
  4104  049C  00AF               	movwf	ES_PostToService@TheEvent+2
  4105  049D  3003               	movlw	3
  4106  049E  2668  118A         	fcall	_ES_PostToService
  4107  04A0                     i2Ll2382:	
  4108                           
  4109                           ;UART_TX_SM.c: 313: index = 0;
  4110  04A0  1283               	bcf	3,5	;RP0=0, select bank0
  4111  04A1  1303               	bcf	3,6	;RP1=0, select bank0
  4112  04A2  01E1               	clrf	_index
  4113  04A3                     i2Ll2384:	
  4114                           
  4115                           ;UART_TX_SM.c: 314: currentState = TX_SendMSG;
  4116  04A3  3002               	movlw	2
  4117  04A4  00B2               	movwf	??_retrySend
  4118  04A5  00D6               	movwf	UART_TX_SM@currentState
  4119  04A6                     i2Ll2386:	
  4120                           
  4121                           ;UART_TX_SM.c: 315: TXIE = 1;
  4122  04A6  1683               	bsf	3,5	;RP0=1, select bank1
  4123  04A7  1303               	bcf	3,6	;RP1=0, select bank1
  4124  04A8  160C               	bsf	12,4	;volatile
  4125  04A9                     i2Ll595:	
  4126                           
  4127                           ;UART_TX_SM.c: 218: }
  4128                           
  4129                           ;UART_TX_SM.c: 217: break;
  4130                           
  4131                           ;UART_TX_SM.c: 216: default:
  4132                           
  4133                           ;UART_TX_SM.c: 215: break;
  4134  04A9  2CCE               	goto	l2674
  4135  04AA                     l2668:	
