Microchip MPLAB XC8 Compiler V1.36 ()

Linker command line:

--edf=C:\Program Files (x86)\Microchip\xc8\v1.36\dat\en_msgs.txt -cs \
  -h+dist/HW_Stack/production\PAC.production.sym \
  --cmf=dist/HW_Stack/production\PAC.production.cmf -z -Q16F690 \
  -oC:\Users\TAOffice\AppData\Local\Temp\s6f4.2 \
  -Mdist/HW_Stack/production/PAC.production.map -E1 -ver=XC8 \
  -ASTACK=0150h-016fh -pstack=STACK -ACODE=00h-07FFhx2 -ASTRCODE=00h-0FFFh \
  -ASTRING=00h-0FFhx16 -ACONST=00h-0FFhx16 -AENTRY=00h-0FFhx16 \
  -ACOMMON=070h-07Fh -ABANK0=020h-06Fh -ABANK1=0A0h-0EFh \
  -ABANK2=0120h-016Fh -ARAM=020h-06Fh,0A0h-0EFh,0120h-016Fh \
  -AABS1=020h-07Fh,0A0h-0EFh,0120h-016Fh -ASFR0=00h-01Fh -ASFR1=080h-09Fh \
  -ASFR2=0100h-011Fh -ASFR3=0180h-01EFh \
  -preset_vec=00h,intentry=04h,init,end_init -ppowerup=CODE -pcinit=CODE \
  -pfunctab=CODE -ACONFIG=02007h-02007h -pconfig=CONFIG -DCONFIG=2 \
  -AIDLOC=02000h-02003h -pidloc=IDLOC -DIDLOC=2 -AEEDATA=00h-0FFh/02100h \
  -peeprom_data=EEDATA -DEEDATA=2 -DCODE=2 -DSTRCODE=2 -DSTRING=2 -DCONST=2 \
  -DENTRY=2 -k C:\Users\TAOffice\AppData\Local\Temp\s6f4.obj \
  dist/HW_Stack/production\PAC.production.obj 

Object code version is 3.11

Machine type is 16F690



                Name                               Link     Load   Length Selector   Space Scale
C:\Users\TAOffice\AppData\Local\Temp\s6f4.obj
                end_init                             11       11        2        8       0
                reset_vec                             0        0        2        0       0
                config                             2007     2007        1     400E       0
dist/HW_Stack/production\PAC.production.obj
                cinit                                13       13       2D        8       0
                functab                             100      100       22        2       0
                intentry                              4        4        D        8       0
                text32                              E77      E77      189     1CEE       0
                text22                              759      759       80        2       0
                text14                              122      122      637        2       0
                text1                               7D9      7D9       1A        2       0
                maintext                             78       78       2B       F0       0
                cstackBANK0                          20       20       2E       20       1
                cstackCOMMON                         70       70        D       70       1
                clrtext                             7F3      7F3        8        2       0
                bssBANK2                            120      120       30      120       1
                dataBANK1                            E1       E1        6       A0       1
                bssBANK1                             A0       A0       41       A0       1
                dataBANK0                            6D       6D        3       20       1
                bssBANK0                             4E       4E       1F       20       1
                bssCOMMON                            7D       7D        1       70       1
                strings                              40       40       38       80       0

TOTAL           Name                               Link     Load   Length     Space
        CLASS   STACK          

        CLASS   CODE           
                end_init                             11       11        2         0
                cinit                                13       13       2D         0
                functab                             100      100       22         0
                intentry                              4        4        D         0
                reset_vec                             0        0        2         0
                text32                              E77      E77      189         0
                text22                              759      759       80         0
                text14                              122      122      637         0
                text1                               7D9      7D9       1A         0
                maintext                             78       78       2B         0
                clrtext                             7F3      7F3        8         0

        CLASS   STRCODE        

        CLASS   STRING         
                strings                              40       40       38         0

        CLASS   CONST          

        CLASS   ENTRY          

        CLASS   COMMON         
                cstackCOMMON                         70       70        D         1
                bssCOMMON                            7D       7D        1         1

        CLASS   BANK0          
                cstackBANK0                          20       20       2E         1
                dataBANK0                            6D       6D        3         1
                bssBANK0                             4E       4E       1F         1

        CLASS   BANK1          
                dataBANK1                            E1       E1        6         1
                bssBANK1                             A0       A0       41         1

        CLASS   BANK2          
                bssBANK2                            120      120       30         1

        CLASS   RAM            

        CLASS   ABS1           
                abs_s1                               7E       7E        2         1

        CLASS   SFR0           

        CLASS   SFR1           

        CLASS   SFR2           

        CLASS   SFR3           

        CLASS   CONFIG         
                config                             2007     2007        1         0

        CLASS   IDLOC          

        CLASS   EEDATA         

        CLASS   BANK3          



SEGMENTS        Name                           Load    Length   Top    Selector   Space  Class     Delta

                reset_vec                      000000  000002  000002         0       0  CODE        2
                intentry                       000004  00003C  000040         8       0  CODE        2
                cstackBANK0                    000020  000050  000070        20       1  BANK0       1
                cstackCOMMON                   000070  00000E  00007E        70       1  COMMON      1
                strings                        000040  000038  000078        80       0  STRING      2
                bssBANK1                       0000A0  000047  0000E7        A0       1  BANK1       1
                maintext                       000078  00002B  0000A3        F0       0  CODE        2
                bssBANK2                       000120  000030  000150       120       1  BANK2       1
                functab                        000100  0006FB  0007FB         2       0  CODE        2
                text32                         000E77  000189  001000      1CEE       0  CODE        2
                config                         002007  000001  002008      400E       0  CONFIG      2


UNUSED ADDRESS RANGES

        Name                Unused          Largest block    Delta
        BANK1            00E7-00EF              9           1
        BANK2            0150-016F             20           1
        CODE             0002-0003              2           2
                         00A3-00FF             5D
                         07FB-0E76              5
        CONST            0002-0003              2           2
                         00A3-00FF             5D
                         07FB-0E76            100
        EEDATA           2100-21FF            100           2
        ENTRY            0002-0003              2           2
                         00A3-00FF             5D
                         07FB-0E76            100
        IDLOC            2000-2003              4           2
        RAM              00E7-00EF              9           1
                         0150-016F             20
        SFR0             0000-001F             20           1
        SFR1             0080-009F             20           1
        SFR2             0100-011F             20           1
        SFR3             0180-01EF             70           1
        STACK            0150-016F             20           1
        STRCODE          0002-0003              2           2
                         00A3-00FF             5D
                         07FB-0E76            67C
        STRING           0002-0003              2           2
                         00A3-00FF             5D
                         07FB-0E76            100

                                  Symbol Table

?_RunPACSystemService               cstackBANK0  0024
?_RunSPIService                     cstackBANK0  0020
?_RunUARTRXService                  cstackBANK0  0032
?_RunUARTTXService                  cstackBANK0  0036
CheckSPIEvent@SPIEvent              cstackBANK0  0034
CheckUARTRXEvent@CommEvent          cstackBANK0  0033
CheckUARTTXEvent@TXEvent            cstackBANK0  0033
ES_DeQueue@NumLeft                  cstackBANK0  002B
ES_DeQueue@pBlock                   cstackBANK0  002C
ES_DeQueue@pReturnEvent             cstackBANK0  0024
ES_DeQueue@pThisQueue               cstackBANK0  002D
ES_DeQueue@saveCrit                 cstackBANK0  002A
ES_EnQueueFIFO@Event2Add            cstackBANK0  0024
ES_EnQueueFIFO@InsertionPoint       cstackBANK0  002A
ES_EnQueueFIFO@pBlock               cstackBANK0  002B
ES_EnQueueFIFO@pThisQueue           cstackBANK0  002C
ES_EnQueueFIFO@saveCrit             cstackBANK0  0029
ES_GetMSBitSet@LoopCntr             cstackBANK0  0026
ES_GetMSBitSet@Nybble2Test          cstackBANK0  0025
ES_GetMSBitSet@ReturnVal            cstackBANK0  0024
ES_GetMSBitSet@Val2Check            cstackBANK0  0023
ES_InitQueue@BlockSize              cstackBANK0  0020
ES_InitQueue@pBlock                 cstackBANK0  0022
ES_InitQueue@pThisQueue             cstackBANK0  0023
ES_Initialize@i                     cstackBANK0  0039
ES_PostToService@TheEvent           cstackBANK0  002D
ES_PostToService@WhichService       cstackBANK0  0031
ES_Run@HighestPrior                 cstackBANK0  004B
ES_Run@ThisEvent                    bssBANK1     00DE
ES_Timer_InitTimer@NewTime          cstackBANK0  0020
ES_Timer_InitTimer@Num              cstackBANK0  0023
ES_Timer_RTI_Resp@NeedsProcessing   bssBANK0     004E
ES_Timer_RTI_Resp@NewEvent          bssBANK1     00CE
ES_Timer_RTI_Resp@NextTimer2Process bssBANK0     004F
InitPACSystemService@Priority       cstackBANK0  0032
InitPACSystemService@ThisEvent      cstackBANK0  0034
InitSPIService@Priority             cstackBANK0  0032
InitSPIService@ThisEvent            cstackBANK0  0034
InitUARTRXService@Priority          cstackBANK0  0032
InitUARTRXService@ThisEvent         cstackBANK0  0034
InitUARTTXService@Priority          cstackBANK0  0032
InitUARTTXService@ThisEvent         cstackBANK0  0034
PACSystemService@MyPriority         bssBANK0     0050
PostPACSystemService@ThisEvent      cstackBANK0  0032
PostUARTRXService@ThisEvent         cstackBANK0  0032
PostUARTTXService@ThisEvent         cstackBANK0  0032
RunPACSystemService@ReturnEvent     cstackBANK0  0028
RunPACSystemService@ThisEvent       cstackBANK0  0024
RunSPIService@ReturnEvent           cstackBANK0  0023
RunSPIService@ThisEvent             cstackBANK0  0020
RunUARTRXService@ReturnEvent        cstackBANK0  003C
RunUARTRXService@TXEvent            cstackBANK0  0044
RunUARTRXService@ThisEvent          cstackBANK0  0032
RunUARTRXService@addrEvent          cstackBANK0  0041
RunUARTRXService@i                  cstackBANK0  0047
RunUARTRXService@i_541              cstackBANK0  0048
RunUARTRXService@msgAddr            cstackBANK0  003F
RunUARTTXService@ReturnEvent        cstackBANK0  003D
RunUARTTXService@ThisEvent          cstackBANK0  0036
SPIIntResponse@readByte             cstackCOMMON 0076
SPI_SM@MyPriority                   bssBANK0     0051
SPI_SM@currentState                 bssBANK0     0052
TX_appendXBeePacket@newByte         cstackBANK0  0021
TX_getChecksum@chk                  cstackBANK0  0021
TX_getChecksum@i                    cstackBANK0  0022
UARTRXIntResponse@bodyByteCount     bssBANK0     0053
UARTRXIntResponse@checksum          bssBANK0     0054
UARTRXIntResponse@currentByteIndex  bssCOMMON    007D
UARTRXIntResponse@newByte           cstackCOMMON 0077
UART_TX_SM@MyPriority               bssBANK0     0055
UART_TX_SM@currentState             bssBANK0     0056
UART_TX_SM@superPACAddr             bssBANK1     00D1
_ANS11                              (abs)        08FB
_ANS4                               (abs)        08F4
_ANS7                               (abs)        08F7
_ANS9                               (abs)        08F9
_BF                                 (abs)        04A0
_BRG16                              (abs)        04DB
_BRGH                               (abs)        04C2
_BitNum2SetMask                     strings      0055
_CREN                               (abs)        00C4
_CheckSPIEvent                      text14       02AA
_CheckUARTRXEvent                   text14       02C5
_CheckUARTTXEvent                   text14       02DB
_ES_DeQueue                         text14       02F1
_ES_EnQueueFIFO                     text14       06F1
_ES_GetMSBitSet                     text14       026C
_ES_InitQueue                       text22       07A3
_ES_Initialize                      text22       0759
_ES_PostToService                   text14       0668
_ES_Run                             text14       0154
_ES_Sys_Timer_Init                  text22       07B8
_ES_Timer_InitTimer                 text14       06CA
_ES_Timer_RTI_Resp                  text14       01FD
_EventQueues                        strings      005D
_GIE                                (abs)        005F
_INTCON                             (abs)        000B
_ISR                                text32       0E77
_InitPACSystemService               text14       0140
_InitSPIService                     text14       0377
_InitUARTRXService                  text14       03A2
_InitUARTTXService                  text14       0361
_IsTimerPending                     text14       034F
_MyPriority                         bssBANK0     0057
_Nybble2MSBitNum                    strings      0046
_OSCCON                             (abs)        008F
_PEIE                               (abs)        005E
_PORTC                              (abs)        0007
_PS0                                (abs)        0408
_PS1                                (abs)        0409
_PS2                                (abs)        040A
_PSA                                (abs)        040B
_PostPACSystemService               text14       0122
_PostUARTRXService                  text14       012C
_PostUARTTXService                  text14       0136
_Queue0                             bssBANK2     0120
_Queue1                             bssBANK2     012C
_Queue2                             bssBANK2     0138
_Queue3                             bssBANK2     0144
_RC0                                (abs)        0038
_RC3                                (abs)        003B
_RC7                                (abs)        003F
_RCIE                               (abs)        0465
_RCIF                               (abs)        0065
_RCREG                              (abs)        001A
_RXBuffer                           bssBANK1     00A0
_RXFlag                             bssBANK0     0058
_RX_clearResponseReady              text40       0000
_RX_getResponseBuffer               text32       0FEE
_RX_getStatusBuffer                 text32       0FF7
_RX_newResponseReady                text36       0000
_Ready                              bssBANK0     0059
_RunPACSystemService                text14       068C
_RunSPIService                      text14       0357
_RunUARTRXService                   text14       04EE
_RunUARTTXService                   text14       03DF
_RunUARTTXService$644               cstackBANK0  0040
_SPBRG                              (abs)        0099
_SPBRGH                             (abs)        009A
_SPEN                               (abs)        00C7
_SPIBuffer                          bssBANK0     005A
_SPIIntResponse                     text35       0000
_SSPBUF                             (abs)        0013
_SSPCON                             (abs)        0014
_SSPIE                              (abs)        0463
_SSPIF                              (abs)        0063
_SSPSTAT                            (abs)        0094
_SYNC                               (abs)        04C4
_ServDescList                       strings      0065
_T0CS                               (abs)        040D
_T0IE                               (abs)        005D
_T0IF                               (abs)        005A
_TMR0                               (abs)        0001
_TMR_ActiveFlags                    bssBANK0     005B
_TMR_TimerArray                     bssBANK1     00B4
_TRISB4                             (abs)        0434
_TRISB6                             (abs)        0436
_TRISC0                             (abs)        0438
_TRISC3                             (abs)        043B
_TRISC6                             (abs)        043E
_TRISC7                             (abs)        043F
_TXEN                               (abs)        04C5
_TXError                            bssBANK1     00D7
_TXIE                               (abs)        0464
_TXIF                               (abs)        0064
_TXREG                              (abs)        0019
_TX_appendXBeePacket                text14       04DA
_TX_clearXBeePacket                 text14       073A
_TX_getChecksum                     text14       0740
_TickCount                          bssBANK0     005C
_Timer2PostFunc                     strings      006D
_UARTRXIntResponse                  text34       0000
_UARTTXIntResponse                  text33       0000
_USART_Init                         text1        07D9
_XBeePacket                         bssBANK1     00C4
__CFG_BOREN$OFF                     (abs)        0000
__CFG_CP$OFF                        (abs)        0000
__CFG_CPD$OFF                       (abs)        0000
__CFG_FCMEN$OFF                     (abs)        0000
__CFG_FOSC$HS                       (abs)        0000
__CFG_IESO$OFF                      (abs)        0000
__CFG_MCLRE$ON                      (abs)        0000
__CFG_PWRTE$OFF                     (abs)        0000
__CFG_WDTE$OFF                      (abs)        0000
__Habs1                             abs1         0000
__Hbank0                            bank0        0000
__Hbank1                            bank1        0000
__Hbank2                            bank2        0000
__Hbank3                            bank3        0000
__HbssBANK0                         bssBANK0     0000
__HbssBANK1                         bssBANK1     0000
__HbssBANK2                         bssBANK2     0000
__HbssCOMMON                        bssCOMMON    0000
__Hcinit                            cinit        0040
__Hclrtext                          clrtext      0000
__Hcode                             code         0000
__Hcommon                           common       0000
__Hconfig                           config       2008
__HcstackBANK0                      cstackBANK0  0000
__HcstackCOMMON                     cstackCOMMON 0000
__HdataBANK0                        dataBANK0    0000
__HdataBANK1                        dataBANK1    0000
__Heeprom_data                      eeprom_data  0000
__Hend_init                         end_init     0013
__Hfunctab                          functab      0122
__HidataBANK0                       idataBANK0   0000
__HidataBANK1                       idataBANK1   0000
__Hidloc                            idloc        0000
__Hinit                             init         0011
__Hintentry                         intentry     0011
__Hmaintext                         maintext     0000
__Hpowerup                          powerup      0000
__Hram                              ram          0000
__Hreset_vec                        reset_vec    0002
__Hsfr0                             sfr0         0000
__Hsfr1                             sfr1         0000
__Hsfr2                             sfr2         0000
__Hsfr3                             sfr3         0000
__Hspace_0                          (abs)        2008
__Hspace_1                          (abs)        0150
__Hspace_2                          (abs)        0000
__Hspace_3                          (abs)        0000
__Hstack                            stack        0000
__Hstrings                          strings      0000
__Htext                             text         0000
__Labs1                             abs1         0000
__Lbank0                            bank0        0000
__Lbank1                            bank1        0000
__Lbank2                            bank2        0000
__Lbank3                            bank3        0000
__LbssBANK0                         bssBANK0     0000
__LbssBANK1                         bssBANK1     0000
__LbssBANK2                         bssBANK2     0000
__LbssCOMMON                        bssCOMMON    0000
__Lcinit                            cinit        0013
__Lclrtext                          clrtext      0000
__Lcode                             code         0000
__Lcommon                           common       0000
__Lconfig                           config       2007
__LcstackBANK0                      cstackBANK0  0000
__LcstackCOMMON                     cstackCOMMON 0000
__LdataBANK0                        dataBANK0    0000
__LdataBANK1                        dataBANK1    0000
__Leeprom_data                      eeprom_data  0000
__Lend_init                         end_init     0011
__Lfunctab                          functab      0100
__LidataBANK0                       idataBANK0   0000
__LidataBANK1                       idataBANK1   0000
__Lidloc                            idloc        0000
__Linit                             init         0011
__Lintentry                         intentry     0004
__Lmaintext                         maintext     0000
__Lpowerup                          powerup      0000
__Lram                              ram          0000
__Lreset_vec                        reset_vec    0000
__Lsfr0                             sfr0         0000
__Lsfr1                             sfr1         0000
__Lsfr2                             sfr2         0000
__Lsfr3                             sfr3         0000
__Lspace_0                          (abs)        0000
__Lspace_1                          (abs)        0000
__Lspace_2                          (abs)        0000
__Lspace_3                          (abs)        0000
__Lstack                            stack        0000
__Lstrings                          strings      0000
__Ltext                             text         0000
__S0                                (abs)        2008
__S1                                (abs)        0150
__S2                                (abs)        0000
__S3                                (abs)        0000
___bmul                             text14       0656
___bmul@multiplicand                cstackBANK0  0020
___bmul@multiplier                  cstackBANK0  0023
___bmul@product                     cstackBANK0  0022
___int_sp                           stack        0000
___latbits                          (abs)        0001
___sp                               stack        0000
__end_of_BitNum2SetMask             strings      005D
__end_of_CheckSPIEvent              text14       02C5
__end_of_CheckUARTRXEvent           text14       02DB
__end_of_CheckUARTTXEvent           text14       02F1
__end_of_ES_DeQueue                 text14       034F
__end_of_ES_EnQueueFIFO             text14       073A
__end_of_ES_EventList               strings      0078
__end_of_ES_GetMSBitSet             text14       02AA
__end_of_ES_InitQueue               text22       07B8
__end_of_ES_Initialize              text22       07A3
__end_of_ES_PostToService           text14       068C
__end_of_ES_Run                     text14       01FD
__end_of_ES_Sys_Timer_Init          text22       07D9
__end_of_ES_Timer_InitTimer         text14       06F1
__end_of_ES_Timer_RTI_Resp          text14       026C
__end_of_EventQueues                strings      0065
__end_of_ISR                        text32       0FDE
__end_of_InitPACSystemService       text14       0154
__end_of_InitSPIService             text14       03A2
__end_of_InitUARTRXService          text14       03DF
__end_of_InitUARTTXService          text14       0377
__end_of_IsTimerPending             text14       0357
__end_of_Nybble2MSBitNum            strings      0055
__end_of_PostPACSystemService       text14       012C
__end_of_PostUARTRXService          text14       0136
__end_of_PostUARTTXService          text14       0140
__end_of_RX_clearResponseReady      text40       0000
__end_of_RX_getResponseBuffer       text32       0FF7
__end_of_RX_getStatusBuffer         text32       1000
__end_of_RX_newResponseReady        text36       0000
__end_of_RunPACSystemService        text14       06CA
__end_of_RunSPIService              text14       0361
__end_of_RunUARTRXService           text14       0656
__end_of_RunUARTTXService           text14       04DA
__end_of_SPIIntResponse             text35       0000
__end_of_ServDescList               strings      006D
__end_of_TX_appendXBeePacket        text14       04EE
__end_of_TX_clearXBeePacket         text14       0740
__end_of_TX_getChecksum             text14       0759
__end_of_Timer2PostFunc             strings      0075
__end_of_UARTRXIntResponse          text34       0000
__end_of_UARTTXIntResponse          text33       0000
__end_of_USART_Init                 text1        07F3
__end_of___bmul                     text14       0668
__end_of__fptable                   functab      0122
__end_of__initialization            cinit        003D
__end_of__stringtab                 strings      0046
__end_of_main                       maintext     00A3
__end_of_retrySend                  text4        0000
__end_ofi1___bmul                   text32       0FEE
__fptable                           functab      0100
__initialization                    cinit        0013
__pbssBANK0                         bssBANK0     004E
__pbssBANK1                         bssBANK1     00A0
__pbssBANK2                         bssBANK2     0120
__pbssCOMMON                        bssCOMMON    007D
__pcstackBANK0                      cstackBANK0  0020
__pcstackCOMMON                     cstackCOMMON 0070
__pdataBANK0                        dataBANK0    006D
__pdataBANK1                        dataBANK1    00E1
__pfunctab                          functab      0100
__pidataBANK0                       idataBANK0   0000
__pidataBANK1                       idataBANK1   0000
__pintentry                         intentry     0004
__pmaintext                         maintext     0078
__pstrings                          strings      0040
__ptext1                            text1        07D9
__ptext10                           text14       068C
__ptext11                           text14       06CA
__ptext12                           text14       034F
__ptext13                           text14       01FD
__ptext14                           text14       0122
__ptext15                           text14       012C
__ptext16                           text14       0136
__ptext17                           text14       026C
__ptext18                           text14       02F1
__ptext19                           text14       02DB
__ptext2                            text14       0154
__ptext20                           text14       02C5
__ptext21                           text14       02AA
__ptext22                           text22       0759
__ptext23                           text14       0140
__ptext24                           text14       0377
__ptext25                           text14       03A2
__ptext26                           text14       0361
__ptext27                           text14       0668
__ptext28                           text14       06F1
__ptext29                           text14       0656
__ptext3                            text14       03DF
__ptext30                           text22       07B8
__ptext31                           text22       07A3
__ptext32                           text32       0E77
__ptext33                           text33       0000
__ptext34                           text34       0000
__ptext35                           text35       0000
__ptext36                           text36       0000
__ptext37                           text32       0FF7
__ptext38                           text32       0FEE
__ptext39                           text32       0FDE
__ptext4                            text4        0000
__ptext40                           text40       0000
__ptext5                            text14       0740
__ptext6                            text14       073A
__ptext7                            text14       04DA
__ptext8                            text14       04EE
__ptext9                            text14       0357
__size_of_CheckSPIEvent             (abs)        0000
__size_of_CheckUARTRXEvent          (abs)        0000
__size_of_CheckUARTTXEvent          (abs)        0000
__size_of_ES_DeQueue                (abs)        0000
__size_of_ES_EnQueueFIFO            (abs)        0000
__size_of_ES_GetMSBitSet            (abs)        0000
__size_of_ES_InitQueue              (abs)        0000
__size_of_ES_Initialize             (abs)        0000
__size_of_ES_PostToService          (abs)        0000
__size_of_ES_Run                    (abs)        0000
__size_of_ES_Sys_Timer_Init         (abs)        0000
__size_of_ES_Timer_InitTimer        (abs)        0000
__size_of_ES_Timer_RTI_Resp         (abs)        0000
__size_of_ISR                       (abs)        0000
__size_of_InitPACSystemService      (abs)        0000
__size_of_InitSPIService            (abs)        0000
__size_of_InitUARTRXService         (abs)        0000
__size_of_InitUARTTXService         (abs)        0000
__size_of_IsTimerPending            (abs)        0000
__size_of_PostPACSystemService      (abs)        0000
__size_of_PostUARTRXService         (abs)        0000
__size_of_PostUARTTXService         (abs)        0000
__size_of_RX_clearResponseReady     (abs)        0000
__size_of_RX_getResponseBuffer      (abs)        0000
__size_of_RX_getStatusBuffer        (abs)        0000
__size_of_RX_newResponseReady       (abs)        0000
__size_of_RunPACSystemService       (abs)        0000
__size_of_RunSPIService             (abs)        0000
__size_of_RunUARTRXService          (abs)        0000
__size_of_RunUARTTXService          (abs)        0000
__size_of_SPIIntResponse            (abs)        0000
__size_of_TX_appendXBeePacket       (abs)        0000
__size_of_TX_clearXBeePacket        (abs)        0000
__size_of_TX_getChecksum            (abs)        0000
__size_of_UARTRXIntResponse         (abs)        0000
__size_of_UARTTXIntResponse         (abs)        0000
__size_of_USART_Init                (abs)        0000
__size_of___bmul                    (abs)        0000
__size_of__fptable                  (abs)        0000
__size_of_main                      (abs)        0000
__size_of_retrySend                 (abs)        0000
__size_ofi1___bmul                  (abs)        0000
__stringbase                        strings      0045
__stringtab                         strings      0040
_colorRequestData                   bssBANK0     005D
_commOpen                           bssBANK0     005E
_currentState                       bssBANK0     005F
_hasHeartbeat                       bssBANK0     0060
_index                              bssBANK0     0061
_inlined$_RX_clearResponseReady     (abs)        0001
_inlined$_RX_newResponseReady       (abs)        0001
_inlined$_SPIIntResponse            (abs)        0001
_inlined$_UARTRXIntResponse         (abs)        0001
_inlined$_UARTTXIntResponse         (abs)        0001
_inlined$_retrySend                 (abs)        0001
_length                             bssBANK0     0062
_main                               maintext     0078
_newRequest                         bssBANK0     0063
_newResponseAvailable               bssBANK0     0064
_radioPing                          bssBANK0     0065
_readRXIndex                        bssBANK0     0066
_readRespIndex                      bssBANK0     0067
_readStatIndex                      bssBANK0     0068
_responseBuffer                     bssBANK1     00D8
_responseBytes                      dataBANK0    006D
_retrySend                          text4        0000
_sendCompleteFlag                   bssBANK0     0069
_statusBuffer                       dataBANK1    00E1
_superPACAddr                       bssBANK1     00D3
_time                               bssBANK1     00D5
_writeRXIndex                       bssBANK0     006A
_writeRespIndex                     bssBANK0     006B
_writeStatIndex                     bssBANK0     006C
btemp                               (abs)        007E
clear_ram0                          clrtext      07F3
end_of_initialization               cinit        003D
entry__CheckSPIEvent                functab      010E
entry__CheckUARTRXEvent             functab      0110
entry__CheckUARTTXEvent             functab      0112
entry__RunPACSystemService          functab      011A
entry__RunSPIService                functab      011C
entry__RunUARTRXService             functab      011E
entry__RunUARTTXService             functab      0120
fpbase                              functab      0105
fptable                             functab      0100
fptotal                             (abs)        001C
i1___bmul                           text32       0FDE
i1___bmul@multiplicand              cstackCOMMON 0070
i1___bmul@multiplier                cstackCOMMON 0072
i1___bmul@product                   cstackCOMMON 0073
interrupt_function                  intentry     0004
intlevel0                           functab      0100
intlevel1                           functab      0100
intlevel2                           functab      0100
intlevel3                           functab      0100
intlevel4                           functab      0100
intlevel5                           functab      0100
ltemp                               (abs)        007E
ltemp0                              (abs)        007E
ltemp1                              (abs)        0082
ltemp2                              (abs)        0086
ltemp3                              (abs)        0080
main@ErrorType                      cstackBANK0  004D
reset_vec                           reset_vec    0000
retrySend@LEDEvent                  cstackBANK0  0033
saved_w                             (abs)        007E
stackhi                             (abs)        0000
stacklo                             (abs)        0000
start                               init         0011
start_initialization                cinit        0013
ttemp                               (abs)        007E
ttemp0                              (abs)        007E
ttemp1                              (abs)        0081
ttemp2                              (abs)        0084
ttemp3                              (abs)        0087
ttemp4                              (abs)        007F
wtemp                               (abs)        007E
wtemp0                              (abs)        007E
wtemp1                              (abs)        0080
wtemp2                              (abs)        0082
wtemp3                              (abs)        0084
wtemp4                              (abs)        0086
wtemp5                              (abs)        0088
wtemp6                              (abs)        007F


FUNCTION INFORMATION:

 *************** function _main *****************
 Defined at:
		line 21 in file "main.c"
 Parameters:    Size  Location     Type
		None
 Auto vars:     Size  Location     Type
  ErrorType       1   45[BANK0 ] enum E1641
 Return value:  Size  Location     Type
                  1    wreg      void 
 Registers used:
		wreg, fsr0l, fsr0h, status,2, status,0, btemp+1, pclath, cstack
 Tracked objects:
		On entry : 
		On exit  : 
		Unchanged: 
 Data sizes:     COMMON   BANK0   BANK1   BANK2
      Params:         0       0       0       0
      Locals:         0       1       0       0
      Temps:          0       1       0       0
      Totals:         0       2       0       0
Total ram usage:        2 bytes
 Hardware stack levels required when called:   10
 This function calls:
		_ES_Initialize
		_ES_Run
		_USART_Init
 This function is called by:
		Startup code after reset
 This function uses a non-reentrant model


 *************** function _USART_Init *****************
 Defined at:
		line 11 in file "sci.c"
 Parameters:    Size  Location     Type
		None
 Auto vars:     Size  Location     Type
		None
 Return value:  Size  Location     Type
                  1    wreg      void 
 Registers used:
		wreg, status,2
 Tracked objects:
		On entry : 
		On exit  : 
		Unchanged: 
 Data sizes:     COMMON   BANK0   BANK1   BANK2
      Params:         0       0       0       0
      Locals:         0       0       0       0
      Temps:          0       0       0       0
      Totals:         0       0       0       0
Total ram usage:        0 bytes
 Hardware stack levels used:    1
 Hardware stack levels required when called:    4
 This function calls:
		Nothing
 This function is called by:
		_main
 This function uses a non-reentrant model


 *************** function _ES_Run *****************
 Defined at:
		line 224 in file "ES_Framework.c"
 Parameters:    Size  Location     Type
		None
 Auto vars:     Size  Location     Type
  HighestPrior    1   43[BANK0 ] unsigned char 
 Return value:  Size  Location     Type
                  1    wreg      enum E1594
 Registers used:
		wreg, fsr0l, fsr0h, status,2, status,0, btemp+1, pclath, cstack
 Tracked objects:
		On entry : 
		On exit  : 
		Unchanged: 
 Data sizes:     COMMON   BANK0   BANK1   BANK2
      Params:         0       0       0       0
      Locals:         0       1       0       0
      Temps:          0       2       0       0
      Totals:         0       3       0       0
Total ram usage:        3 bytes
 Hardware stack levels used:    1
 Hardware stack levels required when called:    9
 This function calls:
		_CheckSPIEvent
		_CheckUARTRXEvent
		_CheckUARTTXEvent
		_ES_DeQueue
		_ES_GetMSBitSet
		_ES_Timer_RTI_Resp
		_IsTimerPending
		_RunPACSystemService
		_RunSPIService
		_RunUARTRXService
		_RunUARTTXService
 This function is called by:
		_main
 This function uses a non-reentrant model


 *************** function _RunUARTTXService *****************
 Defined at:
		line 146 in file "UART_TX_SM.c"
 Parameters:    Size  Location     Type
  ThisEvent       3   22[BANK0 ] struct ES_Event_t
 Auto vars:     Size  Location     Type
  ReturnEvent     3   29[BANK0 ] struct ES_Event_t
 Return value:  Size  Location     Type
                  3   22[BANK0 ] struct ES_Event_t
 Registers used:
		wreg, fsr0l, fsr0h, status,2, status,0, pclath, cstack
 Tracked objects:
		On entry : 
		On exit  : 
		Unchanged: 
 Data sizes:     COMMON   BANK0   BANK1   BANK2
      Params:         0       3       0       0
      Locals:         0       5       0       0
      Temps:          0       4       0       0
      Totals:         0      12       0       0
Total ram usage:       12 bytes
 Hardware stack levels used:    1
 Hardware stack levels required when called:    8
 This function calls:
		_ES_Timer_InitTimer
		_TX_appendXBeePacket
		_TX_clearXBeePacket
		_TX_getChecksum
		_retrySend
 This function is called by:
		_ES_Run
 This function uses a non-reentrant model


 *************** function _retrySend *****************
 Defined at:
		line 306 in file "UART_TX_SM.c"
 Parameters:    Size  Location     Type
		None
 Auto vars:     Size  Location     Type
  LEDEvent        3   19[BANK0 ] struct ES_Event_t
 Return value:  Size  Location     Type
                  1    wreg      void 
 Registers used:
		wreg, fsr0l, fsr0h, status,2, status,0, pclath, cstack
 Tracked objects:
		On entry : 
		On exit  : 
		Unchanged: 
 Data sizes:     COMMON   BANK0   BANK1   BANK2
      Params:         0       0       0       0
      Locals:         0       3       0       0
      Temps:          0       1       0       0
      Totals:         0       4       0       0
Total ram usage:        4 bytes
 Hardware stack levels used:    1
 Hardware stack levels required when called:    7
 This function calls:
		_ES_PostToService
 This function is called by:
		_RunUARTTXService
 This function uses a non-reentrant model


 *************** function _TX_getChecksum *****************
 Defined at:
		line 256 in file "UART_TX_SM.c"
 Parameters:    Size  Location     Type
		None
 Auto vars:     Size  Location     Type
  i               1    2[BANK0 ] unsigned char 
  chk             1    1[BANK0 ] unsigned char 
 Return value:  Size  Location     Type
                  1    wreg      unsigned char 
 Registers used:
		wreg, fsr0l, fsr0h, status,2, status,0
 Tracked objects:
		On entry : 
		On exit  : 
		Unchanged: 
 Data sizes:     COMMON   BANK0   BANK1   BANK2
      Params:         0       0       0       0
      Locals:         0       2       0       0
      Temps:          0       1       0       0
      Totals:         0       3       0       0
Total ram usage:        3 bytes
 Hardware stack levels used:    1
 Hardware stack levels required when called:    4
 This function calls:
		Nothing
 This function is called by:
		_RunUARTTXService
 This function uses a non-reentrant model


 *************** function _TX_clearXBeePacket *****************
 Defined at:
		line 238 in file "UART_TX_SM.c"
 Parameters:    Size  Location     Type
		None
 Auto vars:     Size  Location     Type
		None
 Return value:  Size  Location     Type
                  1    wreg      unsigned char 
 Registers used:
		wreg, status,2, status,0
 Tracked objects:
		On entry : 
		On exit  : 
		Unchanged: 
 Data sizes:     COMMON   BANK0   BANK1   BANK2
      Params:         0       0       0       0
      Locals:         0       0       0       0
      Temps:          0       0       0       0
      Totals:         0       0       0       0
Total ram usage:        0 bytes
 Hardware stack levels used:    1
 Hardware stack levels required when called:    4
 This function calls:
		Nothing
 This function is called by:
		_RunUARTTXService
 This function uses a non-reentrant model


 *************** function _TX_appendXBeePacket *****************
 Defined at:
		line 247 in file "UART_TX_SM.c"
 Parameters:    Size  Location     Type
  newByte         1    wreg     unsigned char 
 Auto vars:     Size  Location     Type
  newByte         1    1[BANK0 ] unsigned char 
 Return value:  Size  Location     Type
                  1    wreg      unsigned char 
 Registers used:
		wreg, fsr0l, fsr0h, status,2, status,0
 Tracked objects:
		On entry : 
		On exit  : 
		Unchanged: 
 Data sizes:     COMMON   BANK0   BANK1   BANK2
      Params:         0       0       0       0
      Locals:         0       1       0       0
      Temps:          0       1       0       0
      Totals:         0       2       0       0
Total ram usage:        2 bytes
 Hardware stack levels used:    1
 Hardware stack levels required when called:    4
 This function calls:
		Nothing
 This function is called by:
		_RunUARTTXService
 This function uses a non-reentrant model


 *************** function _RunUARTRXService *****************
 Defined at:
		line 204 in file "UART_RX_SM.c"
 Parameters:    Size  Location     Type
  ThisEvent       3   18[BANK0 ] struct ES_Event_t
 Auto vars:     Size  Location     Type
  i               1   40[BANK0 ] unsigned char 
  i               1   39[BANK0 ] unsigned char 
  msgAddr         2   31[BANK0 ] unsigned int 
  addrEvent       3   33[BANK0 ] struct ES_Event_t
  TXEvent         3   36[BANK0 ] struct ES_Event_t
  ReturnEvent     3   28[BANK0 ] struct ES_Event_t
 Return value:  Size  Location     Type
                  3   18[BANK0 ] struct ES_Event_t
 Registers used:
		wreg, fsr0l, fsr0h, status,2, status,0, btemp+1, pclath, cstack
 Tracked objects:
		On entry : 
		On exit  : 
		Unchanged: 
 Data sizes:     COMMON   BANK0   BANK1   BANK2
      Params:         0       3       0       0
      Locals:         0      13       0       0
      Temps:          0       7       0       0
      Totals:         0      23       0       0
Total ram usage:       23 bytes
 Hardware stack levels used:    1
 Hardware stack levels required when called:    7
 This function calls:
		_ES_PostToService
		_ES_Timer_InitTimer
		___bmul
 This function is called by:
		_ES_Run
 This function uses a non-reentrant model


 *************** function _RunSPIService *****************
 Defined at:
		line 170 in file "SPI_SM.c"
 Parameters:    Size  Location     Type
  ThisEvent       3    0[BANK0 ] struct ES_Event_t
 Auto vars:     Size  Location     Type
  ReturnEvent     3    3[BANK0 ] struct ES_Event_t
 Return value:  Size  Location     Type
                  3    0[BANK0 ] struct ES_Event_t
 Registers used:
		wreg, status,2
 Tracked objects:
		On entry : 
		On exit  : 
		Unchanged: 
 Data sizes:     COMMON   BANK0   BANK1   BANK2
      Params:         0       3       0       0
      Locals:         0       3       0       0
      Temps:          0       0       0       0
      Totals:         0       6       0       0
Total ram usage:        6 bytes
 Hardware stack levels used:    1
 Hardware stack levels required when called:    4
 This function calls:
		Nothing
 This function is called by:
		_ES_Run
 This function uses a non-reentrant model


 *************** function _RunPACSystemService *****************
 Defined at:
		line 113 in file "PACSystemService.c"
 Parameters:    Size  Location     Type
  ThisEvent       3    4[BANK0 ] struct ES_Event_t
 Auto vars:     Size  Location     Type
  ReturnEvent     3    8[BANK0 ] struct ES_Event_t
 Return value:  Size  Location     Type
                  3    4[BANK0 ] struct ES_Event_t
 Registers used:
		wreg, fsr0l, fsr0h, status,2, status,0, pclath, cstack
 Tracked objects:
		On entry : 
		On exit  : 
		Unchanged: 
 Data sizes:     COMMON   BANK0   BANK1   BANK2
      Params:         0       3       0       0
      Locals:         0       3       0       0
      Temps:          0       1       0       0
      Totals:         0       7       0       0
Total ram usage:        7 bytes
 Hardware stack levels used:    1
 Hardware stack levels required when called:    5
 This function calls:
		_ES_Timer_InitTimer
 This function is called by:
		_ES_Run
 This function uses a non-reentrant model


 *************** function _ES_Timer_InitTimer *****************
 Defined at:
		line 204 in file "ES_Timers.c"
 Parameters:    Size  Location     Type
  Num             1    wreg     unsigned char 
  NewTime         2    0[BANK0 ] unsigned int 
 Auto vars:     Size  Location     Type
  Num             1    3[BANK0 ] unsigned char 
 Return value:  Size  Location     Type
                  1    wreg      enum E1481
 Registers used:
		wreg, fsr0l, fsr0h, status,2, status,0, pclath
 Tracked objects:
		On entry : 
		On exit  : 
		Unchanged: 
 Data sizes:     COMMON   BANK0   BANK1   BANK2
      Params:         0       2       0       0
      Locals:         0       1       0       0
      Temps:          0       1       0       0
      Totals:         0       4       0       0
Total ram usage:        4 bytes
 Hardware stack levels used:    1
 Hardware stack levels required when called:    4
 This function calls:
		Nothing
 This function is called by:
		_RunUARTRXService
		_RunUARTTXService
		_RunPACSystemService
 This function uses a non-reentrant model


 *************** function _IsTimerPending *****************
 Defined at:
		line 78 in file "ES_Port.c"
 Parameters:    Size  Location     Type
		None
 Auto vars:     Size  Location     Type
		None
 Return value:  Size  Location     Type
                  1    wreg      unsigned char 
 Registers used:
		wreg, status,2, status,0
 Tracked objects:
		On entry : 
		On exit  : 
		Unchanged: 
 Data sizes:     COMMON   BANK0   BANK1   BANK2
      Params:         0       0       0       0
      Locals:         0       0       0       0
      Temps:          0       0       0       0
      Totals:         0       0       0       0
Total ram usage:        0 bytes
 Hardware stack levels used:    1
 Hardware stack levels required when called:    4
 This function calls:
		Nothing
 This function is called by:
		_ES_Run
 This function uses a non-reentrant model


 *************** function _ES_Timer_RTI_Resp *****************
 Defined at:
		line 258 in file "ES_Timers.c"
 Parameters:    Size  Location     Type
		None
 Auto vars:     Size  Location     Type
		None
 Return value:  Size  Location     Type
                  1    wreg      void 
 Registers used:
		wreg, fsr0l, fsr0h, status,2, status,0, pclath, cstack
 Tracked objects:
		On entry : 
		On exit  : 
		Unchanged: 
 Data sizes:     COMMON   BANK0   BANK1   BANK2
      Params:         0       0       0       0
      Locals:         0       0       0       0
      Temps:          0       3       0       0
      Totals:         0       3       0       0
Total ram usage:        3 bytes
 Hardware stack levels used:    1
 Hardware stack levels required when called:    8
 This function calls:
		Absolute function
		_ES_GetMSBitSet
		_PostPACSystemService
		_PostUARTRXService
		_PostUARTTXService
 This function is called by:
		_ES_Run
 This function uses a non-reentrant model


 *************** function _PostPACSystemService *****************
 Defined at:
		line 92 in file "PACSystemService.c"
 Parameters:    Size  Location     Type
  ThisEvent       3   18[BANK0 ] struct ES_Event_t
 Auto vars:     Size  Location     Type
		None
 Return value:  Size  Location     Type
                  1    wreg      unsigned char 
 Registers used:
		wreg, fsr0l, fsr0h, status,2, status,0, pclath, cstack
 Tracked objects:
		On entry : 
		On exit  : 
		Unchanged: 
 Data sizes:     COMMON   BANK0   BANK1   BANK2
      Params:         0       3       0       0
      Locals:         0       0       0       0
      Temps:          0       0       0       0
      Totals:         0       3       0       0
Total ram usage:        3 bytes
 Hardware stack levels used:    1
 Hardware stack levels required when called:    7
 This function calls:
		_ES_PostToService
 This function is called by:
		_ES_Timer_RTI_Resp
 This function uses a non-reentrant model


 *************** function _PostUARTRXService *****************
 Defined at:
		line 183 in file "UART_RX_SM.c"
 Parameters:    Size  Location     Type
  ThisEvent       3   18[BANK0 ] struct ES_Event_t
 Auto vars:     Size  Location     Type
		None
 Return value:  Size  Location     Type
                  1    wreg      unsigned char 
 Registers used:
		wreg, fsr0l, fsr0h, status,2, status,0, pclath, cstack
 Tracked objects:
		On entry : 
		On exit  : 
		Unchanged: 
 Data sizes:     COMMON   BANK0   BANK1   BANK2
      Params:         0       3       0       0
      Locals:         0       0       0       0
      Temps:          0       0       0       0
      Totals:         0       3       0       0
Total ram usage:        3 bytes
 Hardware stack levels used:    1
 Hardware stack levels required when called:    7
 This function calls:
		_ES_PostToService
 This function is called by:
		_ES_Timer_RTI_Resp
 This function uses a non-reentrant model


 *************** function _PostUARTTXService *****************
 Defined at:
		line 125 in file "UART_TX_SM.c"
 Parameters:    Size  Location     Type
  ThisEvent       3   18[BANK0 ] struct ES_Event_t
 Auto vars:     Size  Location     Type
		None
 Return value:  Size  Location     Type
                  1    wreg      unsigned char 
 Registers used:
		wreg, fsr0l, fsr0h, status,2, status,0, pclath, cstack
 Tracked objects:
		On entry : 
		On exit  : 
		Unchanged: 
 Data sizes:     COMMON   BANK0   BANK1   BANK2
      Params:         0       3       0       0
      Locals:         0       0       0       0
      Temps:          0       0       0       0
      Totals:         0       3       0       0
Total ram usage:        3 bytes
 Hardware stack levels used:    1
 Hardware stack levels required when called:    7
 This function calls:
		_ES_PostToService
 This function is called by:
		_ES_Timer_RTI_Resp
 This function uses a non-reentrant model


 *************** function _ES_GetMSBitSet *****************
 Defined at:
		line 78 in file "ES_LookupTables.c"
 Parameters:    Size  Location     Type
  Val2Check       1    wreg     unsigned char 
 Auto vars:     Size  Location     Type
  Val2Check       1    3[BANK0 ] unsigned char 
  LoopCntr        1    6[BANK0 ] char 
  Nybble2Test     1    5[BANK0 ] unsigned char 
  ReturnVal       1    4[BANK0 ] unsigned char 
 Return value:  Size  Location     Type
                  1    wreg      unsigned char 
 Registers used:
		wreg, fsr0l, fsr0h, status,2, status,0, pclath
 Tracked objects:
		On entry : 
		On exit  : 
		Unchanged: 
 Data sizes:     COMMON   BANK0   BANK1   BANK2
      Params:         0       0       0       0
      Locals:         0       4       0       0
      Temps:          0       3       0       0
      Totals:         0       7       0       0
Total ram usage:        7 bytes
 Hardware stack levels used:    1
 Hardware stack levels required when called:    4
 This function calls:
		Nothing
 This function is called by:
		_ES_Run
		_ES_Timer_RTI_Resp
 This function uses a non-reentrant model


 *************** function _ES_DeQueue *****************
 Defined at:
		line 125 in file "ES_Queue.c"
 Parameters:    Size  Location     Type
  pBlock          1    wreg     PTR struct ES_Event_t
		 -> Queue3(12), Queue2(12), Queue1(12), Queue0(12), 
  pReturnEvent    1    4[BANK0 ] PTR struct ES_Event_t
		 -> ES_Run@ThisEvent(3), 
 Auto vars:     Size  Location     Type
  pBlock          1   12[BANK0 ] PTR struct ES_Event_t
		 -> Queue3(12), Queue2(12), Queue1(12), Queue0(12), 
  pThisQueue      1   13[BANK0 ] PTR struct .
		 -> Queue3(12), Queue2(12), Queue1(12), Queue0(12), 
  NumLeft         1   11[BANK0 ] unsigned char 
  saveCrit        1   10[BANK0 ] unsigned char 
 Return value:  Size  Location     Type
                  1    wreg      unsigned char 
 Registers used:
		wreg, fsr0l, fsr0h, status,2, status,0, pclath, cstack
 Tracked objects:
		On entry : 
		On exit  : 
		Unchanged: 
 Data sizes:     COMMON   BANK0   BANK1   BANK2
      Params:         0       1       0       0
      Locals:         0       4       0       0
      Temps:          0       5       0       0
      Totals:         0      10       0       0
Total ram usage:       10 bytes
 Hardware stack levels used:    1
 Hardware stack levels required when called:    5
 This function calls:
		___bmul
 This function is called by:
		_ES_Run
 This function uses a non-reentrant model


 *************** function _CheckUARTTXEvent *****************
 Defined at:
		line 284 in file "UART_TX_SM.c"
 Parameters:    Size  Location     Type
		None
 Auto vars:     Size  Location     Type
  TXEvent         3   19[BANK0 ] struct ES_Event_t
 Return value:  Size  Location     Type
                  1    wreg      unsigned char 
 Registers used:
		wreg, fsr0l, fsr0h, status,2, status,0, pclath, cstack
 Tracked objects:
		On entry : 
		On exit  : 
		Unchanged: 
 Data sizes:     COMMON   BANK0   BANK1   BANK2
      Params:         0       0       0       0
      Locals:         0       3       0       0
      Temps:          0       1       0       0
      Totals:         0       4       0       0
Total ram usage:        4 bytes
 Hardware stack levels used:    1
 Hardware stack levels required when called:    7
 This function calls:
		_ES_PostToService
 This function is called by:
		_ES_Run
		_ES_CheckUserEvents
 This function uses a non-reentrant model


 *************** function _CheckUARTRXEvent *****************
 Defined at:
		line 343 in file "UART_RX_SM.c"
 Parameters:    Size  Location     Type
		None
 Auto vars:     Size  Location     Type
  CommEvent       3   19[BANK0 ] struct ES_Event_t
 Return value:  Size  Location     Type
                  1    wreg      unsigned char 
 Registers used:
		wreg, fsr0l, fsr0h, status,2, status,0, pclath, cstack
 Tracked objects:
		On entry : 
		On exit  : 
		Unchanged: 
 Data sizes:     COMMON   BANK0   BANK1   BANK2
      Params:         0       0       0       0
      Locals:         0       3       0       0
      Temps:          0       1       0       0
      Totals:         0       4       0       0
Total ram usage:        4 bytes
 Hardware stack levels used:    1
 Hardware stack levels required when called:    7
 This function calls:
		_ES_PostToService
 This function is called by:
		_ES_Run
		_ES_CheckUserEvents
 This function uses a non-reentrant model


 *************** function _CheckSPIEvent *****************
 Defined at:
		line 287 in file "SPI_SM.c"
 Parameters:    Size  Location     Type
		None
 Auto vars:     Size  Location     Type
  SPIEvent        3   20[BANK0 ] struct ES_Event_t
 Return value:  Size  Location     Type
                  1    wreg      unsigned char 
 Registers used:
		wreg, fsr0l, fsr0h, status,2, status,0, pclath, cstack
 Tracked objects:
		On entry : 
		On exit  : 
		Unchanged: 
 Data sizes:     COMMON   BANK0   BANK1   BANK2
      Params:         0       0       0       0
      Locals:         0       3       0       0
      Temps:          0       2       0       0
      Totals:         0       5       0       0
Total ram usage:        5 bytes
 Hardware stack levels used:    1
 Hardware stack levels required when called:    7
 This function calls:
		_ES_PostToService
 This function is called by:
		_ES_Run
		_ES_CheckUserEvents
 This function uses a non-reentrant model


 *************** function _ES_Initialize *****************
 Defined at:
		line 189 in file "ES_Framework.c"
 Parameters:    Size  Location     Type
  NewRate         1    wreg     enum E93
 Auto vars:     Size  Location     Type
  NewRate         1    0[COMMON] enum E93
  i               1   25[BANK0 ] unsigned char 
 Return value:  Size  Location     Type
                  1    wreg      enum E1594
 Registers used:
		wreg, fsr0l, fsr0h, status,2, status,0, pclath, cstack
 Tracked objects:
		On entry : 
		On exit  : 
		Unchanged: 
 Data sizes:     COMMON   BANK0   BANK1   BANK2
      Params:         0       0       0       0
      Locals:         0       1       0       0
      Temps:          0       2       0       0
      Totals:         0       3       0       0
Total ram usage:        3 bytes
 Hardware stack levels used:    1
 Hardware stack levels required when called:    8
 This function calls:
		_ES_InitQueue
		_ES_Sys_Timer_Init
		_InitPACSystemService
		_InitSPIService
		_InitUARTRXService
		_InitUARTTXService
 This function is called by:
		_main
 This function uses a non-reentrant model


 *************** function _InitPACSystemService *****************
 Defined at:
		line 61 in file "PACSystemService.c"
 Parameters:    Size  Location     Type
  Priority        1   18[BANK0 ] unsigned char 
 Auto vars:     Size  Location     Type
  ThisEvent       3   20[BANK0 ] struct ES_Event_t
 Return value:  Size  Location     Type
                  1    wreg      unsigned char 
 Registers used:
		wreg, fsr0l, fsr0h, status,2, status,0, pclath, cstack
 Tracked objects:
		On entry : 
		On exit  : 
		Unchanged: 
 Data sizes:     COMMON   BANK0   BANK1   BANK2
      Params:         0       1       0       0
      Locals:         0       3       0       0
      Temps:          0       1       0       0
      Totals:         0       5       0       0
Total ram usage:        5 bytes
 Hardware stack levels used:    1
 Hardware stack levels required when called:    7
 This function calls:
		_ES_PostToService
 This function is called by:
		_ES_Initialize
 This function uses a non-reentrant model


 *************** function _InitSPIService *****************
 Defined at:
		line 83 in file "SPI_SM.c"
 Parameters:    Size  Location     Type
  Priority        1   18[BANK0 ] unsigned char 
 Auto vars:     Size  Location     Type
  ThisEvent       3   20[BANK0 ] struct ES_Event_t
 Return value:  Size  Location     Type
                  1    wreg      unsigned char 
 Registers used:
		wreg, fsr0l, fsr0h, status,2, status,0, pclath, cstack
 Tracked objects:
		On entry : 
		On exit  : 
		Unchanged: 
 Data sizes:     COMMON   BANK0   BANK1   BANK2
      Params:         0       1       0       0
      Locals:         0       3       0       0
      Temps:          0       1       0       0
      Totals:         0       5       0       0
Total ram usage:        5 bytes
 Hardware stack levels used:    1
 Hardware stack levels required when called:    7
 This function calls:
		_ES_PostToService
 This function is called by:
		_ES_Initialize
 This function uses a non-reentrant model


 *************** function _InitUARTRXService *****************
 Defined at:
		line 143 in file "UART_RX_SM.c"
 Parameters:    Size  Location     Type
  Priority        1   18[BANK0 ] unsigned char 
 Auto vars:     Size  Location     Type
  ThisEvent       3   20[BANK0 ] struct ES_Event_t
 Return value:  Size  Location     Type
                  1    wreg      unsigned char 
 Registers used:
		wreg, fsr0l, fsr0h, status,2, status,0, pclath, cstack
 Tracked objects:
		On entry : 
		On exit  : 
		Unchanged: 
 Data sizes:     COMMON   BANK0   BANK1   BANK2
      Params:         0       1       0       0
      Locals:         0       3       0       0
      Temps:          0       1       0       0
      Totals:         0       5       0       0
Total ram usage:        5 bytes
 Hardware stack levels used:    1
 Hardware stack levels required when called:    7
 This function calls:
		_ES_PostToService
 This function is called by:
		_ES_Initialize
 This function uses a non-reentrant model


 *************** function _InitUARTTXService *****************
 Defined at:
		line 91 in file "UART_TX_SM.c"
 Parameters:    Size  Location     Type
  Priority        1   18[BANK0 ] unsigned char 
 Auto vars:     Size  Location     Type
  ThisEvent       3   20[BANK0 ] struct ES_Event_t
 Return value:  Size  Location     Type
                  1    wreg      unsigned char 
 Registers used:
		wreg, fsr0l, fsr0h, status,2, status,0, pclath, cstack
 Tracked objects:
		On entry : 
		On exit  : 
		Unchanged: 
 Data sizes:     COMMON   BANK0   BANK1   BANK2
      Params:         0       1       0       0
      Locals:         0       3       0       0
      Temps:          0       1       0       0
      Totals:         0       5       0       0
Total ram usage:        5 bytes
 Hardware stack levels used:    1
 Hardware stack levels required when called:    7
 This function calls:
		_ES_PostToService
 This function is called by:
		_ES_Initialize
 This function uses a non-reentrant model


 *************** function _ES_PostToService *****************
 Defined at:
		line 319 in file "ES_Framework.c"
 Parameters:    Size  Location     Type
  WhichService    1    wreg     unsigned char 
  TheEvent        3   13[BANK0 ] struct ES_Event_t
 Auto vars:     Size  Location     Type
  WhichService    1   17[BANK0 ] unsigned char 
 Return value:  Size  Location     Type
                  1    wreg      unsigned char 
 Registers used:
		wreg, fsr0l, fsr0h, status,2, status,0, pclath, cstack
 Tracked objects:
		On entry : 
		On exit  : 
		Unchanged: 
 Data sizes:     COMMON   BANK0   BANK1   BANK2
      Params:         0       3       0       0
      Locals:         0       1       0       0
      Temps:          0       1       0       0
      Totals:         0       5       0       0
Total ram usage:        5 bytes
 Hardware stack levels used:    1
 Hardware stack levels required when called:    6
 This function calls:
		_ES_EnQueueFIFO
 This function is called by:
		_InitUARTRXService
		_PostUARTRXService
		_RunUARTRXService
		_CheckUARTRXEvent
		_InitUARTTXService
		_PostUARTTXService
		_CheckUARTTXEvent
		_retrySend
		_InitPACSystemService
		_PostPACSystemService
		_InitSPIService
		_CheckSPIEvent
		_PostSPIService
 This function uses a non-reentrant model


 *************** function _ES_EnQueueFIFO *****************
 Defined at:
		line 83 in file "ES_Queue.c"
 Parameters:    Size  Location     Type
  pBlock          1    wreg     PTR struct ES_Event_t
		 -> Queue3(12), Queue2(12), Queue1(12), Queue0(12), 
  Event2Add       3    4[BANK0 ] struct ES_Event_t
 Auto vars:     Size  Location     Type
  pBlock          1   11[BANK0 ] PTR struct ES_Event_t
		 -> Queue3(12), Queue2(12), Queue1(12), Queue0(12), 
  pThisQueue      1   12[BANK0 ] PTR struct .
		 -> Queue3(12), Queue2(12), Queue1(12), Queue0(12), 
  InsertionPoi    1   10[BANK0 ] unsigned char 
  saveCrit        1    9[BANK0 ] unsigned char 
 Return value:  Size  Location     Type
                  1    wreg      unsigned char 
 Registers used:
		wreg, fsr0l, fsr0h, status,2, status,0, pclath, cstack
 Tracked objects:
		On entry : 
		On exit  : 
		Unchanged: 
 Data sizes:     COMMON   BANK0   BANK1   BANK2
      Params:         0       3       0       0
      Locals:         0       4       0       0
      Temps:          0       2       0       0
      Totals:         0       9       0       0
Total ram usage:        9 bytes
 Hardware stack levels used:    1
 Hardware stack levels required when called:    5
 This function calls:
		___bmul
 This function is called by:
		_ES_PostToService
		_ES_PostAll
 This function uses a non-reentrant model


 *************** function ___bmul *****************
 Defined at:
		line 4 in file "C:\Program Files (x86)\Microchip\xc8\v1.36\sources\common\Umul8.c"
 Parameters:    Size  Location     Type
  multiplier      1    wreg     unsigned char 
  multiplicand    1    0[BANK0 ] unsigned char 
 Auto vars:     Size  Location     Type
  multiplier      1    3[BANK0 ] unsigned char 
  product         1    2[BANK0 ] unsigned char 
 Return value:  Size  Location     Type
                  1    wreg      unsigned char 
 Registers used:
		wreg, status,2, status,0
 Tracked objects:
		On entry : 
		On exit  : 
		Unchanged: 
 Data sizes:     COMMON   BANK0   BANK1   BANK2
      Params:         0       1       0       0
      Locals:         0       2       0       0
      Temps:          0       1       0       0
      Totals:         0       4       0       0
Total ram usage:        4 bytes
 Hardware stack levels used:    1
 Hardware stack levels required when called:    4
 This function calls:
		Nothing
 This function is called by:
		_ES_Initialize
		_ES_Run
		_ES_PostToService
		_ES_EnQueueFIFO
		_ES_DeQueue
		_RunUARTRXService
		_RX_getStatusBuffer
		_RX_getResponseBuffer
		_UARTRXIntResponse
		_ES_PostAll
 This function uses a non-reentrant model


 *************** function _ES_Sys_Timer_Init *****************
 Defined at:
		line 25 in file "ES_Port.c"
 Parameters:    Size  Location     Type
		None
 Auto vars:     Size  Location     Type
		None
 Return value:  Size  Location     Type
                  1    wreg      void 
 Registers used:
		status,2
 Tracked objects:
		On entry : 
		On exit  : 
		Unchanged: 
 Data sizes:     COMMON   BANK0   BANK1   BANK2
      Params:         0       0       0       0
      Locals:         0       0       0       0
      Temps:          0       0       0       0
      Totals:         0       0       0       0
Total ram usage:        0 bytes
 Hardware stack levels used:    1
 Hardware stack levels required when called:    4
 This function calls:
		Nothing
 This function is called by:
		_ES_Initialize
 This function uses a non-reentrant model


 *************** function _ES_InitQueue *****************
 Defined at:
		line 56 in file "ES_Queue.c"
 Parameters:    Size  Location     Type
  pBlock          1    wreg     PTR struct ES_Event_t
		 -> Queue3(12), Queue2(12), Queue1(12), Queue0(12), 
  BlockSize       1    0[BANK0 ] unsigned char 
 Auto vars:     Size  Location     Type
  pBlock          1    2[BANK0 ] PTR struct ES_Event_t
		 -> Queue3(12), Queue2(12), Queue1(12), Queue0(12), 
  pThisQueue      1    3[BANK0 ] PTR struct .
		 -> Queue3(12), Queue2(12), Queue1(12), Queue0(12), 
 Return value:  Size  Location     Type
                  1    wreg      unsigned char 
 Registers used:
		wreg, fsr0l, fsr0h, status,2, status,0
 Tracked objects:
		On entry : 
		On exit  : 
		Unchanged: 
 Data sizes:     COMMON   BANK0   BANK1   BANK2
      Params:         0       1       0       0
      Locals:         0       2       0       0
      Temps:          0       1       0       0
      Totals:         0       4       0       0
Total ram usage:        4 bytes
 Hardware stack levels used:    1
 Hardware stack levels required when called:    4
 This function calls:
		Nothing
 This function is called by:
		_ES_Initialize
 This function uses a non-reentrant model


 *************** function _ISR *****************
 Defined at:
		line 54 in file "ES_Port.c"
 Parameters:    Size  Location     Type
		None
 Auto vars:     Size  Location     Type
		None
 Return value:  Size  Location     Type
                  1    wreg      void 
 Registers used:
		wreg, fsr0l, fsr0h, status,2, status,0, pclath, cstack
 Tracked objects:
		On entry : 
		On exit  : 
		Unchanged: 
 Data sizes:     COMMON   BANK0   BANK1   BANK2
      Params:         0       0       0       0
      Locals:         0       0       0       0
      Temps:          5       0       0       0
      Totals:         5       0       0       0
Total ram usage:        5 bytes
 Hardware stack levels used:    1
 Hardware stack levels required when called:    3
 This function calls:
		_SPIIntResponse
		_UARTRXIntResponse
		_UARTTXIntResponse
 This function is called by:
		Interrupt level 1
 This function uses a non-reentrant model


 *************** function _UARTTXIntResponse *****************
 Defined at:
		line 275 in file "UART_TX_SM.c"
 Parameters:    Size  Location     Type
		None
 Auto vars:     Size  Location     Type
		None
 Return value:  Size  Location     Type
                  1    wreg      void 
 Registers used:
		wreg, fsr0l, fsr0h, status,2, status,0
 Tracked objects:
		On entry : 
		On exit  : 
		Unchanged: 
 Data sizes:     COMMON   BANK0   BANK1   BANK2
      Params:         0       0       0       0
      Locals:         0       0       0       0
      Temps:          1       0       0       0
      Totals:         1       0       0       0
Total ram usage:        1 bytes
 Hardware stack levels used:    1
 This function calls:
		Nothing
 This function is called by:
		_ISR
 This function uses a non-reentrant model


 *************** function _UARTRXIntResponse *****************
 Defined at:
		line 288 in file "UART_RX_SM.c"
 Parameters:    Size  Location     Type
		None
 Auto vars:     Size  Location     Type
  newByte         1    7[COMMON] unsigned char 
 Return value:  Size  Location     Type
                  1    wreg      void 
 Registers used:
		wreg, fsr0l, fsr0h, status,2, status,0, pclath, cstack
 Tracked objects:
		On entry : 
		On exit  : 
		Unchanged: 
 Data sizes:     COMMON   BANK0   BANK1   BANK2
      Params:         0       0       0       0
      Locals:         1       0       0       0
      Temps:          3       0       0       0
      Totals:         4       0       0       0
Total ram usage:        4 bytes
 Hardware stack levels used:    1
 Hardware stack levels required when called:    1
 This function calls:
		i1___bmul
 This function is called by:
		_ISR
 This function uses a non-reentrant model


 *************** function _SPIIntResponse *****************
 Defined at:
		line 179 in file "SPI_SM.c"
 Parameters:    Size  Location     Type
		None
 Auto vars:     Size  Location     Type
  readByte        1    6[COMMON] unsigned char 
 Return value:  Size  Location     Type
                  1    wreg      void 
 Registers used:
		wreg, fsr0l, fsr0h, status,2, status,0, pclath, cstack
 Tracked objects:
		On entry : 
		On exit  : 
		Unchanged: 
 Data sizes:     COMMON   BANK0   BANK1   BANK2
      Params:         0       0       0       0
      Locals:         1       0       0       0
      Temps:          1       0       0       0
      Totals:         2       0       0       0
Total ram usage:        2 bytes
 Hardware stack levels used:    1
 Hardware stack levels required when called:    2
 This function calls:
		_RX_clearResponseReady
		_RX_getResponseBuffer
		_RX_getStatusBuffer
		_RX_newResponseReady
 This function is called by:
		_ISR
 This function uses a non-reentrant model


 *************** function _RX_newResponseReady *****************
 Defined at:
		line 272 in file "UART_RX_SM.c"
 Parameters:    Size  Location     Type
		None
 Auto vars:     Size  Location     Type
		None
 Return value:  Size  Location     Type
                  1    wreg      unsigned char 
 Registers used:
		wreg
 Tracked objects:
		On entry : 
		On exit  : 
		Unchanged: 
 Data sizes:     COMMON   BANK0   BANK1   BANK2
      Params:         0       0       0       0
      Locals:         0       0       0       0
      Temps:          0       0       0       0
      Totals:         0       0       0       0
Total ram usage:        0 bytes
 Hardware stack levels used:    1
 This function calls:
		Nothing
 This function is called by:
		_SPIIntResponse
 This function uses a non-reentrant model


 *************** function _RX_getStatusBuffer *****************
 Defined at:
		line 280 in file "UART_RX_SM.c"
 Parameters:    Size  Location     Type
		None
 Auto vars:     Size  Location     Type
		None
 Return value:  Size  Location     Type
                  1    wreg      PTR inline unsigned char
 Registers used:
		wreg, status,2, status,0, pclath, cstack
 Tracked objects:
		On entry : 
		On exit  : 
		Unchanged: 
 Data sizes:     COMMON   BANK0   BANK1   BANK2
      Params:         0       0       0       0
      Locals:         0       0       0       0
      Temps:          1       0       0       0
      Totals:         1       0       0       0
Total ram usage:        1 bytes
 Hardware stack levels used:    1
 Hardware stack levels required when called:    1
 This function calls:
		i1___bmul
 This function is called by:
		_SPIIntResponse
 This function uses a non-reentrant model


 *************** function _RX_getResponseBuffer *****************
 Defined at:
		line 284 in file "UART_RX_SM.c"
 Parameters:    Size  Location     Type
		None
 Auto vars:     Size  Location     Type
		None
 Return value:  Size  Location     Type
                  1    wreg      PTR inline unsigned char
 Registers used:
		wreg, status,2, status,0, pclath, cstack
 Tracked objects:
		On entry : 
		On exit  : 
		Unchanged: 
 Data sizes:     COMMON   BANK0   BANK1   BANK2
      Params:         0       0       0       0
      Locals:         0       0       0       0
      Temps:          1       0       0       0
      Totals:         1       0       0       0
Total ram usage:        1 bytes
 Hardware stack levels used:    1
 Hardware stack levels required when called:    1
 This function calls:
		i1___bmul
 This function is called by:
		_SPIIntResponse
 This function uses a non-reentrant model


 *************** function i1___bmul *****************
 Defined at:
		line 4 in file "C:\Program Files (x86)\Microchip\xc8\v1.36\sources\common\Umul8.c"
 Parameters:    Size  Location     Type
  multiplier      1    wreg     unsigned char 
  multiplicand    1    0[COMMON] unsigned char 
 Auto vars:     Size  Location     Type
  multiplier      1    2[COMMON] unsigned char 
  __bmul          1    3[COMMON] unsigned char 
 Return value:  Size  Location     Type
                  1    wreg      unsigned char 
 Registers used:
		wreg, status,2, status,0
 Tracked objects:
		On entry : 
		On exit  : 
		Unchanged: 
 Data sizes:     COMMON   BANK0   BANK1   BANK2
      Params:         1       0       0       0
      Locals:         2       0       0       0
      Temps:          1       0       0       0
      Totals:         4       0       0       0
Total ram usage:        4 bytes
 Hardware stack levels used:    1
 This function calls:
		Nothing
 This function is called by:
		_RX_getStatusBuffer
		_RX_getResponseBuffer
		_UARTRXIntResponse
 This function uses a non-reentrant model


 *************** function _RX_clearResponseReady *****************
 Defined at:
		line 276 in file "UART_RX_SM.c"
 Parameters:    Size  Location     Type
		None
 Auto vars:     Size  Location     Type
		None
 Return value:  Size  Location     Type
                  1    wreg      void 
 Registers used:
		status,2
 Tracked objects:
		On entry : 
		On exit  : 
		Unchanged: 
 Data sizes:     COMMON   BANK0   BANK1   BANK2
      Params:         0       0       0       0
      Locals:         0       0       0       0
      Temps:          0       0       0       0
      Totals:         0       0       0       0
Total ram usage:        0 bytes
 Hardware stack levels used:    1
 This function calls:
		Nothing
 This function is called by:
		_SPIIntResponse
 This function uses a non-reentrant model



MODULE INFORMATION

Module		Function		Class		Link	Load	Size
ES_Queue.c
		_ES_EnQueueFIFO		CODE           	06F1	0000	74
		_ES_DeQueue    		CODE           	02F1	0000	95
		_ES_InitQueue  		CODE           	07A3	0000	22

ES_Queue.c estimated size: 191

C:\Program Files (x86)\Microchip\xc8\v1.36\sources\common\Umul8.c
		___bmul        		CODE           	0656	0000	19

C:\Program Files (x86)\Microchip\xc8\v1.36\sources\common\Umul8.c estimated size: 19

ES_LookupTables.c
		_ES_GetMSBitSet		CODE           	026C	0000	63

ES_LookupTables.c estimated size: 63

ES_Framework.c
		_ES_PostToService		CODE           	0668	0000	37
		_ES_Run        		CODE           	0154	0000	170
		_ES_Initialize 		CODE           	0759	0000	75

ES_Framework.c estimated size: 282

UART_RX_SM.c
		_UARTRXIntResponse		CODE           	0000	0000	1
		_RX_clearResponseReady		CODE           	0000	0000	1
		_InitUARTRXService		CODE           	03A2	0000	62
		_CheckUARTRXEvent		CODE           	02C5	0000	23
		_RX_newResponseReady		CODE           	0000	0000	1
		_RunUARTRXService		CODE           	04EE	0000	361
		_RX_getStatusBuffer		CODE           	0FF7	0000	10
		_PostUARTRXService		CODE           	012C	0000	11
		_RX_getResponseBuffer		CODE           	0FEE	0000	10

UART_RX_SM.c estimated size: 480

PACSystemService.c
		_PostPACSystemService		CODE           	0122	0000	11
		_RunPACSystemService		CODE           	068C	0000	63
		_InitPACSystemService		CODE           	0140	0000	21

PACSystemService.c estimated size: 95

shared
		_BitNum2SetMask		STRING         	0055	0000	9
		__stringtab    		STRING         	0040	0000	7
		_ES_EventList  		STRING         	0000	0000	0
		_Nybble2MSBitNum		STRING         	0046	0000	16
		_EventQueues   		STRING         	005D	0000	9
		__initialization		CODE           	0013	0000	43
		_Timer2PostFunc		STRING         	006D	0000	9
		__fptable      		CODE           	0100	0000	35
		i1___bmul      		CODE           	0FDE	0000	17
		_ServDescList  		STRING         	0065	0000	9

shared estimated size: 154

SPI_SM.c
		_CheckSPIEvent 		CODE           	02AA	0000	28
		_RunSPIService 		CODE           	0357	0000	11
		_SPIIntResponse		CODE           	0000	0000	1
		_InitSPIService		CODE           	0377	0000	44

SPI_SM.c estimated size: 84

ES_Port.c
		_ISR           		CODE           	0E77	0000	360
		_IsTimerPending		CODE           	034F	0000	9
		_ES_Sys_Timer_Init		CODE           	07B8	0000	34

ES_Port.c estimated size: 403

ES_Timers.c
		_ES_Timer_RTI_Resp		CODE           	01FD	0000	112
		_ES_Timer_InitTimer		CODE           	06CA	0000	40

ES_Timers.c estimated size: 152

main.c
		_main          		CODE           	0078	0000	44

main.c estimated size: 44

UART_TX_SM.c
		_retrySend     		CODE           	0000	0000	1
		_TX_clearXBeePacket		CODE           	073A	0000	7
		_InitUARTTXService		CODE           	0361	0000	23
		_UARTTXIntResponse		CODE           	0000	0000	1
		_CheckUARTTXEvent		CODE           	02DB	0000	23
		_TX_getChecksum		CODE           	0740	0000	26
		_RunUARTTXService		CODE           	03DF	0000	252
		_PostUARTTXService		CODE           	0136	0000	11
		_TX_appendXBeePacket		CODE           	04DA	0000	21

UART_TX_SM.c estimated size: 365

sci.c
		_USART_Init    		CODE           	07D9	0000	27

sci.c estimated size: 27

