Microchip MPLAB XC8 Compiler V1.35 ()

Linker command line:

--edf=C:\Program Files (x86)\Microchip\xc8\v1.35\dat\en_msgs.txt -cs \
  -h+dist/default/production\PAC.production.sym \
  --cmf=dist/default/production\PAC.production.cmf -z -Q16F690 \
  -oC:\Users\TAOffice\AppData\Local\Temp\s3ho.2 \
  -Mdist/default/production/PAC.production.map -E1 -ver=XC8 \
  -ASTACK=0165h-016fh -pstack=STACK -ACODE=00h-07FFhx2 -ASTRCODE=00h-0FFFh \
  -ASTRING=00h-0FFhx16 -ACONST=00h-0FFhx16 -AENTRY=00h-0FFhx16 \
  -ACOMMON=070h-07Fh -ABANK0=020h-06Fh -ABANK1=0A0h-0EFh \
  -ABANK2=0120h-016Fh -ARAM=020h-06Fh,0A0h-0EFh,0120h-016Fh \
  -AABS1=020h-07Fh,0A0h-0EFh,0120h-016Fh -ASFR0=00h-01Fh -ASFR1=080h-09Fh \
  -ASFR2=0100h-011Fh -ASFR3=0180h-01EFh \
  -preset_vec=00h,intentry=04h,init,end_init -ppowerup=CODE -pcinit=CODE \
  -pfunctab=CODE -ACONFIG=02007h-02007h -pconfig=CONFIG -DCONFIG=2 \
  -AIDLOC=02000h-02003h -pidloc=IDLOC -DIDLOC=2 -AEEDATA=00h-0FFh/02100h \
  -peeprom_data=EEDATA -DEEDATA=2 -DCODE=2 -DSTRCODE=2 -DSTRING=2 -DCONST=2 \
  -DENTRY=2 -k C:\Users\TAOffice\AppData\Local\Temp\s3ho.obj \
  dist/default/production\PAC.production.obj 

Object code version is 3.11

Machine type is 16F690



                Name                               Link     Load   Length Selector   Space Scale
C:\Users\TAOffice\AppData\Local\Temp\s3ho.obj
                end_init                             11       11        2        8       0
                reset_vec                             0        0        2        0       0
                config                             2007     2007        1     400E       0
dist/default/production\PAC.production.obj
                cinit                                13       13       23        8       0
                functab                             100      100       22        2       0
                intentry                              4        4        D        8       0
                text37                              511      511      1BB        2       0
                text28                              DB7      DB7       17     1B6E       0
                text27                              E85      E85       4D     1D0A       0
                text26                              DE8      DE8       2C     1BD0       0
                text25                               EA       EA       15        8       0
                text20                              ED2      ED2       87     1DA4       0
                text19                              F59      F59       A7     1EB2       0
                text14                               36       36       B4        8       0
                jmp_tab__retrySend                  7FB      7FB        4      FF6       0
                text6                               6CC      6CC      12F        2       0
                text4                               D9A      D9A        D     1B34       0
                text3                               E41      E41       44     1C82       0
                jmp_tab__ES_CheckUserEvents         84F      84F        2     108A       0
                jmp_tab__ES_Timer_RTI_Resp          84D      84D        2     108A       0
                jmp_tab                             845      845        6     108A       0
                text2                               122      122      3EF        2       0
                text1                               DCE      DCE       1A     1B9C       0
                jmp_tab__ES_Run                     84B      84B        2     108A       0
                jmp_tab__ES_Initialize                2        2        2        4       0
                maintext                            E14      E14       2D     1C28       0
                cstackBANK0                          20       20       39       20       1
                cstackCOMMON                         70       70        D       70       1
                cstackBANK2                         158      158        D      120       1
                inittext                            DA7      DA7       10     1B4E       0
                clrtext                             D89      D89        8     1B12       0
                bssBANK2                            120      120       38      120       1
                dataBANK1                            E2       E2        9       A0       1
                bssBANK1                             A0       A0       42       A0       1
                bssBANK0                             59       59       17       20       1
                bssCOMMON                            7D       7D        1       70       1
                strings                             800      800       45     1000       0
                idataBANK1                          D91      D91        9     1B22       0

TOTAL           Name                               Link     Load   Length     Space
        CLASS   STACK          

        CLASS   CODE           
                end_init                             11       11        2         0
                cinit                                13       13       23         0
                functab                             100      100       22         0
                intentry                              4        4        D         0
                reset_vec                             0        0        2         0
                text37                              511      511      1BB         0
                text28                              DB7      DB7       17         0
                text27                              E85      E85       4D         0
                text26                              DE8      DE8       2C         0
                text25                               EA       EA       15         0
                text20                              ED2      ED2       87         0
                text19                              F59      F59       A7         0
                text14                               36       36       B4         0
                text6                               6CC      6CC      12F         0
                text4                               D9A      D9A        D         0
                text3                               E41      E41       44         0
                text2                               122      122      3EF         0
                text1                               DCE      DCE       1A         0
                maintext                            E14      E14       2D         0
                inittext                            DA7      DA7       10         0
                clrtext                             D89      D89        8         0
                idataBANK1                          D91      D91        9         0

        CLASS   STRCODE        

        CLASS   STRING         
                strings                             800      800       45         0

        CLASS   CONST          

        CLASS   ENTRY          
                jmp_tab__retrySend                  7FB      7FB        4         0
                jmp_tab__ES_CheckUserEvents         84F      84F        2         0
                jmp_tab__ES_Timer_RTI_Resp          84D      84D        2         0
                jmp_tab                             845      845        6         0
                jmp_tab__ES_Run                     84B      84B        2         0
                jmp_tab__ES_Initialize                2        2        2         0

        CLASS   COMMON         
                cstackCOMMON                         70       70        D         1
                bssCOMMON                            7D       7D        1         1

        CLASS   BANK0          
                cstackBANK0                          20       20       39         1
                bssBANK0                             59       59       17         1

        CLASS   BANK1          
                dataBANK1                            E2       E2        9         1
                bssBANK1                             A0       A0       42         1

        CLASS   BANK2          
                cstackBANK2                         158      158        D         1
                bssBANK2                            120      120       38         1

        CLASS   RAM            

        CLASS   ABS1           
                abs_s1                               7E       7E        2         1

        CLASS   SFR0           

        CLASS   SFR1           

        CLASS   SFR2           

        CLASS   SFR3           

        CLASS   CONFIG         
                config                             2007     2007        1         0

        CLASS   IDLOC          

        CLASS   EEDATA         

        CLASS   BANK3          



SEGMENTS        Name                           Load    Length   Top    Selector   Space  Class     Delta

                reset_vec                      000000  000002  000002         0       0  CODE        2
                jmp_tab__ES_Initialize         000002  000002  000004         4       0  ENTRY       2
                intentry                       000004  0000FB  0000FF         8       0  CODE        2
                cstackBANK0                    000020  000050  000070        20       1  BANK0       1
                cstackCOMMON                   000070  00000E  00007E        70       1  COMMON      1
                bssBANK1                       0000A0  00004B  0000EB        A0       1  BANK1       1
                bssBANK2                       000120  000045  000165       120       1  BANK2       1
                functab                        000100  0006FB  0007FB         2       0  CODE        2
                jmp_tab__retrySend             0007FB  000004  0007FF       FF6       0  ENTRY       2
                strings                        000800  000045  000845      1000       0  STRING      2
                jmp_tab                        000845  00000C  000851      108A       0  ENTRY       2
                clrtext                        000D89  000008  000D91      1B12       0  CODE        2
                idataBANK1                     000D91  000009  000D9A      1B22       0  CODE        2
                text4                          000D9A  00000D  000DA7      1B34       0  CODE        2
                inittext                       000DA7  000010  000DB7      1B4E       0  CODE        2
                text28                         000DB7  000017  000DCE      1B6E       0  CODE        2
                text1                          000DCE  00001A  000DE8      1B9C       0  CODE        2
                text26                         000DE8  00002C  000E14      1BD0       0  CODE        2
                maintext                       000E14  00002D  000E41      1C28       0  CODE        2
                text3                          000E41  000044  000E85      1C82       0  CODE        2
                text27                         000E85  00004D  000ED2      1D0A       0  CODE        2
                text20                         000ED2  000087  000F59      1DA4       0  CODE        2
                text19                         000F59  0000A7  001000      1EB2       0  CODE        2
                config                         002007  000001  002008      400E       0  CONFIG      2


UNUSED ADDRESS RANGES

        Name                Unused          Largest block    Delta
        BANK1            00EB-00EF              5           1
        BANK2            0165-016F              B           1
        CODE             00FF-00FF              1           2
                         07FF-07FF              1
                         0851-0D88            538
        CONST            00FF-00FF              1           2
                         07FF-07FF              1
                         0851-0D88            100
        EEDATA           2100-21FF            100           2
        ENTRY            00FF-00FF              1           2
                         07FF-07FF              1
                         0851-0D88            100
        IDLOC            2000-2003              4           2
        RAM              00EB-00EF              5           1
                         0165-016F              B
        SFR0             0000-001F             20           1
        SFR1             0080-009F             20           1
        SFR2             0100-011F             20           1
        SFR3             0180-01EF             70           1
        STACK            0165-016F              B           1
        STRCODE          00FF-00FF              1           2
                         07FF-07FF              1
                         0851-0D88            538
        STRING           00FF-00FF              1           2
                         07FF-07FF              1
                         0851-0D88            100

                                  Symbol Table

?_CheckSPIEvent                     cstackBANK0                 003F
?_CheckUARTRXEvent                  cstackBANK0                 003F
?_ES_Initialize                     cstackBANK0                 0041
?_ES_Run                            cstackBANK0                 004F
?_RunPACSystemService               cstackBANK0                 0044
?_RunSPIService                     cstackBANK0                 0044
?_RunUARTRXService                  cstackBANK0                 0044
?_RunUARTTXService                  cstackBANK0                 0044
CheckSPIEvent@SPIEvent              cstackBANK0                 0043
CheckUARTRXEvent@CommEvent          cstackBANK0                 0042
CheckUARTTXEvent@TXEvent            cstackBANK0                 003D
ES_DeQueue@NumLeft                  cstackBANK0                 0032
ES_DeQueue@pBlock                   cstackBANK0                 0024
ES_DeQueue@pReturnEvent             cstackBANK0                 0026
ES_DeQueue@pThisQueue               cstackBANK0                 0033
ES_DeQueue@saveCrit                 cstackBANK0                 0031
ES_EnQueueFIFO@Event2Add            cstackBANK0                 0026
ES_EnQueueFIFO@InsertionPoint       cstackBANK0                 0030
ES_EnQueueFIFO@pBlock               cstackBANK0                 0024
ES_EnQueueFIFO@pThisQueue           cstackBANK0                 0031
ES_EnQueueFIFO@saveCrit             cstackBANK0                 002F
ES_GetMSBitSet@LoopCntr             cstackBANK0                 0026
ES_GetMSBitSet@Nybble2Test          cstackBANK0                 0025
ES_GetMSBitSet@ReturnVal            cstackBANK0                 0024
ES_GetMSBitSet@Val2Check            cstackBANK0                 0023
ES_InitQueue@BlockSize              cstackBANK0                 0026
ES_InitQueue@pBlock                 cstackBANK0                 0024
ES_InitQueue@pThisQueue             cstackBANK0                 0029
ES_Initialize@NewRate               cstackBANK0                 0041
ES_Initialize@i                     cstackBANK0                 0048
ES_PostToService@TheEvent           cstackBANK0                 0033
ES_PostToService@WhichService       cstackBANK0                 003B
ES_Run@HighestPrior                 cstackBANK0                 0056
ES_Run@ThisEvent                    bssBANK1                    00DF
ES_Timer_InitTimer@NewTime          cstackBANK0                 0020
ES_Timer_InitTimer@Num              cstackBANK0                 0023
ES_Timer_RTI_Resp@NeedsProcessing   bssBANK0                    0059
ES_Timer_RTI_Resp@NewEvent          bssBANK1                    00BA
ES_Timer_RTI_Resp@NextTimer2Process bssBANK0                    005A
InitPACSystemService@Priority       cstackBANK0                 003C
InitPACSystemService@ThisEvent      cstackBANK0                 003E
InitSPIService@Priority             cstackBANK0                 003C
InitSPIService@ThisEvent            cstackBANK0                 003E
InitUARTRXService@Priority          cstackBANK0                 003C
InitUARTRXService@ThisEvent         cstackBANK0                 003E
InitUARTTXService@Priority          cstackBANK0                 003C
InitUARTTXService@ThisEvent         cstackBANK0                 003E
PACSystemService@MyPriority         bssBANK0                    005B
PostPACSystemService@ThisEvent      cstackBANK0                 003C
PostUARTRXService@ThisEvent         cstackBANK0                 003C
PostUARTTXService@ThisEvent         cstackBANK0                 003C
RunPACSystemService@ReturnEvent     cstackBANK0                 0049
RunPACSystemService@ThisEvent       cstackBANK0                 0044
RunSPIService@ReturnEvent           cstackBANK0                 0048
RunUARTRXService@ReturnEvent        cstackBANK2                 0158
RunUARTRXService@TXEvent            cstackBANK2                 0160
RunUARTRXService@ThisEvent          cstackBANK0                 0044
RunUARTRXService@addrEvent          cstackBANK2                 015D
RunUARTRXService@i                  cstackBANK2                 0163
RunUARTRXService@i_567              cstackBANK2                 0164
RunUARTRXService@msgAddr            cstackBANK2                 015B
RunUARTTXService@ReturnEvent        cstackBANK0                 0049
RunUARTTXService@ThisEvent          cstackBANK0                 0044
SPIIntResponse@readByte             cstackCOMMON                0076
SPI_SM@MyPriority                   bssBANK0                    005C
SPI_SM@currentState                 bssBANK1                    00C3
TX_appendXBeePacket@newByte         cstackBANK0                 0021
TX_getChecksum@chk                  cstackBANK0                 0021
TX_getChecksum@i                    cstackBANK0                 0022
UARTRXIntResponse@bodyByteCount     bssBANK0                    005D
UARTRXIntResponse@checksum          bssBANK1                    00C4
UARTRXIntResponse@currentByteIndex  bssCOMMON                   007D
UARTRXIntResponse@newByte           cstackCOMMON                0077
UART_TX_SM@MyPriority               bssBANK0                    005E
UART_TX_SM@currentState             bssBANK0                    005F
UART_TX_SM@superPACAddr             bssBANK1                    00BD
_ANS11                              (abs)                       08FB
_ANS4                               (abs)                       08F4
_ANS7                               (abs)                       08F7
_ANS9                               (abs)                       08F9
_BF                                 (abs)                       04A0
_BRG16                              (abs)                       04DB
_BRGH                               (abs)                       04C2
_BitNum2SetMask                     strings                     0821
_CREN                               (abs)                       00C4
_CheckSPIEvent                      text20                      0F07
_CheckUARTRXEvent                   text20                      0F32
_CheckUARTTXEvent                   text20                      0EEE
_ES_CheckUserEvents                 text20                      0ED2
_ES_DeQueue                         text19                      0F59
_ES_EnQueueFIFO                     text2                       0484
_ES_GetMSBitSet                     text14                      00AC
_ES_InitQueue                       text2                       03DC
_ES_Initialize                      text2                       019B
_ES_PostAll                         (abs)                       0000
_ES_PostToService                   text2                       044F
_ES_PostToService$1340              cstackBANK0                 0039
_ES_Run                             text2                       0122
_ES_Run$1334                        cstackBANK0                 0054
_ES_Sys_Timer_Init                  text2                       0407
_ES_Timer_InitTimer                 text2                       0428
_ES_Timer_RTI_Resp                  text14                      0036
_EventQueues                        strings                     0815
_GIE                                (abs)                       005F
_INTCON                             (abs)                       000B
_ISR                                text37                      0511
_InitPACSystemService               text25                      00EA
_InitSPIService                     text26                      0DE8
_InitUARTRXService                  text27                      0E85
_InitUARTTXService                  text28                      0DB7
_IsTimerPending                     text2                       0509
_MyPriority                         bssBANK0                    0060
_Nybble2MSBitNum                    strings                     0806
_OSCCON                             (abs)                       008F
_PEIE                               (abs)                       005E
_PORTC                              (abs)                       0007
_PS0                                (abs)                       0408
_PS1                                (abs)                       0409
_PS2                                (abs)                       040A
_PSA                                (abs)                       040B
_PostPACSystemService               text6                       07D2
_PostUARTRXService                  text20                      0F4E
_PostUARTTXService                  text2                       03D2
_Queue0                             bssBANK1                    00CD
_Queue1                             bssBANK2                    0134
_Queue2                             bssBANK2                    0140
_Queue3                             bssBANK2                    014C
_RC0                                (abs)                       0038
_RC3                                (abs)                       003B
_RC7                                (abs)                       003F
_RCIE                               (abs)                       0465
_RCIF                               (abs)                       0065
_RCREG                              (abs)                       001A
_RXBuffer                           bssBANK2                    0120
_RXFlag                             bssBANK0                    0061
_RX_clearResponseReady              text46                      0000
_RX_getResponseBuffer               text37                      06BA
_RX_getStatusBuffer                 text37                      06C3
_RX_newResponseReady                text42                      0000
_Ready                              bssBANK0                    0062
_RunPACSystemService                text3                       0E41
_RunSPIService                      text4                       0D9A
_RunUARTRXService                   text2                       020A
_RunUARTTXService                   text6                       06CC
_SPBRG                              (abs)                       0099
_SPBRGH                             (abs)                       009A
_SPEN                               (abs)                       00C7
_SPIBuffer                          bssBANK0                    0063
_SPIIntResponse                     text41                      0000
_SSPBUF                             (abs)                       0013
_SSPCON                             (abs)                       0014
_SSPIE                              (abs)                       0463
_SSPIF                              (abs)                       0063
_SSPSTAT                            (abs)                       0094
_SYNC                               (abs)                       04C4
_ServDescList                       strings                     0829
_T0CS                               (abs)                       040D
_T0IE                               (abs)                       005D
_T0IF                               (abs)                       005A
_TMR0                               (abs)                       0001
_TMR_ActiveFlags                    bssBANK0                    0064
_TMR_TimerArray                     bssBANK1                    00A0
_TRISB4                             (abs)                       0434
_TRISB6                             (abs)                       0436
_TRISC0                             (abs)                       0438
_TRISC3                             (abs)                       043B
_TRISC6                             (abs)                       043E
_TRISC7                             (abs)                       043F
_TXEN                               (abs)                       04C5
_TXError                            bssBANK1                    00C6
_TXIE                               (abs)                       0464
_TXIF                               (abs)                       0064
_TXREG                              (abs)                       0019
_TX_appendXBeePacket                text6                       0782
_TX_clearXBeePacket                 text6                       0796
_TX_getChecksum                     text6                       079C
_TickCount                          bssBANK0                    0065
_Timer2PostFunc                     strings                     0839
_UARTRXIntResponse                  text39                      0000
_UARTTXIntResponse                  text38                      0000
_USART_Init                         text1                       0DCE
_XBeePacket                         bssBANK1                    00B0
__CFG_BOREN$OFF                     (abs)                       0000
__CFG_CP$OFF                        (abs)                       0000
__CFG_CPD$OFF                       (abs)                       0000
__CFG_FCMEN$OFF                     (abs)                       0000
__CFG_FOSC$HS                       (abs)                       0000
__CFG_IESO$OFF                      (abs)                       0000
__CFG_MCLRE$ON                      (abs)                       0000
__CFG_PWRTE$OFF                     (abs)                       0000
__CFG_WDTE$OFF                      (abs)                       0000
__Habs1                             abs1                        0000
__Hbank0                            bank0                       0000
__Hbank1                            bank1                       0000
__Hbank2                            bank2                       0000
__Hbank3                            bank3                       0000
__HbssBANK0                         bssBANK0                    0000
__HbssBANK1                         bssBANK1                    0000
__HbssBANK2                         bssBANK2                    0000
__HbssCOMMON                        bssCOMMON                   0000
__Hcinit                            cinit                       0036
__Hclrtext                          clrtext                     0000
__Hcode                             code                        0000
__Hcommon                           common                      0000
__Hconfig                           config                      2008
__HcstackBANK0                      cstackBANK0                 0000
__HcstackBANK2                      cstackBANK2                 0000
__HcstackCOMMON                     cstackCOMMON                0000
__HdataBANK1                        dataBANK1                   0000
__Heeprom_data                      eeprom_data                 0000
__Hend_init                         end_init                    0013
__Hfunctab                          functab                     0122
__HidataBANK1                       idataBANK1                  0000
__Hidloc                            idloc                       0000
__Hinit                             init                        0011
__Hinittext                         inittext                    0000
__Hintentry                         intentry                    0011
__Hjmp_tab                          jmp_tab                     0000
__Hjmp_tab__ES_CheckUserEvents      jmp_tab__ES_CheckUserEvents 0000
__Hjmp_tab__ES_Initialize           jmp_tab__ES_Initialize      0000
__Hjmp_tab__ES_Run                  jmp_tab__ES_Run             0000
__Hjmp_tab__ES_Timer_RTI_Resp       jmp_tab__ES_Timer_RTI_Resp  0000
__Hjmp_tab__retrySend               jmp_tab__retrySend          0000
__Hmaintext                         maintext                    0000
__Hpowerup                          powerup                     0000
__Hram                              ram                         0000
__Hreset_vec                        reset_vec                   0002
__Hsfr0                             sfr0                        0000
__Hsfr1                             sfr1                        0000
__Hsfr2                             sfr2                        0000
__Hsfr3                             sfr3                        0000
__Hspace_0                          (abs)                       2008
__Hspace_1                          (abs)                       0165
__Hspace_2                          (abs)                       0000
__Hspace_3                          (abs)                       0000
__Hstack                            stack                       0000
__Hstrings                          strings                     0000
__Htext                             text                        0000
__Labs1                             abs1                        0000
__Lbank0                            bank0                       0000
__Lbank1                            bank1                       0000
__Lbank2                            bank2                       0000
__Lbank3                            bank3                       0000
__LbssBANK0                         bssBANK0                    0000
__LbssBANK1                         bssBANK1                    0000
__LbssBANK2                         bssBANK2                    0000
__LbssCOMMON                        bssCOMMON                   0000
__Lcinit                            cinit                       0013
__Lclrtext                          clrtext                     0000
__Lcode                             code                        0000
__Lcommon                           common                      0000
__Lconfig                           config                      2007
__LcstackBANK0                      cstackBANK0                 0000
__LcstackBANK2                      cstackBANK2                 0000
__LcstackCOMMON                     cstackCOMMON                0000
__LdataBANK1                        dataBANK1                   0000
__Leeprom_data                      eeprom_data                 0000
__Lend_init                         end_init                    0011
__Lfunctab                          functab                     0100
__LidataBANK1                       idataBANK1                  0000
__Lidloc                            idloc                       0000
__Linit                             init                        0011
__Linittext                         inittext                    0000
__Lintentry                         intentry                    0004
__Ljmp_tab                          jmp_tab                     0000
__Ljmp_tab__ES_CheckUserEvents      jmp_tab__ES_CheckUserEvents 0000
__Ljmp_tab__ES_Initialize           jmp_tab__ES_Initialize      0000
__Ljmp_tab__ES_Run                  jmp_tab__ES_Run             0000
__Ljmp_tab__ES_Timer_RTI_Resp       jmp_tab__ES_Timer_RTI_Resp  0000
__Ljmp_tab__retrySend               jmp_tab__retrySend          0000
__Lmaintext                         maintext                    0000
__Lpowerup                          powerup                     0000
__Lram                              ram                         0000
__Lreset_vec                        reset_vec                   0000
__Lsfr0                             sfr0                        0000
__Lsfr1                             sfr1                        0000
__Lsfr2                             sfr2                        0000
__Lsfr3                             sfr3                        0000
__Lspace_0                          (abs)                       0000
__Lspace_1                          (abs)                       0000
__Lspace_2                          (abs)                       0000
__Lspace_3                          (abs)                       0000
__Lstack                            stack                       0000
__Lstrings                          strings                     0000
__Ltext                             text                        0000
__S0                                (abs)                       2008
__S1                                (abs)                       0165
__S2                                (abs)                       0000
__S3                                (abs)                       0000
___bmul                             text2                       03C0
___bmul@multiplicand                cstackBANK0                 0020
___bmul@multiplier                  cstackBANK0                 0023
___bmul@product                     cstackBANK0                 0022
___int_sp                           stack                       0000
___latbits                          (abs)                       0001
___sp                               stack                       0000
__end_of_BitNum2SetMask             strings                     0829
__end_of_CheckSPIEvent              text20                      0F32
__end_of_CheckUARTRXEvent           text20                      0F4E
__end_of_CheckUARTTXEvent           text20                      0F07
__end_of_ES_CheckUserEvents         text20                      0EEE
__end_of_ES_DeQueue                 text19                      1000
__end_of_ES_EnQueueFIFO             text2                       0509
__end_of_ES_EventList               strings                     0844
__end_of_ES_GetMSBitSet             text14                      00EA
__end_of_ES_InitQueue               text2                       0407
__end_of_ES_Initialize              text2                       020A
__end_of_ES_PostToService           text2                       0484
__end_of_ES_Run                     text2                       019B
__end_of_ES_Sys_Timer_Init          text2                       0428
__end_of_ES_Timer_InitTimer         text2                       044F
__end_of_ES_Timer_RTI_Resp          text14                      00AC
__end_of_EventQueues                strings                     0821
__end_of_ISR                        text37                      06AA
__end_of_InitPACSystemService       text25                      00FF
__end_of_InitSPIService             text26                      0E14
__end_of_InitUARTRXService          text27                      0ED2
__end_of_InitUARTTXService          text28                      0DCE
__end_of_IsTimerPending             text2                       0511
__end_of_Nybble2MSBitNum            strings                     0815
__end_of_PostPACSystemService       text6                       07DD
__end_of_PostUARTRXService          text20                      0F59
__end_of_PostUARTTXService          text2                       03DC
__end_of_RX_clearResponseReady      text46                      0000
__end_of_RX_getResponseBuffer       text37                      06C3
__end_of_RX_getStatusBuffer         text37                      06CC
__end_of_RX_newResponseReady        text42                      0000
__end_of_RunPACSystemService        text3                       0E85
__end_of_RunSPIService              text4                       0DA7
__end_of_RunUARTRXService           text2                       03C0
__end_of_RunUARTTXService           text6                       0782
__end_of_SPIIntResponse             text41                      0000
__end_of_ServDescList               strings                     0831
__end_of_TMR_MaskArray              strings                     0839
__end_of_TX_appendXBeePacket        text6                       0796
__end_of_TX_clearXBeePacket         text6                       079C
__end_of_TX_getChecksum             text6                       07B5
__end_of_Timer2PostFunc             strings                     0841
__end_of_UARTRXIntResponse          text39                      0000
__end_of_UARTTXIntResponse          text38                      0000
__end_of_USART_Init                 text1                       0DE8
__end_of___bmul                     text2                       03D2
__end_of__fptable                   functab                     0122
__end_of__initialization            cinit                       0033
__end_of__stringtab                 strings                     0806
__end_of_main                       maintext                    0E41
__end_of_pPostKeyFunc               strings                     0845
__end_of_retrySend                  text6                       07D2
__end_of_superPACAddrSet            text6                       07FB
__end_of_toggleRXBuffer             text31                      0000
__end_of_toggleRespBuffer           text30                      0000
__end_of_toggleStatBuffer           text29                      0000
__end_ofi1___bmul                   text37                      06BA
__end_ofi1_toggleRXBuffer           text40                      0000
__fptable                           functab                     0100
__initialization                    cinit                       0013
__pbssBANK0                         bssBANK0                    0059
__pbssBANK1                         bssBANK1                    00A0
__pbssBANK2                         bssBANK2                    0120
__pbssCOMMON                        bssCOMMON                   007D
__pcstackBANK0                      cstackBANK0                 0020
__pcstackBANK2                      cstackBANK2                 0158
__pcstackCOMMON                     cstackCOMMON                0070
__pdataBANK1                        dataBANK1                   00E2
__pfunctab                          functab                     0100
__pidataBANK1                       idataBANK1                  0D91
__pintentry                         intentry                    0004
__pjmp_tab                          jmp_tab                     0845
__pjmp_tab__ES_CheckUserEvents      jmp_tab__ES_CheckUserEvents 084F
__pjmp_tab__ES_Initialize           jmp_tab__ES_Initialize      0002
__pjmp_tab__ES_Run                  jmp_tab__ES_Run             084B
__pjmp_tab__ES_Timer_RTI_Resp       jmp_tab__ES_Timer_RTI_Resp  084D
__pjmp_tab__retrySend               jmp_tab__retrySend          07FB
__pmaintext                         maintext                    0E14
__pstrings                          strings                     0800
__ptext1                            text1                       0DCE
__ptext10                           text6                       0796
__ptext11                           text6                       0782
__ptext12                           text2                       0428
__ptext13                           text2                       0509
__ptext14                           text14                      0036
__ptext15                           text2                       03D2
__ptext16                           text20                      0F4E
__ptext17                           text6                       07D2
__ptext18                           text14                      00AC
__ptext19                           text19                      0F59
__ptext2                            text2                       0122
__ptext20                           text20                      0ED2
__ptext21                           text20                      0EEE
__ptext22                           text20                      0F32
__ptext23                           text20                      0F07
__ptext24                           text2                       019B
__ptext25                           text25                      00EA
__ptext26                           text26                      0DE8
__ptext27                           text27                      0E85
__ptext28                           text28                      0DB7
__ptext29                           text29                      0000
__ptext3                            text3                       0E41
__ptext30                           text30                      0000
__ptext31                           text31                      0000
__ptext32                           text2                       044F
__ptext33                           text2                       0484
__ptext34                           text2                       03C0
__ptext35                           text2                       0407
__ptext36                           text2                       03DC
__ptext37                           text37                      0511
__ptext38                           text38                      0000
__ptext39                           text39                      0000
__ptext4                            text4                       0D9A
__ptext40                           text40                      0000
__ptext41                           text41                      0000
__ptext42                           text42                      0000
__ptext43                           text37                      06C3
__ptext44                           text37                      06BA
__ptext45                           text37                      06AA
__ptext46                           text46                      0000
__ptext5                            text2                       020A
__ptext6                            text6                       06CC
__ptext7                            text6                       07DD
__ptext8                            text6                       07B5
__ptext9                            text6                       079C
__size_of_CheckSPIEvent             (abs)                       0000
__size_of_CheckUARTRXEvent          (abs)                       0000
__size_of_CheckUARTTXEvent          (abs)                       0000
__size_of_ES_CheckUserEvents        (abs)                       0000
__size_of_ES_DeQueue                (abs)                       0000
__size_of_ES_EnQueueFIFO            (abs)                       0000
__size_of_ES_GetMSBitSet            (abs)                       0000
__size_of_ES_InitQueue              (abs)                       0000
__size_of_ES_Initialize             (abs)                       0000
__size_of_ES_PostToService          (abs)                       0000
__size_of_ES_Run                    (abs)                       0000
__size_of_ES_Sys_Timer_Init         (abs)                       0000
__size_of_ES_Timer_InitTimer        (abs)                       0000
__size_of_ES_Timer_RTI_Resp         (abs)                       0000
__size_of_ISR                       (abs)                       0000
__size_of_InitPACSystemService      (abs)                       0000
__size_of_InitSPIService            (abs)                       0000
__size_of_InitUARTRXService         (abs)                       0000
__size_of_InitUARTTXService         (abs)                       0000
__size_of_IsTimerPending            (abs)                       0000
__size_of_PostPACSystemService      (abs)                       0000
__size_of_PostUARTRXService         (abs)                       0000
__size_of_PostUARTTXService         (abs)                       0000
__size_of_RX_clearResponseReady     (abs)                       0000
__size_of_RX_getResponseBuffer      (abs)                       0000
__size_of_RX_getStatusBuffer        (abs)                       0000
__size_of_RX_newResponseReady       (abs)                       0000
__size_of_RunPACSystemService       (abs)                       0000
__size_of_RunSPIService             (abs)                       0000
__size_of_RunUARTRXService          (abs)                       0000
__size_of_RunUARTTXService          (abs)                       0000
__size_of_SPIIntResponse            (abs)                       0000
__size_of_TX_appendXBeePacket       (abs)                       0000
__size_of_TX_clearXBeePacket        (abs)                       0000
__size_of_TX_getChecksum            (abs)                       0000
__size_of_UARTRXIntResponse         (abs)                       0000
__size_of_UARTTXIntResponse         (abs)                       0000
__size_of_USART_Init                (abs)                       0000
__size_of___bmul                    (abs)                       0000
__size_of__fptable                  (abs)                       0000
__size_of_main                      (abs)                       0000
__size_of_retrySend                 (abs)                       0000
__size_of_superPACAddrSet           (abs)                       0000
__size_of_toggleRXBuffer            (abs)                       0000
__size_of_toggleRespBuffer          (abs)                       0000
__size_of_toggleStatBuffer          (abs)                       0000
__size_ofi1___bmul                  (abs)                       0000
__size_ofi1_toggleRXBuffer          (abs)                       0000
__stringbase                        strings                     0805
__stringtab                         strings                     0800
_colorRequestData                   bssBANK1                    00C7
_commOpen                           bssBANK1                    00C8
_currentState                       bssBANK0                    0066
_hasHeartbeat                       bssBANK1                    00C9
_index                              bssBANK0                    0067
_inlined$_RX_clearResponseReady     (abs)                       0001
_inlined$_RX_newResponseReady       (abs)                       0001
_inlined$_SPIIntResponse            (abs)                       0001
_inlined$_UARTRXIntResponse         (abs)                       0001
_inlined$_UARTTXIntResponse         (abs)                       0001
_inlined$_toggleRXBuffer            (abs)                       0001
_inlined$_toggleRespBuffer          (abs)                       0001
_inlined$_toggleStatBuffer          (abs)                       0001
_inlined$i1_toggleRXBuffer          (abs)                       0001
_length                             bssBANK0                    0068
_main                               maintext                    0E14
_newRequest                         bssBANK1                    00CA
_newResponseAvailable               bssBANK0                    0069
_radioPing                          bssBANK1                    00CB
_readRXIndex                        bssBANK0                    006A
_readRespIndex                      bssBANK0                    006B
_readStatIndex                      bssBANK0                    006C
_responseBuffer                     bssBANK1                    00D9
_responseBytes                      dataBANK1                   00E8
_retrySend                          text6                       07B5
_sendCompleteFlag                   bssBANK1                    00CC
_statusBuffer                       dataBANK1                   00E2
_superPACAddr                       bssBANK1                    00BF
_superPACAddrSet                    text6                       07DD
_superPACAddrSet$696                cstackBANK0                 0024
_time                               bssBANK1                    00C1
_toggleRXBuffer                     text31                      0000
_toggleRespBuffer                   text30                      0000
_toggleStatBuffer                   text29                      0000
_writeRXIndex                       bssBANK0                    006D
_writeRespIndex                     bssBANK0                    006E
_writeStatIndex                     bssBANK0                    006F
btemp                               (abs)                       007E
clear_ram0                          clrtext                     0D89
end_of_initialization               cinit                       0033
entry__CheckUARTTXEvent             functab                     0112
entry__PostPACSystemService         functab                     0114
entry__PostUARTRXService            functab                     0116
entry__PostUARTTXService            functab                     0118
fpbase                              functab                     0105
fptable                             functab                     0100
fptotal                             (abs)                       001C
i1___bmul                           text37                      06AA
i1___bmul@multiplicand              cstackCOMMON                0070
i1___bmul@multiplier                cstackCOMMON                0072
i1___bmul@product                   cstackCOMMON                0073
i1_toggleRXBuffer                   text40                      0000
init_fetch0                         inittext                    0DA7
init_ram0                           inittext                    0DAB
interrupt_function                  intentry                    0004
intlevel0                           functab                     0100
intlevel1                           functab                     0100
intlevel2                           functab                     0100
intlevel3                           functab                     0100
intlevel4                           functab                     0100
intlevel5                           functab                     0100
ltemp                               (abs)                       007E
ltemp0                              (abs)                       007E
ltemp1                              (abs)                       0082
ltemp2                              (abs)                       0086
ltemp3                              (abs)                       0080
main@ErrorType                      cstackBANK0                 0058
reset_vec                           reset_vec                   0000
retrySend@LEDEvent                  cstackBANK0                 0041
saved_w                             (abs)                       007E
stackhi                             (abs)                       0000
stacklo                             (abs)                       0000
start                               init                        0011
start_initialization                cinit                       0013
ttemp                               (abs)                       007E
ttemp0                              (abs)                       007E
ttemp1                              (abs)                       0081
ttemp2                              (abs)                       0084
ttemp3                              (abs)                       0087
ttemp4                              (abs)                       007F
u2367jf                             text20                      0ED8
u2387jf                             text20                      0EE1
u2637jf                             text6                       0741
u2657jf                             text6                       074E
u2767jf                             text2                       0180
u2797jf                             text2                       018C
u2817jf                             text2                       0194
u3027jf                             maintext                    0E28
u3047jf                             maintext                    0E33
wtemp                               (abs)                       007E
wtemp0                              (abs)                       007E
wtemp1                              (abs)                       0080
wtemp2                              (abs)                       0082
wtemp3                              (abs)                       0084
wtemp4                              (abs)                       0086
wtemp5                              (abs)                       0088
wtemp6                              (abs)                       007F


FUNCTION INFORMATION:

 *************** function _main *****************
 Defined at:
		line 21 in file "main.c"
 Parameters:    Size  Location     Type
		None
 Auto vars:     Size  Location     Type
  ErrorType       1   56[BANK0 ] enum E1641
 Return value:  Size  Location     Type
		None               void
 Registers used:
		wreg, fsr0l, fsr0h, status,2, status,0, btemp+1, pclath, cstack
 Tracked objects:
		On entry : 
		On exit  : 
		Unchanged: 
 Data sizes:     COMMON   BANK0   BANK1   BANK2
      Params:         0       0       0       0
      Locals:         0       1       0       0
      Temps:          0       1       0       0
      Totals:         0       2       0       0
Total ram usage:        2 bytes
 Hardware stack levels required when called:    8
 This function calls:
		_ES_Initialize
		_ES_Run
		_USART_Init
 This function is called by:
		Startup code after reset
 This function uses a non-reentrant model


 *************** function _USART_Init *****************
 Defined at:
		line 11 in file "sci.c"
 Parameters:    Size  Location     Type
		None
 Auto vars:     Size  Location     Type
		None
 Return value:  Size  Location     Type
		None               void
 Registers used:
		wreg, status,2
 Tracked objects:
		On entry : 
		On exit  : 
		Unchanged: 
 Data sizes:     COMMON   BANK0   BANK1   BANK2
      Params:         0       0       0       0
      Locals:         0       0       0       0
      Temps:          0       0       0       0
      Totals:         0       0       0       0
Total ram usage:        0 bytes
 Hardware stack levels used:    1
 Hardware stack levels required when called:    4
 This function calls:
		Nothing
 This function is called by:
		_main
 This function uses a non-reentrant model


 *************** function _ES_Run *****************
 Defined at:
		line 224 in file "ES_Framework.c"
 Parameters:    Size  Location     Type
		None
 Auto vars:     Size  Location     Type
  HighestPrior    1   54[BANK0 ] unsigned char 
 Return value:  Size  Location     Type
                  1   47[BANK0 ] enum E1594
 Registers used:
		wreg, fsr0l, fsr0h, status,2, status,0, btemp+1, pclath, cstack
 Tracked objects:
		On entry : 
		On exit  : 
		Unchanged: 
 Data sizes:     COMMON   BANK0   BANK1   BANK2
      Params:         0       2       0       0
      Locals:         0       3       0       0
      Temps:          0       3       0       0
      Totals:         0       8       0       0
Total ram usage:        8 bytes
 Hardware stack levels required when called:    8
 This function calls:
		_ES_CheckUserEvents
		_ES_DeQueue
		_ES_GetMSBitSet
		_ES_Timer_RTI_Resp
		_IsTimerPending
		_RunPACSystemService
		_RunSPIService
		_RunUARTRXService
		_RunUARTTXService
		___bmul
 This function is called by:
		_main
 This function uses a non-reentrant model


 *************** function _RunPACSystemService *****************
 Defined at:
		line 113 in file "PACSystemService.c"
 Parameters:    Size  Location     Type
  ThisEvent       3   36[BANK0 ] struct ES_Event_t
 Auto vars:     Size  Location     Type
  ReturnEvent     3   41[BANK0 ] struct ES_Event_t
 Return value:  Size  Location     Type
                  3   36[BANK0 ] struct ES_Event_t
 Registers used:
		wreg, fsr0l, fsr0h, status,2, status,0, pclath, cstack
 Tracked objects:
		On entry : 
		On exit  : 
		Unchanged: 
 Data sizes:     COMMON   BANK0   BANK1   BANK2
      Params:         0       4       0       0
      Locals:         0       3       0       0
      Temps:          0       1       0       0
      Totals:         0       8       0       0
Total ram usage:        8 bytes
 Hardware stack levels required when called:    5
 This function calls:
		_ES_Timer_InitTimer
 This function is called by:
		_ES_Run
 This function uses a non-reentrant model


 *************** function _RunSPIService *****************
 Defined at:
		line 170 in file "SPI_SM.c"
 Parameters:    Size  Location     Type
  ThisEvent       3   36[BANK0 ] struct ES_Event_t
 Auto vars:     Size  Location     Type
  ReturnEvent     3   40[BANK0 ] struct ES_Event_t
 Return value:  Size  Location     Type
                  3   36[BANK0 ] struct ES_Event_t
 Registers used:
		wreg, status,2
 Tracked objects:
		On entry : 
		On exit  : 
		Unchanged: 
 Data sizes:     COMMON   BANK0   BANK1   BANK2
      Params:         0       4       0       0
      Locals:         0       3       0       0
      Temps:          0       0       0       0
      Totals:         0       7       0       0
Total ram usage:        7 bytes
 Hardware stack levels required when called:    4
 This function calls:
		Nothing
 This function is called by:
		_ES_Run
 This function uses a non-reentrant model


 *************** function _RunUARTRXService *****************
 Defined at:
		line 173 in file "UART_RX_SM.c"
 Parameters:    Size  Location     Type
  ThisEvent       3   36[BANK0 ] struct ES_Event_t
 Auto vars:     Size  Location     Type
  i               1   12[BANK2 ] unsigned char 
  i               1   11[BANK2 ] unsigned char 
  msgAddr         2    3[BANK2 ] unsigned int 
  addrEvent       3    5[BANK2 ] struct ES_Event_t
  TXEvent         3    8[BANK2 ] struct ES_Event_t
  ReturnEvent     3    0[BANK2 ] struct ES_Event_t
 Return value:  Size  Location     Type
                  3   36[BANK0 ] struct ES_Event_t
 Registers used:
		wreg, fsr0l, fsr0h, status,2, status,0, btemp+1, pclath, cstack
 Tracked objects:
		On entry : 
		On exit  : 
		Unchanged: 
 Data sizes:     COMMON   BANK0   BANK1   BANK2
      Params:         0       4       0       0
      Locals:         0       0       0      13
      Temps:          0       7       0       0
      Totals:         0      11       0      13
Total ram usage:       24 bytes
 Hardware stack levels required when called:    8
 This function calls:
		_ES_Timer_InitTimer
		_PostUARTTXService
		___bmul
		_toggleRespBuffer
		_toggleStatBuffer
 This function is called by:
		_ES_Run
 This function uses a non-reentrant model


 *************** function _RunUARTTXService *****************
 Defined at:
		line 144 in file "UART_TX_SM.c"
 Parameters:    Size  Location     Type
  ThisEvent       3   36[BANK0 ] struct ES_Event_t
 Auto vars:     Size  Location     Type
  ReturnEvent     3   41[BANK0 ] struct ES_Event_t
 Return value:  Size  Location     Type
                  3   36[BANK0 ] struct ES_Event_t
 Registers used:
		wreg, fsr0l, fsr0h, status,2, status,0, btemp+1, pclath, cstack
 Tracked objects:
		On entry : 
		On exit  : 
		Unchanged: 
 Data sizes:     COMMON   BANK0   BANK1   BANK2
      Params:         0       4       0       0
      Locals:         0       3       0       0
      Temps:          0       1       0       0
      Totals:         0       8       0       0
Total ram usage:        8 bytes
 Hardware stack levels required when called:    8
 This function calls:
		_ES_Timer_InitTimer
		_TX_appendXBeePacket
		_TX_clearXBeePacket
		_TX_getChecksum
		_retrySend
		_superPACAddrSet
 This function is called by:
		_ES_Run
 This function uses a non-reentrant model


 *************** function _superPACAddrSet *****************
 Defined at:
		line 299 in file "UART_TX_SM.c"
 Parameters:    Size  Location     Type
		None
 Auto vars:     Size  Location     Type
		None
 Return value:  Size  Location     Type
                  1    wreg      unsigned char 
 Registers used:
		wreg, status,2, status,0
 Tracked objects:
		On entry : 
		On exit  : 
		Unchanged: 
 Data sizes:     COMMON   BANK0   BANK1   BANK2
      Params:         0       0       0       0
      Locals:         0       2       0       0
      Temps:          0       4       0       0
      Totals:         0       6       0       0
Total ram usage:        6 bytes
 Hardware stack levels used:    1
 Hardware stack levels required when called:    4
 This function calls:
		Nothing
 This function is called by:
		_RunUARTTXService
 This function uses a non-reentrant model


 *************** function _retrySend *****************
 Defined at:
		line 303 in file "UART_TX_SM.c"
 Parameters:    Size  Location     Type
		None
 Auto vars:     Size  Location     Type
  LEDEvent        3   33[BANK0 ] struct ES_Event_t
 Return value:  Size  Location     Type
		None               void
 Registers used:
		wreg, fsr0l, fsr0h, status,2, status,0, btemp+1, pclath, cstack
 Tracked objects:
		On entry : 
		On exit  : 
		Unchanged: 
 Data sizes:     COMMON   BANK0   BANK1   BANK2
      Params:         0       1       0       0
      Locals:         0       3       0       0
      Temps:          0       1       0       0
      Totals:         0       5       0       0
Total ram usage:        5 bytes
 Hardware stack levels required when called:    8
 This function calls:
		_PostPACSystemService
 This function is called by:
		_RunUARTTXService
 This function uses a non-reentrant model


 *************** function _TX_getChecksum *****************
 Defined at:
		line 254 in file "UART_TX_SM.c"
 Parameters:    Size  Location     Type
		None
 Auto vars:     Size  Location     Type
  i               1    2[BANK0 ] unsigned char 
  chk             1    1[BANK0 ] unsigned char 
 Return value:  Size  Location     Type
                  1    wreg      unsigned char 
 Registers used:
		wreg, fsr0l, fsr0h, status,2, status,0
 Tracked objects:
		On entry : 
		On exit  : 
		Unchanged: 
 Data sizes:     COMMON   BANK0   BANK1   BANK2
      Params:         0       0       0       0
      Locals:         0       2       0       0
      Temps:          0       1       0       0
      Totals:         0       3       0       0
Total ram usage:        3 bytes
 Hardware stack levels used:    1
 Hardware stack levels required when called:    4
 This function calls:
		Nothing
 This function is called by:
		_RunUARTTXService
 This function uses a non-reentrant model


 *************** function _TX_clearXBeePacket *****************
 Defined at:
		line 236 in file "UART_TX_SM.c"
 Parameters:    Size  Location     Type
		None
 Auto vars:     Size  Location     Type
		None
 Return value:  Size  Location     Type
                  1    wreg      unsigned char 
 Registers used:
		wreg, status,2, status,0
 Tracked objects:
		On entry : 
		On exit  : 
		Unchanged: 
 Data sizes:     COMMON   BANK0   BANK1   BANK2
      Params:         0       0       0       0
      Locals:         0       0       0       0
      Temps:          0       0       0       0
      Totals:         0       0       0       0
Total ram usage:        0 bytes
 Hardware stack levels used:    1
 Hardware stack levels required when called:    4
 This function calls:
		Nothing
 This function is called by:
		_RunUARTTXService
 This function uses a non-reentrant model


 *************** function _TX_appendXBeePacket *****************
 Defined at:
		line 245 in file "UART_TX_SM.c"
 Parameters:    Size  Location     Type
  newByte         1    wreg     unsigned char 
 Auto vars:     Size  Location     Type
  newByte         1    1[BANK0 ] unsigned char 
 Return value:  Size  Location     Type
                  1    wreg      unsigned char 
 Registers used:
		wreg, fsr0l, fsr0h, status,2, status,0
 Tracked objects:
		On entry : 
		On exit  : 
		Unchanged: 
 Data sizes:     COMMON   BANK0   BANK1   BANK2
      Params:         0       0       0       0
      Locals:         0       1       0       0
      Temps:          0       1       0       0
      Totals:         0       2       0       0
Total ram usage:        2 bytes
 Hardware stack levels used:    1
 Hardware stack levels required when called:    4
 This function calls:
		Nothing
 This function is called by:
		_RunUARTTXService
 This function uses a non-reentrant model


 *************** function _ES_Timer_InitTimer *****************
 Defined at:
		line 202 in file "ES_Timers.c"
 Parameters:    Size  Location     Type
  Num             1    wreg     unsigned char 
  NewTime         2    0[BANK0 ] unsigned int 
 Auto vars:     Size  Location     Type
  Num             1    3[BANK0 ] unsigned char 
 Return value:  Size  Location     Type
                  1    wreg      enum E1481
 Registers used:
		wreg, fsr0l, fsr0h, status,2, status,0, pclath
 Tracked objects:
		On entry : 
		On exit  : 
		Unchanged: 
 Data sizes:     COMMON   BANK0   BANK1   BANK2
      Params:         0       2       0       0
      Locals:         0       1       0       0
      Temps:          0       1       0       0
      Totals:         0       4       0       0
Total ram usage:        4 bytes
 Hardware stack levels used:    1
 Hardware stack levels required when called:    4
 This function calls:
		Nothing
 This function is called by:
		_RunUARTRXService
		_RunUARTTXService
		_RunPACSystemService
 This function uses a non-reentrant model


 *************** function _IsTimerPending *****************
 Defined at:
		line 78 in file "ES_Port.c"
 Parameters:    Size  Location     Type
		None
 Auto vars:     Size  Location     Type
		None
 Return value:  Size  Location     Type
                  1    wreg      unsigned char 
 Registers used:
		wreg, status,2, status,0
 Tracked objects:
		On entry : 
		On exit  : 
		Unchanged: 
 Data sizes:     COMMON   BANK0   BANK1   BANK2
      Params:         0       0       0       0
      Locals:         0       0       0       0
      Temps:          0       0       0       0
      Totals:         0       0       0       0
Total ram usage:        0 bytes
 Hardware stack levels used:    1
 Hardware stack levels required when called:    4
 This function calls:
		Nothing
 This function is called by:
		_ES_Run
 This function uses a non-reentrant model


 *************** function _ES_Timer_RTI_Resp *****************
 Defined at:
		line 256 in file "ES_Timers.c"
 Parameters:    Size  Location     Type
		None
 Auto vars:     Size  Location     Type
		None
 Return value:  Size  Location     Type
		None               void
 Registers used:
		wreg, fsr0l, fsr0h, status,2, status,0, btemp+1, pclath, cstack
 Tracked objects:
		On entry : 
		On exit  : 
		Unchanged: 
 Data sizes:     COMMON   BANK0   BANK1   BANK2
      Params:         0       1       0       0
      Locals:         0       0       0       0
      Temps:          0       3       0       0
      Totals:         0       4       0       0
Total ram usage:        4 bytes
 Hardware stack levels required when called:    8
 This function calls:
		Absolute function
		_ES_GetMSBitSet
		_PostPACSystemService
		_PostUARTRXService
		_PostUARTTXService
 This function is called by:
		_ES_Run
 This function uses a non-reentrant model


 *************** function _PostUARTTXService *****************
 Defined at:
		line 123 in file "UART_TX_SM.c"
 Parameters:    Size  Location     Type
  ThisEvent       3   28[BANK0 ] struct ES_Event_t
 Auto vars:     Size  Location     Type
		None
 Return value:  Size  Location     Type
                  1    wreg      unsigned char 
 Registers used:
		wreg, fsr0l, fsr0h, status,2, status,0, btemp+1, pclath, cstack
 Tracked objects:
		On entry : 
		On exit  : 
		Unchanged: 
 Data sizes:     COMMON   BANK0   BANK1   BANK2
      Params:         0       3       0       0
      Locals:         0       0       0       0
      Temps:          0       0       0       0
      Totals:         0       3       0       0
Total ram usage:        3 bytes
 Hardware stack levels used:    1
 Hardware stack levels required when called:    7
 This function calls:
		_ES_PostToService
 This function is called by:
		_RunUARTRXService
		_CheckSPIEvent
		_ES_Timer_RTI_Resp
 This function uses a non-reentrant model


 *************** function _PostUARTRXService *****************
 Defined at:
		line 152 in file "UART_RX_SM.c"
 Parameters:    Size  Location     Type
  ThisEvent       3   28[BANK0 ] struct ES_Event_t
 Auto vars:     Size  Location     Type
		None
 Return value:  Size  Location     Type
                  1    wreg      unsigned char 
 Registers used:
		wreg, fsr0l, fsr0h, status,2, status,0, btemp+1, pclath, cstack
 Tracked objects:
		On entry : 
		On exit  : 
		Unchanged: 
 Data sizes:     COMMON   BANK0   BANK1   BANK2
      Params:         0       3       0       0
      Locals:         0       0       0       0
      Temps:          0       0       0       0
      Totals:         0       3       0       0
Total ram usage:        3 bytes
 Hardware stack levels used:    1
 Hardware stack levels required when called:    7
 This function calls:
		_ES_PostToService
 This function is called by:
		_CheckUARTRXEvent
		_ES_Timer_RTI_Resp
 This function uses a non-reentrant model


 *************** function _PostPACSystemService *****************
 Defined at:
		line 92 in file "PACSystemService.c"
 Parameters:    Size  Location     Type
  ThisEvent       3   28[BANK0 ] struct ES_Event_t
 Auto vars:     Size  Location     Type
		None
 Return value:  Size  Location     Type
                  1    wreg      unsigned char 
 Registers used:
		wreg, fsr0l, fsr0h, status,2, status,0, btemp+1, pclath, cstack
 Tracked objects:
		On entry : 
		On exit  : 
		Unchanged: 
 Data sizes:     COMMON   BANK0   BANK1   BANK2
      Params:         0       3       0       0
      Locals:         0       0       0       0
      Temps:          0       0       0       0
      Totals:         0       3       0       0
Total ram usage:        3 bytes
 Hardware stack levels used:    1
 Hardware stack levels required when called:    7
 This function calls:
		_ES_PostToService
 This function is called by:
		_retrySend
		_ES_Timer_RTI_Resp
 This function uses a non-reentrant model


 *************** function _ES_GetMSBitSet *****************
 Defined at:
		line 78 in file "ES_LookupTables.c"
 Parameters:    Size  Location     Type
  Val2Check       1    wreg     unsigned char 
 Auto vars:     Size  Location     Type
  Val2Check       1    3[BANK0 ] unsigned char 
  LoopCntr        1    6[BANK0 ] char 
  Nybble2Test     1    5[BANK0 ] unsigned char 
  ReturnVal       1    4[BANK0 ] unsigned char 
 Return value:  Size  Location     Type
                  1    wreg      unsigned char 
 Registers used:
		wreg, fsr0l, fsr0h, status,2, status,0, pclath
 Tracked objects:
		On entry : 
		On exit  : 
		Unchanged: 
 Data sizes:     COMMON   BANK0   BANK1   BANK2
      Params:         0       0       0       0
      Locals:         0       4       0       0
      Temps:          0       3       0       0
      Totals:         0       7       0       0
Total ram usage:        7 bytes
 Hardware stack levels used:    1
 Hardware stack levels required when called:    4
 This function calls:
		Nothing
 This function is called by:
		_ES_Run
		_ES_Timer_RTI_Resp
 This function uses a non-reentrant model


 *************** function _ES_DeQueue *****************
 Defined at:
		line 125 in file "ES_Queue.c"
 Parameters:    Size  Location     Type
  pBlock          2    4[BANK0 ] PTR struct ES_Event_t
		 -> Queue3(12), Queue2(12), Queue1(12), Queue0(12), 
  pReturnEvent    1    6[BANK0 ] PTR struct ES_Event_t
		 -> ES_Run@ThisEvent(3), 
 Auto vars:     Size  Location     Type
  pThisQueue      2   19[BANK0 ] PTR struct .
		 -> Queue3(12), Queue2(12), Queue1(12), Queue0(12), 
  NumLeft         1   18[BANK0 ] unsigned char 
  saveCrit        1   17[BANK0 ] unsigned char 
 Return value:  Size  Location     Type
                  1    wreg      unsigned char 
 Registers used:
		wreg, fsr0l, fsr0h, status,2, status,0, pclath, cstack
 Tracked objects:
		On entry : 
		On exit  : 
		Unchanged: 
 Data sizes:     COMMON   BANK0   BANK1   BANK2
      Params:         0       3       0       0
      Locals:         0       4       0       0
      Temps:          0      10       0       0
      Totals:         0      17       0       0
Total ram usage:       17 bytes
 Hardware stack levels used:    1
 Hardware stack levels required when called:    5
 This function calls:
		___bmul
 This function is called by:
		_ES_Run
 This function uses a non-reentrant model


 *************** function _ES_CheckUserEvents *****************
 Defined at:
		line 46 in file "ES_CheckEvents.c"
 Parameters:    Size  Location     Type
		None
 Auto vars:     Size  Location     Type
		None
 Return value:  Size  Location     Type
                  1   38[BANK0 ] unsigned char 
 Registers used:
		wreg, fsr0l, fsr0h, status,2, status,0, btemp+1, pclath, cstack
 Tracked objects:
		On entry : 
		On exit  : 
		Unchanged: 
 Data sizes:     COMMON   BANK0   BANK1   BANK2
      Params:         0       1       0       0
      Locals:         0       0       0       0
      Temps:          0       0       0       0
      Totals:         0       1       0       0
Total ram usage:        1 bytes
 Hardware stack levels required when called:    8
 This function calls:
		_CheckSPIEvent
		_CheckUARTRXEvent
		_CheckUARTTXEvent
 This function is called by:
		_ES_Run
 This function uses a non-reentrant model


 *************** function _CheckUARTTXEvent *****************
 Defined at:
		line 282 in file "UART_TX_SM.c"
 Parameters:    Size  Location     Type
		None
 Auto vars:     Size  Location     Type
  TXEvent         3   29[BANK0 ] struct ES_Event_t
 Return value:  Size  Location     Type
                  1    wreg      unsigned char 
 Registers used:
		wreg, fsr0l, fsr0h, status,2, status,0, btemp+1, pclath, cstack
 Tracked objects:
		On entry : 
		On exit  : 
		Unchanged: 
 Data sizes:     COMMON   BANK0   BANK1   BANK2
      Params:         0       0       0       0
      Locals:         0       3       0       0
      Temps:          0       1       0       0
      Totals:         0       4       0       0
Total ram usage:        4 bytes
 Hardware stack levels used:    1
 Hardware stack levels required when called:    7
 This function calls:
		_ES_PostToService
 This function is called by:
		_ES_CheckUserEvents
 This function uses a non-reentrant model


 *************** function _CheckUARTRXEvent *****************
 Defined at:
		line 312 in file "UART_RX_SM.c"
 Parameters:    Size  Location     Type
		None
 Auto vars:     Size  Location     Type
  CommEvent       3   34[BANK0 ] struct ES_Event_t
 Return value:  Size  Location     Type
                  1   31[BANK0 ] unsigned char 
 Registers used:
		wreg, fsr0l, fsr0h, status,2, status,0, btemp+1, pclath, cstack
 Tracked objects:
		On entry : 
		On exit  : 
		Unchanged: 
 Data sizes:     COMMON   BANK0   BANK1   BANK2
      Params:         0       2       0       0
      Locals:         0       3       0       0
      Temps:          0       1       0       0
      Totals:         0       6       0       0
Total ram usage:        6 bytes
 Hardware stack levels required when called:    8
 This function calls:
		_PostUARTRXService
 This function is called by:
		_ES_CheckUserEvents
 This function uses a non-reentrant model


 *************** function _CheckSPIEvent *****************
 Defined at:
		line 287 in file "SPI_SM.c"
 Parameters:    Size  Location     Type
		None
 Auto vars:     Size  Location     Type
  SPIEvent        3   35[BANK0 ] struct ES_Event_t
 Return value:  Size  Location     Type
                  1   31[BANK0 ] unsigned char 
 Registers used:
		wreg, fsr0l, fsr0h, status,2, status,0, btemp+1, pclath, cstack
 Tracked objects:
		On entry : 
		On exit  : 
		Unchanged: 
 Data sizes:     COMMON   BANK0   BANK1   BANK2
      Params:         0       2       0       0
      Locals:         0       3       0       0
      Temps:          0       2       0       0
      Totals:         0       7       0       0
Total ram usage:        7 bytes
 Hardware stack levels required when called:    8
 This function calls:
		_PostUARTTXService
 This function is called by:
		_ES_CheckUserEvents
 This function uses a non-reentrant model


 *************** function _ES_Initialize *****************
 Defined at:
		line 189 in file "ES_Framework.c"
 Parameters:    Size  Location     Type
  NewRate         1   33[BANK0 ] enum E93
 Auto vars:     Size  Location     Type
  i               1   40[BANK0 ] unsigned char 
 Return value:  Size  Location     Type
                  1   33[BANK0 ] enum E1594
 Registers used:
		wreg, fsr0l, fsr0h, status,2, status,0, btemp+1, pclath, cstack
 Tracked objects:
		On entry : 
		On exit  : 
		Unchanged: 
 Data sizes:     COMMON   BANK0   BANK1   BANK2
      Params:         0       2       0       0
      Locals:         0       1       0       0
      Temps:          0       5       0       0
      Totals:         0       8       0       0
Total ram usage:        8 bytes
 Hardware stack levels required when called:    8
 This function calls:
		_ES_InitQueue
		_ES_Sys_Timer_Init
		_InitPACSystemService
		_InitSPIService
		_InitUARTRXService
		_InitUARTTXService
		___bmul
 This function is called by:
		_main
 This function uses a non-reentrant model


 *************** function _InitPACSystemService *****************
 Defined at:
		line 61 in file "PACSystemService.c"
 Parameters:    Size  Location     Type
  Priority        1   28[BANK0 ] unsigned char 
 Auto vars:     Size  Location     Type
  ThisEvent       3   30[BANK0 ] struct ES_Event_t
 Return value:  Size  Location     Type
                  1    wreg      unsigned char 
 Registers used:
		wreg, fsr0l, fsr0h, status,2, status,0, btemp+1, pclath, cstack
 Tracked objects:
		On entry : 
		On exit  : 
		Unchanged: 
 Data sizes:     COMMON   BANK0   BANK1   BANK2
      Params:         0       1       0       0
      Locals:         0       3       0       0
      Temps:          0       1       0       0
      Totals:         0       5       0       0
Total ram usage:        5 bytes
 Hardware stack levels used:    1
 Hardware stack levels required when called:    7
 This function calls:
		_ES_PostToService
 This function is called by:
		_ES_Initialize
 This function uses a non-reentrant model


 *************** function _InitSPIService *****************
 Defined at:
		line 83 in file "SPI_SM.c"
 Parameters:    Size  Location     Type
  Priority        1   28[BANK0 ] unsigned char 
 Auto vars:     Size  Location     Type
  ThisEvent       3   30[BANK0 ] struct ES_Event_t
 Return value:  Size  Location     Type
                  1    wreg      unsigned char 
 Registers used:
		wreg, fsr0l, fsr0h, status,2, status,0, btemp+1, pclath, cstack
 Tracked objects:
		On entry : 
		On exit  : 
		Unchanged: 
 Data sizes:     COMMON   BANK0   BANK1   BANK2
      Params:         0       1       0       0
      Locals:         0       3       0       0
      Temps:          0       1       0       0
      Totals:         0       5       0       0
Total ram usage:        5 bytes
 Hardware stack levels used:    1
 Hardware stack levels required when called:    7
 This function calls:
		_ES_PostToService
 This function is called by:
		_ES_Initialize
 This function uses a non-reentrant model


 *************** function _InitUARTRXService *****************
 Defined at:
		line 112 in file "UART_RX_SM.c"
 Parameters:    Size  Location     Type
  Priority        1   28[BANK0 ] unsigned char 
 Auto vars:     Size  Location     Type
  ThisEvent       3   30[BANK0 ] struct ES_Event_t
 Return value:  Size  Location     Type
                  1    wreg      unsigned char 
 Registers used:
		wreg, fsr0l, fsr0h, status,2, status,0, btemp+1, pclath, cstack
 Tracked objects:
		On entry : 
		On exit  : 
		Unchanged: 
 Data sizes:     COMMON   BANK0   BANK1   BANK2
      Params:         0       1       0       0
      Locals:         0       3       0       0
      Temps:          0       1       0       0
      Totals:         0       5       0       0
Total ram usage:        5 bytes
 Hardware stack levels used:    1
 Hardware stack levels required when called:    7
 This function calls:
		_ES_PostToService
		_toggleRXBuffer
		_toggleRespBuffer
		_toggleStatBuffer
 This function is called by:
		_ES_Initialize
 This function uses a non-reentrant model


 *************** function _InitUARTTXService *****************
 Defined at:
		line 89 in file "UART_TX_SM.c"
 Parameters:    Size  Location     Type
  Priority        1   28[BANK0 ] unsigned char 
 Auto vars:     Size  Location     Type
  ThisEvent       3   30[BANK0 ] struct ES_Event_t
 Return value:  Size  Location     Type
                  1    wreg      unsigned char 
 Registers used:
		wreg, fsr0l, fsr0h, status,2, status,0, btemp+1, pclath, cstack
 Tracked objects:
		On entry : 
		On exit  : 
		Unchanged: 
 Data sizes:     COMMON   BANK0   BANK1   BANK2
      Params:         0       1       0       0
      Locals:         0       3       0       0
      Temps:          0       1       0       0
      Totals:         0       5       0       0
Total ram usage:        5 bytes
 Hardware stack levels used:    1
 Hardware stack levels required when called:    7
 This function calls:
		_ES_PostToService
 This function is called by:
		_ES_Initialize
 This function uses a non-reentrant model


 *************** function _toggleStatBuffer *****************
 Defined at:
		line 340 in file "UART_RX_SM.c"
 Parameters:    Size  Location     Type
		None
 Auto vars:     Size  Location     Type
		None
 Return value:  Size  Location     Type
		None               void
 Registers used:
		wreg, status,2, status,0
 Tracked objects:
		On entry : 
		On exit  : 
		Unchanged: 
 Data sizes:     COMMON   BANK0   BANK1   BANK2
      Params:         0       0       0       0
      Locals:         0       0       0       0
      Temps:          0       0       0       0
      Totals:         0       0       0       0
Total ram usage:        0 bytes
 Hardware stack levels used:    1
 Hardware stack levels required when called:    4
 This function calls:
		Nothing
 This function is called by:
		_InitUARTRXService
		_RunUARTRXService
 This function uses a non-reentrant model


 *************** function _toggleRespBuffer *****************
 Defined at:
		line 350 in file "UART_RX_SM.c"
 Parameters:    Size  Location     Type
		None
 Auto vars:     Size  Location     Type
		None
 Return value:  Size  Location     Type
		None               void
 Registers used:
		wreg, status,2, status,0
 Tracked objects:
		On entry : 
		On exit  : 
		Unchanged: 
 Data sizes:     COMMON   BANK0   BANK1   BANK2
      Params:         0       0       0       0
      Locals:         0       0       0       0
      Temps:          0       0       0       0
      Totals:         0       0       0       0
Total ram usage:        0 bytes
 Hardware stack levels used:    1
 Hardware stack levels required when called:    4
 This function calls:
		Nothing
 This function is called by:
		_InitUARTRXService
		_RunUARTRXService
 This function uses a non-reentrant model


 *************** function _toggleRXBuffer *****************
 Defined at:
		line 330 in file "UART_RX_SM.c"
 Parameters:    Size  Location     Type
		None
 Auto vars:     Size  Location     Type
		None
 Return value:  Size  Location     Type
		None               void
 Registers used:
		wreg, status,2, status,0
 Tracked objects:
		On entry : 
		On exit  : 
		Unchanged: 
 Data sizes:     COMMON   BANK0   BANK1   BANK2
      Params:         0       0       0       0
      Locals:         0       0       0       0
      Temps:          0       0       0       0
      Totals:         0       0       0       0
Total ram usage:        0 bytes
 Hardware stack levels used:    1
 Hardware stack levels required when called:    4
 This function calls:
		Nothing
 This function is called by:
		_InitUARTRXService
 This function uses a non-reentrant model


 *************** function _ES_PostToService *****************
 Defined at:
		line 301 in file "ES_Framework.c"
 Parameters:    Size  Location     Type
  WhichService    1    wreg     unsigned char 
  TheEvent        3   19[BANK0 ] struct ES_Event_t
 Auto vars:     Size  Location     Type
  WhichService    1   27[BANK0 ] unsigned char 
 Return value:  Size  Location     Type
                  1    wreg      unsigned char 
 Registers used:
		wreg, fsr0l, fsr0h, status,2, status,0, btemp+1, pclath, cstack
 Tracked objects:
		On entry : 
		On exit  : 
		Unchanged: 
 Data sizes:     COMMON   BANK0   BANK1   BANK2
      Params:         0       3       0       0
      Locals:         0       3       0       0
      Temps:          0       3       0       0
      Totals:         0       9       0       0
Total ram usage:        9 bytes
 Hardware stack levels used:    1
 Hardware stack levels required when called:    6
 This function calls:
		_ES_EnQueueFIFO
		___bmul
 This function is called by:
		_InitUARTRXService
		_PostUARTRXService
		_InitUARTTXService
		_PostUARTTXService
		_CheckUARTTXEvent
		_InitPACSystemService
		_PostPACSystemService
		_InitSPIService
		_PostSPIService
 This function uses a non-reentrant model


 *************** function _ES_EnQueueFIFO *****************
 Defined at:
		line 83 in file "ES_Queue.c"
 Parameters:    Size  Location     Type
  pBlock          2    4[BANK0 ] PTR struct ES_Event_t
		 -> Queue3(12), Queue2(12), Queue1(12), Queue0(12), 
  Event2Add       3    6[BANK0 ] struct ES_Event_t
 Auto vars:     Size  Location     Type
  pThisQueue      2   17[BANK0 ] PTR struct .
		 -> Queue3(12), Queue2(12), Queue1(12), Queue0(12), 
  InsertionPoi    1   16[BANK0 ] unsigned char 
  saveCrit        1   15[BANK0 ] unsigned char 
 Return value:  Size  Location     Type
                  1    wreg      unsigned char 
 Registers used:
		wreg, fsr0l, fsr0h, status,2, status,0, pclath, cstack
 Tracked objects:
		On entry : 
		On exit  : 
		Unchanged: 
 Data sizes:     COMMON   BANK0   BANK1   BANK2
      Params:         0       5       0       0
      Locals:         0       4       0       0
      Temps:          0       6       0       0
      Totals:         0      15       0       0
Total ram usage:       15 bytes
 Hardware stack levels used:    1
 Hardware stack levels required when called:    5
 This function calls:
		___bmul
 This function is called by:
		_ES_PostToService
		_ES_PostAll
 This function uses a non-reentrant model


 *************** function ___bmul *****************
 Defined at:
		line 4 in file "C:\Program Files (x86)\Microchip\xc8\v1.35\sources\common\Umul8.c"
 Parameters:    Size  Location     Type
  multiplier      1    wreg     unsigned char 
  multiplicand    1    0[BANK0 ] unsigned char 
 Auto vars:     Size  Location     Type
  multiplier      1    3[BANK0 ] unsigned char 
  product         1    2[BANK0 ] unsigned char 
 Return value:  Size  Location     Type
                  1    wreg      unsigned char 
 Registers used:
		wreg, status,2, status,0
 Tracked objects:
		On entry : 
		On exit  : 
		Unchanged: 
 Data sizes:     COMMON   BANK0   BANK1   BANK2
      Params:         0       1       0       0
      Locals:         0       2       0       0
      Temps:          0       1       0       0
      Totals:         0       4       0       0
Total ram usage:        4 bytes
 Hardware stack levels used:    1
 Hardware stack levels required when called:    4
 This function calls:
		Nothing
 This function is called by:
		_ES_Initialize
		_ES_Run
		_ES_PostToService
		_ES_EnQueueFIFO
		_ES_DeQueue
		_RunUARTRXService
		_RX_getStatusBuffer
		_RX_getResponseBuffer
		_UARTRXIntResponse
		_ES_PostAll
 This function uses a non-reentrant model


 *************** function _ES_Sys_Timer_Init *****************
 Defined at:
		line 25 in file "ES_Port.c"
 Parameters:    Size  Location     Type
		None
 Auto vars:     Size  Location     Type
		None
 Return value:  Size  Location     Type
		None               void
 Registers used:
		status,2
 Tracked objects:
		On entry : 
		On exit  : 
		Unchanged: 
 Data sizes:     COMMON   BANK0   BANK1   BANK2
      Params:         0       0       0       0
      Locals:         0       0       0       0
      Temps:          0       0       0       0
      Totals:         0       0       0       0
Total ram usage:        0 bytes
 Hardware stack levels used:    1
 Hardware stack levels required when called:    4
 This function calls:
		Nothing
 This function is called by:
		_ES_Initialize
 This function uses a non-reentrant model


 *************** function _ES_InitQueue *****************
 Defined at:
		line 56 in file "ES_Queue.c"
 Parameters:    Size  Location     Type
  pBlock          2    4[BANK0 ] PTR struct ES_Event_t
		 -> Queue3(12), Queue2(12), Queue1(12), Queue0(12), 
  BlockSize       1    6[BANK0 ] unsigned char 
 Auto vars:     Size  Location     Type
  pThisQueue      2    9[BANK0 ] PTR struct .
		 -> Queue3(12), Queue2(12), Queue1(12), Queue0(12), 
 Return value:  Size  Location     Type
                  1    wreg      unsigned char 
 Registers used:
		wreg, fsr0l, fsr0h, status,2, status,0
 Tracked objects:
		On entry : 
		On exit  : 
		Unchanged: 
 Data sizes:     COMMON   BANK0   BANK1   BANK2
      Params:         0       3       0       0
      Locals:         0       2       0       0
      Temps:          0       2       0       0
      Totals:         0       7       0       0
Total ram usage:        7 bytes
 Hardware stack levels used:    1
 Hardware stack levels required when called:    4
 This function calls:
		Nothing
 This function is called by:
		_ES_Initialize
 This function uses a non-reentrant model


 *************** function _ISR *****************
 Defined at:
		line 54 in file "ES_Port.c"
 Parameters:    Size  Location     Type
		None
 Auto vars:     Size  Location     Type
		None
 Return value:  Size  Location     Type
		None               void
 Registers used:
		wreg, fsr0l, fsr0h, status,2, status,0, pclath, cstack
 Tracked objects:
		On entry : 
		On exit  : 
		Unchanged: 
 Data sizes:     COMMON   BANK0   BANK1   BANK2
      Params:         0       0       0       0
      Locals:         0       0       0       0
      Temps:          5       0       0       0
      Totals:         5       0       0       0
Total ram usage:        5 bytes
 Hardware stack levels used:    1
 Hardware stack levels required when called:    3
 This function calls:
		_SPIIntResponse
		_UARTRXIntResponse
		_UARTTXIntResponse
 This function is called by:
		Interrupt level 1
 This function uses a non-reentrant model


 *************** function _UARTTXIntResponse *****************
 Defined at:
		line 273 in file "UART_TX_SM.c"
 Parameters:    Size  Location     Type
		None
 Auto vars:     Size  Location     Type
		None
 Return value:  Size  Location     Type
		None               void
 Registers used:
		wreg, fsr0l, fsr0h, status,2, status,0
 Tracked objects:
		On entry : 
		On exit  : 
		Unchanged: 
 Data sizes:     COMMON   BANK0   BANK1   BANK2
      Params:         0       0       0       0
      Locals:         0       0       0       0
      Temps:          1       0       0       0
      Totals:         1       0       0       0
Total ram usage:        1 bytes
 Hardware stack levels used:    1
 This function calls:
		Nothing
 This function is called by:
		_ISR
 This function uses a non-reentrant model


 *************** function _UARTRXIntResponse *****************
 Defined at:
		line 257 in file "UART_RX_SM.c"
 Parameters:    Size  Location     Type
		None
 Auto vars:     Size  Location     Type
  newByte         1    7[COMMON] unsigned char 
 Return value:  Size  Location     Type
		None               void
 Registers used:
		wreg, fsr0l, fsr0h, status,2, status,0, pclath, cstack
 Tracked objects:
		On entry : 
		On exit  : 
		Unchanged: 
 Data sizes:     COMMON   BANK0   BANK1   BANK2
      Params:         0       0       0       0
      Locals:         1       0       0       0
      Temps:          3       0       0       0
      Totals:         4       0       0       0
Total ram usage:        4 bytes
 Hardware stack levels used:    1
 Hardware stack levels required when called:    1
 This function calls:
		i1___bmul
		i1_toggleRXBuffer
 This function is called by:
		_ISR
 This function uses a non-reentrant model


 *************** function i1_toggleRXBuffer *****************
 Defined at:
		line 330 in file "UART_RX_SM.c"
 Parameters:    Size  Location     Type
		None
 Auto vars:     Size  Location     Type
		None
 Return value:  Size  Location     Type
		None               void
 Registers used:
		wreg, status,2, status,0
 Tracked objects:
		On entry : 
		On exit  : 
		Unchanged: 
 Data sizes:     COMMON   BANK0   BANK1   BANK2
      Params:         0       0       0       0
      Locals:         0       0       0       0
      Temps:          0       0       0       0
      Totals:         0       0       0       0
Total ram usage:        0 bytes
 Hardware stack levels used:    1
 This function calls:
		Nothing
 This function is called by:
		_UARTRXIntResponse
 This function uses a non-reentrant model


 *************** function _SPIIntResponse *****************
 Defined at:
		line 179 in file "SPI_SM.c"
 Parameters:    Size  Location     Type
		None
 Auto vars:     Size  Location     Type
  readByte        1    6[COMMON] unsigned char 
 Return value:  Size  Location     Type
		None               void
 Registers used:
		wreg, fsr0l, fsr0h, status,2, status,0, pclath, cstack
 Tracked objects:
		On entry : 
		On exit  : 
		Unchanged: 
 Data sizes:     COMMON   BANK0   BANK1   BANK2
      Params:         0       0       0       0
      Locals:         1       0       0       0
      Temps:          1       0       0       0
      Totals:         2       0       0       0
Total ram usage:        2 bytes
 Hardware stack levels used:    1
 Hardware stack levels required when called:    2
 This function calls:
		_RX_clearResponseReady
		_RX_getResponseBuffer
		_RX_getStatusBuffer
		_RX_newResponseReady
 This function is called by:
		_ISR
 This function uses a non-reentrant model


 *************** function _RX_newResponseReady *****************
 Defined at:
		line 241 in file "UART_RX_SM.c"
 Parameters:    Size  Location     Type
		None
 Auto vars:     Size  Location     Type
		None
 Return value:  Size  Location     Type
                  1    wreg      unsigned char 
 Registers used:
		wreg
 Tracked objects:
		On entry : 
		On exit  : 
		Unchanged: 
 Data sizes:     COMMON   BANK0   BANK1   BANK2
      Params:         0       0       0       0
      Locals:         0       0       0       0
      Temps:          0       0       0       0
      Totals:         0       0       0       0
Total ram usage:        0 bytes
 Hardware stack levels used:    1
 This function calls:
		Nothing
 This function is called by:
		_SPIIntResponse
 This function uses a non-reentrant model


 *************** function _RX_getStatusBuffer *****************
 Defined at:
		line 249 in file "UART_RX_SM.c"
 Parameters:    Size  Location     Type
		None
 Auto vars:     Size  Location     Type
		None
 Return value:  Size  Location     Type
                  1    wreg      PTR unsigned char 
 Registers used:
		wreg, status,2, status,0, pclath, cstack
 Tracked objects:
		On entry : 
		On exit  : 
		Unchanged: 
 Data sizes:     COMMON   BANK0   BANK1   BANK2
      Params:         0       0       0       0
      Locals:         0       0       0       0
      Temps:          1       0       0       0
      Totals:         1       0       0       0
Total ram usage:        1 bytes
 Hardware stack levels used:    1
 Hardware stack levels required when called:    1
 This function calls:
		i1___bmul
 This function is called by:
		_SPIIntResponse
 This function uses a non-reentrant model


 *************** function _RX_getResponseBuffer *****************
 Defined at:
		line 253 in file "UART_RX_SM.c"
 Parameters:    Size  Location     Type
		None
 Auto vars:     Size  Location     Type
		None
 Return value:  Size  Location     Type
                  1    wreg      PTR unsigned char 
 Registers used:
		wreg, status,2, status,0, pclath, cstack
 Tracked objects:
		On entry : 
		On exit  : 
		Unchanged: 
 Data sizes:     COMMON   BANK0   BANK1   BANK2
      Params:         0       0       0       0
      Locals:         0       0       0       0
      Temps:          1       0       0       0
      Totals:         1       0       0       0
Total ram usage:        1 bytes
 Hardware stack levels used:    1
 Hardware stack levels required when called:    1
 This function calls:
		i1___bmul
 This function is called by:
		_SPIIntResponse
 This function uses a non-reentrant model


 *************** function i1___bmul *****************
 Defined at:
		line 4 in file "C:\Program Files (x86)\Microchip\xc8\v1.35\sources\common\Umul8.c"
 Parameters:    Size  Location     Type
  multiplier      1    wreg     unsigned char 
  multiplicand    1    0[COMMON] unsigned char 
 Auto vars:     Size  Location     Type
  multiplier      1    2[COMMON] unsigned char 
  __bmul          1    3[COMMON] unsigned char 
 Return value:  Size  Location     Type
                  1    wreg      unsigned char 
 Registers used:
		wreg, status,2, status,0
 Tracked objects:
		On entry : 
		On exit  : 
		Unchanged: 
 Data sizes:     COMMON   BANK0   BANK1   BANK2
      Params:         1       0       0       0
      Locals:         2       0       0       0
      Temps:          1       0       0       0
      Totals:         4       0       0       0
Total ram usage:        4 bytes
 Hardware stack levels used:    1
 This function calls:
		Nothing
 This function is called by:
		_RX_getStatusBuffer
		_RX_getResponseBuffer
		_UARTRXIntResponse
 This function uses a non-reentrant model


 *************** function _RX_clearResponseReady *****************
 Defined at:
		line 245 in file "UART_RX_SM.c"
 Parameters:    Size  Location     Type
		None
 Auto vars:     Size  Location     Type
		None
 Return value:  Size  Location     Type
		None               void
 Registers used:
		status,2
 Tracked objects:
		On entry : 
		On exit  : 
		Unchanged: 
 Data sizes:     COMMON   BANK0   BANK1   BANK2
      Params:         0       0       0       0
      Locals:         0       0       0       0
      Temps:          0       0       0       0
      Totals:         0       0       0       0
Total ram usage:        0 bytes
 Hardware stack levels used:    1
 This function calls:
		Nothing
 This function is called by:
		_SPIIntResponse
 This function uses a non-reentrant model



MODULE INFORMATION

Module		Function		Class		Link	Load	Size
ES_Queue.c
		_ES_EnQueueFIFO		CODE           	0484	0000	134
		_ES_DeQueue    		CODE           	0F59	0000	168
		_ES_InitQueue  		CODE           	03DC	0000	44

ES_Queue.c estimated size: 346

ES_CheckEvents.c
		_ES_CheckUserEvents		CODE           	0ED2	0000	29

ES_CheckEvents.c estimated size: 29

ES_LookupTables.c
		_ES_GetMSBitSet		CODE           	00AC	0000	63

ES_LookupTables.c estimated size: 63

ES_Framework.c
		_ES_PostToService		CODE           	044F	0000	54
		_ES_Run        		CODE           	0122	0000	122
		_ES_Initialize 		CODE           	019B	0000	112

ES_Framework.c estimated size: 288

UART_RX_SM.c
		_toggleRXBuffer		CODE           	0000	0000	1
		_UARTRXIntResponse		CODE           	0000	0000	1
		_RX_clearResponseReady		CODE           	0000	0000	1
		_InitUARTRXService		CODE           	0E85	0000	78
		_CheckUARTRXEvent		CODE           	0F32	0000	29
		_RX_newResponseReady		CODE           	0000	0000	1
		_toggleStatBuffer		CODE           	0000	0000	1
		_RunUARTRXService		CODE           	020A	0000	439
		_RX_getStatusBuffer		CODE           	06C3	0000	10
		_PostUARTRXService		CODE           	0F4E	0000	12
		_toggleRespBuffer		CODE           	0000	0000	1
		_RX_getResponseBuffer		CODE           	06BA	0000	10

UART_RX_SM.c estimated size: 584

PACSystemService.c
		_PostPACSystemService		CODE           	07D2	0000	12
		_RunPACSystemService		CODE           	0E41	0000	69
		_InitPACSystemService		CODE           	00EA	0000	22

PACSystemService.c estimated size: 103

shared
		_BitNum2SetMask		STRING         	0821	0000	9
		__stringtab    		STRING         	0800	0000	7
		_TMR_MaskArray 		STRING         	0000	0000	0
		_ES_EventList  		STRING         	0000	0000	0
		_Nybble2MSBitNum		STRING         	0806	0000	16
		_EventQueues   		STRING         	0815	0000	13
		__initialization		CODE           	0013	0000	33
		_Timer2PostFunc		STRING         	0839	0000	9
		__fptable      		CODE           	0100	0000	35
		i1___bmul      		CODE           	06AA	0000	17
		_ServDescList  		STRING         	0829	0000	9
		i1_toggleRXBuffer		CODE           	0000	0000	1
		_pPostKeyFunc  		STRING         	0000	0000	0

shared estimated size: 149

SPI_SM.c
		_CheckSPIEvent 		CODE           	0F07	0000	44
		_RunSPIService 		CODE           	0D9A	0000	14
		_SPIIntResponse		CODE           	0000	0000	1
		_InitSPIService		CODE           	0DE8	0000	45

SPI_SM.c estimated size: 104

ES_Port.c
		_ISR           		CODE           	0511	0000	410
		_IsTimerPending		CODE           	0509	0000	9
		_ES_Sys_Timer_Init		CODE           	0407	0000	34

ES_Port.c estimated size: 453

ES_Timers.c
		_ES_Timer_RTI_Resp		CODE           	0036	0000	119
		_ES_Timer_InitTimer		CODE           	0428	0000	40

ES_Timers.c estimated size: 159

main.c
		_main          		CODE           	0E14	0000	46

main.c estimated size: 46

UART_TX_SM.c
		_retrySend     		CODE           	07B5	0000	30
		_TX_clearXBeePacket		CODE           	0796	0000	7
		_InitUARTTXService		CODE           	0DB7	0000	24
		_UARTTXIntResponse		CODE           	0000	0000	1
		_CheckUARTTXEvent		CODE           	0EEE	0000	26
		_TX_getChecksum		CODE           	079C	0000	26
		_superPACAddrSet		CODE           	07DD	0000	31
		_RunUARTTXService		CODE           	06CC	0000	183
		_PostUARTTXService		CODE           	03D2	0000	11
		_TX_appendXBeePacket		CODE           	0782	0000	21

UART_TX_SM.c estimated size: 360

C:\Program Files (x86)\Microchip\xc8\v1.35\sources\common\Umul8.c
		___bmul        		CODE           	03C0	0000	19

C:\Program Files (x86)\Microchip\xc8\v1.35\sources\common\Umul8.c estimated size: 19

sci.c
		_USART_Init    		CODE           	0DCE	0000	27

sci.c estimated size: 27

